{
	"EnhancedStaking.sol": {
		"EnhancedStaking": {
			"abi": [
				{
					"inputs": [
						{
							"internalType": "address",
							"name": "_stakingWallet",
							"type": "address"
						}
					],
					"stateMutability": "nonpayable",
					"type": "constructor"
				},
				{
					"inputs": [
						{
							"internalType": "address",
							"name": "owner",
							"type": "address"
						}
					],
					"name": "OwnableInvalidOwner",
					"type": "error"
				},
				{
					"inputs": [
						{
							"internalType": "address",
							"name": "account",
							"type": "address"
						}
					],
					"name": "OwnableUnauthorizedAccount",
					"type": "error"
				},
				{
					"anonymous": false,
					"inputs": [
						{
							"indexed": false,
							"internalType": "uint256",
							"name": "oldPeriod",
							"type": "uint256"
						},
						{
							"indexed": false,
							"internalType": "uint256",
							"name": "newPeriod",
							"type": "uint256"
						}
					],
					"name": "CooldownPeriodChanged",
					"type": "event"
				},
				{
					"anonymous": false,
					"inputs": [
						{
							"indexed": false,
							"internalType": "uint256",
							"name": "oldAmount",
							"type": "uint256"
						},
						{
							"indexed": false,
							"internalType": "uint256",
							"name": "newAmount",
							"type": "uint256"
						}
					],
					"name": "MaxStakeAmountChanged",
					"type": "event"
				},
				{
					"anonymous": false,
					"inputs": [
						{
							"indexed": false,
							"internalType": "uint256",
							"name": "oldAmount",
							"type": "uint256"
						},
						{
							"indexed": false,
							"internalType": "uint256",
							"name": "newAmount",
							"type": "uint256"
						}
					],
					"name": "MinStakeAmountChanged",
					"type": "event"
				},
				{
					"anonymous": false,
					"inputs": [
						{
							"indexed": true,
							"internalType": "address",
							"name": "previousOwner",
							"type": "address"
						},
						{
							"indexed": true,
							"internalType": "address",
							"name": "newOwner",
							"type": "address"
						}
					],
					"name": "OwnershipTransferred",
					"type": "event"
				},
				{
					"anonymous": false,
					"inputs": [
						{
							"indexed": false,
							"internalType": "address",
							"name": "account",
							"type": "address"
						}
					],
					"name": "Paused",
					"type": "event"
				},
				{
					"anonymous": false,
					"inputs": [
						{
							"indexed": true,
							"internalType": "address",
							"name": "user",
							"type": "address"
						},
						{
							"indexed": false,
							"internalType": "uint256",
							"name": "amount",
							"type": "uint256"
						}
					],
					"name": "Staked",
					"type": "event"
				},
				{
					"anonymous": false,
					"inputs": [
						{
							"indexed": true,
							"internalType": "address",
							"name": "oldWallet",
							"type": "address"
						},
						{
							"indexed": true,
							"internalType": "address",
							"name": "newWallet",
							"type": "address"
						}
					],
					"name": "StakingWalletChanged",
					"type": "event"
				},
				{
					"anonymous": false,
					"inputs": [
						{
							"indexed": false,
							"internalType": "address",
							"name": "account",
							"type": "address"
						}
					],
					"name": "Unpaused",
					"type": "event"
				},
				{
					"anonymous": false,
					"inputs": [
						{
							"indexed": true,
							"internalType": "address",
							"name": "user",
							"type": "address"
						},
						{
							"indexed": false,
							"internalType": "uint256",
							"name": "amount",
							"type": "uint256"
						}
					],
					"name": "Withdrawn",
					"type": "event"
				},
				{
					"inputs": [
						{
							"internalType": "address",
							"name": "newWallet",
							"type": "address"
						}
					],
					"name": "changeStakingWallet",
					"outputs": [],
					"stateMutability": "nonpayable",
					"type": "function"
				},
				{
					"inputs": [],
					"name": "cooldownPeriod",
					"outputs": [
						{
							"internalType": "uint256",
							"name": "",
							"type": "uint256"
						}
					],
					"stateMutability": "view",
					"type": "function"
				},
				{
					"inputs": [
						{
							"internalType": "address",
							"name": "user",
							"type": "address"
						}
					],
					"name": "getStake",
					"outputs": [
						{
							"internalType": "uint256",
							"name": "",
							"type": "uint256"
						}
					],
					"stateMutability": "view",
					"type": "function"
				},
				{
					"inputs": [
						{
							"internalType": "address",
							"name": "",
							"type": "address"
						}
					],
					"name": "lastWithdrawalTime",
					"outputs": [
						{
							"internalType": "uint256",
							"name": "",
							"type": "uint256"
						}
					],
					"stateMutability": "view",
					"type": "function"
				},
				{
					"inputs": [],
					"name": "maxStakeAmount",
					"outputs": [
						{
							"internalType": "uint256",
							"name": "",
							"type": "uint256"
						}
					],
					"stateMutability": "view",
					"type": "function"
				},
				{
					"inputs": [],
					"name": "minStakeAmount",
					"outputs": [
						{
							"internalType": "uint256",
							"name": "",
							"type": "uint256"
						}
					],
					"stateMutability": "view",
					"type": "function"
				},
				{
					"inputs": [],
					"name": "owner",
					"outputs": [
						{
							"internalType": "address",
							"name": "",
							"type": "address"
						}
					],
					"stateMutability": "view",
					"type": "function"
				},
				{
					"inputs": [],
					"name": "pause",
					"outputs": [],
					"stateMutability": "nonpayable",
					"type": "function"
				},
				{
					"inputs": [],
					"name": "paused",
					"outputs": [
						{
							"internalType": "bool",
							"name": "",
							"type": "bool"
						}
					],
					"stateMutability": "view",
					"type": "function"
				},
				{
					"inputs": [],
					"name": "renounceOwnership",
					"outputs": [],
					"stateMutability": "nonpayable",
					"type": "function"
				},
				{
					"inputs": [
						{
							"internalType": "uint256",
							"name": "newPeriod",
							"type": "uint256"
						}
					],
					"name": "setCooldownPeriod",
					"outputs": [],
					"stateMutability": "nonpayable",
					"type": "function"
				},
				{
					"inputs": [
						{
							"internalType": "uint256",
							"name": "newAmount",
							"type": "uint256"
						}
					],
					"name": "setMaxStakeAmount",
					"outputs": [],
					"stateMutability": "nonpayable",
					"type": "function"
				},
				{
					"inputs": [
						{
							"internalType": "uint256",
							"name": "newAmount",
							"type": "uint256"
						}
					],
					"name": "setMinStakeAmount",
					"outputs": [],
					"stateMutability": "nonpayable",
					"type": "function"
				},
				{
					"inputs": [],
					"name": "stake",
					"outputs": [],
					"stateMutability": "payable",
					"type": "function"
				},
				{
					"inputs": [
						{
							"internalType": "address",
							"name": "",
							"type": "address"
						}
					],
					"name": "stakes",
					"outputs": [
						{
							"internalType": "uint256",
							"name": "",
							"type": "uint256"
						}
					],
					"stateMutability": "view",
					"type": "function"
				},
				{
					"inputs": [],
					"name": "stakingWallet",
					"outputs": [
						{
							"internalType": "address",
							"name": "",
							"type": "address"
						}
					],
					"stateMutability": "view",
					"type": "function"
				},
				{
					"inputs": [],
					"name": "totalStaked",
					"outputs": [
						{
							"internalType": "uint256",
							"name": "",
							"type": "uint256"
						}
					],
					"stateMutability": "view",
					"type": "function"
				},
				{
					"inputs": [
						{
							"internalType": "address",
							"name": "newOwner",
							"type": "address"
						}
					],
					"name": "transferOwnership",
					"outputs": [],
					"stateMutability": "nonpayable",
					"type": "function"
				},
				{
					"inputs": [],
					"name": "unpause",
					"outputs": [],
					"stateMutability": "nonpayable",
					"type": "function"
				},
				{
					"inputs": [
						{
							"internalType": "uint256",
							"name": "amount",
							"type": "uint256"
						}
					],
					"name": "withdraw",
					"outputs": [],
					"stateMutability": "nonpayable",
					"type": "function"
				},
				{
					"stateMutability": "payable",
					"type": "receive"
				}
			],
			"devdoc": {
				"errors": {
					"OwnableInvalidOwner(address)": [
						{
							"details": "The owner is not a valid owner account. (eg. `address(0)`)"
						}
					],
					"OwnableUnauthorizedAccount(address)": [
						{
							"details": "The caller account is not authorized to perform an operation."
						}
					]
				},
				"events": {
					"Paused(address)": {
						"details": "Emitted when the pause is triggered by `account`."
					},
					"Unpaused(address)": {
						"details": "Emitted when the pause is lifted by `account`."
					}
				},
				"kind": "dev",
				"methods": {
					"owner()": {
						"details": "Returns the address of the current owner."
					},
					"paused()": {
						"details": "Returns true if the contract is paused, and false otherwise."
					},
					"renounceOwnership()": {
						"details": "Leaves the contract without owner. It will not be possible to call `onlyOwner` functions. Can only be called by the current owner. NOTE: Renouncing ownership will leave the contract without an owner, thereby disabling any functionality that is only available to the owner."
					},
					"transferOwnership(address)": {
						"details": "Transfers ownership of the contract to a new account (`newOwner`). Can only be called by the current owner."
					}
				},
				"version": 1
			},
			"evm": {
				"assembly": "    /* \"EnhancedStaking.sol\":288:4019  contract EnhancedStaking is ReentrancyGuard, Ownable, Pausable {... */\n  mstore(0x40, 0x80)\n    /* \"EnhancedStaking.sol\":1083:1377  constructor(address _stakingWallet) Ownable(_stakingWallet) {... */\n  callvalue\n  dup1\n  iszero\n  tag_1\n  jumpi\n  0x00\n  dup1\n  revert\ntag_1:\n  pop\n  mload(0x40)\n  sub(codesize, bytecodeSize)\n  dup1\n  bytecodeSize\n  dup4\n  codecopy\n  dup2\n  dup2\n  add\n  0x40\n  mstore\n  dup2\n  add\n  swap1\n  tag_2\n  swap2\n  swap1\n  tag_3\n  jump\t// in\ntag_2:\n    /* \"EnhancedStaking.sol\":1127:1141  _stakingWallet */\n  dup1\n    /* \"@openzeppelin/contracts/security/ReentrancyGuard.sol\":1716:1717  1 */\n  0x01\n    /* \"@openzeppelin/contracts/security/ReentrancyGuard.sol\":1821:1828  _status */\n  0x00\n    /* \"@openzeppelin/contracts/security/ReentrancyGuard.sol\":1821:1843  _status = _NOT_ENTERED */\n  dup2\n  swap1\n  sstore\n  pop\n    /* \"@openzeppelin/contracts/access/Ownable.sol\":1297:1298  0 */\n  0x00\n    /* \"@openzeppelin/contracts/access/Ownable.sol\":1273:1299  initialOwner == address(0) */\n  0xffffffffffffffffffffffffffffffffffffffff\n  and\n    /* \"@openzeppelin/contracts/access/Ownable.sol\":1273:1285  initialOwner */\n  dup2\n    /* \"@openzeppelin/contracts/access/Ownable.sol\":1273:1299  initialOwner == address(0) */\n  0xffffffffffffffffffffffffffffffffffffffff\n  and\n  sub\n    /* \"@openzeppelin/contracts/access/Ownable.sol\":1269:1364  if (initialOwner == address(0)) {... */\n  tag_10\n  jumpi\n    /* \"@openzeppelin/contracts/access/Ownable.sol\":1350:1351  0 */\n  0x00\n    /* \"@openzeppelin/contracts/access/Ownable.sol\":1322:1353  OwnableInvalidOwner(address(0)) */\n  mload(0x40)\n  0x1e4fbdf700000000000000000000000000000000000000000000000000000000\n  dup2\n  mstore\n  0x04\n  add\n  tag_11\n  swap2\n  swap1\n  tag_12\n  jump\t// in\ntag_11:\n  mload(0x40)\n  dup1\n  swap2\n  sub\n  swap1\n  revert\n    /* \"@openzeppelin/contracts/access/Ownable.sol\":1269:1364  if (initialOwner == address(0)) {... */\ntag_10:\n    /* \"@openzeppelin/contracts/access/Ownable.sol\":1373:1405  _transferOwnership(initialOwner) */\n  tag_13\n    /* \"@openzeppelin/contracts/access/Ownable.sol\":1392:1404  initialOwner */\n  dup2\n    /* \"@openzeppelin/contracts/access/Ownable.sol\":1373:1391  _transferOwnership */\n  shl(0x20, tag_14)\n    /* \"@openzeppelin/contracts/access/Ownable.sol\":1373:1405  _transferOwnership(initialOwner) */\n  0x20\n  shr\n  jump\t// in\ntag_13:\n    /* \"@openzeppelin/contracts/access/Ownable.sol\":1225:1412  constructor(address initialOwner) {... */\n  pop\n    /* \"@openzeppelin/contracts/security/Pausable.sol\":1006:1011  false */\n  0x00\n    /* \"@openzeppelin/contracts/security/Pausable.sol\":996:1003  _paused */\n  0x01\n  0x14\n    /* \"@openzeppelin/contracts/security/Pausable.sol\":996:1011  _paused = false */\n  0x0100\n  exp\n  dup2\n  sload\n  dup2\n  0xff\n  mul\n  not\n  and\n  swap1\n  dup4\n  iszero\n  iszero\n  mul\n  or\n  swap1\n  sstore\n  pop\n    /* \"EnhancedStaking.sol\":1187:1188  0 */\n  0x00\n    /* \"EnhancedStaking.sol\":1161:1189  _stakingWallet != address(0) */\n  0xffffffffffffffffffffffffffffffffffffffff\n  and\n    /* \"EnhancedStaking.sol\":1161:1175  _stakingWallet */\n  dup2\n    /* \"EnhancedStaking.sol\":1161:1189  _stakingWallet != address(0) */\n  0xffffffffffffffffffffffffffffffffffffffff\n  and\n  sub\n    /* \"EnhancedStaking.sol\":1153:1224  require(_stakingWallet != address(0), \"Invalid staking wallet address\") */\n  tag_17\n  jumpi\n  mload(0x40)\n  0x08c379a000000000000000000000000000000000000000000000000000000000\n  dup2\n  mstore\n  0x04\n  add\n  tag_18\n  swap1\n  tag_19\n  jump\t// in\ntag_18:\n  mload(0x40)\n  dup1\n  swap2\n  sub\n  swap1\n  revert\ntag_17:\n    /* \"EnhancedStaking.sol\":1250:1264  _stakingWallet */\n  dup1\n    /* \"EnhancedStaking.sol\":1234:1247  stakingWallet */\n  0x02\n  0x00\n    /* \"EnhancedStaking.sol\":1234:1264  stakingWallet = _stakingWallet */\n  0x0100\n  exp\n  dup2\n  sload\n  dup2\n  0xffffffffffffffffffffffffffffffffffffffff\n  mul\n  not\n  and\n  swap1\n  dup4\n  0xffffffffffffffffffffffffffffffffffffffff\n  and\n  mul\n  or\n  swap1\n  sstore\n  pop\n    /* \"EnhancedStaking.sol\":1291:1301  0.05 ether */\n  0xb1a2bc2ec50000\n    /* \"EnhancedStaking.sol\":1274:1288  minStakeAmount */\n  0x05\n    /* \"EnhancedStaking.sol\":1274:1301  minStakeAmount = 0.05 ether */\n  dup2\n  swap1\n  sstore\n  pop\n    /* \"EnhancedStaking.sol\":1328:1337  100 ether */\n  0x056bc75e2d63100000\n    /* \"EnhancedStaking.sol\":1311:1325  maxStakeAmount */\n  0x06\n    /* \"EnhancedStaking.sol\":1311:1337  maxStakeAmount = 100 ether */\n  dup2\n  swap1\n  sstore\n  pop\n    /* \"EnhancedStaking.sol\":1364:1370  1 days */\n  0x015180\n    /* \"EnhancedStaking.sol\":1347:1361  cooldownPeriod */\n  0x07\n    /* \"EnhancedStaking.sol\":1347:1370  cooldownPeriod = 1 days */\n  dup2\n  swap1\n  sstore\n  pop\n    /* \"EnhancedStaking.sol\":1083:1377  constructor(address _stakingWallet) Ownable(_stakingWallet) {... */\n  pop\n    /* \"EnhancedStaking.sol\":288:4019  contract EnhancedStaking is ReentrancyGuard, Ownable, Pausable {... */\n  jump(tag_20)\n    /* \"@openzeppelin/contracts/access/Ownable.sol\":2912:3099  function _transferOwnership(address newOwner) internal virtual {... */\ntag_14:\n    /* \"@openzeppelin/contracts/access/Ownable.sol\":2985:3001  address oldOwner */\n  0x00\n    /* \"@openzeppelin/contracts/access/Ownable.sol\":3004:3010  _owner */\n  0x01\n  0x00\n  swap1\n  sload\n  swap1\n  0x0100\n  exp\n  swap1\n  div\n  0xffffffffffffffffffffffffffffffffffffffff\n  and\n    /* \"@openzeppelin/contracts/access/Ownable.sol\":2985:3010  address oldOwner = _owner */\n  swap1\n  pop\n    /* \"@openzeppelin/contracts/access/Ownable.sol\":3029:3037  newOwner */\n  dup2\n    /* \"@openzeppelin/contracts/access/Ownable.sol\":3020:3026  _owner */\n  0x01\n  0x00\n    /* \"@openzeppelin/contracts/access/Ownable.sol\":3020:3037  _owner = newOwner */\n  0x0100\n  exp\n  dup2\n  sload\n  dup2\n  0xffffffffffffffffffffffffffffffffffffffff\n  mul\n  not\n  and\n  swap1\n  dup4\n  0xffffffffffffffffffffffffffffffffffffffff\n  and\n  mul\n  or\n  swap1\n  sstore\n  pop\n    /* \"@openzeppelin/contracts/access/Ownable.sol\":3083:3091  newOwner */\n  dup2\n    /* \"@openzeppelin/contracts/access/Ownable.sol\":3052:3092  OwnershipTransferred(oldOwner, newOwner) */\n  0xffffffffffffffffffffffffffffffffffffffff\n  and\n    /* \"@openzeppelin/contracts/access/Ownable.sol\":3073:3081  oldOwner */\n  dup2\n    /* \"@openzeppelin/contracts/access/Ownable.sol\":3052:3092  OwnershipTransferred(oldOwner, newOwner) */\n  0xffffffffffffffffffffffffffffffffffffffff\n  and\n  0x8be0079c531659141344cd1fd0a4f28419497f9722a3daafe3b4186f6b6457e0\n  mload(0x40)\n  mload(0x40)\n  dup1\n  swap2\n  sub\n  swap1\n  log3\n    /* \"@openzeppelin/contracts/access/Ownable.sol\":2975:3099  {... */\n  pop\n    /* \"@openzeppelin/contracts/access/Ownable.sol\":2912:3099  function _transferOwnership(address newOwner) internal virtual {... */\n  pop\n  jump\t// out\n    /* \"#utility.yul\":88:205   */\ntag_23:\n    /* \"#utility.yul\":197:198   */\n  0x00\n    /* \"#utility.yul\":194:195   */\n  dup1\n    /* \"#utility.yul\":187:199   */\n  revert\n    /* \"#utility.yul\":334:460   */\ntag_25:\n    /* \"#utility.yul\":371:378   */\n  0x00\n    /* \"#utility.yul\":411:453   */\n  0xffffffffffffffffffffffffffffffffffffffff\n    /* \"#utility.yul\":404:409   */\n  dup3\n    /* \"#utility.yul\":400:454   */\n  and\n    /* \"#utility.yul\":389:454   */\n  swap1\n  pop\n    /* \"#utility.yul\":334:460   */\n  swap2\n  swap1\n  pop\n  jump\t// out\n    /* \"#utility.yul\":466:562   */\ntag_26:\n    /* \"#utility.yul\":503:510   */\n  0x00\n    /* \"#utility.yul\":532:556   */\n  tag_39\n    /* \"#utility.yul\":550:555   */\n  dup3\n    /* \"#utility.yul\":532:556   */\n  tag_25\n  jump\t// in\ntag_39:\n    /* \"#utility.yul\":521:556   */\n  swap1\n  pop\n    /* \"#utility.yul\":466:562   */\n  swap2\n  swap1\n  pop\n  jump\t// out\n    /* \"#utility.yul\":568:690   */\ntag_27:\n    /* \"#utility.yul\":641:665   */\n  tag_41\n    /* \"#utility.yul\":659:664   */\n  dup2\n    /* \"#utility.yul\":641:665   */\n  tag_26\n  jump\t// in\ntag_41:\n    /* \"#utility.yul\":634:639   */\n  dup2\n    /* \"#utility.yul\":631:666   */\n  eq\n    /* \"#utility.yul\":621:684   */\n  tag_42\n  jumpi\n    /* \"#utility.yul\":680:681   */\n  0x00\n    /* \"#utility.yul\":677:678   */\n  dup1\n    /* \"#utility.yul\":670:682   */\n  revert\n    /* \"#utility.yul\":621:684   */\ntag_42:\n    /* \"#utility.yul\":568:690   */\n  pop\n  jump\t// out\n    /* \"#utility.yul\":696:839   */\ntag_28:\n    /* \"#utility.yul\":753:758   */\n  0x00\n    /* \"#utility.yul\":784:790   */\n  dup2\n    /* \"#utility.yul\":778:791   */\n  mload\n    /* \"#utility.yul\":769:791   */\n  swap1\n  pop\n    /* \"#utility.yul\":800:833   */\n  tag_44\n    /* \"#utility.yul\":827:832   */\n  dup2\n    /* \"#utility.yul\":800:833   */\n  tag_27\n  jump\t// in\ntag_44:\n    /* \"#utility.yul\":696:839   */\n  swap3\n  swap2\n  pop\n  pop\n  jump\t// out\n    /* \"#utility.yul\":845:1196   */\ntag_3:\n    /* \"#utility.yul\":915:921   */\n  0x00\n    /* \"#utility.yul\":964:966   */\n  0x20\n    /* \"#utility.yul\":952:961   */\n  dup3\n    /* \"#utility.yul\":943:950   */\n  dup5\n    /* \"#utility.yul\":939:962   */\n  sub\n    /* \"#utility.yul\":935:967   */\n  slt\n    /* \"#utility.yul\":932:1051   */\n  iszero\n  tag_46\n  jumpi\n    /* \"#utility.yul\":970:1049   */\n  tag_47\n  tag_23\n  jump\t// in\ntag_47:\n    /* \"#utility.yul\":932:1051   */\ntag_46:\n    /* \"#utility.yul\":1090:1091   */\n  0x00\n    /* \"#utility.yul\":1115:1179   */\n  tag_48\n    /* \"#utility.yul\":1171:1178   */\n  dup5\n    /* \"#utility.yul\":1162:1168   */\n  dup3\n    /* \"#utility.yul\":1151:1160   */\n  dup6\n    /* \"#utility.yul\":1147:1169   */\n  add\n    /* \"#utility.yul\":1115:1179   */\n  tag_28\n  jump\t// in\ntag_48:\n    /* \"#utility.yul\":1105:1179   */\n  swap2\n  pop\n    /* \"#utility.yul\":1061:1189   */\n  pop\n    /* \"#utility.yul\":845:1196   */\n  swap3\n  swap2\n  pop\n  pop\n  jump\t// out\n    /* \"#utility.yul\":1202:1320   */\ntag_29:\n    /* \"#utility.yul\":1289:1313   */\n  tag_50\n    /* \"#utility.yul\":1307:1312   */\n  dup2\n    /* \"#utility.yul\":1289:1313   */\n  tag_26\n  jump\t// in\ntag_50:\n    /* \"#utility.yul\":1284:1287   */\n  dup3\n    /* \"#utility.yul\":1277:1314   */\n  mstore\n    /* \"#utility.yul\":1202:1320   */\n  pop\n  pop\n  jump\t// out\n    /* \"#utility.yul\":1326:1548   */\ntag_12:\n    /* \"#utility.yul\":1419:1423   */\n  0x00\n    /* \"#utility.yul\":1457:1459   */\n  0x20\n    /* \"#utility.yul\":1446:1455   */\n  dup3\n    /* \"#utility.yul\":1442:1460   */\n  add\n    /* \"#utility.yul\":1434:1460   */\n  swap1\n  pop\n    /* \"#utility.yul\":1470:1541   */\n  tag_52\n    /* \"#utility.yul\":1538:1539   */\n  0x00\n    /* \"#utility.yul\":1527:1536   */\n  dup4\n    /* \"#utility.yul\":1523:1540   */\n  add\n    /* \"#utility.yul\":1514:1520   */\n  dup5\n    /* \"#utility.yul\":1470:1541   */\n  tag_29\n  jump\t// in\ntag_52:\n    /* \"#utility.yul\":1326:1548   */\n  swap3\n  swap2\n  pop\n  pop\n  jump\t// out\n    /* \"#utility.yul\":1554:1723   */\ntag_30:\n    /* \"#utility.yul\":1638:1649   */\n  0x00\n    /* \"#utility.yul\":1672:1678   */\n  dup3\n    /* \"#utility.yul\":1667:1670   */\n  dup3\n    /* \"#utility.yul\":1660:1679   */\n  mstore\n    /* \"#utility.yul\":1712:1716   */\n  0x20\n    /* \"#utility.yul\":1707:1710   */\n  dup3\n    /* \"#utility.yul\":1703:1717   */\n  add\n    /* \"#utility.yul\":1688:1717   */\n  swap1\n  pop\n    /* \"#utility.yul\":1554:1723   */\n  swap3\n  swap2\n  pop\n  pop\n  jump\t// out\n    /* \"#utility.yul\":1729:1909   */\ntag_31:\n    /* \"#utility.yul\":1869:1901   */\n  0x496e76616c6964207374616b696e672077616c6c657420616464726573730000\n    /* \"#utility.yul\":1865:1866   */\n  0x00\n    /* \"#utility.yul\":1857:1863   */\n  dup3\n    /* \"#utility.yul\":1853:1867   */\n  add\n    /* \"#utility.yul\":1846:1902   */\n  mstore\n    /* \"#utility.yul\":1729:1909   */\n  pop\n  jump\t// out\n    /* \"#utility.yul\":1915:2281   */\ntag_32:\n    /* \"#utility.yul\":2057:2060   */\n  0x00\n    /* \"#utility.yul\":2078:2145   */\n  tag_56\n    /* \"#utility.yul\":2142:2144   */\n  0x1e\n    /* \"#utility.yul\":2137:2140   */\n  dup4\n    /* \"#utility.yul\":2078:2145   */\n  tag_30\n  jump\t// in\ntag_56:\n    /* \"#utility.yul\":2071:2145   */\n  swap2\n  pop\n    /* \"#utility.yul\":2154:2247   */\n  tag_57\n    /* \"#utility.yul\":2243:2246   */\n  dup3\n    /* \"#utility.yul\":2154:2247   */\n  tag_31\n  jump\t// in\ntag_57:\n    /* \"#utility.yul\":2272:2274   */\n  0x20\n    /* \"#utility.yul\":2267:2270   */\n  dup3\n    /* \"#utility.yul\":2263:2275   */\n  add\n    /* \"#utility.yul\":2256:2275   */\n  swap1\n  pop\n    /* \"#utility.yul\":1915:2281   */\n  swap2\n  swap1\n  pop\n  jump\t// out\n    /* \"#utility.yul\":2287:2706   */\ntag_19:\n    /* \"#utility.yul\":2453:2457   */\n  0x00\n    /* \"#utility.yul\":2491:2493   */\n  0x20\n    /* \"#utility.yul\":2480:2489   */\n  dup3\n    /* \"#utility.yul\":2476:2494   */\n  add\n    /* \"#utility.yul\":2468:2494   */\n  swap1\n  pop\n    /* \"#utility.yul\":2540:2549   */\n  dup2\n    /* \"#utility.yul\":2534:2538   */\n  dup2\n    /* \"#utility.yul\":2530:2550   */\n  sub\n    /* \"#utility.yul\":2526:2527   */\n  0x00\n    /* \"#utility.yul\":2515:2524   */\n  dup4\n    /* \"#utility.yul\":2511:2528   */\n  add\n    /* \"#utility.yul\":2504:2551   */\n  mstore\n    /* \"#utility.yul\":2568:2699   */\n  tag_59\n    /* \"#utility.yul\":2694:2698   */\n  dup2\n    /* \"#utility.yul\":2568:2699   */\n  tag_32\n  jump\t// in\ntag_59:\n    /* \"#utility.yul\":2560:2699   */\n  swap1\n  pop\n    /* \"#utility.yul\":2287:2706   */\n  swap2\n  swap1\n  pop\n  jump\t// out\n    /* \"EnhancedStaking.sol\":288:4019  contract EnhancedStaking is ReentrancyGuard, Ownable, Pausable {... */\ntag_20:\n  dataSize(sub_0)\n  dup1\n  dataOffset(sub_0)\n  0x00\n  codecopy\n  0x00\n  return\nstop\n\nsub_0: assembly {\n        /* \"EnhancedStaking.sol\":288:4019  contract EnhancedStaking is ReentrancyGuard, Ownable, Pausable {... */\n      mstore(0x40, 0x80)\n      jumpi(tag_1, lt(calldatasize, 0x04))\n      shr(0xe0, calldataload(0x00))\n      dup1\n      0x715018a6\n      gt\n      tag_23\n      jumpi\n      dup1\n      0x8da5cb5b\n      gt\n      tag_24\n      jumpi\n      dup1\n      0x8da5cb5b\n      eq\n      tag_18\n      jumpi\n      dup1\n      0xdcc2a55e\n      eq\n      tag_19\n      jumpi\n      dup1\n      0xeb4af045\n      eq\n      tag_20\n      jumpi\n      dup1\n      0xf1887684\n      eq\n      tag_21\n      jumpi\n      dup1\n      0xf2fde38b\n      eq\n      tag_22\n      jumpi\n      jump(tag_2)\n    tag_24:\n      dup1\n      0x715018a6\n      eq\n      tag_13\n      jumpi\n      dup1\n      0x7a766460\n      eq\n      tag_14\n      jumpi\n      dup1\n      0x80ea3de1\n      eq\n      tag_15\n      jumpi\n      dup1\n      0x817b1cd2\n      eq\n      tag_16\n      jumpi\n      dup1\n      0x8456cb59\n      eq\n      tag_17\n      jumpi\n      jump(tag_2)\n    tag_23:\n      dup1\n      0x3a4b66f1\n      gt\n      tag_25\n      jumpi\n      dup1\n      0x3a4b66f1\n      eq\n      tag_8\n      jumpi\n      dup1\n      0x3f4ba83a\n      eq\n      tag_9\n      jumpi\n      dup1\n      0x4de5120e\n      eq\n      tag_10\n      jumpi\n      dup1\n      0x5c975abb\n      eq\n      tag_11\n      jumpi\n      dup1\n      0x5d80ca32\n      eq\n      tag_12\n      jumpi\n      jump(tag_2)\n    tag_25:\n      dup1\n      0x04646a49\n      eq\n      tag_3\n      jumpi\n      dup1\n      0x06ee6ad8\n      eq\n      tag_4\n      jumpi\n      dup1\n      0x16934fc4\n      eq\n      tag_5\n      jumpi\n      dup1\n      0x2e1a7d4d\n      eq\n      tag_6\n      jumpi\n      dup1\n      0x384c05bd\n      eq\n      tag_7\n      jumpi\n      jump(tag_2)\n    tag_1:\n      jumpi(tag_2, calldatasize)\n        /* \"EnhancedStaking.sol\":4003:4010  stake() */\n      tag_28\n        /* \"EnhancedStaking.sol\":4003:4008  stake */\n      tag_29\n        /* \"EnhancedStaking.sol\":4003:4010  stake() */\n      jump\t// in\n    tag_28:\n        /* \"EnhancedStaking.sol\":288:4019  contract EnhancedStaking is ReentrancyGuard, Ownable, Pausable {... */\n      stop\n    tag_2:\n      0x00\n      dup1\n      revert\n        /* \"EnhancedStaking.sol\":573:602  uint256 public cooldownPeriod */\n    tag_3:\n      callvalue\n      dup1\n      iszero\n      tag_30\n      jumpi\n      0x00\n      dup1\n      revert\n    tag_30:\n      pop\n      tag_31\n      tag_32\n      jump\t// in\n    tag_31:\n      mload(0x40)\n      tag_33\n      swap2\n      swap1\n      tag_34\n      jump\t// in\n    tag_33:\n      mload(0x40)\n      dup1\n      swap2\n      sub\n      swap1\n      return\n        /* \"EnhancedStaking.sol\":390:418  address public stakingWallet */\n    tag_4:\n      callvalue\n      dup1\n      iszero\n      tag_35\n      jumpi\n      0x00\n      dup1\n      revert\n    tag_35:\n      pop\n      tag_36\n      tag_37\n      jump\t// in\n    tag_36:\n      mload(0x40)\n      tag_38\n      swap2\n      swap1\n      tag_39\n      jump\t// in\n    tag_38:\n      mload(0x40)\n      dup1\n      swap2\n      sub\n      swap1\n      return\n        /* \"EnhancedStaking.sol\":424:465  mapping(address => uint256) public stakes */\n    tag_5:\n      callvalue\n      dup1\n      iszero\n      tag_40\n      jumpi\n      0x00\n      dup1\n      revert\n    tag_40:\n      pop\n      tag_41\n      0x04\n      dup1\n      calldatasize\n      sub\n      dup2\n      add\n      swap1\n      tag_42\n      swap2\n      swap1\n      tag_43\n      jump\t// in\n    tag_42:\n      tag_44\n      jump\t// in\n    tag_41:\n      mload(0x40)\n      tag_45\n      swap2\n      swap1\n      tag_34\n      jump\t// in\n    tag_45:\n      mload(0x40)\n      dup1\n      swap2\n      sub\n      swap1\n      return\n        /* \"EnhancedStaking.sol\":2016:2608  function withdraw(uint256 amount) public nonReentrant whenNotPaused {... */\n    tag_6:\n      callvalue\n      dup1\n      iszero\n      tag_46\n      jumpi\n      0x00\n      dup1\n      revert\n    tag_46:\n      pop\n      tag_47\n      0x04\n      dup1\n      calldatasize\n      sub\n      dup2\n      add\n      swap1\n      tag_48\n      swap2\n      swap1\n      tag_49\n      jump\t// in\n    tag_48:\n      tag_50\n      jump\t// in\n    tag_47:\n      stop\n        /* \"EnhancedStaking.sol\":2718:3005  function changeStakingWallet(address newWallet) public onlyOwner {... */\n    tag_7:\n      callvalue\n      dup1\n      iszero\n      tag_51\n      jumpi\n      0x00\n      dup1\n      revert\n    tag_51:\n      pop\n      tag_52\n      0x04\n      dup1\n      calldatasize\n      sub\n      dup2\n      add\n      swap1\n      tag_53\n      swap2\n      swap1\n      tag_43\n      jump\t// in\n    tag_53:\n      tag_54\n      jump\t// in\n    tag_52:\n      stop\n        /* \"EnhancedStaking.sol\":1383:2010  function stake() public payable nonReentrant whenNotPaused {... */\n    tag_8:\n      tag_55\n      tag_29\n      jump\t// in\n    tag_55:\n      stop\n        /* \"EnhancedStaking.sol\":3897:3960  function unpause() public onlyOwner {... */\n    tag_9:\n      callvalue\n      dup1\n      iszero\n      tag_56\n      jumpi\n      0x00\n      dup1\n      revert\n    tag_56:\n      pop\n      tag_57\n      tag_58\n      jump\t// in\n    tag_57:\n      stop\n        /* \"EnhancedStaking.sol\":608:661  mapping(address => uint256) public lastWithdrawalTime */\n    tag_10:\n      callvalue\n      dup1\n      iszero\n      tag_59\n      jumpi\n      0x00\n      dup1\n      revert\n    tag_59:\n      pop\n      tag_60\n      0x04\n      dup1\n      calldatasize\n      sub\n      dup2\n      add\n      swap1\n      tag_61\n      swap2\n      swap1\n      tag_43\n      jump\t// in\n    tag_61:\n      tag_62\n      jump\t// in\n    tag_60:\n      mload(0x40)\n      tag_63\n      swap2\n      swap1\n      tag_34\n      jump\t// in\n    tag_63:\n      mload(0x40)\n      dup1\n      swap2\n      sub\n      swap1\n      return\n        /* \"@openzeppelin/contracts/security/Pausable.sol\":1615:1699  function paused() public view virtual returns (bool) {... */\n    tag_11:\n      callvalue\n      dup1\n      iszero\n      tag_64\n      jumpi\n      0x00\n      dup1\n      revert\n    tag_64:\n      pop\n      tag_65\n      tag_66\n      jump\t// in\n    tag_65:\n      mload(0x40)\n      tag_67\n      swap2\n      swap1\n      tag_68\n      jump\t// in\n    tag_67:\n      mload(0x40)\n      dup1\n      swap2\n      sub\n      swap1\n      return\n        /* \"EnhancedStaking.sol\":538:567  uint256 public maxStakeAmount */\n    tag_12:\n      callvalue\n      dup1\n      iszero\n      tag_69\n      jumpi\n      0x00\n      dup1\n      revert\n    tag_69:\n      pop\n      tag_70\n      tag_71\n      jump\t// in\n    tag_70:\n      mload(0x40)\n      tag_72\n      swap2\n      swap1\n      tag_34\n      jump\t// in\n    tag_72:\n      mload(0x40)\n      dup1\n      swap2\n      sub\n      swap1\n      return\n        /* \"@openzeppelin/contracts/access/Ownable.sol\":2293:2394  function renounceOwnership() public virtual onlyOwner {... */\n    tag_13:\n      callvalue\n      dup1\n      iszero\n      tag_73\n      jumpi\n      0x00\n      dup1\n      revert\n    tag_73:\n      pop\n      tag_74\n      tag_75\n      jump\t// in\n    tag_74:\n      stop\n        /* \"EnhancedStaking.sol\":2614:2712  function getStake(address user) public view returns (uint256) {... */\n    tag_14:\n      callvalue\n      dup1\n      iszero\n      tag_76\n      jumpi\n      0x00\n      dup1\n      revert\n    tag_76:\n      pop\n      tag_77\n      0x04\n      dup1\n      calldatasize\n      sub\n      dup2\n      add\n      swap1\n      tag_78\n      swap2\n      swap1\n      tag_43\n      jump\t// in\n    tag_78:\n      tag_79\n      jump\t// in\n    tag_77:\n      mload(0x40)\n      tag_80\n      swap2\n      swap1\n      tag_34\n      jump\t// in\n    tag_80:\n      mload(0x40)\n      dup1\n      swap2\n      sub\n      swap1\n      return\n        /* \"EnhancedStaking.sol\":3618:3826  function setCooldownPeriod(uint256 newPeriod) public onlyOwner {... */\n    tag_15:\n      callvalue\n      dup1\n      iszero\n      tag_81\n      jumpi\n      0x00\n      dup1\n      revert\n    tag_81:\n      pop\n      tag_82\n      0x04\n      dup1\n      calldatasize\n      sub\n      dup2\n      add\n      swap1\n      tag_83\n      swap2\n      swap1\n      tag_49\n      jump\t// in\n    tag_83:\n      tag_84\n      jump\t// in\n    tag_82:\n      stop\n        /* \"EnhancedStaking.sol\":471:497  uint256 public totalStaked */\n    tag_16:\n      callvalue\n      dup1\n      iszero\n      tag_85\n      jumpi\n      0x00\n      dup1\n      revert\n    tag_85:\n      pop\n      tag_86\n      tag_87\n      jump\t// in\n    tag_86:\n      mload(0x40)\n      tag_88\n      swap2\n      swap1\n      tag_34\n      jump\t// in\n    tag_88:\n      mload(0x40)\n      dup1\n      swap2\n      sub\n      swap1\n      return\n        /* \"EnhancedStaking.sol\":3832:3891  function pause() public onlyOwner {... */\n    tag_17:\n      callvalue\n      dup1\n      iszero\n      tag_89\n      jumpi\n      0x00\n      dup1\n      revert\n    tag_89:\n      pop\n      tag_90\n      tag_91\n      jump\t// in\n    tag_90:\n      stop\n        /* \"@openzeppelin/contracts/access/Ownable.sol\":1638:1723  function owner() public view virtual returns (address) {... */\n    tag_18:\n      callvalue\n      dup1\n      iszero\n      tag_92\n      jumpi\n      0x00\n      dup1\n      revert\n    tag_92:\n      pop\n      tag_93\n      tag_94\n      jump\t// in\n    tag_93:\n      mload(0x40)\n      tag_95\n      swap2\n      swap1\n      tag_39\n      jump\t// in\n    tag_95:\n      mload(0x40)\n      dup1\n      swap2\n      sub\n      swap1\n      return\n        /* \"EnhancedStaking.sol\":3313:3612  function setMaxStakeAmount(uint256 newAmount) public onlyOwner {... */\n    tag_19:\n      callvalue\n      dup1\n      iszero\n      tag_96\n      jumpi\n      0x00\n      dup1\n      revert\n    tag_96:\n      pop\n      tag_97\n      0x04\n      dup1\n      calldatasize\n      sub\n      dup2\n      add\n      swap1\n      tag_98\n      swap2\n      swap1\n      tag_49\n      jump\t// in\n    tag_98:\n      tag_99\n      jump\t// in\n    tag_97:\n      stop\n        /* \"EnhancedStaking.sol\":3011:3307  function setMinStakeAmount(uint256 newAmount) public onlyOwner {... */\n    tag_20:\n      callvalue\n      dup1\n      iszero\n      tag_100\n      jumpi\n      0x00\n      dup1\n      revert\n    tag_100:\n      pop\n      tag_101\n      0x04\n      dup1\n      calldatasize\n      sub\n      dup2\n      add\n      swap1\n      tag_102\n      swap2\n      swap1\n      tag_49\n      jump\t// in\n    tag_102:\n      tag_103\n      jump\t// in\n    tag_101:\n      stop\n        /* \"EnhancedStaking.sol\":503:532  uint256 public minStakeAmount */\n    tag_21:\n      callvalue\n      dup1\n      iszero\n      tag_104\n      jumpi\n      0x00\n      dup1\n      revert\n    tag_104:\n      pop\n      tag_105\n      tag_106\n      jump\t// in\n    tag_105:\n      mload(0x40)\n      tag_107\n      swap2\n      swap1\n      tag_34\n      jump\t// in\n    tag_107:\n      mload(0x40)\n      dup1\n      swap2\n      sub\n      swap1\n      return\n        /* \"@openzeppelin/contracts/access/Ownable.sol\":2543:2758  function transferOwnership(address newOwner) public virtual onlyOwner {... */\n    tag_22:\n      callvalue\n      dup1\n      iszero\n      tag_108\n      jumpi\n      0x00\n      dup1\n      revert\n    tag_108:\n      pop\n      tag_109\n      0x04\n      dup1\n      calldatasize\n      sub\n      dup2\n      add\n      swap1\n      tag_110\n      swap2\n      swap1\n      tag_43\n      jump\t// in\n    tag_110:\n      tag_111\n      jump\t// in\n    tag_109:\n      stop\n        /* \"EnhancedStaking.sol\":1383:2010  function stake() public payable nonReentrant whenNotPaused {... */\n    tag_29:\n        /* \"@openzeppelin/contracts/security/ReentrancyGuard.sol\":2261:2282  _nonReentrantBefore() */\n      tag_113\n        /* \"@openzeppelin/contracts/security/ReentrancyGuard.sol\":2261:2280  _nonReentrantBefore */\n      tag_114\n        /* \"@openzeppelin/contracts/security/ReentrancyGuard.sol\":2261:2282  _nonReentrantBefore() */\n      jump\t// in\n    tag_113:\n        /* \"@openzeppelin/contracts/security/Pausable.sol\":1239:1258  _requireNotPaused() */\n      tag_116\n        /* \"@openzeppelin/contracts/security/Pausable.sol\":1239:1256  _requireNotPaused */\n      tag_117\n        /* \"@openzeppelin/contracts/security/Pausable.sol\":1239:1258  _requireNotPaused() */\n      jump\t// in\n    tag_116:\n        /* \"EnhancedStaking.sol\":1473:1487  minStakeAmount */\n      sload(0x05)\n        /* \"EnhancedStaking.sol\":1460:1469  msg.value */\n      callvalue\n        /* \"EnhancedStaking.sol\":1460:1487  msg.value >= minStakeAmount */\n      lt\n      iszero\n        /* \"EnhancedStaking.sol\":1452:1512  require(msg.value >= minStakeAmount, \"Stake amount too low\") */\n      tag_119\n      jumpi\n      mload(0x40)\n      0x08c379a000000000000000000000000000000000000000000000000000000000\n      dup2\n      mstore\n      0x04\n      add\n      tag_120\n      swap1\n      tag_121\n      jump\t// in\n    tag_120:\n      mload(0x40)\n      dup1\n      swap2\n      sub\n      swap1\n      revert\n    tag_119:\n        /* \"EnhancedStaking.sol\":1543:1557  maxStakeAmount */\n      sload(0x06)\n        /* \"EnhancedStaking.sol\":1530:1539  msg.value */\n      callvalue\n        /* \"EnhancedStaking.sol\":1530:1557  msg.value <= maxStakeAmount */\n      gt\n      iszero\n        /* \"EnhancedStaking.sol\":1522:1583  require(msg.value <= maxStakeAmount, \"Stake amount too high\") */\n      tag_122\n      jumpi\n      mload(0x40)\n      0x08c379a000000000000000000000000000000000000000000000000000000000\n      dup2\n      mstore\n      0x04\n      add\n      tag_123\n      swap1\n      tag_124\n      jump\t// in\n    tag_123:\n      mload(0x40)\n      dup1\n      swap2\n      sub\n      swap1\n      revert\n    tag_122:\n        /* \"EnhancedStaking.sol\":1638:1652  maxStakeAmount */\n      sload(0x06)\n        /* \"EnhancedStaking.sol\":1601:1634  stakes[msg.sender].add(msg.value) */\n      tag_125\n        /* \"EnhancedStaking.sol\":1624:1633  msg.value */\n      callvalue\n        /* \"EnhancedStaking.sol\":1601:1607  stakes */\n      0x03\n        /* \"EnhancedStaking.sol\":1601:1619  stakes[msg.sender] */\n      0x00\n        /* \"EnhancedStaking.sol\":1608:1618  msg.sender */\n      caller\n        /* \"EnhancedStaking.sol\":1601:1619  stakes[msg.sender] */\n      0xffffffffffffffffffffffffffffffffffffffff\n      and\n      0xffffffffffffffffffffffffffffffffffffffff\n      and\n      dup2\n      mstore\n      0x20\n      add\n      swap1\n      dup2\n      mstore\n      0x20\n      add\n      0x00\n      keccak256\n      sload\n        /* \"EnhancedStaking.sol\":1601:1623  stakes[msg.sender].add */\n      tag_126\n      swap1\n        /* \"EnhancedStaking.sol\":1601:1634  stakes[msg.sender].add(msg.value) */\n      swap2\n      swap1\n      0xffffffff\n      and\n      jump\t// in\n    tag_125:\n        /* \"EnhancedStaking.sol\":1601:1652  stakes[msg.sender].add(msg.value) <= maxStakeAmount */\n      gt\n      iszero\n        /* \"EnhancedStaking.sol\":1593:1684  require(stakes[msg.sender].add(msg.value) <= maxStakeAmount, \"Total stake exceeds maximum\") */\n      tag_127\n      jumpi\n      mload(0x40)\n      0x08c379a000000000000000000000000000000000000000000000000000000000\n      dup2\n      mstore\n      0x04\n      add\n      tag_128\n      swap1\n      tag_129\n      jump\t// in\n    tag_128:\n      mload(0x40)\n      dup1\n      swap2\n      sub\n      swap1\n      revert\n    tag_127:\n        /* \"EnhancedStaking.sol\":1716:1749  stakes[msg.sender].add(msg.value) */\n      tag_130\n        /* \"EnhancedStaking.sol\":1739:1748  msg.value */\n      callvalue\n        /* \"EnhancedStaking.sol\":1716:1722  stakes */\n      0x03\n        /* \"EnhancedStaking.sol\":1716:1734  stakes[msg.sender] */\n      0x00\n        /* \"EnhancedStaking.sol\":1723:1733  msg.sender */\n      caller\n        /* \"EnhancedStaking.sol\":1716:1734  stakes[msg.sender] */\n      0xffffffffffffffffffffffffffffffffffffffff\n      and\n      0xffffffffffffffffffffffffffffffffffffffff\n      and\n      dup2\n      mstore\n      0x20\n      add\n      swap1\n      dup2\n      mstore\n      0x20\n      add\n      0x00\n      keccak256\n      sload\n        /* \"EnhancedStaking.sol\":1716:1738  stakes[msg.sender].add */\n      tag_126\n      swap1\n        /* \"EnhancedStaking.sol\":1716:1749  stakes[msg.sender].add(msg.value) */\n      swap2\n      swap1\n      0xffffffff\n      and\n      jump\t// in\n    tag_130:\n        /* \"EnhancedStaking.sol\":1695:1701  stakes */\n      0x03\n        /* \"EnhancedStaking.sol\":1695:1713  stakes[msg.sender] */\n      0x00\n        /* \"EnhancedStaking.sol\":1702:1712  msg.sender */\n      caller\n        /* \"EnhancedStaking.sol\":1695:1713  stakes[msg.sender] */\n      0xffffffffffffffffffffffffffffffffffffffff\n      and\n      0xffffffffffffffffffffffffffffffffffffffff\n      and\n      dup2\n      mstore\n      0x20\n      add\n      swap1\n      dup2\n      mstore\n      0x20\n      add\n      0x00\n      keccak256\n        /* \"EnhancedStaking.sol\":1695:1749  stakes[msg.sender] = stakes[msg.sender].add(msg.value) */\n      dup2\n      swap1\n      sstore\n      pop\n        /* \"EnhancedStaking.sol\":1773:1799  totalStaked.add(msg.value) */\n      tag_131\n        /* \"EnhancedStaking.sol\":1789:1798  msg.value */\n      callvalue\n        /* \"EnhancedStaking.sol\":1773:1784  totalStaked */\n      sload(0x04)\n        /* \"EnhancedStaking.sol\":1773:1788  totalStaked.add */\n      tag_126\n      swap1\n        /* \"EnhancedStaking.sol\":1773:1799  totalStaked.add(msg.value) */\n      swap2\n      swap1\n      0xffffffff\n      and\n      jump\t// in\n    tag_131:\n        /* \"EnhancedStaking.sol\":1759:1770  totalStaked */\n      0x04\n        /* \"EnhancedStaking.sol\":1759:1799  totalStaked = totalStaked.add(msg.value) */\n      dup2\n      swap1\n      sstore\n      pop\n        /* \"EnhancedStaking.sol\":1819:1831  bool success */\n      0x00\n        /* \"EnhancedStaking.sol\":1845:1858  stakingWallet */\n      0x02\n      0x00\n      swap1\n      sload\n      swap1\n      0x0100\n      exp\n      swap1\n      div\n      0xffffffffffffffffffffffffffffffffffffffff\n      and\n        /* \"EnhancedStaking.sol\":1837:1864  payable(stakingWallet).call */\n      0xffffffffffffffffffffffffffffffffffffffff\n      and\n        /* \"EnhancedStaking.sol\":1872:1881  msg.value */\n      callvalue\n        /* \"EnhancedStaking.sol\":1837:1886  payable(stakingWallet).call{value: msg.value}(\"\") */\n      mload(0x40)\n      tag_132\n      swap1\n      tag_133\n      jump\t// in\n    tag_132:\n      0x00\n      mload(0x40)\n      dup1\n      dup4\n      sub\n      dup2\n      dup6\n      dup8\n      gas\n      call\n      swap3\n      pop\n      pop\n      pop\n      returndatasize\n      dup1\n      0x00\n      dup2\n      eq\n      tag_136\n      jumpi\n      mload(0x40)\n      swap2\n      pop\n      and(add(returndatasize, 0x3f), not(0x1f))\n      dup3\n      add\n      0x40\n      mstore\n      returndatasize\n      dup3\n      mstore\n      returndatasize\n      0x00\n      0x20\n      dup5\n      add\n      returndatacopy\n      jump(tag_135)\n    tag_136:\n      0x60\n      swap2\n      pop\n    tag_135:\n      pop\n        /* \"EnhancedStaking.sol\":1818:1886  (bool success, ) = payable(stakingWallet).call{value: msg.value}(\"\") */\n      pop\n      swap1\n      pop\n        /* \"EnhancedStaking.sol\":1904:1911  success */\n      dup1\n        /* \"EnhancedStaking.sol\":1896:1958  require(success, \"Failed to transfer stake to staking wallet\") */\n      tag_137\n      jumpi\n      mload(0x40)\n      0x08c379a000000000000000000000000000000000000000000000000000000000\n      dup2\n      mstore\n      0x04\n      add\n      tag_138\n      swap1\n      tag_139\n      jump\t// in\n    tag_138:\n      mload(0x40)\n      dup1\n      swap2\n      sub\n      swap1\n      revert\n    tag_137:\n        /* \"EnhancedStaking.sol\":1981:1991  msg.sender */\n      caller\n        /* \"EnhancedStaking.sol\":1974:2003  Staked(msg.sender, msg.value) */\n      0xffffffffffffffffffffffffffffffffffffffff\n      and\n      0x9e71bc8eea02a63969f509818f2dafb9254532904319f9dbda79b67bd34a5f3d\n        /* \"EnhancedStaking.sol\":1993:2002  msg.value */\n      callvalue\n        /* \"EnhancedStaking.sol\":1974:2003  Staked(msg.sender, msg.value) */\n      mload(0x40)\n      tag_140\n      swap2\n      swap1\n      tag_34\n      jump\t// in\n    tag_140:\n      mload(0x40)\n      dup1\n      swap2\n      sub\n      swap1\n      log2\n        /* \"EnhancedStaking.sol\":1442:2010  {... */\n      pop\n        /* \"@openzeppelin/contracts/security/ReentrancyGuard.sol\":2303:2323  _nonReentrantAfter() */\n      tag_141\n        /* \"@openzeppelin/contracts/security/ReentrancyGuard.sol\":2303:2321  _nonReentrantAfter */\n      tag_142\n        /* \"@openzeppelin/contracts/security/ReentrancyGuard.sol\":2303:2323  _nonReentrantAfter() */\n      jump\t// in\n    tag_141:\n        /* \"EnhancedStaking.sol\":1383:2010  function stake() public payable nonReentrant whenNotPaused {... */\n      jump\t// out\n        /* \"EnhancedStaking.sol\":573:602  uint256 public cooldownPeriod */\n    tag_32:\n      sload(0x07)\n      dup2\n      jump\t// out\n        /* \"EnhancedStaking.sol\":390:418  address public stakingWallet */\n    tag_37:\n      0x02\n      0x00\n      swap1\n      sload\n      swap1\n      0x0100\n      exp\n      swap1\n      div\n      0xffffffffffffffffffffffffffffffffffffffff\n      and\n      dup2\n      jump\t// out\n        /* \"EnhancedStaking.sol\":424:465  mapping(address => uint256) public stakes */\n    tag_44:\n      mstore(0x20, 0x03)\n      dup1\n      0x00\n      mstore\n      keccak256(0x00, 0x40)\n      0x00\n      swap2\n      pop\n      swap1\n      pop\n      sload\n      dup2\n      jump\t// out\n        /* \"EnhancedStaking.sol\":2016:2608  function withdraw(uint256 amount) public nonReentrant whenNotPaused {... */\n    tag_50:\n        /* \"@openzeppelin/contracts/security/ReentrancyGuard.sol\":2261:2282  _nonReentrantBefore() */\n      tag_144\n        /* \"@openzeppelin/contracts/security/ReentrancyGuard.sol\":2261:2280  _nonReentrantBefore */\n      tag_114\n        /* \"@openzeppelin/contracts/security/ReentrancyGuard.sol\":2261:2282  _nonReentrantBefore() */\n      jump\t// in\n    tag_144:\n        /* \"@openzeppelin/contracts/security/Pausable.sol\":1239:1258  _requireNotPaused() */\n      tag_146\n        /* \"@openzeppelin/contracts/security/Pausable.sol\":1239:1256  _requireNotPaused */\n      tag_117\n        /* \"@openzeppelin/contracts/security/Pausable.sol\":1239:1258  _requireNotPaused() */\n      jump\t// in\n    tag_146:\n        /* \"EnhancedStaking.sol\":2124:2130  amount */\n      dup1\n        /* \"EnhancedStaking.sol\":2102:2108  stakes */\n      0x03\n        /* \"EnhancedStaking.sol\":2102:2120  stakes[msg.sender] */\n      0x00\n        /* \"EnhancedStaking.sol\":2109:2119  msg.sender */\n      caller\n        /* \"EnhancedStaking.sol\":2102:2120  stakes[msg.sender] */\n      0xffffffffffffffffffffffffffffffffffffffff\n      and\n      0xffffffffffffffffffffffffffffffffffffffff\n      and\n      dup2\n      mstore\n      0x20\n      add\n      swap1\n      dup2\n      mstore\n      0x20\n      add\n      0x00\n      keccak256\n      sload\n        /* \"EnhancedStaking.sol\":2102:2130  stakes[msg.sender] >= amount */\n      lt\n      iszero\n        /* \"EnhancedStaking.sol\":2094:2153  require(stakes[msg.sender] >= amount, \"Insufficient stake\") */\n      tag_148\n      jumpi\n      mload(0x40)\n      0x08c379a000000000000000000000000000000000000000000000000000000000\n      dup2\n      mstore\n      0x04\n      add\n      tag_149\n      swap1\n      tag_150\n      jump\t// in\n    tag_149:\n      mload(0x40)\n      dup1\n      swap2\n      sub\n      swap1\n      revert\n    tag_148:\n        /* \"EnhancedStaking.sol\":2190:2240  lastWithdrawalTime[msg.sender].add(cooldownPeriod) */\n      tag_151\n        /* \"EnhancedStaking.sol\":2225:2239  cooldownPeriod */\n      sload(0x07)\n        /* \"EnhancedStaking.sol\":2190:2208  lastWithdrawalTime */\n      0x08\n        /* \"EnhancedStaking.sol\":2190:2220  lastWithdrawalTime[msg.sender] */\n      0x00\n        /* \"EnhancedStaking.sol\":2209:2219  msg.sender */\n      caller\n        /* \"EnhancedStaking.sol\":2190:2220  lastWithdrawalTime[msg.sender] */\n      0xffffffffffffffffffffffffffffffffffffffff\n      and\n      0xffffffffffffffffffffffffffffffffffffffff\n      and\n      dup2\n      mstore\n      0x20\n      add\n      swap1\n      dup2\n      mstore\n      0x20\n      add\n      0x00\n      keccak256\n      sload\n        /* \"EnhancedStaking.sol\":2190:2224  lastWithdrawalTime[msg.sender].add */\n      tag_126\n      swap1\n        /* \"EnhancedStaking.sol\":2190:2240  lastWithdrawalTime[msg.sender].add(cooldownPeriod) */\n      swap2\n      swap1\n      0xffffffff\n      and\n      jump\t// in\n    tag_151:\n        /* \"EnhancedStaking.sol\":2171:2186  block.timestamp */\n      timestamp\n        /* \"EnhancedStaking.sol\":2171:2240  block.timestamp >= lastWithdrawalTime[msg.sender].add(cooldownPeriod) */\n      lt\n      iszero\n        /* \"EnhancedStaking.sol\":2163:2268  require(block.timestamp >= lastWithdrawalTime[msg.sender].add(cooldownPeriod), \"Cooldown period not met\") */\n      tag_152\n      jumpi\n      mload(0x40)\n      0x08c379a000000000000000000000000000000000000000000000000000000000\n      dup2\n      mstore\n      0x04\n      add\n      tag_153\n      swap1\n      tag_154\n      jump\t// in\n    tag_153:\n      mload(0x40)\n      dup1\n      swap2\n      sub\n      swap1\n      revert\n    tag_152:\n        /* \"EnhancedStaking.sol\":2300:2330  stakes[msg.sender].sub(amount) */\n      tag_155\n        /* \"EnhancedStaking.sol\":2323:2329  amount */\n      dup2\n        /* \"EnhancedStaking.sol\":2300:2306  stakes */\n      0x03\n        /* \"EnhancedStaking.sol\":2300:2318  stakes[msg.sender] */\n      0x00\n        /* \"EnhancedStaking.sol\":2307:2317  msg.sender */\n      caller\n        /* \"EnhancedStaking.sol\":2300:2318  stakes[msg.sender] */\n      0xffffffffffffffffffffffffffffffffffffffff\n      and\n      0xffffffffffffffffffffffffffffffffffffffff\n      and\n      dup2\n      mstore\n      0x20\n      add\n      swap1\n      dup2\n      mstore\n      0x20\n      add\n      0x00\n      keccak256\n      sload\n        /* \"EnhancedStaking.sol\":2300:2322  stakes[msg.sender].sub */\n      tag_156\n      swap1\n        /* \"EnhancedStaking.sol\":2300:2330  stakes[msg.sender].sub(amount) */\n      swap2\n      swap1\n      0xffffffff\n      and\n      jump\t// in\n    tag_155:\n        /* \"EnhancedStaking.sol\":2279:2285  stakes */\n      0x03\n        /* \"EnhancedStaking.sol\":2279:2297  stakes[msg.sender] */\n      0x00\n        /* \"EnhancedStaking.sol\":2286:2296  msg.sender */\n      caller\n        /* \"EnhancedStaking.sol\":2279:2297  stakes[msg.sender] */\n      0xffffffffffffffffffffffffffffffffffffffff\n      and\n      0xffffffffffffffffffffffffffffffffffffffff\n      and\n      dup2\n      mstore\n      0x20\n      add\n      swap1\n      dup2\n      mstore\n      0x20\n      add\n      0x00\n      keccak256\n        /* \"EnhancedStaking.sol\":2279:2330  stakes[msg.sender] = stakes[msg.sender].sub(amount) */\n      dup2\n      swap1\n      sstore\n      pop\n        /* \"EnhancedStaking.sol\":2354:2377  totalStaked.sub(amount) */\n      tag_157\n        /* \"EnhancedStaking.sol\":2370:2376  amount */\n      dup2\n        /* \"EnhancedStaking.sol\":2354:2365  totalStaked */\n      sload(0x04)\n        /* \"EnhancedStaking.sol\":2354:2369  totalStaked.sub */\n      tag_156\n      swap1\n        /* \"EnhancedStaking.sol\":2354:2377  totalStaked.sub(amount) */\n      swap2\n      swap1\n      0xffffffff\n      and\n      jump\t// in\n    tag_157:\n        /* \"EnhancedStaking.sol\":2340:2351  totalStaked */\n      0x04\n        /* \"EnhancedStaking.sol\":2340:2377  totalStaked = totalStaked.sub(amount) */\n      dup2\n      swap1\n      sstore\n      pop\n        /* \"EnhancedStaking.sol\":2420:2435  block.timestamp */\n      timestamp\n        /* \"EnhancedStaking.sol\":2387:2405  lastWithdrawalTime */\n      0x08\n        /* \"EnhancedStaking.sol\":2387:2417  lastWithdrawalTime[msg.sender] */\n      0x00\n        /* \"EnhancedStaking.sol\":2406:2416  msg.sender */\n      caller\n        /* \"EnhancedStaking.sol\":2387:2417  lastWithdrawalTime[msg.sender] */\n      0xffffffffffffffffffffffffffffffffffffffff\n      and\n      0xffffffffffffffffffffffffffffffffffffffff\n      and\n      dup2\n      mstore\n      0x20\n      add\n      swap1\n      dup2\n      mstore\n      0x20\n      add\n      0x00\n      keccak256\n        /* \"EnhancedStaking.sol\":2387:2435  lastWithdrawalTime[msg.sender] = block.timestamp */\n      dup2\n      swap1\n      sstore\n      pop\n        /* \"EnhancedStaking.sol\":2447:2459  bool success */\n      0x00\n        /* \"EnhancedStaking.sol\":2473:2483  msg.sender */\n      caller\n        /* \"EnhancedStaking.sol\":2465:2489  payable(msg.sender).call */\n      0xffffffffffffffffffffffffffffffffffffffff\n      and\n        /* \"EnhancedStaking.sol\":2497:2503  amount */\n      dup3\n        /* \"EnhancedStaking.sol\":2465:2508  payable(msg.sender).call{value: amount}(\"\") */\n      mload(0x40)\n      tag_158\n      swap1\n      tag_133\n      jump\t// in\n    tag_158:\n      0x00\n      mload(0x40)\n      dup1\n      dup4\n      sub\n      dup2\n      dup6\n      dup8\n      gas\n      call\n      swap3\n      pop\n      pop\n      pop\n      returndatasize\n      dup1\n      0x00\n      dup2\n      eq\n      tag_161\n      jumpi\n      mload(0x40)\n      swap2\n      pop\n      and(add(returndatasize, 0x3f), not(0x1f))\n      dup3\n      add\n      0x40\n      mstore\n      returndatasize\n      dup3\n      mstore\n      returndatasize\n      0x00\n      0x20\n      dup5\n      add\n      returndatacopy\n      jump(tag_160)\n    tag_161:\n      0x60\n      swap2\n      pop\n    tag_160:\n      pop\n        /* \"EnhancedStaking.sol\":2446:2508  (bool success, ) = payable(msg.sender).call{value: amount}(\"\") */\n      pop\n      swap1\n      pop\n        /* \"EnhancedStaking.sol\":2526:2533  success */\n      dup1\n        /* \"EnhancedStaking.sol\":2518:2556  require(success, \"Failed to send BNB\") */\n      tag_162\n      jumpi\n      mload(0x40)\n      0x08c379a000000000000000000000000000000000000000000000000000000000\n      dup2\n      mstore\n      0x04\n      add\n      tag_163\n      swap1\n      tag_164\n      jump\t// in\n    tag_163:\n      mload(0x40)\n      dup1\n      swap2\n      sub\n      swap1\n      revert\n    tag_162:\n        /* \"EnhancedStaking.sol\":2582:2592  msg.sender */\n      caller\n        /* \"EnhancedStaking.sol\":2572:2601  Withdrawn(msg.sender, amount) */\n      0xffffffffffffffffffffffffffffffffffffffff\n      and\n      0x7084f5476618d8e60b11ef0d7d3f06914655adb8793e28ff7f018d4c76d505d5\n        /* \"EnhancedStaking.sol\":2594:2600  amount */\n      dup4\n        /* \"EnhancedStaking.sol\":2572:2601  Withdrawn(msg.sender, amount) */\n      mload(0x40)\n      tag_165\n      swap2\n      swap1\n      tag_34\n      jump\t// in\n    tag_165:\n      mload(0x40)\n      dup1\n      swap2\n      sub\n      swap1\n      log2\n        /* \"EnhancedStaking.sol\":2084:2608  {... */\n      pop\n        /* \"@openzeppelin/contracts/security/ReentrancyGuard.sol\":2303:2323  _nonReentrantAfter() */\n      tag_166\n        /* \"@openzeppelin/contracts/security/ReentrancyGuard.sol\":2303:2321  _nonReentrantAfter */\n      tag_142\n        /* \"@openzeppelin/contracts/security/ReentrancyGuard.sol\":2303:2323  _nonReentrantAfter() */\n      jump\t// in\n    tag_166:\n        /* \"EnhancedStaking.sol\":2016:2608  function withdraw(uint256 amount) public nonReentrant whenNotPaused {... */\n      pop\n      jump\t// out\n        /* \"EnhancedStaking.sol\":2718:3005  function changeStakingWallet(address newWallet) public onlyOwner {... */\n    tag_54:\n        /* \"@openzeppelin/contracts/access/Ownable.sol\":1531:1544  _checkOwner() */\n      tag_168\n        /* \"@openzeppelin/contracts/access/Ownable.sol\":1531:1542  _checkOwner */\n      tag_169\n        /* \"@openzeppelin/contracts/access/Ownable.sol\":1531:1544  _checkOwner() */\n      jump\t// in\n    tag_168:\n        /* \"EnhancedStaking.sol\":2822:2823  0 */\n      0x00\n        /* \"EnhancedStaking.sol\":2801:2824  newWallet != address(0) */\n      0xffffffffffffffffffffffffffffffffffffffff\n      and\n        /* \"EnhancedStaking.sol\":2801:2810  newWallet */\n      dup2\n        /* \"EnhancedStaking.sol\":2801:2824  newWallet != address(0) */\n      0xffffffffffffffffffffffffffffffffffffffff\n      and\n      sub\n        /* \"EnhancedStaking.sol\":2793:2863  require(newWallet != address(0), \"Invalid new staking wallet address\") */\n      tag_171\n      jumpi\n      mload(0x40)\n      0x08c379a000000000000000000000000000000000000000000000000000000000\n      dup2\n      mstore\n      0x04\n      add\n      tag_172\n      swap1\n      tag_173\n      jump\t// in\n    tag_172:\n      mload(0x40)\n      dup1\n      swap2\n      sub\n      swap1\n      revert\n    tag_171:\n        /* \"EnhancedStaking.sol\":2873:2890  address oldWallet */\n      0x00\n        /* \"EnhancedStaking.sol\":2893:2906  stakingWallet */\n      0x02\n      0x00\n      swap1\n      sload\n      swap1\n      0x0100\n      exp\n      swap1\n      div\n      0xffffffffffffffffffffffffffffffffffffffff\n      and\n        /* \"EnhancedStaking.sol\":2873:2906  address oldWallet = stakingWallet */\n      swap1\n      pop\n        /* \"EnhancedStaking.sol\":2932:2941  newWallet */\n      dup2\n        /* \"EnhancedStaking.sol\":2916:2929  stakingWallet */\n      0x02\n      0x00\n        /* \"EnhancedStaking.sol\":2916:2941  stakingWallet = newWallet */\n      0x0100\n      exp\n      dup2\n      sload\n      dup2\n      0xffffffffffffffffffffffffffffffffffffffff\n      mul\n      not\n      and\n      swap1\n      dup4\n      0xffffffffffffffffffffffffffffffffffffffff\n      and\n      mul\n      or\n      swap1\n      sstore\n      pop\n        /* \"EnhancedStaking.sol\":2988:2997  newWallet */\n      dup2\n        /* \"EnhancedStaking.sol\":2956:2998  StakingWalletChanged(oldWallet, newWallet) */\n      0xffffffffffffffffffffffffffffffffffffffff\n      and\n        /* \"EnhancedStaking.sol\":2977:2986  oldWallet */\n      dup2\n        /* \"EnhancedStaking.sol\":2956:2998  StakingWalletChanged(oldWallet, newWallet) */\n      0xffffffffffffffffffffffffffffffffffffffff\n      and\n      0x6013c0fe4c1fb06ee755812e80639fcbd51c4dcfc2b46fbe17ce2beecbacbe84\n      mload(0x40)\n      mload(0x40)\n      dup1\n      swap2\n      sub\n      swap1\n      log3\n        /* \"EnhancedStaking.sol\":2783:3005  {... */\n      pop\n        /* \"EnhancedStaking.sol\":2718:3005  function changeStakingWallet(address newWallet) public onlyOwner {... */\n      pop\n      jump\t// out\n        /* \"EnhancedStaking.sol\":3897:3960  function unpause() public onlyOwner {... */\n    tag_58:\n        /* \"@openzeppelin/contracts/access/Ownable.sol\":1531:1544  _checkOwner() */\n      tag_175\n        /* \"@openzeppelin/contracts/access/Ownable.sol\":1531:1542  _checkOwner */\n      tag_169\n        /* \"@openzeppelin/contracts/access/Ownable.sol\":1531:1544  _checkOwner() */\n      jump\t// in\n    tag_175:\n        /* \"EnhancedStaking.sol\":3943:3953  _unpause() */\n      tag_177\n        /* \"EnhancedStaking.sol\":3943:3951  _unpause */\n      tag_178\n        /* \"EnhancedStaking.sol\":3943:3953  _unpause() */\n      jump\t// in\n    tag_177:\n        /* \"EnhancedStaking.sol\":3897:3960  function unpause() public onlyOwner {... */\n      jump\t// out\n        /* \"EnhancedStaking.sol\":608:661  mapping(address => uint256) public lastWithdrawalTime */\n    tag_62:\n      mstore(0x20, 0x08)\n      dup1\n      0x00\n      mstore\n      keccak256(0x00, 0x40)\n      0x00\n      swap2\n      pop\n      swap1\n      pop\n      sload\n      dup2\n      jump\t// out\n        /* \"@openzeppelin/contracts/security/Pausable.sol\":1615:1699  function paused() public view virtual returns (bool) {... */\n    tag_66:\n        /* \"@openzeppelin/contracts/security/Pausable.sol\":1662:1666  bool */\n      0x00\n        /* \"@openzeppelin/contracts/security/Pausable.sol\":1685:1692  _paused */\n      0x01\n      0x14\n      swap1\n      sload\n      swap1\n      0x0100\n      exp\n      swap1\n      div\n      0xff\n      and\n        /* \"@openzeppelin/contracts/security/Pausable.sol\":1678:1692  return _paused */\n      swap1\n      pop\n        /* \"@openzeppelin/contracts/security/Pausable.sol\":1615:1699  function paused() public view virtual returns (bool) {... */\n      swap1\n      jump\t// out\n        /* \"EnhancedStaking.sol\":538:567  uint256 public maxStakeAmount */\n    tag_71:\n      sload(0x06)\n      dup2\n      jump\t// out\n        /* \"@openzeppelin/contracts/access/Ownable.sol\":2293:2394  function renounceOwnership() public virtual onlyOwner {... */\n    tag_75:\n        /* \"@openzeppelin/contracts/access/Ownable.sol\":1531:1544  _checkOwner() */\n      tag_181\n        /* \"@openzeppelin/contracts/access/Ownable.sol\":1531:1542  _checkOwner */\n      tag_169\n        /* \"@openzeppelin/contracts/access/Ownable.sol\":1531:1544  _checkOwner() */\n      jump\t// in\n    tag_181:\n        /* \"@openzeppelin/contracts/access/Ownable.sol\":2357:2387  _transferOwnership(address(0)) */\n      tag_183\n        /* \"@openzeppelin/contracts/access/Ownable.sol\":2384:2385  0 */\n      0x00\n        /* \"@openzeppelin/contracts/access/Ownable.sol\":2357:2375  _transferOwnership */\n      tag_184\n        /* \"@openzeppelin/contracts/access/Ownable.sol\":2357:2387  _transferOwnership(address(0)) */\n      jump\t// in\n    tag_183:\n        /* \"@openzeppelin/contracts/access/Ownable.sol\":2293:2394  function renounceOwnership() public virtual onlyOwner {... */\n      jump\t// out\n        /* \"EnhancedStaking.sol\":2614:2712  function getStake(address user) public view returns (uint256) {... */\n    tag_79:\n        /* \"EnhancedStaking.sol\":2667:2674  uint256 */\n      0x00\n        /* \"EnhancedStaking.sol\":2693:2699  stakes */\n      0x03\n        /* \"EnhancedStaking.sol\":2693:2705  stakes[user] */\n      0x00\n        /* \"EnhancedStaking.sol\":2700:2704  user */\n      dup4\n        /* \"EnhancedStaking.sol\":2693:2705  stakes[user] */\n      0xffffffffffffffffffffffffffffffffffffffff\n      and\n      0xffffffffffffffffffffffffffffffffffffffff\n      and\n      dup2\n      mstore\n      0x20\n      add\n      swap1\n      dup2\n      mstore\n      0x20\n      add\n      0x00\n      keccak256\n      sload\n        /* \"EnhancedStaking.sol\":2686:2705  return stakes[user] */\n      swap1\n      pop\n        /* \"EnhancedStaking.sol\":2614:2712  function getStake(address user) public view returns (uint256) {... */\n      swap2\n      swap1\n      pop\n      jump\t// out\n        /* \"EnhancedStaking.sol\":3618:3826  function setCooldownPeriod(uint256 newPeriod) public onlyOwner {... */\n    tag_84:\n        /* \"@openzeppelin/contracts/access/Ownable.sol\":1531:1544  _checkOwner() */\n      tag_187\n        /* \"@openzeppelin/contracts/access/Ownable.sol\":1531:1542  _checkOwner */\n      tag_169\n        /* \"@openzeppelin/contracts/access/Ownable.sol\":1531:1544  _checkOwner() */\n      jump\t// in\n    tag_187:\n        /* \"EnhancedStaking.sol\":3691:3708  uint256 oldPeriod */\n      0x00\n        /* \"EnhancedStaking.sol\":3711:3725  cooldownPeriod */\n      sload(0x07)\n        /* \"EnhancedStaking.sol\":3691:3725  uint256 oldPeriod = cooldownPeriod */\n      swap1\n      pop\n        /* \"EnhancedStaking.sol\":3752:3761  newPeriod */\n      dup2\n        /* \"EnhancedStaking.sol\":3735:3749  cooldownPeriod */\n      0x07\n        /* \"EnhancedStaking.sol\":3735:3761  cooldownPeriod = newPeriod */\n      dup2\n      swap1\n      sstore\n      pop\n        /* \"EnhancedStaking.sol\":3776:3819  CooldownPeriodChanged(oldPeriod, newPeriod) */\n      0x67a4233d292ab33774a65917ca809b4ab92953e039a7c1f71656afbbc1bc60c9\n        /* \"EnhancedStaking.sol\":3798:3807  oldPeriod */\n      dup2\n        /* \"EnhancedStaking.sol\":3809:3818  newPeriod */\n      dup4\n        /* \"EnhancedStaking.sol\":3776:3819  CooldownPeriodChanged(oldPeriod, newPeriod) */\n      mload(0x40)\n      tag_189\n      swap3\n      swap2\n      swap1\n      tag_190\n      jump\t// in\n    tag_189:\n      mload(0x40)\n      dup1\n      swap2\n      sub\n      swap1\n      log1\n        /* \"EnhancedStaking.sol\":3681:3826  {... */\n      pop\n        /* \"EnhancedStaking.sol\":3618:3826  function setCooldownPeriod(uint256 newPeriod) public onlyOwner {... */\n      pop\n      jump\t// out\n        /* \"EnhancedStaking.sol\":471:497  uint256 public totalStaked */\n    tag_87:\n      sload(0x04)\n      dup2\n      jump\t// out\n        /* \"EnhancedStaking.sol\":3832:3891  function pause() public onlyOwner {... */\n    tag_91:\n        /* \"@openzeppelin/contracts/access/Ownable.sol\":1531:1544  _checkOwner() */\n      tag_192\n        /* \"@openzeppelin/contracts/access/Ownable.sol\":1531:1542  _checkOwner */\n      tag_169\n        /* \"@openzeppelin/contracts/access/Ownable.sol\":1531:1544  _checkOwner() */\n      jump\t// in\n    tag_192:\n        /* \"EnhancedStaking.sol\":3876:3884  _pause() */\n      tag_194\n        /* \"EnhancedStaking.sol\":3876:3882  _pause */\n      tag_195\n        /* \"EnhancedStaking.sol\":3876:3884  _pause() */\n      jump\t// in\n    tag_194:\n        /* \"EnhancedStaking.sol\":3832:3891  function pause() public onlyOwner {... */\n      jump\t// out\n        /* \"@openzeppelin/contracts/access/Ownable.sol\":1638:1723  function owner() public view virtual returns (address) {... */\n    tag_94:\n        /* \"@openzeppelin/contracts/access/Ownable.sol\":1684:1691  address */\n      0x00\n        /* \"@openzeppelin/contracts/access/Ownable.sol\":1710:1716  _owner */\n      0x01\n      0x00\n      swap1\n      sload\n      swap1\n      0x0100\n      exp\n      swap1\n      div\n      0xffffffffffffffffffffffffffffffffffffffff\n      and\n        /* \"@openzeppelin/contracts/access/Ownable.sol\":1703:1716  return _owner */\n      swap1\n      pop\n        /* \"@openzeppelin/contracts/access/Ownable.sol\":1638:1723  function owner() public view virtual returns (address) {... */\n      swap1\n      jump\t// out\n        /* \"EnhancedStaking.sol\":3313:3612  function setMaxStakeAmount(uint256 newAmount) public onlyOwner {... */\n    tag_99:\n        /* \"@openzeppelin/contracts/access/Ownable.sol\":1531:1544  _checkOwner() */\n      tag_198\n        /* \"@openzeppelin/contracts/access/Ownable.sol\":1531:1542  _checkOwner */\n      tag_169\n        /* \"@openzeppelin/contracts/access/Ownable.sol\":1531:1544  _checkOwner() */\n      jump\t// in\n    tag_198:\n        /* \"EnhancedStaking.sol\":3406:3420  minStakeAmount */\n      sload(0x05)\n        /* \"EnhancedStaking.sol\":3394:3403  newAmount */\n      dup2\n        /* \"EnhancedStaking.sol\":3394:3420  newAmount > minStakeAmount */\n      gt\n        /* \"EnhancedStaking.sol\":3386:3467  require(newAmount > minStakeAmount, \"Max amount must be greater than min amount\") */\n      tag_200\n      jumpi\n      mload(0x40)\n      0x08c379a000000000000000000000000000000000000000000000000000000000\n      dup2\n      mstore\n      0x04\n      add\n      tag_201\n      swap1\n      tag_202\n      jump\t// in\n    tag_201:\n      mload(0x40)\n      dup1\n      swap2\n      sub\n      swap1\n      revert\n    tag_200:\n        /* \"EnhancedStaking.sol\":3477:3494  uint256 oldAmount */\n      0x00\n        /* \"EnhancedStaking.sol\":3497:3511  maxStakeAmount */\n      sload(0x06)\n        /* \"EnhancedStaking.sol\":3477:3511  uint256 oldAmount = maxStakeAmount */\n      swap1\n      pop\n        /* \"EnhancedStaking.sol\":3538:3547  newAmount */\n      dup2\n        /* \"EnhancedStaking.sol\":3521:3535  maxStakeAmount */\n      0x06\n        /* \"EnhancedStaking.sol\":3521:3547  maxStakeAmount = newAmount */\n      dup2\n      swap1\n      sstore\n      pop\n        /* \"EnhancedStaking.sol\":3562:3605  MaxStakeAmountChanged(oldAmount, newAmount) */\n      0x7af071d76489ff69e32618f091b5d6de46af889de44f621a936e8c9615c463a9\n        /* \"EnhancedStaking.sol\":3584:3593  oldAmount */\n      dup2\n        /* \"EnhancedStaking.sol\":3595:3604  newAmount */\n      dup4\n        /* \"EnhancedStaking.sol\":3562:3605  MaxStakeAmountChanged(oldAmount, newAmount) */\n      mload(0x40)\n      tag_203\n      swap3\n      swap2\n      swap1\n      tag_190\n      jump\t// in\n    tag_203:\n      mload(0x40)\n      dup1\n      swap2\n      sub\n      swap1\n      log1\n        /* \"EnhancedStaking.sol\":3376:3612  {... */\n      pop\n        /* \"EnhancedStaking.sol\":3313:3612  function setMaxStakeAmount(uint256 newAmount) public onlyOwner {... */\n      pop\n      jump\t// out\n        /* \"EnhancedStaking.sol\":3011:3307  function setMinStakeAmount(uint256 newAmount) public onlyOwner {... */\n    tag_103:\n        /* \"@openzeppelin/contracts/access/Ownable.sol\":1531:1544  _checkOwner() */\n      tag_205\n        /* \"@openzeppelin/contracts/access/Ownable.sol\":1531:1542  _checkOwner */\n      tag_169\n        /* \"@openzeppelin/contracts/access/Ownable.sol\":1531:1544  _checkOwner() */\n      jump\t// in\n    tag_205:\n        /* \"EnhancedStaking.sol\":3104:3118  maxStakeAmount */\n      sload(0x06)\n        /* \"EnhancedStaking.sol\":3092:3101  newAmount */\n      dup2\n        /* \"EnhancedStaking.sol\":3092:3118  newAmount < maxStakeAmount */\n      lt\n        /* \"EnhancedStaking.sol\":3084:3162  require(newAmount < maxStakeAmount, \"Min amount must be less than max amount\") */\n      tag_207\n      jumpi\n      mload(0x40)\n      0x08c379a000000000000000000000000000000000000000000000000000000000\n      dup2\n      mstore\n      0x04\n      add\n      tag_208\n      swap1\n      tag_209\n      jump\t// in\n    tag_208:\n      mload(0x40)\n      dup1\n      swap2\n      sub\n      swap1\n      revert\n    tag_207:\n        /* \"EnhancedStaking.sol\":3172:3189  uint256 oldAmount */\n      0x00\n        /* \"EnhancedStaking.sol\":3192:3206  minStakeAmount */\n      sload(0x05)\n        /* \"EnhancedStaking.sol\":3172:3206  uint256 oldAmount = minStakeAmount */\n      swap1\n      pop\n        /* \"EnhancedStaking.sol\":3233:3242  newAmount */\n      dup2\n        /* \"EnhancedStaking.sol\":3216:3230  minStakeAmount */\n      0x05\n        /* \"EnhancedStaking.sol\":3216:3242  minStakeAmount = newAmount */\n      dup2\n      swap1\n      sstore\n      pop\n        /* \"EnhancedStaking.sol\":3257:3300  MinStakeAmountChanged(oldAmount, newAmount) */\n      0x3b8dcd7d08f8aa9e93d2afc54830c8b23db9b7264f3bc503eb5fc2a0289bc2cb\n        /* \"EnhancedStaking.sol\":3279:3288  oldAmount */\n      dup2\n        /* \"EnhancedStaking.sol\":3290:3299  newAmount */\n      dup4\n        /* \"EnhancedStaking.sol\":3257:3300  MinStakeAmountChanged(oldAmount, newAmount) */\n      mload(0x40)\n      tag_210\n      swap3\n      swap2\n      swap1\n      tag_190\n      jump\t// in\n    tag_210:\n      mload(0x40)\n      dup1\n      swap2\n      sub\n      swap1\n      log1\n        /* \"EnhancedStaking.sol\":3074:3307  {... */\n      pop\n        /* \"EnhancedStaking.sol\":3011:3307  function setMinStakeAmount(uint256 newAmount) public onlyOwner {... */\n      pop\n      jump\t// out\n        /* \"EnhancedStaking.sol\":503:532  uint256 public minStakeAmount */\n    tag_106:\n      sload(0x05)\n      dup2\n      jump\t// out\n        /* \"@openzeppelin/contracts/access/Ownable.sol\":2543:2758  function transferOwnership(address newOwner) public virtual onlyOwner {... */\n    tag_111:\n        /* \"@openzeppelin/contracts/access/Ownable.sol\":1531:1544  _checkOwner() */\n      tag_212\n        /* \"@openzeppelin/contracts/access/Ownable.sol\":1531:1542  _checkOwner */\n      tag_169\n        /* \"@openzeppelin/contracts/access/Ownable.sol\":1531:1544  _checkOwner() */\n      jump\t// in\n    tag_212:\n        /* \"@openzeppelin/contracts/access/Ownable.sol\":2647:2648  0 */\n      0x00\n        /* \"@openzeppelin/contracts/access/Ownable.sol\":2627:2649  newOwner == address(0) */\n      0xffffffffffffffffffffffffffffffffffffffff\n      and\n        /* \"@openzeppelin/contracts/access/Ownable.sol\":2627:2635  newOwner */\n      dup2\n        /* \"@openzeppelin/contracts/access/Ownable.sol\":2627:2649  newOwner == address(0) */\n      0xffffffffffffffffffffffffffffffffffffffff\n      and\n      sub\n        /* \"@openzeppelin/contracts/access/Ownable.sol\":2623:2714  if (newOwner == address(0)) {... */\n      tag_214\n      jumpi\n        /* \"@openzeppelin/contracts/access/Ownable.sol\":2700:2701  0 */\n      0x00\n        /* \"@openzeppelin/contracts/access/Ownable.sol\":2672:2703  OwnableInvalidOwner(address(0)) */\n      mload(0x40)\n      0x1e4fbdf700000000000000000000000000000000000000000000000000000000\n      dup2\n      mstore\n      0x04\n      add\n      tag_215\n      swap2\n      swap1\n      tag_39\n      jump\t// in\n    tag_215:\n      mload(0x40)\n      dup1\n      swap2\n      sub\n      swap1\n      revert\n        /* \"@openzeppelin/contracts/access/Ownable.sol\":2623:2714  if (newOwner == address(0)) {... */\n    tag_214:\n        /* \"@openzeppelin/contracts/access/Ownable.sol\":2723:2751  _transferOwnership(newOwner) */\n      tag_216\n        /* \"@openzeppelin/contracts/access/Ownable.sol\":2742:2750  newOwner */\n      dup2\n        /* \"@openzeppelin/contracts/access/Ownable.sol\":2723:2741  _transferOwnership */\n      tag_184\n        /* \"@openzeppelin/contracts/access/Ownable.sol\":2723:2751  _transferOwnership(newOwner) */\n      jump\t// in\n    tag_216:\n        /* \"@openzeppelin/contracts/access/Ownable.sol\":2543:2758  function transferOwnership(address newOwner) public virtual onlyOwner {... */\n      pop\n      jump\t// out\n        /* \"@openzeppelin/contracts/security/ReentrancyGuard.sol\":2336:2623  function _nonReentrantBefore() private {... */\n    tag_114:\n        /* \"@openzeppelin/contracts/security/ReentrancyGuard.sol\":1759:1760  2 */\n      0x02\n        /* \"@openzeppelin/contracts/security/ReentrancyGuard.sol\":2468:2475  _status */\n      sload(0x00)\n        /* \"@openzeppelin/contracts/security/ReentrancyGuard.sol\":2468:2487  _status != _ENTERED */\n      sub\n        /* \"@openzeppelin/contracts/security/ReentrancyGuard.sol\":2460:2523  require(_status != _ENTERED, \"ReentrancyGuard: reentrant call\") */\n      tag_218\n      jumpi\n      mload(0x40)\n      0x08c379a000000000000000000000000000000000000000000000000000000000\n      dup2\n      mstore\n      0x04\n      add\n      tag_219\n      swap1\n      tag_220\n      jump\t// in\n    tag_219:\n      mload(0x40)\n      dup1\n      swap2\n      sub\n      swap1\n      revert\n    tag_218:\n        /* \"@openzeppelin/contracts/security/ReentrancyGuard.sol\":1759:1760  2 */\n      0x02\n        /* \"@openzeppelin/contracts/security/ReentrancyGuard.sol\":2598:2605  _status */\n      0x00\n        /* \"@openzeppelin/contracts/security/ReentrancyGuard.sol\":2598:2616  _status = _ENTERED */\n      dup2\n      swap1\n      sstore\n      pop\n        /* \"@openzeppelin/contracts/security/ReentrancyGuard.sol\":2336:2623  function _nonReentrantBefore() private {... */\n      jump\t// out\n        /* \"@openzeppelin/contracts/security/Pausable.sol\":1767:1873  function _requireNotPaused() internal view virtual {... */\n    tag_117:\n        /* \"@openzeppelin/contracts/security/Pausable.sol\":1837:1845  paused() */\n      tag_222\n        /* \"@openzeppelin/contracts/security/Pausable.sol\":1837:1843  paused */\n      tag_66\n        /* \"@openzeppelin/contracts/security/Pausable.sol\":1837:1845  paused() */\n      jump\t// in\n    tag_222:\n        /* \"@openzeppelin/contracts/security/Pausable.sol\":1836:1845  !paused() */\n      iszero\n        /* \"@openzeppelin/contracts/security/Pausable.sol\":1828:1866  require(!paused(), \"Pausable: paused\") */\n      tag_223\n      jumpi\n      mload(0x40)\n      0x08c379a000000000000000000000000000000000000000000000000000000000\n      dup2\n      mstore\n      0x04\n      add\n      tag_224\n      swap1\n      tag_225\n      jump\t// in\n    tag_224:\n      mload(0x40)\n      dup1\n      swap2\n      sub\n      swap1\n      revert\n    tag_223:\n        /* \"@openzeppelin/contracts/security/Pausable.sol\":1767:1873  function _requireNotPaused() internal view virtual {... */\n      jump\t// out\n        /* \"@openzeppelin/contracts/utils/math/SafeMath.sol\":2755:2851  function add(uint256 a, uint256 b) internal pure returns (uint256) {... */\n    tag_126:\n        /* \"@openzeppelin/contracts/utils/math/SafeMath.sol\":2813:2820  uint256 */\n      0x00\n        /* \"@openzeppelin/contracts/utils/math/SafeMath.sol\":2843:2844  b */\n      dup2\n        /* \"@openzeppelin/contracts/utils/math/SafeMath.sol\":2839:2840  a */\n      dup4\n        /* \"@openzeppelin/contracts/utils/math/SafeMath.sol\":2839:2844  a + b */\n      tag_227\n      swap2\n      swap1\n      tag_228\n      jump\t// in\n    tag_227:\n        /* \"@openzeppelin/contracts/utils/math/SafeMath.sol\":2832:2844  return a + b */\n      swap1\n      pop\n        /* \"@openzeppelin/contracts/utils/math/SafeMath.sol\":2755:2851  function add(uint256 a, uint256 b) internal pure returns (uint256) {... */\n      swap3\n      swap2\n      pop\n      pop\n      jump\t// out\n        /* \"@openzeppelin/contracts/security/ReentrancyGuard.sol\":2629:2838  function _nonReentrantAfter() private {... */\n    tag_142:\n        /* \"@openzeppelin/contracts/security/ReentrancyGuard.sol\":1716:1717  1 */\n      0x01\n        /* \"@openzeppelin/contracts/security/ReentrancyGuard.sol\":2809:2816  _status */\n      0x00\n        /* \"@openzeppelin/contracts/security/ReentrancyGuard.sol\":2809:2831  _status = _NOT_ENTERED */\n      dup2\n      swap1\n      sstore\n      pop\n        /* \"@openzeppelin/contracts/security/ReentrancyGuard.sol\":2629:2838  function _nonReentrantAfter() private {... */\n      jump\t// out\n        /* \"@openzeppelin/contracts/utils/math/SafeMath.sol\":3122:3218  function sub(uint256 a, uint256 b) internal pure returns (uint256) {... */\n    tag_156:\n        /* \"@openzeppelin/contracts/utils/math/SafeMath.sol\":3180:3187  uint256 */\n      0x00\n        /* \"@openzeppelin/contracts/utils/math/SafeMath.sol\":3210:3211  b */\n      dup2\n        /* \"@openzeppelin/contracts/utils/math/SafeMath.sol\":3206:3207  a */\n      dup4\n        /* \"@openzeppelin/contracts/utils/math/SafeMath.sol\":3206:3211  a - b */\n      tag_231\n      swap2\n      swap1\n      tag_232\n      jump\t// in\n    tag_231:\n        /* \"@openzeppelin/contracts/utils/math/SafeMath.sol\":3199:3211  return a - b */\n      swap1\n      pop\n        /* \"@openzeppelin/contracts/utils/math/SafeMath.sol\":3122:3218  function sub(uint256 a, uint256 b) internal pure returns (uint256) {... */\n      swap3\n      swap2\n      pop\n      pop\n      jump\t// out\n        /* \"@openzeppelin/contracts/access/Ownable.sol\":1796:1958  function _checkOwner() internal view virtual {... */\n    tag_169:\n        /* \"@openzeppelin/contracts/access/Ownable.sol\":1866:1878  _msgSender() */\n      tag_234\n        /* \"@openzeppelin/contracts/access/Ownable.sol\":1866:1876  _msgSender */\n      tag_235\n        /* \"@openzeppelin/contracts/access/Ownable.sol\":1866:1878  _msgSender() */\n      jump\t// in\n    tag_234:\n        /* \"@openzeppelin/contracts/access/Ownable.sol\":1855:1878  owner() != _msgSender() */\n      0xffffffffffffffffffffffffffffffffffffffff\n      and\n        /* \"@openzeppelin/contracts/access/Ownable.sol\":1855:1862  owner() */\n      tag_236\n        /* \"@openzeppelin/contracts/access/Ownable.sol\":1855:1860  owner */\n      tag_94\n        /* \"@openzeppelin/contracts/access/Ownable.sol\":1855:1862  owner() */\n      jump\t// in\n    tag_236:\n        /* \"@openzeppelin/contracts/access/Ownable.sol\":1855:1878  owner() != _msgSender() */\n      0xffffffffffffffffffffffffffffffffffffffff\n      and\n      eq\n        /* \"@openzeppelin/contracts/access/Ownable.sol\":1851:1952  if (owner() != _msgSender()) {... */\n      tag_237\n      jumpi\n        /* \"@openzeppelin/contracts/access/Ownable.sol\":1928:1940  _msgSender() */\n      tag_238\n        /* \"@openzeppelin/contracts/access/Ownable.sol\":1928:1938  _msgSender */\n      tag_235\n        /* \"@openzeppelin/contracts/access/Ownable.sol\":1928:1940  _msgSender() */\n      jump\t// in\n    tag_238:\n        /* \"@openzeppelin/contracts/access/Ownable.sol\":1901:1941  OwnableUnauthorizedAccount(_msgSender()) */\n      mload(0x40)\n      0x118cdaa700000000000000000000000000000000000000000000000000000000\n      dup2\n      mstore\n      0x04\n      add\n      tag_239\n      swap2\n      swap1\n      tag_39\n      jump\t// in\n    tag_239:\n      mload(0x40)\n      dup1\n      swap2\n      sub\n      swap1\n      revert\n        /* \"@openzeppelin/contracts/access/Ownable.sol\":1851:1952  if (owner() != _msgSender()) {... */\n    tag_237:\n        /* \"@openzeppelin/contracts/access/Ownable.sol\":1796:1958  function _checkOwner() internal view virtual {... */\n      jump\t// out\n        /* \"@openzeppelin/contracts/security/Pausable.sol\":2433:2550  function _unpause() internal virtual whenPaused {... */\n    tag_178:\n        /* \"@openzeppelin/contracts/security/Pausable.sol\":1486:1502  _requirePaused() */\n      tag_241\n        /* \"@openzeppelin/contracts/security/Pausable.sol\":1486:1500  _requirePaused */\n      tag_242\n        /* \"@openzeppelin/contracts/security/Pausable.sol\":1486:1502  _requirePaused() */\n      jump\t// in\n    tag_241:\n        /* \"@openzeppelin/contracts/security/Pausable.sol\":2501:2506  false */\n      0x00\n        /* \"@openzeppelin/contracts/security/Pausable.sol\":2491:2498  _paused */\n      0x01\n      0x14\n        /* \"@openzeppelin/contracts/security/Pausable.sol\":2491:2506  _paused = false */\n      0x0100\n      exp\n      dup2\n      sload\n      dup2\n      0xff\n      mul\n      not\n      and\n      swap1\n      dup4\n      iszero\n      iszero\n      mul\n      or\n      swap1\n      sstore\n      pop\n        /* \"@openzeppelin/contracts/security/Pausable.sol\":2521:2543  Unpaused(_msgSender()) */\n      0x5db9ee0a495bf2e6ff9c91a7834c1ba4fdd244a5e8aa4e537bd38aeae4b073aa\n        /* \"@openzeppelin/contracts/security/Pausable.sol\":2530:2542  _msgSender() */\n      tag_244\n        /* \"@openzeppelin/contracts/security/Pausable.sol\":2530:2540  _msgSender */\n      tag_235\n        /* \"@openzeppelin/contracts/security/Pausable.sol\":2530:2542  _msgSender() */\n      jump\t// in\n    tag_244:\n        /* \"@openzeppelin/contracts/security/Pausable.sol\":2521:2543  Unpaused(_msgSender()) */\n      mload(0x40)\n      tag_245\n      swap2\n      swap1\n      tag_39\n      jump\t// in\n    tag_245:\n      mload(0x40)\n      dup1\n      swap2\n      sub\n      swap1\n      log1\n        /* \"@openzeppelin/contracts/security/Pausable.sol\":2433:2550  function _unpause() internal virtual whenPaused {... */\n      jump\t// out\n        /* \"@openzeppelin/contracts/access/Ownable.sol\":2912:3099  function _transferOwnership(address newOwner) internal virtual {... */\n    tag_184:\n        /* \"@openzeppelin/contracts/access/Ownable.sol\":2985:3001  address oldOwner */\n      0x00\n        /* \"@openzeppelin/contracts/access/Ownable.sol\":3004:3010  _owner */\n      0x01\n      0x00\n      swap1\n      sload\n      swap1\n      0x0100\n      exp\n      swap1\n      div\n      0xffffffffffffffffffffffffffffffffffffffff\n      and\n        /* \"@openzeppelin/contracts/access/Ownable.sol\":2985:3010  address oldOwner = _owner */\n      swap1\n      pop\n        /* \"@openzeppelin/contracts/access/Ownable.sol\":3029:3037  newOwner */\n      dup2\n        /* \"@openzeppelin/contracts/access/Ownable.sol\":3020:3026  _owner */\n      0x01\n      0x00\n        /* \"@openzeppelin/contracts/access/Ownable.sol\":3020:3037  _owner = newOwner */\n      0x0100\n      exp\n      dup2\n      sload\n      dup2\n      0xffffffffffffffffffffffffffffffffffffffff\n      mul\n      not\n      and\n      swap1\n      dup4\n      0xffffffffffffffffffffffffffffffffffffffff\n      and\n      mul\n      or\n      swap1\n      sstore\n      pop\n        /* \"@openzeppelin/contracts/access/Ownable.sol\":3083:3091  newOwner */\n      dup2\n        /* \"@openzeppelin/contracts/access/Ownable.sol\":3052:3092  OwnershipTransferred(oldOwner, newOwner) */\n      0xffffffffffffffffffffffffffffffffffffffff\n      and\n        /* \"@openzeppelin/contracts/access/Ownable.sol\":3073:3081  oldOwner */\n      dup2\n        /* \"@openzeppelin/contracts/access/Ownable.sol\":3052:3092  OwnershipTransferred(oldOwner, newOwner) */\n      0xffffffffffffffffffffffffffffffffffffffff\n      and\n      0x8be0079c531659141344cd1fd0a4f28419497f9722a3daafe3b4186f6b6457e0\n      mload(0x40)\n      mload(0x40)\n      dup1\n      swap2\n      sub\n      swap1\n      log3\n        /* \"@openzeppelin/contracts/access/Ownable.sol\":2975:3099  {... */\n      pop\n        /* \"@openzeppelin/contracts/access/Ownable.sol\":2912:3099  function _transferOwnership(address newOwner) internal virtual {... */\n      pop\n      jump\t// out\n        /* \"@openzeppelin/contracts/security/Pausable.sol\":2186:2301  function _pause() internal virtual whenNotPaused {... */\n    tag_195:\n        /* \"@openzeppelin/contracts/security/Pausable.sol\":1239:1258  _requireNotPaused() */\n      tag_248\n        /* \"@openzeppelin/contracts/security/Pausable.sol\":1239:1256  _requireNotPaused */\n      tag_117\n        /* \"@openzeppelin/contracts/security/Pausable.sol\":1239:1258  _requireNotPaused() */\n      jump\t// in\n    tag_248:\n        /* \"@openzeppelin/contracts/security/Pausable.sol\":2255:2259  true */\n      0x01\n        /* \"@openzeppelin/contracts/security/Pausable.sol\":2245:2252  _paused */\n      dup1\n      0x14\n        /* \"@openzeppelin/contracts/security/Pausable.sol\":2245:2259  _paused = true */\n      0x0100\n      exp\n      dup2\n      sload\n      dup2\n      0xff\n      mul\n      not\n      and\n      swap1\n      dup4\n      iszero\n      iszero\n      mul\n      or\n      swap1\n      sstore\n      pop\n        /* \"@openzeppelin/contracts/security/Pausable.sol\":2274:2294  Paused(_msgSender()) */\n      0x62e78cea01bee320cd4e420270b5ea74000d11b0c9f74754ebdbfc544b05a258\n        /* \"@openzeppelin/contracts/security/Pausable.sol\":2281:2293  _msgSender() */\n      tag_250\n        /* \"@openzeppelin/contracts/security/Pausable.sol\":2281:2291  _msgSender */\n      tag_235\n        /* \"@openzeppelin/contracts/security/Pausable.sol\":2281:2293  _msgSender() */\n      jump\t// in\n    tag_250:\n        /* \"@openzeppelin/contracts/security/Pausable.sol\":2274:2294  Paused(_msgSender()) */\n      mload(0x40)\n      tag_251\n      swap2\n      swap1\n      tag_39\n      jump\t// in\n    tag_251:\n      mload(0x40)\n      dup1\n      swap2\n      sub\n      swap1\n      log1\n        /* \"@openzeppelin/contracts/security/Pausable.sol\":2186:2301  function _pause() internal virtual whenNotPaused {... */\n      jump\t// out\n        /* \"@openzeppelin/contracts/utils/Context.sol\":656:752  function _msgSender() internal view virtual returns (address) {... */\n    tag_235:\n        /* \"@openzeppelin/contracts/utils/Context.sol\":709:716  address */\n      0x00\n        /* \"@openzeppelin/contracts/utils/Context.sol\":735:745  msg.sender */\n      caller\n        /* \"@openzeppelin/contracts/utils/Context.sol\":728:745  return msg.sender */\n      swap1\n      pop\n        /* \"@openzeppelin/contracts/utils/Context.sol\":656:752  function _msgSender() internal view virtual returns (address) {... */\n      swap1\n      jump\t// out\n        /* \"@openzeppelin/contracts/security/Pausable.sol\":1945:2051  function _requirePaused() internal view virtual {... */\n    tag_242:\n        /* \"@openzeppelin/contracts/security/Pausable.sol\":2011:2019  paused() */\n      tag_254\n        /* \"@openzeppelin/contracts/security/Pausable.sol\":2011:2017  paused */\n      tag_66\n        /* \"@openzeppelin/contracts/security/Pausable.sol\":2011:2019  paused() */\n      jump\t// in\n    tag_254:\n        /* \"@openzeppelin/contracts/security/Pausable.sol\":2003:2044  require(paused(), \"Pausable: not paused\") */\n      tag_255\n      jumpi\n      mload(0x40)\n      0x08c379a000000000000000000000000000000000000000000000000000000000\n      dup2\n      mstore\n      0x04\n      add\n      tag_256\n      swap1\n      tag_257\n      jump\t// in\n    tag_256:\n      mload(0x40)\n      dup1\n      swap2\n      sub\n      swap1\n      revert\n    tag_255:\n        /* \"@openzeppelin/contracts/security/Pausable.sol\":1945:2051  function _requirePaused() internal view virtual {... */\n      jump\t// out\n        /* \"#utility.yul\":7:84   */\n    tag_258:\n        /* \"#utility.yul\":44:51   */\n      0x00\n        /* \"#utility.yul\":73:78   */\n      dup2\n        /* \"#utility.yul\":62:78   */\n      swap1\n      pop\n        /* \"#utility.yul\":7:84   */\n      swap2\n      swap1\n      pop\n      jump\t// out\n        /* \"#utility.yul\":90:208   */\n    tag_259:\n        /* \"#utility.yul\":177:201   */\n      tag_306\n        /* \"#utility.yul\":195:200   */\n      dup2\n        /* \"#utility.yul\":177:201   */\n      tag_258\n      jump\t// in\n    tag_306:\n        /* \"#utility.yul\":172:175   */\n      dup3\n        /* \"#utility.yul\":165:202   */\n      mstore\n        /* \"#utility.yul\":90:208   */\n      pop\n      pop\n      jump\t// out\n        /* \"#utility.yul\":214:436   */\n    tag_34:\n        /* \"#utility.yul\":307:311   */\n      0x00\n        /* \"#utility.yul\":345:347   */\n      0x20\n        /* \"#utility.yul\":334:343   */\n      dup3\n        /* \"#utility.yul\":330:348   */\n      add\n        /* \"#utility.yul\":322:348   */\n      swap1\n      pop\n        /* \"#utility.yul\":358:429   */\n      tag_308\n        /* \"#utility.yul\":426:427   */\n      0x00\n        /* \"#utility.yul\":415:424   */\n      dup4\n        /* \"#utility.yul\":411:428   */\n      add\n        /* \"#utility.yul\":402:408   */\n      dup5\n        /* \"#utility.yul\":358:429   */\n      tag_259\n      jump\t// in\n    tag_308:\n        /* \"#utility.yul\":214:436   */\n      swap3\n      swap2\n      pop\n      pop\n      jump\t// out\n        /* \"#utility.yul\":442:568   */\n    tag_260:\n        /* \"#utility.yul\":479:486   */\n      0x00\n        /* \"#utility.yul\":519:561   */\n      0xffffffffffffffffffffffffffffffffffffffff\n        /* \"#utility.yul\":512:517   */\n      dup3\n        /* \"#utility.yul\":508:562   */\n      and\n        /* \"#utility.yul\":497:562   */\n      swap1\n      pop\n        /* \"#utility.yul\":442:568   */\n      swap2\n      swap1\n      pop\n      jump\t// out\n        /* \"#utility.yul\":574:670   */\n    tag_261:\n        /* \"#utility.yul\":611:618   */\n      0x00\n        /* \"#utility.yul\":640:664   */\n      tag_311\n        /* \"#utility.yul\":658:663   */\n      dup3\n        /* \"#utility.yul\":640:664   */\n      tag_260\n      jump\t// in\n    tag_311:\n        /* \"#utility.yul\":629:664   */\n      swap1\n      pop\n        /* \"#utility.yul\":574:670   */\n      swap2\n      swap1\n      pop\n      jump\t// out\n        /* \"#utility.yul\":676:794   */\n    tag_262:\n        /* \"#utility.yul\":763:787   */\n      tag_313\n        /* \"#utility.yul\":781:786   */\n      dup2\n        /* \"#utility.yul\":763:787   */\n      tag_261\n      jump\t// in\n    tag_313:\n        /* \"#utility.yul\":758:761   */\n      dup3\n        /* \"#utility.yul\":751:788   */\n      mstore\n        /* \"#utility.yul\":676:794   */\n      pop\n      pop\n      jump\t// out\n        /* \"#utility.yul\":800:1022   */\n    tag_39:\n        /* \"#utility.yul\":893:897   */\n      0x00\n        /* \"#utility.yul\":931:933   */\n      0x20\n        /* \"#utility.yul\":920:929   */\n      dup3\n        /* \"#utility.yul\":916:934   */\n      add\n        /* \"#utility.yul\":908:934   */\n      swap1\n      pop\n        /* \"#utility.yul\":944:1015   */\n      tag_315\n        /* \"#utility.yul\":1012:1013   */\n      0x00\n        /* \"#utility.yul\":1001:1010   */\n      dup4\n        /* \"#utility.yul\":997:1014   */\n      add\n        /* \"#utility.yul\":988:994   */\n      dup5\n        /* \"#utility.yul\":944:1015   */\n      tag_262\n      jump\t// in\n    tag_315:\n        /* \"#utility.yul\":800:1022   */\n      swap3\n      swap2\n      pop\n      pop\n      jump\t// out\n        /* \"#utility.yul\":1109:1226   */\n    tag_264:\n        /* \"#utility.yul\":1218:1219   */\n      0x00\n        /* \"#utility.yul\":1215:1216   */\n      dup1\n        /* \"#utility.yul\":1208:1220   */\n      revert\n        /* \"#utility.yul\":1355:1477   */\n    tag_266:\n        /* \"#utility.yul\":1428:1452   */\n      tag_320\n        /* \"#utility.yul\":1446:1451   */\n      dup2\n        /* \"#utility.yul\":1428:1452   */\n      tag_261\n      jump\t// in\n    tag_320:\n        /* \"#utility.yul\":1421:1426   */\n      dup2\n        /* \"#utility.yul\":1418:1453   */\n      eq\n        /* \"#utility.yul\":1408:1471   */\n      tag_321\n      jumpi\n        /* \"#utility.yul\":1467:1468   */\n      0x00\n        /* \"#utility.yul\":1464:1465   */\n      dup1\n        /* \"#utility.yul\":1457:1469   */\n      revert\n        /* \"#utility.yul\":1408:1471   */\n    tag_321:\n        /* \"#utility.yul\":1355:1477   */\n      pop\n      jump\t// out\n        /* \"#utility.yul\":1483:1622   */\n    tag_267:\n        /* \"#utility.yul\":1529:1534   */\n      0x00\n        /* \"#utility.yul\":1567:1573   */\n      dup2\n        /* \"#utility.yul\":1554:1574   */\n      calldataload\n        /* \"#utility.yul\":1545:1574   */\n      swap1\n      pop\n        /* \"#utility.yul\":1583:1616   */\n      tag_323\n        /* \"#utility.yul\":1610:1615   */\n      dup2\n        /* \"#utility.yul\":1583:1616   */\n      tag_266\n      jump\t// in\n    tag_323:\n        /* \"#utility.yul\":1483:1622   */\n      swap3\n      swap2\n      pop\n      pop\n      jump\t// out\n        /* \"#utility.yul\":1628:1957   */\n    tag_43:\n        /* \"#utility.yul\":1687:1693   */\n      0x00\n        /* \"#utility.yul\":1736:1738   */\n      0x20\n        /* \"#utility.yul\":1724:1733   */\n      dup3\n        /* \"#utility.yul\":1715:1722   */\n      dup5\n        /* \"#utility.yul\":1711:1734   */\n      sub\n        /* \"#utility.yul\":1707:1739   */\n      slt\n        /* \"#utility.yul\":1704:1823   */\n      iszero\n      tag_325\n      jumpi\n        /* \"#utility.yul\":1742:1821   */\n      tag_326\n      tag_264\n      jump\t// in\n    tag_326:\n        /* \"#utility.yul\":1704:1823   */\n    tag_325:\n        /* \"#utility.yul\":1862:1863   */\n      0x00\n        /* \"#utility.yul\":1887:1940   */\n      tag_327\n        /* \"#utility.yul\":1932:1939   */\n      dup5\n        /* \"#utility.yul\":1923:1929   */\n      dup3\n        /* \"#utility.yul\":1912:1921   */\n      dup6\n        /* \"#utility.yul\":1908:1930   */\n      add\n        /* \"#utility.yul\":1887:1940   */\n      tag_267\n      jump\t// in\n    tag_327:\n        /* \"#utility.yul\":1877:1940   */\n      swap2\n      pop\n        /* \"#utility.yul\":1833:1950   */\n      pop\n        /* \"#utility.yul\":1628:1957   */\n      swap3\n      swap2\n      pop\n      pop\n      jump\t// out\n        /* \"#utility.yul\":1963:2085   */\n    tag_268:\n        /* \"#utility.yul\":2036:2060   */\n      tag_329\n        /* \"#utility.yul\":2054:2059   */\n      dup2\n        /* \"#utility.yul\":2036:2060   */\n      tag_258\n      jump\t// in\n    tag_329:\n        /* \"#utility.yul\":2029:2034   */\n      dup2\n        /* \"#utility.yul\":2026:2061   */\n      eq\n        /* \"#utility.yul\":2016:2079   */\n      tag_330\n      jumpi\n        /* \"#utility.yul\":2075:2076   */\n      0x00\n        /* \"#utility.yul\":2072:2073   */\n      dup1\n        /* \"#utility.yul\":2065:2077   */\n      revert\n        /* \"#utility.yul\":2016:2079   */\n    tag_330:\n        /* \"#utility.yul\":1963:2085   */\n      pop\n      jump\t// out\n        /* \"#utility.yul\":2091:2230   */\n    tag_269:\n        /* \"#utility.yul\":2137:2142   */\n      0x00\n        /* \"#utility.yul\":2175:2181   */\n      dup2\n        /* \"#utility.yul\":2162:2182   */\n      calldataload\n        /* \"#utility.yul\":2153:2182   */\n      swap1\n      pop\n        /* \"#utility.yul\":2191:2224   */\n      tag_332\n        /* \"#utility.yul\":2218:2223   */\n      dup2\n        /* \"#utility.yul\":2191:2224   */\n      tag_268\n      jump\t// in\n    tag_332:\n        /* \"#utility.yul\":2091:2230   */\n      swap3\n      swap2\n      pop\n      pop\n      jump\t// out\n        /* \"#utility.yul\":2236:2565   */\n    tag_49:\n        /* \"#utility.yul\":2295:2301   */\n      0x00\n        /* \"#utility.yul\":2344:2346   */\n      0x20\n        /* \"#utility.yul\":2332:2341   */\n      dup3\n        /* \"#utility.yul\":2323:2330   */\n      dup5\n        /* \"#utility.yul\":2319:2342   */\n      sub\n        /* \"#utility.yul\":2315:2347   */\n      slt\n        /* \"#utility.yul\":2312:2431   */\n      iszero\n      tag_334\n      jumpi\n        /* \"#utility.yul\":2350:2429   */\n      tag_335\n      tag_264\n      jump\t// in\n    tag_335:\n        /* \"#utility.yul\":2312:2431   */\n    tag_334:\n        /* \"#utility.yul\":2470:2471   */\n      0x00\n        /* \"#utility.yul\":2495:2548   */\n      tag_336\n        /* \"#utility.yul\":2540:2547   */\n      dup5\n        /* \"#utility.yul\":2531:2537   */\n      dup3\n        /* \"#utility.yul\":2520:2529   */\n      dup6\n        /* \"#utility.yul\":2516:2538   */\n      add\n        /* \"#utility.yul\":2495:2548   */\n      tag_269\n      jump\t// in\n    tag_336:\n        /* \"#utility.yul\":2485:2548   */\n      swap2\n      pop\n        /* \"#utility.yul\":2441:2558   */\n      pop\n        /* \"#utility.yul\":2236:2565   */\n      swap3\n      swap2\n      pop\n      pop\n      jump\t// out\n        /* \"#utility.yul\":2571:2661   */\n    tag_270:\n        /* \"#utility.yul\":2605:2612   */\n      0x00\n        /* \"#utility.yul\":2648:2653   */\n      dup2\n        /* \"#utility.yul\":2641:2654   */\n      iszero\n        /* \"#utility.yul\":2634:2655   */\n      iszero\n        /* \"#utility.yul\":2623:2655   */\n      swap1\n      pop\n        /* \"#utility.yul\":2571:2661   */\n      swap2\n      swap1\n      pop\n      jump\t// out\n        /* \"#utility.yul\":2667:2776   */\n    tag_271:\n        /* \"#utility.yul\":2748:2769   */\n      tag_339\n        /* \"#utility.yul\":2763:2768   */\n      dup2\n        /* \"#utility.yul\":2748:2769   */\n      tag_270\n      jump\t// in\n    tag_339:\n        /* \"#utility.yul\":2743:2746   */\n      dup3\n        /* \"#utility.yul\":2736:2770   */\n      mstore\n        /* \"#utility.yul\":2667:2776   */\n      pop\n      pop\n      jump\t// out\n        /* \"#utility.yul\":2782:2992   */\n    tag_68:\n        /* \"#utility.yul\":2869:2873   */\n      0x00\n        /* \"#utility.yul\":2907:2909   */\n      0x20\n        /* \"#utility.yul\":2896:2905   */\n      dup3\n        /* \"#utility.yul\":2892:2910   */\n      add\n        /* \"#utility.yul\":2884:2910   */\n      swap1\n      pop\n        /* \"#utility.yul\":2920:2985   */\n      tag_341\n        /* \"#utility.yul\":2982:2983   */\n      0x00\n        /* \"#utility.yul\":2971:2980   */\n      dup4\n        /* \"#utility.yul\":2967:2984   */\n      add\n        /* \"#utility.yul\":2958:2964   */\n      dup5\n        /* \"#utility.yul\":2920:2985   */\n      tag_271\n      jump\t// in\n    tag_341:\n        /* \"#utility.yul\":2782:2992   */\n      swap3\n      swap2\n      pop\n      pop\n      jump\t// out\n        /* \"#utility.yul\":2998:3167   */\n    tag_272:\n        /* \"#utility.yul\":3082:3093   */\n      0x00\n        /* \"#utility.yul\":3116:3122   */\n      dup3\n        /* \"#utility.yul\":3111:3114   */\n      dup3\n        /* \"#utility.yul\":3104:3123   */\n      mstore\n        /* \"#utility.yul\":3156:3160   */\n      0x20\n        /* \"#utility.yul\":3151:3154   */\n      dup3\n        /* \"#utility.yul\":3147:3161   */\n      add\n        /* \"#utility.yul\":3132:3161   */\n      swap1\n      pop\n        /* \"#utility.yul\":2998:3167   */\n      swap3\n      swap2\n      pop\n      pop\n      jump\t// out\n        /* \"#utility.yul\":3173:3343   */\n    tag_273:\n        /* \"#utility.yul\":3313:3335   */\n      0x5374616b6520616d6f756e7420746f6f206c6f77000000000000000000000000\n        /* \"#utility.yul\":3309:3310   */\n      0x00\n        /* \"#utility.yul\":3301:3307   */\n      dup3\n        /* \"#utility.yul\":3297:3311   */\n      add\n        /* \"#utility.yul\":3290:3336   */\n      mstore\n        /* \"#utility.yul\":3173:3343   */\n      pop\n      jump\t// out\n        /* \"#utility.yul\":3349:3715   */\n    tag_274:\n        /* \"#utility.yul\":3491:3494   */\n      0x00\n        /* \"#utility.yul\":3512:3579   */\n      tag_345\n        /* \"#utility.yul\":3576:3578   */\n      0x14\n        /* \"#utility.yul\":3571:3574   */\n      dup4\n        /* \"#utility.yul\":3512:3579   */\n      tag_272\n      jump\t// in\n    tag_345:\n        /* \"#utility.yul\":3505:3579   */\n      swap2\n      pop\n        /* \"#utility.yul\":3588:3681   */\n      tag_346\n        /* \"#utility.yul\":3677:3680   */\n      dup3\n        /* \"#utility.yul\":3588:3681   */\n      tag_273\n      jump\t// in\n    tag_346:\n        /* \"#utility.yul\":3706:3708   */\n      0x20\n        /* \"#utility.yul\":3701:3704   */\n      dup3\n        /* \"#utility.yul\":3697:3709   */\n      add\n        /* \"#utility.yul\":3690:3709   */\n      swap1\n      pop\n        /* \"#utility.yul\":3349:3715   */\n      swap2\n      swap1\n      pop\n      jump\t// out\n        /* \"#utility.yul\":3721:4140   */\n    tag_121:\n        /* \"#utility.yul\":3887:3891   */\n      0x00\n        /* \"#utility.yul\":3925:3927   */\n      0x20\n        /* \"#utility.yul\":3914:3923   */\n      dup3\n        /* \"#utility.yul\":3910:3928   */\n      add\n        /* \"#utility.yul\":3902:3928   */\n      swap1\n      pop\n        /* \"#utility.yul\":3974:3983   */\n      dup2\n        /* \"#utility.yul\":3968:3972   */\n      dup2\n        /* \"#utility.yul\":3964:3984   */\n      sub\n        /* \"#utility.yul\":3960:3961   */\n      0x00\n        /* \"#utility.yul\":3949:3958   */\n      dup4\n        /* \"#utility.yul\":3945:3962   */\n      add\n        /* \"#utility.yul\":3938:3985   */\n      mstore\n        /* \"#utility.yul\":4002:4133   */\n      tag_348\n        /* \"#utility.yul\":4128:4132   */\n      dup2\n        /* \"#utility.yul\":4002:4133   */\n      tag_274\n      jump\t// in\n    tag_348:\n        /* \"#utility.yul\":3994:4133   */\n      swap1\n      pop\n        /* \"#utility.yul\":3721:4140   */\n      swap2\n      swap1\n      pop\n      jump\t// out\n        /* \"#utility.yul\":4146:4317   */\n    tag_275:\n        /* \"#utility.yul\":4286:4309   */\n      0x5374616b6520616d6f756e7420746f6f20686967680000000000000000000000\n        /* \"#utility.yul\":4282:4283   */\n      0x00\n        /* \"#utility.yul\":4274:4280   */\n      dup3\n        /* \"#utility.yul\":4270:4284   */\n      add\n        /* \"#utility.yul\":4263:4310   */\n      mstore\n        /* \"#utility.yul\":4146:4317   */\n      pop\n      jump\t// out\n        /* \"#utility.yul\":4323:4689   */\n    tag_276:\n        /* \"#utility.yul\":4465:4468   */\n      0x00\n        /* \"#utility.yul\":4486:4553   */\n      tag_351\n        /* \"#utility.yul\":4550:4552   */\n      0x15\n        /* \"#utility.yul\":4545:4548   */\n      dup4\n        /* \"#utility.yul\":4486:4553   */\n      tag_272\n      jump\t// in\n    tag_351:\n        /* \"#utility.yul\":4479:4553   */\n      swap2\n      pop\n        /* \"#utility.yul\":4562:4655   */\n      tag_352\n        /* \"#utility.yul\":4651:4654   */\n      dup3\n        /* \"#utility.yul\":4562:4655   */\n      tag_275\n      jump\t// in\n    tag_352:\n        /* \"#utility.yul\":4680:4682   */\n      0x20\n        /* \"#utility.yul\":4675:4678   */\n      dup3\n        /* \"#utility.yul\":4671:4683   */\n      add\n        /* \"#utility.yul\":4664:4683   */\n      swap1\n      pop\n        /* \"#utility.yul\":4323:4689   */\n      swap2\n      swap1\n      pop\n      jump\t// out\n        /* \"#utility.yul\":4695:5114   */\n    tag_124:\n        /* \"#utility.yul\":4861:4865   */\n      0x00\n        /* \"#utility.yul\":4899:4901   */\n      0x20\n        /* \"#utility.yul\":4888:4897   */\n      dup3\n        /* \"#utility.yul\":4884:4902   */\n      add\n        /* \"#utility.yul\":4876:4902   */\n      swap1\n      pop\n        /* \"#utility.yul\":4948:4957   */\n      dup2\n        /* \"#utility.yul\":4942:4946   */\n      dup2\n        /* \"#utility.yul\":4938:4958   */\n      sub\n        /* \"#utility.yul\":4934:4935   */\n      0x00\n        /* \"#utility.yul\":4923:4932   */\n      dup4\n        /* \"#utility.yul\":4919:4936   */\n      add\n        /* \"#utility.yul\":4912:4959   */\n      mstore\n        /* \"#utility.yul\":4976:5107   */\n      tag_354\n        /* \"#utility.yul\":5102:5106   */\n      dup2\n        /* \"#utility.yul\":4976:5107   */\n      tag_276\n      jump\t// in\n    tag_354:\n        /* \"#utility.yul\":4968:5107   */\n      swap1\n      pop\n        /* \"#utility.yul\":4695:5114   */\n      swap2\n      swap1\n      pop\n      jump\t// out\n        /* \"#utility.yul\":5120:5297   */\n    tag_277:\n        /* \"#utility.yul\":5260:5289   */\n      0x546f74616c207374616b652065786365656473206d6178696d756d0000000000\n        /* \"#utility.yul\":5256:5257   */\n      0x00\n        /* \"#utility.yul\":5248:5254   */\n      dup3\n        /* \"#utility.yul\":5244:5258   */\n      add\n        /* \"#utility.yul\":5237:5290   */\n      mstore\n        /* \"#utility.yul\":5120:5297   */\n      pop\n      jump\t// out\n        /* \"#utility.yul\":5303:5669   */\n    tag_278:\n        /* \"#utility.yul\":5445:5448   */\n      0x00\n        /* \"#utility.yul\":5466:5533   */\n      tag_357\n        /* \"#utility.yul\":5530:5532   */\n      0x1b\n        /* \"#utility.yul\":5525:5528   */\n      dup4\n        /* \"#utility.yul\":5466:5533   */\n      tag_272\n      jump\t// in\n    tag_357:\n        /* \"#utility.yul\":5459:5533   */\n      swap2\n      pop\n        /* \"#utility.yul\":5542:5635   */\n      tag_358\n        /* \"#utility.yul\":5631:5634   */\n      dup3\n        /* \"#utility.yul\":5542:5635   */\n      tag_277\n      jump\t// in\n    tag_358:\n        /* \"#utility.yul\":5660:5662   */\n      0x20\n        /* \"#utility.yul\":5655:5658   */\n      dup3\n        /* \"#utility.yul\":5651:5663   */\n      add\n        /* \"#utility.yul\":5644:5663   */\n      swap1\n      pop\n        /* \"#utility.yul\":5303:5669   */\n      swap2\n      swap1\n      pop\n      jump\t// out\n        /* \"#utility.yul\":5675:6094   */\n    tag_129:\n        /* \"#utility.yul\":5841:5845   */\n      0x00\n        /* \"#utility.yul\":5879:5881   */\n      0x20\n        /* \"#utility.yul\":5868:5877   */\n      dup3\n        /* \"#utility.yul\":5864:5882   */\n      add\n        /* \"#utility.yul\":5856:5882   */\n      swap1\n      pop\n        /* \"#utility.yul\":5928:5937   */\n      dup2\n        /* \"#utility.yul\":5922:5926   */\n      dup2\n        /* \"#utility.yul\":5918:5938   */\n      sub\n        /* \"#utility.yul\":5914:5915   */\n      0x00\n        /* \"#utility.yul\":5903:5912   */\n      dup4\n        /* \"#utility.yul\":5899:5916   */\n      add\n        /* \"#utility.yul\":5892:5939   */\n      mstore\n        /* \"#utility.yul\":5956:6087   */\n      tag_360\n        /* \"#utility.yul\":6082:6086   */\n      dup2\n        /* \"#utility.yul\":5956:6087   */\n      tag_278\n      jump\t// in\n    tag_360:\n        /* \"#utility.yul\":5948:6087   */\n      swap1\n      pop\n        /* \"#utility.yul\":5675:6094   */\n      swap2\n      swap1\n      pop\n      jump\t// out\n        /* \"#utility.yul\":6100:6247   */\n    tag_279:\n        /* \"#utility.yul\":6201:6212   */\n      0x00\n        /* \"#utility.yul\":6238:6241   */\n      dup2\n        /* \"#utility.yul\":6223:6241   */\n      swap1\n      pop\n        /* \"#utility.yul\":6100:6247   */\n      swap3\n      swap2\n      pop\n      pop\n      jump\t// out\n        /* \"#utility.yul\":6253:6367   */\n    tag_280:\n      pop\n      jump\t// out\n        /* \"#utility.yul\":6373:6771   */\n    tag_281:\n        /* \"#utility.yul\":6532:6535   */\n      0x00\n        /* \"#utility.yul\":6553:6636   */\n      tag_364\n        /* \"#utility.yul\":6634:6635   */\n      0x00\n        /* \"#utility.yul\":6629:6632   */\n      dup4\n        /* \"#utility.yul\":6553:6636   */\n      tag_279\n      jump\t// in\n    tag_364:\n        /* \"#utility.yul\":6546:6636   */\n      swap2\n      pop\n        /* \"#utility.yul\":6645:6738   */\n      tag_365\n        /* \"#utility.yul\":6734:6737   */\n      dup3\n        /* \"#utility.yul\":6645:6738   */\n      tag_280\n      jump\t// in\n    tag_365:\n        /* \"#utility.yul\":6763:6764   */\n      0x00\n        /* \"#utility.yul\":6758:6761   */\n      dup3\n        /* \"#utility.yul\":6754:6765   */\n      add\n        /* \"#utility.yul\":6747:6765   */\n      swap1\n      pop\n        /* \"#utility.yul\":6373:6771   */\n      swap2\n      swap1\n      pop\n      jump\t// out\n        /* \"#utility.yul\":6777:7156   */\n    tag_133:\n        /* \"#utility.yul\":6961:6964   */\n      0x00\n        /* \"#utility.yul\":6983:7130   */\n      tag_367\n        /* \"#utility.yul\":7126:7129   */\n      dup3\n        /* \"#utility.yul\":6983:7130   */\n      tag_281\n      jump\t// in\n    tag_367:\n        /* \"#utility.yul\":6976:7130   */\n      swap2\n      pop\n        /* \"#utility.yul\":7147:7150   */\n      dup2\n        /* \"#utility.yul\":7140:7150   */\n      swap1\n      pop\n        /* \"#utility.yul\":6777:7156   */\n      swap2\n      swap1\n      pop\n      jump\t// out\n        /* \"#utility.yul\":7162:7391   */\n    tag_282:\n        /* \"#utility.yul\":7302:7336   */\n      0x4661696c656420746f207472616e73666572207374616b6520746f207374616b\n        /* \"#utility.yul\":7298:7299   */\n      0x00\n        /* \"#utility.yul\":7290:7296   */\n      dup3\n        /* \"#utility.yul\":7286:7300   */\n      add\n        /* \"#utility.yul\":7279:7337   */\n      mstore\n        /* \"#utility.yul\":7371:7383   */\n      0x696e672077616c6c657400000000000000000000000000000000000000000000\n        /* \"#utility.yul\":7366:7368   */\n      0x20\n        /* \"#utility.yul\":7358:7364   */\n      dup3\n        /* \"#utility.yul\":7354:7369   */\n      add\n        /* \"#utility.yul\":7347:7384   */\n      mstore\n        /* \"#utility.yul\":7162:7391   */\n      pop\n      jump\t// out\n        /* \"#utility.yul\":7397:7763   */\n    tag_283:\n        /* \"#utility.yul\":7539:7542   */\n      0x00\n        /* \"#utility.yul\":7560:7627   */\n      tag_370\n        /* \"#utility.yul\":7624:7626   */\n      0x2a\n        /* \"#utility.yul\":7619:7622   */\n      dup4\n        /* \"#utility.yul\":7560:7627   */\n      tag_272\n      jump\t// in\n    tag_370:\n        /* \"#utility.yul\":7553:7627   */\n      swap2\n      pop\n        /* \"#utility.yul\":7636:7729   */\n      tag_371\n        /* \"#utility.yul\":7725:7728   */\n      dup3\n        /* \"#utility.yul\":7636:7729   */\n      tag_282\n      jump\t// in\n    tag_371:\n        /* \"#utility.yul\":7754:7756   */\n      0x40\n        /* \"#utility.yul\":7749:7752   */\n      dup3\n        /* \"#utility.yul\":7745:7757   */\n      add\n        /* \"#utility.yul\":7738:7757   */\n      swap1\n      pop\n        /* \"#utility.yul\":7397:7763   */\n      swap2\n      swap1\n      pop\n      jump\t// out\n        /* \"#utility.yul\":7769:8188   */\n    tag_139:\n        /* \"#utility.yul\":7935:7939   */\n      0x00\n        /* \"#utility.yul\":7973:7975   */\n      0x20\n        /* \"#utility.yul\":7962:7971   */\n      dup3\n        /* \"#utility.yul\":7958:7976   */\n      add\n        /* \"#utility.yul\":7950:7976   */\n      swap1\n      pop\n        /* \"#utility.yul\":8022:8031   */\n      dup2\n        /* \"#utility.yul\":8016:8020   */\n      dup2\n        /* \"#utility.yul\":8012:8032   */\n      sub\n        /* \"#utility.yul\":8008:8009   */\n      0x00\n        /* \"#utility.yul\":7997:8006   */\n      dup4\n        /* \"#utility.yul\":7993:8010   */\n      add\n        /* \"#utility.yul\":7986:8033   */\n      mstore\n        /* \"#utility.yul\":8050:8181   */\n      tag_373\n        /* \"#utility.yul\":8176:8180   */\n      dup2\n        /* \"#utility.yul\":8050:8181   */\n      tag_283\n      jump\t// in\n    tag_373:\n        /* \"#utility.yul\":8042:8181   */\n      swap1\n      pop\n        /* \"#utility.yul\":7769:8188   */\n      swap2\n      swap1\n      pop\n      jump\t// out\n        /* \"#utility.yul\":8194:8362   */\n    tag_284:\n        /* \"#utility.yul\":8334:8354   */\n      0x496e73756666696369656e74207374616b650000000000000000000000000000\n        /* \"#utility.yul\":8330:8331   */\n      0x00\n        /* \"#utility.yul\":8322:8328   */\n      dup3\n        /* \"#utility.yul\":8318:8332   */\n      add\n        /* \"#utility.yul\":8311:8355   */\n      mstore\n        /* \"#utility.yul\":8194:8362   */\n      pop\n      jump\t// out\n        /* \"#utility.yul\":8368:8734   */\n    tag_285:\n        /* \"#utility.yul\":8510:8513   */\n      0x00\n        /* \"#utility.yul\":8531:8598   */\n      tag_376\n        /* \"#utility.yul\":8595:8597   */\n      0x12\n        /* \"#utility.yul\":8590:8593   */\n      dup4\n        /* \"#utility.yul\":8531:8598   */\n      tag_272\n      jump\t// in\n    tag_376:\n        /* \"#utility.yul\":8524:8598   */\n      swap2\n      pop\n        /* \"#utility.yul\":8607:8700   */\n      tag_377\n        /* \"#utility.yul\":8696:8699   */\n      dup3\n        /* \"#utility.yul\":8607:8700   */\n      tag_284\n      jump\t// in\n    tag_377:\n        /* \"#utility.yul\":8725:8727   */\n      0x20\n        /* \"#utility.yul\":8720:8723   */\n      dup3\n        /* \"#utility.yul\":8716:8728   */\n      add\n        /* \"#utility.yul\":8709:8728   */\n      swap1\n      pop\n        /* \"#utility.yul\":8368:8734   */\n      swap2\n      swap1\n      pop\n      jump\t// out\n        /* \"#utility.yul\":8740:9159   */\n    tag_150:\n        /* \"#utility.yul\":8906:8910   */\n      0x00\n        /* \"#utility.yul\":8944:8946   */\n      0x20\n        /* \"#utility.yul\":8933:8942   */\n      dup3\n        /* \"#utility.yul\":8929:8947   */\n      add\n        /* \"#utility.yul\":8921:8947   */\n      swap1\n      pop\n        /* \"#utility.yul\":8993:9002   */\n      dup2\n        /* \"#utility.yul\":8987:8991   */\n      dup2\n        /* \"#utility.yul\":8983:9003   */\n      sub\n        /* \"#utility.yul\":8979:8980   */\n      0x00\n        /* \"#utility.yul\":8968:8977   */\n      dup4\n        /* \"#utility.yul\":8964:8981   */\n      add\n        /* \"#utility.yul\":8957:9004   */\n      mstore\n        /* \"#utility.yul\":9021:9152   */\n      tag_379\n        /* \"#utility.yul\":9147:9151   */\n      dup2\n        /* \"#utility.yul\":9021:9152   */\n      tag_285\n      jump\t// in\n    tag_379:\n        /* \"#utility.yul\":9013:9152   */\n      swap1\n      pop\n        /* \"#utility.yul\":8740:9159   */\n      swap2\n      swap1\n      pop\n      jump\t// out\n        /* \"#utility.yul\":9165:9338   */\n    tag_286:\n        /* \"#utility.yul\":9305:9330   */\n      0x436f6f6c646f776e20706572696f64206e6f74206d6574000000000000000000\n        /* \"#utility.yul\":9301:9302   */\n      0x00\n        /* \"#utility.yul\":9293:9299   */\n      dup3\n        /* \"#utility.yul\":9289:9303   */\n      add\n        /* \"#utility.yul\":9282:9331   */\n      mstore\n        /* \"#utility.yul\":9165:9338   */\n      pop\n      jump\t// out\n        /* \"#utility.yul\":9344:9710   */\n    tag_287:\n        /* \"#utility.yul\":9486:9489   */\n      0x00\n        /* \"#utility.yul\":9507:9574   */\n      tag_382\n        /* \"#utility.yul\":9571:9573   */\n      0x17\n        /* \"#utility.yul\":9566:9569   */\n      dup4\n        /* \"#utility.yul\":9507:9574   */\n      tag_272\n      jump\t// in\n    tag_382:\n        /* \"#utility.yul\":9500:9574   */\n      swap2\n      pop\n        /* \"#utility.yul\":9583:9676   */\n      tag_383\n        /* \"#utility.yul\":9672:9675   */\n      dup3\n        /* \"#utility.yul\":9583:9676   */\n      tag_286\n      jump\t// in\n    tag_383:\n        /* \"#utility.yul\":9701:9703   */\n      0x20\n        /* \"#utility.yul\":9696:9699   */\n      dup3\n        /* \"#utility.yul\":9692:9704   */\n      add\n        /* \"#utility.yul\":9685:9704   */\n      swap1\n      pop\n        /* \"#utility.yul\":9344:9710   */\n      swap2\n      swap1\n      pop\n      jump\t// out\n        /* \"#utility.yul\":9716:10135   */\n    tag_154:\n        /* \"#utility.yul\":9882:9886   */\n      0x00\n        /* \"#utility.yul\":9920:9922   */\n      0x20\n        /* \"#utility.yul\":9909:9918   */\n      dup3\n        /* \"#utility.yul\":9905:9923   */\n      add\n        /* \"#utility.yul\":9897:9923   */\n      swap1\n      pop\n        /* \"#utility.yul\":9969:9978   */\n      dup2\n        /* \"#utility.yul\":9963:9967   */\n      dup2\n        /* \"#utility.yul\":9959:9979   */\n      sub\n        /* \"#utility.yul\":9955:9956   */\n      0x00\n        /* \"#utility.yul\":9944:9953   */\n      dup4\n        /* \"#utility.yul\":9940:9957   */\n      add\n        /* \"#utility.yul\":9933:9980   */\n      mstore\n        /* \"#utility.yul\":9997:10128   */\n      tag_385\n        /* \"#utility.yul\":10123:10127   */\n      dup2\n        /* \"#utility.yul\":9997:10128   */\n      tag_287\n      jump\t// in\n    tag_385:\n        /* \"#utility.yul\":9989:10128   */\n      swap1\n      pop\n        /* \"#utility.yul\":9716:10135   */\n      swap2\n      swap1\n      pop\n      jump\t// out\n        /* \"#utility.yul\":10141:10309   */\n    tag_288:\n        /* \"#utility.yul\":10281:10301   */\n      0x4661696c656420746f2073656e6420424e420000000000000000000000000000\n        /* \"#utility.yul\":10277:10278   */\n      0x00\n        /* \"#utility.yul\":10269:10275   */\n      dup3\n        /* \"#utility.yul\":10265:10279   */\n      add\n        /* \"#utility.yul\":10258:10302   */\n      mstore\n        /* \"#utility.yul\":10141:10309   */\n      pop\n      jump\t// out\n        /* \"#utility.yul\":10315:10681   */\n    tag_289:\n        /* \"#utility.yul\":10457:10460   */\n      0x00\n        /* \"#utility.yul\":10478:10545   */\n      tag_388\n        /* \"#utility.yul\":10542:10544   */\n      0x12\n        /* \"#utility.yul\":10537:10540   */\n      dup4\n        /* \"#utility.yul\":10478:10545   */\n      tag_272\n      jump\t// in\n    tag_388:\n        /* \"#utility.yul\":10471:10545   */\n      swap2\n      pop\n        /* \"#utility.yul\":10554:10647   */\n      tag_389\n        /* \"#utility.yul\":10643:10646   */\n      dup3\n        /* \"#utility.yul\":10554:10647   */\n      tag_288\n      jump\t// in\n    tag_389:\n        /* \"#utility.yul\":10672:10674   */\n      0x20\n        /* \"#utility.yul\":10667:10670   */\n      dup3\n        /* \"#utility.yul\":10663:10675   */\n      add\n        /* \"#utility.yul\":10656:10675   */\n      swap1\n      pop\n        /* \"#utility.yul\":10315:10681   */\n      swap2\n      swap1\n      pop\n      jump\t// out\n        /* \"#utility.yul\":10687:11106   */\n    tag_164:\n        /* \"#utility.yul\":10853:10857   */\n      0x00\n        /* \"#utility.yul\":10891:10893   */\n      0x20\n        /* \"#utility.yul\":10880:10889   */\n      dup3\n        /* \"#utility.yul\":10876:10894   */\n      add\n        /* \"#utility.yul\":10868:10894   */\n      swap1\n      pop\n        /* \"#utility.yul\":10940:10949   */\n      dup2\n        /* \"#utility.yul\":10934:10938   */\n      dup2\n        /* \"#utility.yul\":10930:10950   */\n      sub\n        /* \"#utility.yul\":10926:10927   */\n      0x00\n        /* \"#utility.yul\":10915:10924   */\n      dup4\n        /* \"#utility.yul\":10911:10928   */\n      add\n        /* \"#utility.yul\":10904:10951   */\n      mstore\n        /* \"#utility.yul\":10968:11099   */\n      tag_391\n        /* \"#utility.yul\":11094:11098   */\n      dup2\n        /* \"#utility.yul\":10968:11099   */\n      tag_289\n      jump\t// in\n    tag_391:\n        /* \"#utility.yul\":10960:11099   */\n      swap1\n      pop\n        /* \"#utility.yul\":10687:11106   */\n      swap2\n      swap1\n      pop\n      jump\t// out\n        /* \"#utility.yul\":11112:11333   */\n    tag_290:\n        /* \"#utility.yul\":11252:11286   */\n      0x496e76616c6964206e6577207374616b696e672077616c6c6574206164647265\n        /* \"#utility.yul\":11248:11249   */\n      0x00\n        /* \"#utility.yul\":11240:11246   */\n      dup3\n        /* \"#utility.yul\":11236:11250   */\n      add\n        /* \"#utility.yul\":11229:11287   */\n      mstore\n        /* \"#utility.yul\":11321:11325   */\n      0x7373000000000000000000000000000000000000000000000000000000000000\n        /* \"#utility.yul\":11316:11318   */\n      0x20\n        /* \"#utility.yul\":11308:11314   */\n      dup3\n        /* \"#utility.yul\":11304:11319   */\n      add\n        /* \"#utility.yul\":11297:11326   */\n      mstore\n        /* \"#utility.yul\":11112:11333   */\n      pop\n      jump\t// out\n        /* \"#utility.yul\":11339:11705   */\n    tag_291:\n        /* \"#utility.yul\":11481:11484   */\n      0x00\n        /* \"#utility.yul\":11502:11569   */\n      tag_394\n        /* \"#utility.yul\":11566:11568   */\n      0x22\n        /* \"#utility.yul\":11561:11564   */\n      dup4\n        /* \"#utility.yul\":11502:11569   */\n      tag_272\n      jump\t// in\n    tag_394:\n        /* \"#utility.yul\":11495:11569   */\n      swap2\n      pop\n        /* \"#utility.yul\":11578:11671   */\n      tag_395\n        /* \"#utility.yul\":11667:11670   */\n      dup3\n        /* \"#utility.yul\":11578:11671   */\n      tag_290\n      jump\t// in\n    tag_395:\n        /* \"#utility.yul\":11696:11698   */\n      0x40\n        /* \"#utility.yul\":11691:11694   */\n      dup3\n        /* \"#utility.yul\":11687:11699   */\n      add\n        /* \"#utility.yul\":11680:11699   */\n      swap1\n      pop\n        /* \"#utility.yul\":11339:11705   */\n      swap2\n      swap1\n      pop\n      jump\t// out\n        /* \"#utility.yul\":11711:12130   */\n    tag_173:\n        /* \"#utility.yul\":11877:11881   */\n      0x00\n        /* \"#utility.yul\":11915:11917   */\n      0x20\n        /* \"#utility.yul\":11904:11913   */\n      dup3\n        /* \"#utility.yul\":11900:11918   */\n      add\n        /* \"#utility.yul\":11892:11918   */\n      swap1\n      pop\n        /* \"#utility.yul\":11964:11973   */\n      dup2\n        /* \"#utility.yul\":11958:11962   */\n      dup2\n        /* \"#utility.yul\":11954:11974   */\n      sub\n        /* \"#utility.yul\":11950:11951   */\n      0x00\n        /* \"#utility.yul\":11939:11948   */\n      dup4\n        /* \"#utility.yul\":11935:11952   */\n      add\n        /* \"#utility.yul\":11928:11975   */\n      mstore\n        /* \"#utility.yul\":11992:12123   */\n      tag_397\n        /* \"#utility.yul\":12118:12122   */\n      dup2\n        /* \"#utility.yul\":11992:12123   */\n      tag_291\n      jump\t// in\n    tag_397:\n        /* \"#utility.yul\":11984:12123   */\n      swap1\n      pop\n        /* \"#utility.yul\":11711:12130   */\n      swap2\n      swap1\n      pop\n      jump\t// out\n        /* \"#utility.yul\":12136:12468   */\n    tag_190:\n        /* \"#utility.yul\":12257:12261   */\n      0x00\n        /* \"#utility.yul\":12295:12297   */\n      0x40\n        /* \"#utility.yul\":12284:12293   */\n      dup3\n        /* \"#utility.yul\":12280:12298   */\n      add\n        /* \"#utility.yul\":12272:12298   */\n      swap1\n      pop\n        /* \"#utility.yul\":12308:12379   */\n      tag_399\n        /* \"#utility.yul\":12376:12377   */\n      0x00\n        /* \"#utility.yul\":12365:12374   */\n      dup4\n        /* \"#utility.yul\":12361:12378   */\n      add\n        /* \"#utility.yul\":12352:12358   */\n      dup6\n        /* \"#utility.yul\":12308:12379   */\n      tag_259\n      jump\t// in\n    tag_399:\n        /* \"#utility.yul\":12389:12461   */\n      tag_400\n        /* \"#utility.yul\":12457:12459   */\n      0x20\n        /* \"#utility.yul\":12446:12455   */\n      dup4\n        /* \"#utility.yul\":12442:12460   */\n      add\n        /* \"#utility.yul\":12433:12439   */\n      dup5\n        /* \"#utility.yul\":12389:12461   */\n      tag_259\n      jump\t// in\n    tag_400:\n        /* \"#utility.yul\":12136:12468   */\n      swap4\n      swap3\n      pop\n      pop\n      pop\n      jump\t// out\n        /* \"#utility.yul\":12474:12703   */\n    tag_292:\n        /* \"#utility.yul\":12614:12648   */\n      0x4d617820616d6f756e74206d7573742062652067726561746572207468616e20\n        /* \"#utility.yul\":12610:12611   */\n      0x00\n        /* \"#utility.yul\":12602:12608   */\n      dup3\n        /* \"#utility.yul\":12598:12612   */\n      add\n        /* \"#utility.yul\":12591:12649   */\n      mstore\n        /* \"#utility.yul\":12683:12695   */\n      0x6d696e20616d6f756e7400000000000000000000000000000000000000000000\n        /* \"#utility.yul\":12678:12680   */\n      0x20\n        /* \"#utility.yul\":12670:12676   */\n      dup3\n        /* \"#utility.yul\":12666:12681   */\n      add\n        /* \"#utility.yul\":12659:12696   */\n      mstore\n        /* \"#utility.yul\":12474:12703   */\n      pop\n      jump\t// out\n        /* \"#utility.yul\":12709:13075   */\n    tag_293:\n        /* \"#utility.yul\":12851:12854   */\n      0x00\n        /* \"#utility.yul\":12872:12939   */\n      tag_403\n        /* \"#utility.yul\":12936:12938   */\n      0x2a\n        /* \"#utility.yul\":12931:12934   */\n      dup4\n        /* \"#utility.yul\":12872:12939   */\n      tag_272\n      jump\t// in\n    tag_403:\n        /* \"#utility.yul\":12865:12939   */\n      swap2\n      pop\n        /* \"#utility.yul\":12948:13041   */\n      tag_404\n        /* \"#utility.yul\":13037:13040   */\n      dup3\n        /* \"#utility.yul\":12948:13041   */\n      tag_292\n      jump\t// in\n    tag_404:\n        /* \"#utility.yul\":13066:13068   */\n      0x40\n        /* \"#utility.yul\":13061:13064   */\n      dup3\n        /* \"#utility.yul\":13057:13069   */\n      add\n        /* \"#utility.yul\":13050:13069   */\n      swap1\n      pop\n        /* \"#utility.yul\":12709:13075   */\n      swap2\n      swap1\n      pop\n      jump\t// out\n        /* \"#utility.yul\":13081:13500   */\n    tag_202:\n        /* \"#utility.yul\":13247:13251   */\n      0x00\n        /* \"#utility.yul\":13285:13287   */\n      0x20\n        /* \"#utility.yul\":13274:13283   */\n      dup3\n        /* \"#utility.yul\":13270:13288   */\n      add\n        /* \"#utility.yul\":13262:13288   */\n      swap1\n      pop\n        /* \"#utility.yul\":13334:13343   */\n      dup2\n        /* \"#utility.yul\":13328:13332   */\n      dup2\n        /* \"#utility.yul\":13324:13344   */\n      sub\n        /* \"#utility.yul\":13320:13321   */\n      0x00\n        /* \"#utility.yul\":13309:13318   */\n      dup4\n        /* \"#utility.yul\":13305:13322   */\n      add\n        /* \"#utility.yul\":13298:13345   */\n      mstore\n        /* \"#utility.yul\":13362:13493   */\n      tag_406\n        /* \"#utility.yul\":13488:13492   */\n      dup2\n        /* \"#utility.yul\":13362:13493   */\n      tag_293\n      jump\t// in\n    tag_406:\n        /* \"#utility.yul\":13354:13493   */\n      swap1\n      pop\n        /* \"#utility.yul\":13081:13500   */\n      swap2\n      swap1\n      pop\n      jump\t// out\n        /* \"#utility.yul\":13506:13732   */\n    tag_294:\n        /* \"#utility.yul\":13646:13680   */\n      0x4d696e20616d6f756e74206d757374206265206c657373207468616e206d6178\n        /* \"#utility.yul\":13642:13643   */\n      0x00\n        /* \"#utility.yul\":13634:13640   */\n      dup3\n        /* \"#utility.yul\":13630:13644   */\n      add\n        /* \"#utility.yul\":13623:13681   */\n      mstore\n        /* \"#utility.yul\":13715:13724   */\n      0x20616d6f756e7400000000000000000000000000000000000000000000000000\n        /* \"#utility.yul\":13710:13712   */\n      0x20\n        /* \"#utility.yul\":13702:13708   */\n      dup3\n        /* \"#utility.yul\":13698:13713   */\n      add\n        /* \"#utility.yul\":13691:13725   */\n      mstore\n        /* \"#utility.yul\":13506:13732   */\n      pop\n      jump\t// out\n        /* \"#utility.yul\":13738:14104   */\n    tag_295:\n        /* \"#utility.yul\":13880:13883   */\n      0x00\n        /* \"#utility.yul\":13901:13968   */\n      tag_409\n        /* \"#utility.yul\":13965:13967   */\n      0x27\n        /* \"#utility.yul\":13960:13963   */\n      dup4\n        /* \"#utility.yul\":13901:13968   */\n      tag_272\n      jump\t// in\n    tag_409:\n        /* \"#utility.yul\":13894:13968   */\n      swap2\n      pop\n        /* \"#utility.yul\":13977:14070   */\n      tag_410\n        /* \"#utility.yul\":14066:14069   */\n      dup3\n        /* \"#utility.yul\":13977:14070   */\n      tag_294\n      jump\t// in\n    tag_410:\n        /* \"#utility.yul\":14095:14097   */\n      0x40\n        /* \"#utility.yul\":14090:14093   */\n      dup3\n        /* \"#utility.yul\":14086:14098   */\n      add\n        /* \"#utility.yul\":14079:14098   */\n      swap1\n      pop\n        /* \"#utility.yul\":13738:14104   */\n      swap2\n      swap1\n      pop\n      jump\t// out\n        /* \"#utility.yul\":14110:14529   */\n    tag_209:\n        /* \"#utility.yul\":14276:14280   */\n      0x00\n        /* \"#utility.yul\":14314:14316   */\n      0x20\n        /* \"#utility.yul\":14303:14312   */\n      dup3\n        /* \"#utility.yul\":14299:14317   */\n      add\n        /* \"#utility.yul\":14291:14317   */\n      swap1\n      pop\n        /* \"#utility.yul\":14363:14372   */\n      dup2\n        /* \"#utility.yul\":14357:14361   */\n      dup2\n        /* \"#utility.yul\":14353:14373   */\n      sub\n        /* \"#utility.yul\":14349:14350   */\n      0x00\n        /* \"#utility.yul\":14338:14347   */\n      dup4\n        /* \"#utility.yul\":14334:14351   */\n      add\n        /* \"#utility.yul\":14327:14374   */\n      mstore\n        /* \"#utility.yul\":14391:14522   */\n      tag_412\n        /* \"#utility.yul\":14517:14521   */\n      dup2\n        /* \"#utility.yul\":14391:14522   */\n      tag_295\n      jump\t// in\n    tag_412:\n        /* \"#utility.yul\":14383:14522   */\n      swap1\n      pop\n        /* \"#utility.yul\":14110:14529   */\n      swap2\n      swap1\n      pop\n      jump\t// out\n        /* \"#utility.yul\":14535:14716   */\n    tag_296:\n        /* \"#utility.yul\":14675:14708   */\n      0x5265656e7472616e637947756172643a207265656e7472616e742063616c6c00\n        /* \"#utility.yul\":14671:14672   */\n      0x00\n        /* \"#utility.yul\":14663:14669   */\n      dup3\n        /* \"#utility.yul\":14659:14673   */\n      add\n        /* \"#utility.yul\":14652:14709   */\n      mstore\n        /* \"#utility.yul\":14535:14716   */\n      pop\n      jump\t// out\n        /* \"#utility.yul\":14722:15088   */\n    tag_297:\n        /* \"#utility.yul\":14864:14867   */\n      0x00\n        /* \"#utility.yul\":14885:14952   */\n      tag_415\n        /* \"#utility.yul\":14949:14951   */\n      0x1f\n        /* \"#utility.yul\":14944:14947   */\n      dup4\n        /* \"#utility.yul\":14885:14952   */\n      tag_272\n      jump\t// in\n    tag_415:\n        /* \"#utility.yul\":14878:14952   */\n      swap2\n      pop\n        /* \"#utility.yul\":14961:15054   */\n      tag_416\n        /* \"#utility.yul\":15050:15053   */\n      dup3\n        /* \"#utility.yul\":14961:15054   */\n      tag_296\n      jump\t// in\n    tag_416:\n        /* \"#utility.yul\":15079:15081   */\n      0x20\n        /* \"#utility.yul\":15074:15077   */\n      dup3\n        /* \"#utility.yul\":15070:15082   */\n      add\n        /* \"#utility.yul\":15063:15082   */\n      swap1\n      pop\n        /* \"#utility.yul\":14722:15088   */\n      swap2\n      swap1\n      pop\n      jump\t// out\n        /* \"#utility.yul\":15094:15513   */\n    tag_220:\n        /* \"#utility.yul\":15260:15264   */\n      0x00\n        /* \"#utility.yul\":15298:15300   */\n      0x20\n        /* \"#utility.yul\":15287:15296   */\n      dup3\n        /* \"#utility.yul\":15283:15301   */\n      add\n        /* \"#utility.yul\":15275:15301   */\n      swap1\n      pop\n        /* \"#utility.yul\":15347:15356   */\n      dup2\n        /* \"#utility.yul\":15341:15345   */\n      dup2\n        /* \"#utility.yul\":15337:15357   */\n      sub\n        /* \"#utility.yul\":15333:15334   */\n      0x00\n        /* \"#utility.yul\":15322:15331   */\n      dup4\n        /* \"#utility.yul\":15318:15335   */\n      add\n        /* \"#utility.yul\":15311:15358   */\n      mstore\n        /* \"#utility.yul\":15375:15506   */\n      tag_418\n        /* \"#utility.yul\":15501:15505   */\n      dup2\n        /* \"#utility.yul\":15375:15506   */\n      tag_297\n      jump\t// in\n    tag_418:\n        /* \"#utility.yul\":15367:15506   */\n      swap1\n      pop\n        /* \"#utility.yul\":15094:15513   */\n      swap2\n      swap1\n      pop\n      jump\t// out\n        /* \"#utility.yul\":15519:15685   */\n    tag_298:\n        /* \"#utility.yul\":15659:15677   */\n      0x5061757361626c653a2070617573656400000000000000000000000000000000\n        /* \"#utility.yul\":15655:15656   */\n      0x00\n        /* \"#utility.yul\":15647:15653   */\n      dup3\n        /* \"#utility.yul\":15643:15657   */\n      add\n        /* \"#utility.yul\":15636:15678   */\n      mstore\n        /* \"#utility.yul\":15519:15685   */\n      pop\n      jump\t// out\n        /* \"#utility.yul\":15691:16057   */\n    tag_299:\n        /* \"#utility.yul\":15833:15836   */\n      0x00\n        /* \"#utility.yul\":15854:15921   */\n      tag_421\n        /* \"#utility.yul\":15918:15920   */\n      0x10\n        /* \"#utility.yul\":15913:15916   */\n      dup4\n        /* \"#utility.yul\":15854:15921   */\n      tag_272\n      jump\t// in\n    tag_421:\n        /* \"#utility.yul\":15847:15921   */\n      swap2\n      pop\n        /* \"#utility.yul\":15930:16023   */\n      tag_422\n        /* \"#utility.yul\":16019:16022   */\n      dup3\n        /* \"#utility.yul\":15930:16023   */\n      tag_298\n      jump\t// in\n    tag_422:\n        /* \"#utility.yul\":16048:16050   */\n      0x20\n        /* \"#utility.yul\":16043:16046   */\n      dup3\n        /* \"#utility.yul\":16039:16051   */\n      add\n        /* \"#utility.yul\":16032:16051   */\n      swap1\n      pop\n        /* \"#utility.yul\":15691:16057   */\n      swap2\n      swap1\n      pop\n      jump\t// out\n        /* \"#utility.yul\":16063:16482   */\n    tag_225:\n        /* \"#utility.yul\":16229:16233   */\n      0x00\n        /* \"#utility.yul\":16267:16269   */\n      0x20\n        /* \"#utility.yul\":16256:16265   */\n      dup3\n        /* \"#utility.yul\":16252:16270   */\n      add\n        /* \"#utility.yul\":16244:16270   */\n      swap1\n      pop\n        /* \"#utility.yul\":16316:16325   */\n      dup2\n        /* \"#utility.yul\":16310:16314   */\n      dup2\n        /* \"#utility.yul\":16306:16326   */\n      sub\n        /* \"#utility.yul\":16302:16303   */\n      0x00\n        /* \"#utility.yul\":16291:16300   */\n      dup4\n        /* \"#utility.yul\":16287:16304   */\n      add\n        /* \"#utility.yul\":16280:16327   */\n      mstore\n        /* \"#utility.yul\":16344:16475   */\n      tag_424\n        /* \"#utility.yul\":16470:16474   */\n      dup2\n        /* \"#utility.yul\":16344:16475   */\n      tag_299\n      jump\t// in\n    tag_424:\n        /* \"#utility.yul\":16336:16475   */\n      swap1\n      pop\n        /* \"#utility.yul\":16063:16482   */\n      swap2\n      swap1\n      pop\n      jump\t// out\n        /* \"#utility.yul\":16488:16668   */\n    tag_300:\n        /* \"#utility.yul\":16536:16613   */\n      0x4e487b7100000000000000000000000000000000000000000000000000000000\n        /* \"#utility.yul\":16533:16534   */\n      0x00\n        /* \"#utility.yul\":16526:16614   */\n      mstore\n        /* \"#utility.yul\":16633:16637   */\n      0x11\n        /* \"#utility.yul\":16630:16631   */\n      0x04\n        /* \"#utility.yul\":16623:16638   */\n      mstore\n        /* \"#utility.yul\":16657:16661   */\n      0x24\n        /* \"#utility.yul\":16654:16655   */\n      0x00\n        /* \"#utility.yul\":16647:16662   */\n      revert\n        /* \"#utility.yul\":16674:16865   */\n    tag_228:\n        /* \"#utility.yul\":16714:16717   */\n      0x00\n        /* \"#utility.yul\":16733:16753   */\n      tag_427\n        /* \"#utility.yul\":16751:16752   */\n      dup3\n        /* \"#utility.yul\":16733:16753   */\n      tag_258\n      jump\t// in\n    tag_427:\n        /* \"#utility.yul\":16728:16753   */\n      swap2\n      pop\n        /* \"#utility.yul\":16767:16787   */\n      tag_428\n        /* \"#utility.yul\":16785:16786   */\n      dup4\n        /* \"#utility.yul\":16767:16787   */\n      tag_258\n      jump\t// in\n    tag_428:\n        /* \"#utility.yul\":16762:16787   */\n      swap3\n      pop\n        /* \"#utility.yul\":16810:16811   */\n      dup3\n        /* \"#utility.yul\":16807:16808   */\n      dup3\n        /* \"#utility.yul\":16803:16812   */\n      add\n        /* \"#utility.yul\":16796:16812   */\n      swap1\n      pop\n        /* \"#utility.yul\":16831:16834   */\n      dup1\n        /* \"#utility.yul\":16828:16829   */\n      dup3\n        /* \"#utility.yul\":16825:16835   */\n      gt\n        /* \"#utility.yul\":16822:16858   */\n      iszero\n      tag_429\n      jumpi\n        /* \"#utility.yul\":16838:16856   */\n      tag_430\n      tag_300\n      jump\t// in\n    tag_430:\n        /* \"#utility.yul\":16822:16858   */\n    tag_429:\n        /* \"#utility.yul\":16674:16865   */\n      swap3\n      swap2\n      pop\n      pop\n      jump\t// out\n        /* \"#utility.yul\":16871:17065   */\n    tag_232:\n        /* \"#utility.yul\":16911:16915   */\n      0x00\n        /* \"#utility.yul\":16931:16951   */\n      tag_432\n        /* \"#utility.yul\":16949:16950   */\n      dup3\n        /* \"#utility.yul\":16931:16951   */\n      tag_258\n      jump\t// in\n    tag_432:\n        /* \"#utility.yul\":16926:16951   */\n      swap2\n      pop\n        /* \"#utility.yul\":16965:16985   */\n      tag_433\n        /* \"#utility.yul\":16983:16984   */\n      dup4\n        /* \"#utility.yul\":16965:16985   */\n      tag_258\n      jump\t// in\n    tag_433:\n        /* \"#utility.yul\":16960:16985   */\n      swap3\n      pop\n        /* \"#utility.yul\":17009:17010   */\n      dup3\n        /* \"#utility.yul\":17006:17007   */\n      dup3\n        /* \"#utility.yul\":17002:17011   */\n      sub\n        /* \"#utility.yul\":16994:17011   */\n      swap1\n      pop\n        /* \"#utility.yul\":17033:17034   */\n      dup2\n        /* \"#utility.yul\":17027:17031   */\n      dup2\n        /* \"#utility.yul\":17024:17035   */\n      gt\n        /* \"#utility.yul\":17021:17058   */\n      iszero\n      tag_434\n      jumpi\n        /* \"#utility.yul\":17038:17056   */\n      tag_435\n      tag_300\n      jump\t// in\n    tag_435:\n        /* \"#utility.yul\":17021:17058   */\n    tag_434:\n        /* \"#utility.yul\":16871:17065   */\n      swap3\n      swap2\n      pop\n      pop\n      jump\t// out\n        /* \"#utility.yul\":17071:17241   */\n    tag_301:\n        /* \"#utility.yul\":17211:17233   */\n      0x5061757361626c653a206e6f7420706175736564000000000000000000000000\n        /* \"#utility.yul\":17207:17208   */\n      0x00\n        /* \"#utility.yul\":17199:17205   */\n      dup3\n        /* \"#utility.yul\":17195:17209   */\n      add\n        /* \"#utility.yul\":17188:17234   */\n      mstore\n        /* \"#utility.yul\":17071:17241   */\n      pop\n      jump\t// out\n        /* \"#utility.yul\":17247:17613   */\n    tag_302:\n        /* \"#utility.yul\":17389:17392   */\n      0x00\n        /* \"#utility.yul\":17410:17477   */\n      tag_438\n        /* \"#utility.yul\":17474:17476   */\n      0x14\n        /* \"#utility.yul\":17469:17472   */\n      dup4\n        /* \"#utility.yul\":17410:17477   */\n      tag_272\n      jump\t// in\n    tag_438:\n        /* \"#utility.yul\":17403:17477   */\n      swap2\n      pop\n        /* \"#utility.yul\":17486:17579   */\n      tag_439\n        /* \"#utility.yul\":17575:17578   */\n      dup3\n        /* \"#utility.yul\":17486:17579   */\n      tag_301\n      jump\t// in\n    tag_439:\n        /* \"#utility.yul\":17604:17606   */\n      0x20\n        /* \"#utility.yul\":17599:17602   */\n      dup3\n        /* \"#utility.yul\":17595:17607   */\n      add\n        /* \"#utility.yul\":17588:17607   */\n      swap1\n      pop\n        /* \"#utility.yul\":17247:17613   */\n      swap2\n      swap1\n      pop\n      jump\t// out\n        /* \"#utility.yul\":17619:18038   */\n    tag_257:\n        /* \"#utility.yul\":17785:17789   */\n      0x00\n        /* \"#utility.yul\":17823:17825   */\n      0x20\n        /* \"#utility.yul\":17812:17821   */\n      dup3\n        /* \"#utility.yul\":17808:17826   */\n      add\n        /* \"#utility.yul\":17800:17826   */\n      swap1\n      pop\n        /* \"#utility.yul\":17872:17881   */\n      dup2\n        /* \"#utility.yul\":17866:17870   */\n      dup2\n        /* \"#utility.yul\":17862:17882   */\n      sub\n        /* \"#utility.yul\":17858:17859   */\n      0x00\n        /* \"#utility.yul\":17847:17856   */\n      dup4\n        /* \"#utility.yul\":17843:17860   */\n      add\n        /* \"#utility.yul\":17836:17883   */\n      mstore\n        /* \"#utility.yul\":17900:18031   */\n      tag_441\n        /* \"#utility.yul\":18026:18030   */\n      dup2\n        /* \"#utility.yul\":17900:18031   */\n      tag_302\n      jump\t// in\n    tag_441:\n        /* \"#utility.yul\":17892:18031   */\n      swap1\n      pop\n        /* \"#utility.yul\":17619:18038   */\n      swap2\n      swap1\n      pop\n      jump\t// out\n\n    auxdata: 0xa2646970667358221220f958a4600b5dfc84f740fbc1c9b7c3e7ac610870851863f4bafaeeef0afa289764736f6c634300081a0033\n}\n",
				"bytecode": {
					"linkReferences": {},
					"object": "608060405234801561000f575f80fd5b50604051611e13380380611e13833981810160405281019061003191906102d0565b8060015f819055505f73ffffffffffffffffffffffffffffffffffffffff168173ffffffffffffffffffffffffffffffffffffffff16036100a9575f6040517f1e4fbdf70000000000000000000000000000000000000000000000000000000081526004016100a0919061030a565b60405180910390fd5b6100b8816101af60201b60201c565b505f600160146101000a81548160ff0219169083151502179055505f73ffffffffffffffffffffffffffffffffffffffff168173ffffffffffffffffffffffffffffffffffffffff1603610141576040517f08c379a00000000000000000000000000000000000000000000000000000000081526004016101389061037d565b60405180910390fd5b8060025f6101000a81548173ffffffffffffffffffffffffffffffffffffffff021916908373ffffffffffffffffffffffffffffffffffffffff16021790555066b1a2bc2ec5000060058190555068056bc75e2d63100000600681905550620151806007819055505061039b565b5f60015f9054906101000a900473ffffffffffffffffffffffffffffffffffffffff1690508160015f6101000a81548173ffffffffffffffffffffffffffffffffffffffff021916908373ffffffffffffffffffffffffffffffffffffffff1602179055508173ffffffffffffffffffffffffffffffffffffffff168173ffffffffffffffffffffffffffffffffffffffff167f8be0079c531659141344cd1fd0a4f28419497f9722a3daafe3b4186f6b6457e060405160405180910390a35050565b5f80fd5b5f73ffffffffffffffffffffffffffffffffffffffff82169050919050565b5f61029f82610276565b9050919050565b6102af81610295565b81146102b9575f80fd5b50565b5f815190506102ca816102a6565b92915050565b5f602082840312156102e5576102e4610272565b5b5f6102f2848285016102bc565b91505092915050565b61030481610295565b82525050565b5f60208201905061031d5f8301846102fb565b92915050565b5f82825260208201905092915050565b7f496e76616c6964207374616b696e672077616c6c6574206164647265737300005f82015250565b5f610367601e83610323565b915061037282610333565b602082019050919050565b5f6020820190508181035f8301526103948161035b565b9050919050565b611a6b806103a85f395ff3fe608060405260043610610122575f3560e01c8063715018a61161009f5780638da5cb5b116100635780638da5cb5b1461037f578063dcc2a55e146103a9578063eb4af045146103d1578063f1887684146103f9578063f2fde38b1461042357610131565b8063715018a6146102c55780637a766460146102db57806380ea3de114610317578063817b1cd21461033f5780638456cb591461036957610131565b80633a4b66f1116100e65780633a4b66f1146102155780633f4ba83a1461021f5780634de5120e146102355780635c975abb146102715780635d80ca321461029b57610131565b806304646a491461013557806306ee6ad81461015f57806316934fc4146101895780632e1a7d4d146101c5578063384c05bd146101ed57610131565b366101315761012f61044b565b005b5f80fd5b348015610140575f80fd5b50610149610747565b60405161015691906111f8565b60405180910390f35b34801561016a575f80fd5b5061017361074d565b6040516101809190611250565b60405180910390f35b348015610194575f80fd5b506101af60048036038101906101aa9190611297565b610772565b6040516101bc91906111f8565b60405180910390f35b3480156101d0575f80fd5b506101eb60048036038101906101e691906112ec565b610787565b005b3480156101f8575f80fd5b50610213600480360381019061020e9190611297565b610a9b565b005b61021d61044b565b005b34801561022a575f80fd5b50610233610bd4565b005b348015610240575f80fd5b5061025b60048036038101906102569190611297565b610be6565b60405161026891906111f8565b60405180910390f35b34801561027c575f80fd5b50610285610bfb565b6040516102929190611331565b60405180910390f35b3480156102a6575f80fd5b506102af610c11565b6040516102bc91906111f8565b60405180910390f35b3480156102d0575f80fd5b506102d9610c17565b005b3480156102e6575f80fd5b5061030160048036038101906102fc9190611297565b610c2a565b60405161030e91906111f8565b60405180910390f35b348015610322575f80fd5b5061033d600480360381019061033891906112ec565b610c70565b005b34801561034a575f80fd5b50610353610cc2565b60405161036091906111f8565b60405180910390f35b348015610374575f80fd5b5061037d610cc8565b005b34801561038a575f80fd5b50610393610cda565b6040516103a09190611250565b60405180910390f35b3480156103b4575f80fd5b506103cf60048036038101906103ca91906112ec565b610d02565b005b3480156103dc575f80fd5b506103f760048036038101906103f291906112ec565b610d98565b005b348015610404575f80fd5b5061040d610e2e565b60405161041a91906111f8565b60405180910390f35b34801561042e575f80fd5b5061044960048036038101906104449190611297565b610e34565b005b610453610eb8565b61045b610f05565b6005543410156104a0576040517f08c379a0000000000000000000000000000000000000000000000000000000008152600401610497906113a4565b60405180910390fd5b6006543411156104e5576040517f08c379a00000000000000000000000000000000000000000000000000000000081526004016104dc9061140c565b60405180910390fd5b6006546105383460035f3373ffffffffffffffffffffffffffffffffffffffff1673ffffffffffffffffffffffffffffffffffffffff1681526020019081526020015f2054610f4f90919063ffffffff16565b1115610579576040517f08c379a000000000000000000000000000000000000000000000000000000000815260040161057090611474565b60405180910390fd5b6105c93460035f3373ffffffffffffffffffffffffffffffffffffffff1673ffffffffffffffffffffffffffffffffffffffff1681526020019081526020015f2054610f4f90919063ffffffff16565b60035f3373ffffffffffffffffffffffffffffffffffffffff1673ffffffffffffffffffffffffffffffffffffffff1681526020019081526020015f208190555061061f34600454610f4f90919063ffffffff16565b6004819055505f60025f9054906101000a900473ffffffffffffffffffffffffffffffffffffffff1673ffffffffffffffffffffffffffffffffffffffff163460405161066b906114bf565b5f6040518083038185875af1925050503d805f81146106a5576040519150601f19603f3d011682016040523d82523d5f602084013e6106aa565b606091505b50509050806106ee576040517f08c379a00000000000000000000000000000000000000000000000000000000081526004016106e590611543565b60405180910390fd5b3373ffffffffffffffffffffffffffffffffffffffff167f9e71bc8eea02a63969f509818f2dafb9254532904319f9dbda79b67bd34a5f3d3460405161073491906111f8565b60405180910390a250610745610f64565b565b60075481565b60025f9054906101000a900473ffffffffffffffffffffffffffffffffffffffff1681565b6003602052805f5260405f205f915090505481565b61078f610eb8565b610797610f05565b8060035f3373ffffffffffffffffffffffffffffffffffffffff1673ffffffffffffffffffffffffffffffffffffffff1681526020019081526020015f20541015610817576040517f08c379a000000000000000000000000000000000000000000000000000000000815260040161080e906115ab565b60405180910390fd5b61086960075460085f3373ffffffffffffffffffffffffffffffffffffffff1673ffffffffffffffffffffffffffffffffffffffff1681526020019081526020015f2054610f4f90919063ffffffff16565b4210156108ab576040517f08c379a00000000000000000000000000000000000000000000000000000000081526004016108a290611613565b60405180910390fd5b6108fb8160035f3373ffffffffffffffffffffffffffffffffffffffff1673ffffffffffffffffffffffffffffffffffffffff1681526020019081526020015f2054610f6d90919063ffffffff16565b60035f3373ffffffffffffffffffffffffffffffffffffffff1673ffffffffffffffffffffffffffffffffffffffff1681526020019081526020015f208190555061095181600454610f6d90919063ffffffff16565b6004819055504260085f3373ffffffffffffffffffffffffffffffffffffffff1673ffffffffffffffffffffffffffffffffffffffff1681526020019081526020015f20819055505f3373ffffffffffffffffffffffffffffffffffffffff16826040516109be906114bf565b5f6040518083038185875af1925050503d805f81146109f8576040519150601f19603f3d011682016040523d82523d5f602084013e6109fd565b606091505b5050905080610a41576040517f08c379a0000000000000000000000000000000000000000000000000000000008152600401610a389061167b565b60405180910390fd5b3373ffffffffffffffffffffffffffffffffffffffff167f7084f5476618d8e60b11ef0d7d3f06914655adb8793e28ff7f018d4c76d505d583604051610a8791906111f8565b60405180910390a250610a98610f64565b50565b610aa3610f82565b5f73ffffffffffffffffffffffffffffffffffffffff168173ffffffffffffffffffffffffffffffffffffffff1603610b11576040517f08c379a0000000000000000000000000000000000000000000000000000000008152600401610b0890611709565b60405180910390fd5b5f60025f9054906101000a900473ffffffffffffffffffffffffffffffffffffffff1690508160025f6101000a81548173ffffffffffffffffffffffffffffffffffffffff021916908373ffffffffffffffffffffffffffffffffffffffff1602179055508173ffffffffffffffffffffffffffffffffffffffff168173ffffffffffffffffffffffffffffffffffffffff167f6013c0fe4c1fb06ee755812e80639fcbd51c4dcfc2b46fbe17ce2beecbacbe8460405160405180910390a35050565b610bdc610f82565b610be4611009565b565b6008602052805f5260405f205f915090505481565b5f600160149054906101000a900460ff16905090565b60065481565b610c1f610f82565b610c285f61106b565b565b5f60035f8373ffffffffffffffffffffffffffffffffffffffff1673ffffffffffffffffffffffffffffffffffffffff1681526020019081526020015f20549050919050565b610c78610f82565b5f6007549050816007819055507f67a4233d292ab33774a65917ca809b4ab92953e039a7c1f71656afbbc1bc60c98183604051610cb6929190611727565b60405180910390a15050565b60045481565b610cd0610f82565b610cd861112e565b565b5f60015f9054906101000a900473ffffffffffffffffffffffffffffffffffffffff16905090565b610d0a610f82565b6005548111610d4e576040517f08c379a0000000000000000000000000000000000000000000000000000000008152600401610d45906117be565b60405180910390fd5b5f6006549050816006819055507f7af071d76489ff69e32618f091b5d6de46af889de44f621a936e8c9615c463a98183604051610d8c929190611727565b60405180910390a15050565b610da0610f82565b6006548110610de4576040517f08c379a0000000000000000000000000000000000000000000000000000000008152600401610ddb9061184c565b60405180910390fd5b5f6005549050816005819055507f3b8dcd7d08f8aa9e93d2afc54830c8b23db9b7264f3bc503eb5fc2a0289bc2cb8183604051610e22929190611727565b60405180910390a15050565b60055481565b610e3c610f82565b5f73ffffffffffffffffffffffffffffffffffffffff168173ffffffffffffffffffffffffffffffffffffffff1603610eac575f6040517f1e4fbdf7000000000000000000000000000000000000000000000000000000008152600401610ea39190611250565b60405180910390fd5b610eb58161106b565b50565b60025f5403610efc576040517f08c379a0000000000000000000000000000000000000000000000000000000008152600401610ef3906118b4565b60405180910390fd5b60025f81905550565b610f0d610bfb565b15610f4d576040517f08c379a0000000000000000000000000000000000000000000000000000000008152600401610f449061191c565b60405180910390fd5b565b5f8183610f5c9190611967565b905092915050565b60015f81905550565b5f8183610f7a919061199a565b905092915050565b610f8a611190565b73ffffffffffffffffffffffffffffffffffffffff16610fa8610cda565b73ffffffffffffffffffffffffffffffffffffffff161461100757610fcb611190565b6040517f118cdaa7000000000000000000000000000000000000000000000000000000008152600401610ffe9190611250565b60405180910390fd5b565b611011611197565b5f600160146101000a81548160ff0219169083151502179055507f5db9ee0a495bf2e6ff9c91a7834c1ba4fdd244a5e8aa4e537bd38aeae4b073aa611054611190565b6040516110619190611250565b60405180910390a1565b5f60015f9054906101000a900473ffffffffffffffffffffffffffffffffffffffff1690508160015f6101000a81548173ffffffffffffffffffffffffffffffffffffffff021916908373ffffffffffffffffffffffffffffffffffffffff1602179055508173ffffffffffffffffffffffffffffffffffffffff168173ffffffffffffffffffffffffffffffffffffffff167f8be0079c531659141344cd1fd0a4f28419497f9722a3daafe3b4186f6b6457e060405160405180910390a35050565b611136610f05565b60018060146101000a81548160ff0219169083151502179055507f62e78cea01bee320cd4e420270b5ea74000d11b0c9f74754ebdbfc544b05a258611179611190565b6040516111869190611250565b60405180910390a1565b5f33905090565b61119f610bfb565b6111de576040517f08c379a00000000000000000000000000000000000000000000000000000000081526004016111d590611a17565b60405180910390fd5b565b5f819050919050565b6111f2816111e0565b82525050565b5f60208201905061120b5f8301846111e9565b92915050565b5f73ffffffffffffffffffffffffffffffffffffffff82169050919050565b5f61123a82611211565b9050919050565b61124a81611230565b82525050565b5f6020820190506112635f830184611241565b92915050565b5f80fd5b61127681611230565b8114611280575f80fd5b50565b5f813590506112918161126d565b92915050565b5f602082840312156112ac576112ab611269565b5b5f6112b984828501611283565b91505092915050565b6112cb816111e0565b81146112d5575f80fd5b50565b5f813590506112e6816112c2565b92915050565b5f6020828403121561130157611300611269565b5b5f61130e848285016112d8565b91505092915050565b5f8115159050919050565b61132b81611317565b82525050565b5f6020820190506113445f830184611322565b92915050565b5f82825260208201905092915050565b7f5374616b6520616d6f756e7420746f6f206c6f770000000000000000000000005f82015250565b5f61138e60148361134a565b91506113998261135a565b602082019050919050565b5f6020820190508181035f8301526113bb81611382565b9050919050565b7f5374616b6520616d6f756e7420746f6f206869676800000000000000000000005f82015250565b5f6113f660158361134a565b9150611401826113c2565b602082019050919050565b5f6020820190508181035f830152611423816113ea565b9050919050565b7f546f74616c207374616b652065786365656473206d6178696d756d00000000005f82015250565b5f61145e601b8361134a565b91506114698261142a565b602082019050919050565b5f6020820190508181035f83015261148b81611452565b9050919050565b5f81905092915050565b50565b5f6114aa5f83611492565b91506114b58261149c565b5f82019050919050565b5f6114c98261149f565b9150819050919050565b7f4661696c656420746f207472616e73666572207374616b6520746f207374616b5f8201527f696e672077616c6c657400000000000000000000000000000000000000000000602082015250565b5f61152d602a8361134a565b9150611538826114d3565b604082019050919050565b5f6020820190508181035f83015261155a81611521565b9050919050565b7f496e73756666696369656e74207374616b6500000000000000000000000000005f82015250565b5f61159560128361134a565b91506115a082611561565b602082019050919050565b5f6020820190508181035f8301526115c281611589565b9050919050565b7f436f6f6c646f776e20706572696f64206e6f74206d65740000000000000000005f82015250565b5f6115fd60178361134a565b9150611608826115c9565b602082019050919050565b5f6020820190508181035f83015261162a816115f1565b9050919050565b7f4661696c656420746f2073656e6420424e4200000000000000000000000000005f82015250565b5f61166560128361134a565b915061167082611631565b602082019050919050565b5f6020820190508181035f83015261169281611659565b9050919050565b7f496e76616c6964206e6577207374616b696e672077616c6c65742061646472655f8201527f7373000000000000000000000000000000000000000000000000000000000000602082015250565b5f6116f360228361134a565b91506116fe82611699565b604082019050919050565b5f6020820190508181035f830152611720816116e7565b9050919050565b5f60408201905061173a5f8301856111e9565b61174760208301846111e9565b9392505050565b7f4d617820616d6f756e74206d7573742062652067726561746572207468616e205f8201527f6d696e20616d6f756e7400000000000000000000000000000000000000000000602082015250565b5f6117a8602a8361134a565b91506117b38261174e565b604082019050919050565b5f6020820190508181035f8301526117d58161179c565b9050919050565b7f4d696e20616d6f756e74206d757374206265206c657373207468616e206d61785f8201527f20616d6f756e7400000000000000000000000000000000000000000000000000602082015250565b5f61183660278361134a565b9150611841826117dc565b604082019050919050565b5f6020820190508181035f8301526118638161182a565b9050919050565b7f5265656e7472616e637947756172643a207265656e7472616e742063616c6c005f82015250565b5f61189e601f8361134a565b91506118a98261186a565b602082019050919050565b5f6020820190508181035f8301526118cb81611892565b9050919050565b7f5061757361626c653a20706175736564000000000000000000000000000000005f82015250565b5f61190660108361134a565b9150611911826118d2565b602082019050919050565b5f6020820190508181035f830152611933816118fa565b9050919050565b7f4e487b71000000000000000000000000000000000000000000000000000000005f52601160045260245ffd5b5f611971826111e0565b915061197c836111e0565b92508282019050808211156119945761199361193a565b5b92915050565b5f6119a4826111e0565b91506119af836111e0565b92508282039050818111156119c7576119c661193a565b5b92915050565b7f5061757361626c653a206e6f74207061757365640000000000000000000000005f82015250565b5f611a0160148361134a565b9150611a0c826119cd565b602082019050919050565b5f6020820190508181035f830152611a2e816119f5565b905091905056fea2646970667358221220f958a4600b5dfc84f740fbc1c9b7c3e7ac610870851863f4bafaeeef0afa289764736f6c634300081a0033",
					"opcodes": "PUSH1 0x80 PUSH1 0x40 MSTORE CALLVALUE DUP1 ISZERO PUSH2 0xF JUMPI PUSH0 DUP1 REVERT JUMPDEST POP PUSH1 0x40 MLOAD PUSH2 0x1E13 CODESIZE SUB DUP1 PUSH2 0x1E13 DUP4 CODECOPY DUP2 DUP2 ADD PUSH1 0x40 MSTORE DUP2 ADD SWAP1 PUSH2 0x31 SWAP2 SWAP1 PUSH2 0x2D0 JUMP JUMPDEST DUP1 PUSH1 0x1 PUSH0 DUP2 SWAP1 SSTORE POP PUSH0 PUSH20 0xFFFFFFFFFFFFFFFFFFFFFFFFFFFFFFFFFFFFFFFF AND DUP2 PUSH20 0xFFFFFFFFFFFFFFFFFFFFFFFFFFFFFFFFFFFFFFFF AND SUB PUSH2 0xA9 JUMPI PUSH0 PUSH1 0x40 MLOAD PUSH32 0x1E4FBDF700000000000000000000000000000000000000000000000000000000 DUP2 MSTORE PUSH1 0x4 ADD PUSH2 0xA0 SWAP2 SWAP1 PUSH2 0x30A JUMP JUMPDEST PUSH1 0x40 MLOAD DUP1 SWAP2 SUB SWAP1 REVERT JUMPDEST PUSH2 0xB8 DUP2 PUSH2 0x1AF PUSH1 0x20 SHL PUSH1 0x20 SHR JUMP JUMPDEST POP PUSH0 PUSH1 0x1 PUSH1 0x14 PUSH2 0x100 EXP DUP2 SLOAD DUP2 PUSH1 0xFF MUL NOT AND SWAP1 DUP4 ISZERO ISZERO MUL OR SWAP1 SSTORE POP PUSH0 PUSH20 0xFFFFFFFFFFFFFFFFFFFFFFFFFFFFFFFFFFFFFFFF AND DUP2 PUSH20 0xFFFFFFFFFFFFFFFFFFFFFFFFFFFFFFFFFFFFFFFF AND SUB PUSH2 0x141 JUMPI PUSH1 0x40 MLOAD PUSH32 0x8C379A000000000000000000000000000000000000000000000000000000000 DUP2 MSTORE PUSH1 0x4 ADD PUSH2 0x138 SWAP1 PUSH2 0x37D JUMP JUMPDEST PUSH1 0x40 MLOAD DUP1 SWAP2 SUB SWAP1 REVERT JUMPDEST DUP1 PUSH1 0x2 PUSH0 PUSH2 0x100 EXP DUP2 SLOAD DUP2 PUSH20 0xFFFFFFFFFFFFFFFFFFFFFFFFFFFFFFFFFFFFFFFF MUL NOT AND SWAP1 DUP4 PUSH20 0xFFFFFFFFFFFFFFFFFFFFFFFFFFFFFFFFFFFFFFFF AND MUL OR SWAP1 SSTORE POP PUSH7 0xB1A2BC2EC50000 PUSH1 0x5 DUP2 SWAP1 SSTORE POP PUSH9 0x56BC75E2D63100000 PUSH1 0x6 DUP2 SWAP1 SSTORE POP PUSH3 0x15180 PUSH1 0x7 DUP2 SWAP1 SSTORE POP POP PUSH2 0x39B JUMP JUMPDEST PUSH0 PUSH1 0x1 PUSH0 SWAP1 SLOAD SWAP1 PUSH2 0x100 EXP SWAP1 DIV PUSH20 0xFFFFFFFFFFFFFFFFFFFFFFFFFFFFFFFFFFFFFFFF AND SWAP1 POP DUP2 PUSH1 0x1 PUSH0 PUSH2 0x100 EXP DUP2 SLOAD DUP2 PUSH20 0xFFFFFFFFFFFFFFFFFFFFFFFFFFFFFFFFFFFFFFFF MUL NOT AND SWAP1 DUP4 PUSH20 0xFFFFFFFFFFFFFFFFFFFFFFFFFFFFFFFFFFFFFFFF AND MUL OR SWAP1 SSTORE POP DUP2 PUSH20 0xFFFFFFFFFFFFFFFFFFFFFFFFFFFFFFFFFFFFFFFF AND DUP2 PUSH20 0xFFFFFFFFFFFFFFFFFFFFFFFFFFFFFFFFFFFFFFFF AND PUSH32 0x8BE0079C531659141344CD1FD0A4F28419497F9722A3DAAFE3B4186F6B6457E0 PUSH1 0x40 MLOAD PUSH1 0x40 MLOAD DUP1 SWAP2 SUB SWAP1 LOG3 POP POP JUMP JUMPDEST PUSH0 DUP1 REVERT JUMPDEST PUSH0 PUSH20 0xFFFFFFFFFFFFFFFFFFFFFFFFFFFFFFFFFFFFFFFF DUP3 AND SWAP1 POP SWAP2 SWAP1 POP JUMP JUMPDEST PUSH0 PUSH2 0x29F DUP3 PUSH2 0x276 JUMP JUMPDEST SWAP1 POP SWAP2 SWAP1 POP JUMP JUMPDEST PUSH2 0x2AF DUP2 PUSH2 0x295 JUMP JUMPDEST DUP2 EQ PUSH2 0x2B9 JUMPI PUSH0 DUP1 REVERT JUMPDEST POP JUMP JUMPDEST PUSH0 DUP2 MLOAD SWAP1 POP PUSH2 0x2CA DUP2 PUSH2 0x2A6 JUMP JUMPDEST SWAP3 SWAP2 POP POP JUMP JUMPDEST PUSH0 PUSH1 0x20 DUP3 DUP5 SUB SLT ISZERO PUSH2 0x2E5 JUMPI PUSH2 0x2E4 PUSH2 0x272 JUMP JUMPDEST JUMPDEST PUSH0 PUSH2 0x2F2 DUP5 DUP3 DUP6 ADD PUSH2 0x2BC JUMP JUMPDEST SWAP2 POP POP SWAP3 SWAP2 POP POP JUMP JUMPDEST PUSH2 0x304 DUP2 PUSH2 0x295 JUMP JUMPDEST DUP3 MSTORE POP POP JUMP JUMPDEST PUSH0 PUSH1 0x20 DUP3 ADD SWAP1 POP PUSH2 0x31D PUSH0 DUP4 ADD DUP5 PUSH2 0x2FB JUMP JUMPDEST SWAP3 SWAP2 POP POP JUMP JUMPDEST PUSH0 DUP3 DUP3 MSTORE PUSH1 0x20 DUP3 ADD SWAP1 POP SWAP3 SWAP2 POP POP JUMP JUMPDEST PUSH32 0x496E76616C6964207374616B696E672077616C6C657420616464726573730000 PUSH0 DUP3 ADD MSTORE POP JUMP JUMPDEST PUSH0 PUSH2 0x367 PUSH1 0x1E DUP4 PUSH2 0x323 JUMP JUMPDEST SWAP2 POP PUSH2 0x372 DUP3 PUSH2 0x333 JUMP JUMPDEST PUSH1 0x20 DUP3 ADD SWAP1 POP SWAP2 SWAP1 POP JUMP JUMPDEST PUSH0 PUSH1 0x20 DUP3 ADD SWAP1 POP DUP2 DUP2 SUB PUSH0 DUP4 ADD MSTORE PUSH2 0x394 DUP2 PUSH2 0x35B JUMP JUMPDEST SWAP1 POP SWAP2 SWAP1 POP JUMP JUMPDEST PUSH2 0x1A6B DUP1 PUSH2 0x3A8 PUSH0 CODECOPY PUSH0 RETURN INVALID PUSH1 0x80 PUSH1 0x40 MSTORE PUSH1 0x4 CALLDATASIZE LT PUSH2 0x122 JUMPI PUSH0 CALLDATALOAD PUSH1 0xE0 SHR DUP1 PUSH4 0x715018A6 GT PUSH2 0x9F JUMPI DUP1 PUSH4 0x8DA5CB5B GT PUSH2 0x63 JUMPI DUP1 PUSH4 0x8DA5CB5B EQ PUSH2 0x37F JUMPI DUP1 PUSH4 0xDCC2A55E EQ PUSH2 0x3A9 JUMPI DUP1 PUSH4 0xEB4AF045 EQ PUSH2 0x3D1 JUMPI DUP1 PUSH4 0xF1887684 EQ PUSH2 0x3F9 JUMPI DUP1 PUSH4 0xF2FDE38B EQ PUSH2 0x423 JUMPI PUSH2 0x131 JUMP JUMPDEST DUP1 PUSH4 0x715018A6 EQ PUSH2 0x2C5 JUMPI DUP1 PUSH4 0x7A766460 EQ PUSH2 0x2DB JUMPI DUP1 PUSH4 0x80EA3DE1 EQ PUSH2 0x317 JUMPI DUP1 PUSH4 0x817B1CD2 EQ PUSH2 0x33F JUMPI DUP1 PUSH4 0x8456CB59 EQ PUSH2 0x369 JUMPI PUSH2 0x131 JUMP JUMPDEST DUP1 PUSH4 0x3A4B66F1 GT PUSH2 0xE6 JUMPI DUP1 PUSH4 0x3A4B66F1 EQ PUSH2 0x215 JUMPI DUP1 PUSH4 0x3F4BA83A EQ PUSH2 0x21F JUMPI DUP1 PUSH4 0x4DE5120E EQ PUSH2 0x235 JUMPI DUP1 PUSH4 0x5C975ABB EQ PUSH2 0x271 JUMPI DUP1 PUSH4 0x5D80CA32 EQ PUSH2 0x29B JUMPI PUSH2 0x131 JUMP JUMPDEST DUP1 PUSH4 0x4646A49 EQ PUSH2 0x135 JUMPI DUP1 PUSH4 0x6EE6AD8 EQ PUSH2 0x15F JUMPI DUP1 PUSH4 0x16934FC4 EQ PUSH2 0x189 JUMPI DUP1 PUSH4 0x2E1A7D4D EQ PUSH2 0x1C5 JUMPI DUP1 PUSH4 0x384C05BD EQ PUSH2 0x1ED JUMPI PUSH2 0x131 JUMP JUMPDEST CALLDATASIZE PUSH2 0x131 JUMPI PUSH2 0x12F PUSH2 0x44B JUMP JUMPDEST STOP JUMPDEST PUSH0 DUP1 REVERT JUMPDEST CALLVALUE DUP1 ISZERO PUSH2 0x140 JUMPI PUSH0 DUP1 REVERT JUMPDEST POP PUSH2 0x149 PUSH2 0x747 JUMP JUMPDEST PUSH1 0x40 MLOAD PUSH2 0x156 SWAP2 SWAP1 PUSH2 0x11F8 JUMP JUMPDEST PUSH1 0x40 MLOAD DUP1 SWAP2 SUB SWAP1 RETURN JUMPDEST CALLVALUE DUP1 ISZERO PUSH2 0x16A JUMPI PUSH0 DUP1 REVERT JUMPDEST POP PUSH2 0x173 PUSH2 0x74D JUMP JUMPDEST PUSH1 0x40 MLOAD PUSH2 0x180 SWAP2 SWAP1 PUSH2 0x1250 JUMP JUMPDEST PUSH1 0x40 MLOAD DUP1 SWAP2 SUB SWAP1 RETURN JUMPDEST CALLVALUE DUP1 ISZERO PUSH2 0x194 JUMPI PUSH0 DUP1 REVERT JUMPDEST POP PUSH2 0x1AF PUSH1 0x4 DUP1 CALLDATASIZE SUB DUP2 ADD SWAP1 PUSH2 0x1AA SWAP2 SWAP1 PUSH2 0x1297 JUMP JUMPDEST PUSH2 0x772 JUMP JUMPDEST PUSH1 0x40 MLOAD PUSH2 0x1BC SWAP2 SWAP1 PUSH2 0x11F8 JUMP JUMPDEST PUSH1 0x40 MLOAD DUP1 SWAP2 SUB SWAP1 RETURN JUMPDEST CALLVALUE DUP1 ISZERO PUSH2 0x1D0 JUMPI PUSH0 DUP1 REVERT JUMPDEST POP PUSH2 0x1EB PUSH1 0x4 DUP1 CALLDATASIZE SUB DUP2 ADD SWAP1 PUSH2 0x1E6 SWAP2 SWAP1 PUSH2 0x12EC JUMP JUMPDEST PUSH2 0x787 JUMP JUMPDEST STOP JUMPDEST CALLVALUE DUP1 ISZERO PUSH2 0x1F8 JUMPI PUSH0 DUP1 REVERT JUMPDEST POP PUSH2 0x213 PUSH1 0x4 DUP1 CALLDATASIZE SUB DUP2 ADD SWAP1 PUSH2 0x20E SWAP2 SWAP1 PUSH2 0x1297 JUMP JUMPDEST PUSH2 0xA9B JUMP JUMPDEST STOP JUMPDEST PUSH2 0x21D PUSH2 0x44B JUMP JUMPDEST STOP JUMPDEST CALLVALUE DUP1 ISZERO PUSH2 0x22A JUMPI PUSH0 DUP1 REVERT JUMPDEST POP PUSH2 0x233 PUSH2 0xBD4 JUMP JUMPDEST STOP JUMPDEST CALLVALUE DUP1 ISZERO PUSH2 0x240 JUMPI PUSH0 DUP1 REVERT JUMPDEST POP PUSH2 0x25B PUSH1 0x4 DUP1 CALLDATASIZE SUB DUP2 ADD SWAP1 PUSH2 0x256 SWAP2 SWAP1 PUSH2 0x1297 JUMP JUMPDEST PUSH2 0xBE6 JUMP JUMPDEST PUSH1 0x40 MLOAD PUSH2 0x268 SWAP2 SWAP1 PUSH2 0x11F8 JUMP JUMPDEST PUSH1 0x40 MLOAD DUP1 SWAP2 SUB SWAP1 RETURN JUMPDEST CALLVALUE DUP1 ISZERO PUSH2 0x27C JUMPI PUSH0 DUP1 REVERT JUMPDEST POP PUSH2 0x285 PUSH2 0xBFB JUMP JUMPDEST PUSH1 0x40 MLOAD PUSH2 0x292 SWAP2 SWAP1 PUSH2 0x1331 JUMP JUMPDEST PUSH1 0x40 MLOAD DUP1 SWAP2 SUB SWAP1 RETURN JUMPDEST CALLVALUE DUP1 ISZERO PUSH2 0x2A6 JUMPI PUSH0 DUP1 REVERT JUMPDEST POP PUSH2 0x2AF PUSH2 0xC11 JUMP JUMPDEST PUSH1 0x40 MLOAD PUSH2 0x2BC SWAP2 SWAP1 PUSH2 0x11F8 JUMP JUMPDEST PUSH1 0x40 MLOAD DUP1 SWAP2 SUB SWAP1 RETURN JUMPDEST CALLVALUE DUP1 ISZERO PUSH2 0x2D0 JUMPI PUSH0 DUP1 REVERT JUMPDEST POP PUSH2 0x2D9 PUSH2 0xC17 JUMP JUMPDEST STOP JUMPDEST CALLVALUE DUP1 ISZERO PUSH2 0x2E6 JUMPI PUSH0 DUP1 REVERT JUMPDEST POP PUSH2 0x301 PUSH1 0x4 DUP1 CALLDATASIZE SUB DUP2 ADD SWAP1 PUSH2 0x2FC SWAP2 SWAP1 PUSH2 0x1297 JUMP JUMPDEST PUSH2 0xC2A JUMP JUMPDEST PUSH1 0x40 MLOAD PUSH2 0x30E SWAP2 SWAP1 PUSH2 0x11F8 JUMP JUMPDEST PUSH1 0x40 MLOAD DUP1 SWAP2 SUB SWAP1 RETURN JUMPDEST CALLVALUE DUP1 ISZERO PUSH2 0x322 JUMPI PUSH0 DUP1 REVERT JUMPDEST POP PUSH2 0x33D PUSH1 0x4 DUP1 CALLDATASIZE SUB DUP2 ADD SWAP1 PUSH2 0x338 SWAP2 SWAP1 PUSH2 0x12EC JUMP JUMPDEST PUSH2 0xC70 JUMP JUMPDEST STOP JUMPDEST CALLVALUE DUP1 ISZERO PUSH2 0x34A JUMPI PUSH0 DUP1 REVERT JUMPDEST POP PUSH2 0x353 PUSH2 0xCC2 JUMP JUMPDEST PUSH1 0x40 MLOAD PUSH2 0x360 SWAP2 SWAP1 PUSH2 0x11F8 JUMP JUMPDEST PUSH1 0x40 MLOAD DUP1 SWAP2 SUB SWAP1 RETURN JUMPDEST CALLVALUE DUP1 ISZERO PUSH2 0x374 JUMPI PUSH0 DUP1 REVERT JUMPDEST POP PUSH2 0x37D PUSH2 0xCC8 JUMP JUMPDEST STOP JUMPDEST CALLVALUE DUP1 ISZERO PUSH2 0x38A JUMPI PUSH0 DUP1 REVERT JUMPDEST POP PUSH2 0x393 PUSH2 0xCDA JUMP JUMPDEST PUSH1 0x40 MLOAD PUSH2 0x3A0 SWAP2 SWAP1 PUSH2 0x1250 JUMP JUMPDEST PUSH1 0x40 MLOAD DUP1 SWAP2 SUB SWAP1 RETURN JUMPDEST CALLVALUE DUP1 ISZERO PUSH2 0x3B4 JUMPI PUSH0 DUP1 REVERT JUMPDEST POP PUSH2 0x3CF PUSH1 0x4 DUP1 CALLDATASIZE SUB DUP2 ADD SWAP1 PUSH2 0x3CA SWAP2 SWAP1 PUSH2 0x12EC JUMP JUMPDEST PUSH2 0xD02 JUMP JUMPDEST STOP JUMPDEST CALLVALUE DUP1 ISZERO PUSH2 0x3DC JUMPI PUSH0 DUP1 REVERT JUMPDEST POP PUSH2 0x3F7 PUSH1 0x4 DUP1 CALLDATASIZE SUB DUP2 ADD SWAP1 PUSH2 0x3F2 SWAP2 SWAP1 PUSH2 0x12EC JUMP JUMPDEST PUSH2 0xD98 JUMP JUMPDEST STOP JUMPDEST CALLVALUE DUP1 ISZERO PUSH2 0x404 JUMPI PUSH0 DUP1 REVERT JUMPDEST POP PUSH2 0x40D PUSH2 0xE2E JUMP JUMPDEST PUSH1 0x40 MLOAD PUSH2 0x41A SWAP2 SWAP1 PUSH2 0x11F8 JUMP JUMPDEST PUSH1 0x40 MLOAD DUP1 SWAP2 SUB SWAP1 RETURN JUMPDEST CALLVALUE DUP1 ISZERO PUSH2 0x42E JUMPI PUSH0 DUP1 REVERT JUMPDEST POP PUSH2 0x449 PUSH1 0x4 DUP1 CALLDATASIZE SUB DUP2 ADD SWAP1 PUSH2 0x444 SWAP2 SWAP1 PUSH2 0x1297 JUMP JUMPDEST PUSH2 0xE34 JUMP JUMPDEST STOP JUMPDEST PUSH2 0x453 PUSH2 0xEB8 JUMP JUMPDEST PUSH2 0x45B PUSH2 0xF05 JUMP JUMPDEST PUSH1 0x5 SLOAD CALLVALUE LT ISZERO PUSH2 0x4A0 JUMPI PUSH1 0x40 MLOAD PUSH32 0x8C379A000000000000000000000000000000000000000000000000000000000 DUP2 MSTORE PUSH1 0x4 ADD PUSH2 0x497 SWAP1 PUSH2 0x13A4 JUMP JUMPDEST PUSH1 0x40 MLOAD DUP1 SWAP2 SUB SWAP1 REVERT JUMPDEST PUSH1 0x6 SLOAD CALLVALUE GT ISZERO PUSH2 0x4E5 JUMPI PUSH1 0x40 MLOAD PUSH32 0x8C379A000000000000000000000000000000000000000000000000000000000 DUP2 MSTORE PUSH1 0x4 ADD PUSH2 0x4DC SWAP1 PUSH2 0x140C JUMP JUMPDEST PUSH1 0x40 MLOAD DUP1 SWAP2 SUB SWAP1 REVERT JUMPDEST PUSH1 0x6 SLOAD PUSH2 0x538 CALLVALUE PUSH1 0x3 PUSH0 CALLER PUSH20 0xFFFFFFFFFFFFFFFFFFFFFFFFFFFFFFFFFFFFFFFF AND PUSH20 0xFFFFFFFFFFFFFFFFFFFFFFFFFFFFFFFFFFFFFFFF AND DUP2 MSTORE PUSH1 0x20 ADD SWAP1 DUP2 MSTORE PUSH1 0x20 ADD PUSH0 KECCAK256 SLOAD PUSH2 0xF4F SWAP1 SWAP2 SWAP1 PUSH4 0xFFFFFFFF AND JUMP JUMPDEST GT ISZERO PUSH2 0x579 JUMPI PUSH1 0x40 MLOAD PUSH32 0x8C379A000000000000000000000000000000000000000000000000000000000 DUP2 MSTORE PUSH1 0x4 ADD PUSH2 0x570 SWAP1 PUSH2 0x1474 JUMP JUMPDEST PUSH1 0x40 MLOAD DUP1 SWAP2 SUB SWAP1 REVERT JUMPDEST PUSH2 0x5C9 CALLVALUE PUSH1 0x3 PUSH0 CALLER PUSH20 0xFFFFFFFFFFFFFFFFFFFFFFFFFFFFFFFFFFFFFFFF AND PUSH20 0xFFFFFFFFFFFFFFFFFFFFFFFFFFFFFFFFFFFFFFFF AND DUP2 MSTORE PUSH1 0x20 ADD SWAP1 DUP2 MSTORE PUSH1 0x20 ADD PUSH0 KECCAK256 SLOAD PUSH2 0xF4F SWAP1 SWAP2 SWAP1 PUSH4 0xFFFFFFFF AND JUMP JUMPDEST PUSH1 0x3 PUSH0 CALLER PUSH20 0xFFFFFFFFFFFFFFFFFFFFFFFFFFFFFFFFFFFFFFFF AND PUSH20 0xFFFFFFFFFFFFFFFFFFFFFFFFFFFFFFFFFFFFFFFF AND DUP2 MSTORE PUSH1 0x20 ADD SWAP1 DUP2 MSTORE PUSH1 0x20 ADD PUSH0 KECCAK256 DUP2 SWAP1 SSTORE POP PUSH2 0x61F CALLVALUE PUSH1 0x4 SLOAD PUSH2 0xF4F SWAP1 SWAP2 SWAP1 PUSH4 0xFFFFFFFF AND JUMP JUMPDEST PUSH1 0x4 DUP2 SWAP1 SSTORE POP PUSH0 PUSH1 0x2 PUSH0 SWAP1 SLOAD SWAP1 PUSH2 0x100 EXP SWAP1 DIV PUSH20 0xFFFFFFFFFFFFFFFFFFFFFFFFFFFFFFFFFFFFFFFF AND PUSH20 0xFFFFFFFFFFFFFFFFFFFFFFFFFFFFFFFFFFFFFFFF AND CALLVALUE PUSH1 0x40 MLOAD PUSH2 0x66B SWAP1 PUSH2 0x14BF JUMP JUMPDEST PUSH0 PUSH1 0x40 MLOAD DUP1 DUP4 SUB DUP2 DUP6 DUP8 GAS CALL SWAP3 POP POP POP RETURNDATASIZE DUP1 PUSH0 DUP2 EQ PUSH2 0x6A5 JUMPI PUSH1 0x40 MLOAD SWAP2 POP PUSH1 0x1F NOT PUSH1 0x3F RETURNDATASIZE ADD AND DUP3 ADD PUSH1 0x40 MSTORE RETURNDATASIZE DUP3 MSTORE RETURNDATASIZE PUSH0 PUSH1 0x20 DUP5 ADD RETURNDATACOPY PUSH2 0x6AA JUMP JUMPDEST PUSH1 0x60 SWAP2 POP JUMPDEST POP POP SWAP1 POP DUP1 PUSH2 0x6EE JUMPI PUSH1 0x40 MLOAD PUSH32 0x8C379A000000000000000000000000000000000000000000000000000000000 DUP2 MSTORE PUSH1 0x4 ADD PUSH2 0x6E5 SWAP1 PUSH2 0x1543 JUMP JUMPDEST PUSH1 0x40 MLOAD DUP1 SWAP2 SUB SWAP1 REVERT JUMPDEST CALLER PUSH20 0xFFFFFFFFFFFFFFFFFFFFFFFFFFFFFFFFFFFFFFFF AND PUSH32 0x9E71BC8EEA02A63969F509818F2DAFB9254532904319F9DBDA79B67BD34A5F3D CALLVALUE PUSH1 0x40 MLOAD PUSH2 0x734 SWAP2 SWAP1 PUSH2 0x11F8 JUMP JUMPDEST PUSH1 0x40 MLOAD DUP1 SWAP2 SUB SWAP1 LOG2 POP PUSH2 0x745 PUSH2 0xF64 JUMP JUMPDEST JUMP JUMPDEST PUSH1 0x7 SLOAD DUP2 JUMP JUMPDEST PUSH1 0x2 PUSH0 SWAP1 SLOAD SWAP1 PUSH2 0x100 EXP SWAP1 DIV PUSH20 0xFFFFFFFFFFFFFFFFFFFFFFFFFFFFFFFFFFFFFFFF AND DUP2 JUMP JUMPDEST PUSH1 0x3 PUSH1 0x20 MSTORE DUP1 PUSH0 MSTORE PUSH1 0x40 PUSH0 KECCAK256 PUSH0 SWAP2 POP SWAP1 POP SLOAD DUP2 JUMP JUMPDEST PUSH2 0x78F PUSH2 0xEB8 JUMP JUMPDEST PUSH2 0x797 PUSH2 0xF05 JUMP JUMPDEST DUP1 PUSH1 0x3 PUSH0 CALLER PUSH20 0xFFFFFFFFFFFFFFFFFFFFFFFFFFFFFFFFFFFFFFFF AND PUSH20 0xFFFFFFFFFFFFFFFFFFFFFFFFFFFFFFFFFFFFFFFF AND DUP2 MSTORE PUSH1 0x20 ADD SWAP1 DUP2 MSTORE PUSH1 0x20 ADD PUSH0 KECCAK256 SLOAD LT ISZERO PUSH2 0x817 JUMPI PUSH1 0x40 MLOAD PUSH32 0x8C379A000000000000000000000000000000000000000000000000000000000 DUP2 MSTORE PUSH1 0x4 ADD PUSH2 0x80E SWAP1 PUSH2 0x15AB JUMP JUMPDEST PUSH1 0x40 MLOAD DUP1 SWAP2 SUB SWAP1 REVERT JUMPDEST PUSH2 0x869 PUSH1 0x7 SLOAD PUSH1 0x8 PUSH0 CALLER PUSH20 0xFFFFFFFFFFFFFFFFFFFFFFFFFFFFFFFFFFFFFFFF AND PUSH20 0xFFFFFFFFFFFFFFFFFFFFFFFFFFFFFFFFFFFFFFFF AND DUP2 MSTORE PUSH1 0x20 ADD SWAP1 DUP2 MSTORE PUSH1 0x20 ADD PUSH0 KECCAK256 SLOAD PUSH2 0xF4F SWAP1 SWAP2 SWAP1 PUSH4 0xFFFFFFFF AND JUMP JUMPDEST TIMESTAMP LT ISZERO PUSH2 0x8AB JUMPI PUSH1 0x40 MLOAD PUSH32 0x8C379A000000000000000000000000000000000000000000000000000000000 DUP2 MSTORE PUSH1 0x4 ADD PUSH2 0x8A2 SWAP1 PUSH2 0x1613 JUMP JUMPDEST PUSH1 0x40 MLOAD DUP1 SWAP2 SUB SWAP1 REVERT JUMPDEST PUSH2 0x8FB DUP2 PUSH1 0x3 PUSH0 CALLER PUSH20 0xFFFFFFFFFFFFFFFFFFFFFFFFFFFFFFFFFFFFFFFF AND PUSH20 0xFFFFFFFFFFFFFFFFFFFFFFFFFFFFFFFFFFFFFFFF AND DUP2 MSTORE PUSH1 0x20 ADD SWAP1 DUP2 MSTORE PUSH1 0x20 ADD PUSH0 KECCAK256 SLOAD PUSH2 0xF6D SWAP1 SWAP2 SWAP1 PUSH4 0xFFFFFFFF AND JUMP JUMPDEST PUSH1 0x3 PUSH0 CALLER PUSH20 0xFFFFFFFFFFFFFFFFFFFFFFFFFFFFFFFFFFFFFFFF AND PUSH20 0xFFFFFFFFFFFFFFFFFFFFFFFFFFFFFFFFFFFFFFFF AND DUP2 MSTORE PUSH1 0x20 ADD SWAP1 DUP2 MSTORE PUSH1 0x20 ADD PUSH0 KECCAK256 DUP2 SWAP1 SSTORE POP PUSH2 0x951 DUP2 PUSH1 0x4 SLOAD PUSH2 0xF6D SWAP1 SWAP2 SWAP1 PUSH4 0xFFFFFFFF AND JUMP JUMPDEST PUSH1 0x4 DUP2 SWAP1 SSTORE POP TIMESTAMP PUSH1 0x8 PUSH0 CALLER PUSH20 0xFFFFFFFFFFFFFFFFFFFFFFFFFFFFFFFFFFFFFFFF AND PUSH20 0xFFFFFFFFFFFFFFFFFFFFFFFFFFFFFFFFFFFFFFFF AND DUP2 MSTORE PUSH1 0x20 ADD SWAP1 DUP2 MSTORE PUSH1 0x20 ADD PUSH0 KECCAK256 DUP2 SWAP1 SSTORE POP PUSH0 CALLER PUSH20 0xFFFFFFFFFFFFFFFFFFFFFFFFFFFFFFFFFFFFFFFF AND DUP3 PUSH1 0x40 MLOAD PUSH2 0x9BE SWAP1 PUSH2 0x14BF JUMP JUMPDEST PUSH0 PUSH1 0x40 MLOAD DUP1 DUP4 SUB DUP2 DUP6 DUP8 GAS CALL SWAP3 POP POP POP RETURNDATASIZE DUP1 PUSH0 DUP2 EQ PUSH2 0x9F8 JUMPI PUSH1 0x40 MLOAD SWAP2 POP PUSH1 0x1F NOT PUSH1 0x3F RETURNDATASIZE ADD AND DUP3 ADD PUSH1 0x40 MSTORE RETURNDATASIZE DUP3 MSTORE RETURNDATASIZE PUSH0 PUSH1 0x20 DUP5 ADD RETURNDATACOPY PUSH2 0x9FD JUMP JUMPDEST PUSH1 0x60 SWAP2 POP JUMPDEST POP POP SWAP1 POP DUP1 PUSH2 0xA41 JUMPI PUSH1 0x40 MLOAD PUSH32 0x8C379A000000000000000000000000000000000000000000000000000000000 DUP2 MSTORE PUSH1 0x4 ADD PUSH2 0xA38 SWAP1 PUSH2 0x167B JUMP JUMPDEST PUSH1 0x40 MLOAD DUP1 SWAP2 SUB SWAP1 REVERT JUMPDEST CALLER PUSH20 0xFFFFFFFFFFFFFFFFFFFFFFFFFFFFFFFFFFFFFFFF AND PUSH32 0x7084F5476618D8E60B11EF0D7D3F06914655ADB8793E28FF7F018D4C76D505D5 DUP4 PUSH1 0x40 MLOAD PUSH2 0xA87 SWAP2 SWAP1 PUSH2 0x11F8 JUMP JUMPDEST PUSH1 0x40 MLOAD DUP1 SWAP2 SUB SWAP1 LOG2 POP PUSH2 0xA98 PUSH2 0xF64 JUMP JUMPDEST POP JUMP JUMPDEST PUSH2 0xAA3 PUSH2 0xF82 JUMP JUMPDEST PUSH0 PUSH20 0xFFFFFFFFFFFFFFFFFFFFFFFFFFFFFFFFFFFFFFFF AND DUP2 PUSH20 0xFFFFFFFFFFFFFFFFFFFFFFFFFFFFFFFFFFFFFFFF AND SUB PUSH2 0xB11 JUMPI PUSH1 0x40 MLOAD PUSH32 0x8C379A000000000000000000000000000000000000000000000000000000000 DUP2 MSTORE PUSH1 0x4 ADD PUSH2 0xB08 SWAP1 PUSH2 0x1709 JUMP JUMPDEST PUSH1 0x40 MLOAD DUP1 SWAP2 SUB SWAP1 REVERT JUMPDEST PUSH0 PUSH1 0x2 PUSH0 SWAP1 SLOAD SWAP1 PUSH2 0x100 EXP SWAP1 DIV PUSH20 0xFFFFFFFFFFFFFFFFFFFFFFFFFFFFFFFFFFFFFFFF AND SWAP1 POP DUP2 PUSH1 0x2 PUSH0 PUSH2 0x100 EXP DUP2 SLOAD DUP2 PUSH20 0xFFFFFFFFFFFFFFFFFFFFFFFFFFFFFFFFFFFFFFFF MUL NOT AND SWAP1 DUP4 PUSH20 0xFFFFFFFFFFFFFFFFFFFFFFFFFFFFFFFFFFFFFFFF AND MUL OR SWAP1 SSTORE POP DUP2 PUSH20 0xFFFFFFFFFFFFFFFFFFFFFFFFFFFFFFFFFFFFFFFF AND DUP2 PUSH20 0xFFFFFFFFFFFFFFFFFFFFFFFFFFFFFFFFFFFFFFFF AND PUSH32 0x6013C0FE4C1FB06EE755812E80639FCBD51C4DCFC2B46FBE17CE2BEECBACBE84 PUSH1 0x40 MLOAD PUSH1 0x40 MLOAD DUP1 SWAP2 SUB SWAP1 LOG3 POP POP JUMP JUMPDEST PUSH2 0xBDC PUSH2 0xF82 JUMP JUMPDEST PUSH2 0xBE4 PUSH2 0x1009 JUMP JUMPDEST JUMP JUMPDEST PUSH1 0x8 PUSH1 0x20 MSTORE DUP1 PUSH0 MSTORE PUSH1 0x40 PUSH0 KECCAK256 PUSH0 SWAP2 POP SWAP1 POP SLOAD DUP2 JUMP JUMPDEST PUSH0 PUSH1 0x1 PUSH1 0x14 SWAP1 SLOAD SWAP1 PUSH2 0x100 EXP SWAP1 DIV PUSH1 0xFF AND SWAP1 POP SWAP1 JUMP JUMPDEST PUSH1 0x6 SLOAD DUP2 JUMP JUMPDEST PUSH2 0xC1F PUSH2 0xF82 JUMP JUMPDEST PUSH2 0xC28 PUSH0 PUSH2 0x106B JUMP JUMPDEST JUMP JUMPDEST PUSH0 PUSH1 0x3 PUSH0 DUP4 PUSH20 0xFFFFFFFFFFFFFFFFFFFFFFFFFFFFFFFFFFFFFFFF AND PUSH20 0xFFFFFFFFFFFFFFFFFFFFFFFFFFFFFFFFFFFFFFFF AND DUP2 MSTORE PUSH1 0x20 ADD SWAP1 DUP2 MSTORE PUSH1 0x20 ADD PUSH0 KECCAK256 SLOAD SWAP1 POP SWAP2 SWAP1 POP JUMP JUMPDEST PUSH2 0xC78 PUSH2 0xF82 JUMP JUMPDEST PUSH0 PUSH1 0x7 SLOAD SWAP1 POP DUP2 PUSH1 0x7 DUP2 SWAP1 SSTORE POP PUSH32 0x67A4233D292AB33774A65917CA809B4AB92953E039A7C1F71656AFBBC1BC60C9 DUP2 DUP4 PUSH1 0x40 MLOAD PUSH2 0xCB6 SWAP3 SWAP2 SWAP1 PUSH2 0x1727 JUMP JUMPDEST PUSH1 0x40 MLOAD DUP1 SWAP2 SUB SWAP1 LOG1 POP POP JUMP JUMPDEST PUSH1 0x4 SLOAD DUP2 JUMP JUMPDEST PUSH2 0xCD0 PUSH2 0xF82 JUMP JUMPDEST PUSH2 0xCD8 PUSH2 0x112E JUMP JUMPDEST JUMP JUMPDEST PUSH0 PUSH1 0x1 PUSH0 SWAP1 SLOAD SWAP1 PUSH2 0x100 EXP SWAP1 DIV PUSH20 0xFFFFFFFFFFFFFFFFFFFFFFFFFFFFFFFFFFFFFFFF AND SWAP1 POP SWAP1 JUMP JUMPDEST PUSH2 0xD0A PUSH2 0xF82 JUMP JUMPDEST PUSH1 0x5 SLOAD DUP2 GT PUSH2 0xD4E JUMPI PUSH1 0x40 MLOAD PUSH32 0x8C379A000000000000000000000000000000000000000000000000000000000 DUP2 MSTORE PUSH1 0x4 ADD PUSH2 0xD45 SWAP1 PUSH2 0x17BE JUMP JUMPDEST PUSH1 0x40 MLOAD DUP1 SWAP2 SUB SWAP1 REVERT JUMPDEST PUSH0 PUSH1 0x6 SLOAD SWAP1 POP DUP2 PUSH1 0x6 DUP2 SWAP1 SSTORE POP PUSH32 0x7AF071D76489FF69E32618F091B5D6DE46AF889DE44F621A936E8C9615C463A9 DUP2 DUP4 PUSH1 0x40 MLOAD PUSH2 0xD8C SWAP3 SWAP2 SWAP1 PUSH2 0x1727 JUMP JUMPDEST PUSH1 0x40 MLOAD DUP1 SWAP2 SUB SWAP1 LOG1 POP POP JUMP JUMPDEST PUSH2 0xDA0 PUSH2 0xF82 JUMP JUMPDEST PUSH1 0x6 SLOAD DUP2 LT PUSH2 0xDE4 JUMPI PUSH1 0x40 MLOAD PUSH32 0x8C379A000000000000000000000000000000000000000000000000000000000 DUP2 MSTORE PUSH1 0x4 ADD PUSH2 0xDDB SWAP1 PUSH2 0x184C JUMP JUMPDEST PUSH1 0x40 MLOAD DUP1 SWAP2 SUB SWAP1 REVERT JUMPDEST PUSH0 PUSH1 0x5 SLOAD SWAP1 POP DUP2 PUSH1 0x5 DUP2 SWAP1 SSTORE POP PUSH32 0x3B8DCD7D08F8AA9E93D2AFC54830C8B23DB9B7264F3BC503EB5FC2A0289BC2CB DUP2 DUP4 PUSH1 0x40 MLOAD PUSH2 0xE22 SWAP3 SWAP2 SWAP1 PUSH2 0x1727 JUMP JUMPDEST PUSH1 0x40 MLOAD DUP1 SWAP2 SUB SWAP1 LOG1 POP POP JUMP JUMPDEST PUSH1 0x5 SLOAD DUP2 JUMP JUMPDEST PUSH2 0xE3C PUSH2 0xF82 JUMP JUMPDEST PUSH0 PUSH20 0xFFFFFFFFFFFFFFFFFFFFFFFFFFFFFFFFFFFFFFFF AND DUP2 PUSH20 0xFFFFFFFFFFFFFFFFFFFFFFFFFFFFFFFFFFFFFFFF AND SUB PUSH2 0xEAC JUMPI PUSH0 PUSH1 0x40 MLOAD PUSH32 0x1E4FBDF700000000000000000000000000000000000000000000000000000000 DUP2 MSTORE PUSH1 0x4 ADD PUSH2 0xEA3 SWAP2 SWAP1 PUSH2 0x1250 JUMP JUMPDEST PUSH1 0x40 MLOAD DUP1 SWAP2 SUB SWAP1 REVERT JUMPDEST PUSH2 0xEB5 DUP2 PUSH2 0x106B JUMP JUMPDEST POP JUMP JUMPDEST PUSH1 0x2 PUSH0 SLOAD SUB PUSH2 0xEFC JUMPI PUSH1 0x40 MLOAD PUSH32 0x8C379A000000000000000000000000000000000000000000000000000000000 DUP2 MSTORE PUSH1 0x4 ADD PUSH2 0xEF3 SWAP1 PUSH2 0x18B4 JUMP JUMPDEST PUSH1 0x40 MLOAD DUP1 SWAP2 SUB SWAP1 REVERT JUMPDEST PUSH1 0x2 PUSH0 DUP2 SWAP1 SSTORE POP JUMP JUMPDEST PUSH2 0xF0D PUSH2 0xBFB JUMP JUMPDEST ISZERO PUSH2 0xF4D JUMPI PUSH1 0x40 MLOAD PUSH32 0x8C379A000000000000000000000000000000000000000000000000000000000 DUP2 MSTORE PUSH1 0x4 ADD PUSH2 0xF44 SWAP1 PUSH2 0x191C JUMP JUMPDEST PUSH1 0x40 MLOAD DUP1 SWAP2 SUB SWAP1 REVERT JUMPDEST JUMP JUMPDEST PUSH0 DUP2 DUP4 PUSH2 0xF5C SWAP2 SWAP1 PUSH2 0x1967 JUMP JUMPDEST SWAP1 POP SWAP3 SWAP2 POP POP JUMP JUMPDEST PUSH1 0x1 PUSH0 DUP2 SWAP1 SSTORE POP JUMP JUMPDEST PUSH0 DUP2 DUP4 PUSH2 0xF7A SWAP2 SWAP1 PUSH2 0x199A JUMP JUMPDEST SWAP1 POP SWAP3 SWAP2 POP POP JUMP JUMPDEST PUSH2 0xF8A PUSH2 0x1190 JUMP JUMPDEST PUSH20 0xFFFFFFFFFFFFFFFFFFFFFFFFFFFFFFFFFFFFFFFF AND PUSH2 0xFA8 PUSH2 0xCDA JUMP JUMPDEST PUSH20 0xFFFFFFFFFFFFFFFFFFFFFFFFFFFFFFFFFFFFFFFF AND EQ PUSH2 0x1007 JUMPI PUSH2 0xFCB PUSH2 0x1190 JUMP JUMPDEST PUSH1 0x40 MLOAD PUSH32 0x118CDAA700000000000000000000000000000000000000000000000000000000 DUP2 MSTORE PUSH1 0x4 ADD PUSH2 0xFFE SWAP2 SWAP1 PUSH2 0x1250 JUMP JUMPDEST PUSH1 0x40 MLOAD DUP1 SWAP2 SUB SWAP1 REVERT JUMPDEST JUMP JUMPDEST PUSH2 0x1011 PUSH2 0x1197 JUMP JUMPDEST PUSH0 PUSH1 0x1 PUSH1 0x14 PUSH2 0x100 EXP DUP2 SLOAD DUP2 PUSH1 0xFF MUL NOT AND SWAP1 DUP4 ISZERO ISZERO MUL OR SWAP1 SSTORE POP PUSH32 0x5DB9EE0A495BF2E6FF9C91A7834C1BA4FDD244A5E8AA4E537BD38AEAE4B073AA PUSH2 0x1054 PUSH2 0x1190 JUMP JUMPDEST PUSH1 0x40 MLOAD PUSH2 0x1061 SWAP2 SWAP1 PUSH2 0x1250 JUMP JUMPDEST PUSH1 0x40 MLOAD DUP1 SWAP2 SUB SWAP1 LOG1 JUMP JUMPDEST PUSH0 PUSH1 0x1 PUSH0 SWAP1 SLOAD SWAP1 PUSH2 0x100 EXP SWAP1 DIV PUSH20 0xFFFFFFFFFFFFFFFFFFFFFFFFFFFFFFFFFFFFFFFF AND SWAP1 POP DUP2 PUSH1 0x1 PUSH0 PUSH2 0x100 EXP DUP2 SLOAD DUP2 PUSH20 0xFFFFFFFFFFFFFFFFFFFFFFFFFFFFFFFFFFFFFFFF MUL NOT AND SWAP1 DUP4 PUSH20 0xFFFFFFFFFFFFFFFFFFFFFFFFFFFFFFFFFFFFFFFF AND MUL OR SWAP1 SSTORE POP DUP2 PUSH20 0xFFFFFFFFFFFFFFFFFFFFFFFFFFFFFFFFFFFFFFFF AND DUP2 PUSH20 0xFFFFFFFFFFFFFFFFFFFFFFFFFFFFFFFFFFFFFFFF AND PUSH32 0x8BE0079C531659141344CD1FD0A4F28419497F9722A3DAAFE3B4186F6B6457E0 PUSH1 0x40 MLOAD PUSH1 0x40 MLOAD DUP1 SWAP2 SUB SWAP1 LOG3 POP POP JUMP JUMPDEST PUSH2 0x1136 PUSH2 0xF05 JUMP JUMPDEST PUSH1 0x1 DUP1 PUSH1 0x14 PUSH2 0x100 EXP DUP2 SLOAD DUP2 PUSH1 0xFF MUL NOT AND SWAP1 DUP4 ISZERO ISZERO MUL OR SWAP1 SSTORE POP PUSH32 0x62E78CEA01BEE320CD4E420270B5EA74000D11B0C9F74754EBDBFC544B05A258 PUSH2 0x1179 PUSH2 0x1190 JUMP JUMPDEST PUSH1 0x40 MLOAD PUSH2 0x1186 SWAP2 SWAP1 PUSH2 0x1250 JUMP JUMPDEST PUSH1 0x40 MLOAD DUP1 SWAP2 SUB SWAP1 LOG1 JUMP JUMPDEST PUSH0 CALLER SWAP1 POP SWAP1 JUMP JUMPDEST PUSH2 0x119F PUSH2 0xBFB JUMP JUMPDEST PUSH2 0x11DE JUMPI PUSH1 0x40 MLOAD PUSH32 0x8C379A000000000000000000000000000000000000000000000000000000000 DUP2 MSTORE PUSH1 0x4 ADD PUSH2 0x11D5 SWAP1 PUSH2 0x1A17 JUMP JUMPDEST PUSH1 0x40 MLOAD DUP1 SWAP2 SUB SWAP1 REVERT JUMPDEST JUMP JUMPDEST PUSH0 DUP2 SWAP1 POP SWAP2 SWAP1 POP JUMP JUMPDEST PUSH2 0x11F2 DUP2 PUSH2 0x11E0 JUMP JUMPDEST DUP3 MSTORE POP POP JUMP JUMPDEST PUSH0 PUSH1 0x20 DUP3 ADD SWAP1 POP PUSH2 0x120B PUSH0 DUP4 ADD DUP5 PUSH2 0x11E9 JUMP JUMPDEST SWAP3 SWAP2 POP POP JUMP JUMPDEST PUSH0 PUSH20 0xFFFFFFFFFFFFFFFFFFFFFFFFFFFFFFFFFFFFFFFF DUP3 AND SWAP1 POP SWAP2 SWAP1 POP JUMP JUMPDEST PUSH0 PUSH2 0x123A DUP3 PUSH2 0x1211 JUMP JUMPDEST SWAP1 POP SWAP2 SWAP1 POP JUMP JUMPDEST PUSH2 0x124A DUP2 PUSH2 0x1230 JUMP JUMPDEST DUP3 MSTORE POP POP JUMP JUMPDEST PUSH0 PUSH1 0x20 DUP3 ADD SWAP1 POP PUSH2 0x1263 PUSH0 DUP4 ADD DUP5 PUSH2 0x1241 JUMP JUMPDEST SWAP3 SWAP2 POP POP JUMP JUMPDEST PUSH0 DUP1 REVERT JUMPDEST PUSH2 0x1276 DUP2 PUSH2 0x1230 JUMP JUMPDEST DUP2 EQ PUSH2 0x1280 JUMPI PUSH0 DUP1 REVERT JUMPDEST POP JUMP JUMPDEST PUSH0 DUP2 CALLDATALOAD SWAP1 POP PUSH2 0x1291 DUP2 PUSH2 0x126D JUMP JUMPDEST SWAP3 SWAP2 POP POP JUMP JUMPDEST PUSH0 PUSH1 0x20 DUP3 DUP5 SUB SLT ISZERO PUSH2 0x12AC JUMPI PUSH2 0x12AB PUSH2 0x1269 JUMP JUMPDEST JUMPDEST PUSH0 PUSH2 0x12B9 DUP5 DUP3 DUP6 ADD PUSH2 0x1283 JUMP JUMPDEST SWAP2 POP POP SWAP3 SWAP2 POP POP JUMP JUMPDEST PUSH2 0x12CB DUP2 PUSH2 0x11E0 JUMP JUMPDEST DUP2 EQ PUSH2 0x12D5 JUMPI PUSH0 DUP1 REVERT JUMPDEST POP JUMP JUMPDEST PUSH0 DUP2 CALLDATALOAD SWAP1 POP PUSH2 0x12E6 DUP2 PUSH2 0x12C2 JUMP JUMPDEST SWAP3 SWAP2 POP POP JUMP JUMPDEST PUSH0 PUSH1 0x20 DUP3 DUP5 SUB SLT ISZERO PUSH2 0x1301 JUMPI PUSH2 0x1300 PUSH2 0x1269 JUMP JUMPDEST JUMPDEST PUSH0 PUSH2 0x130E DUP5 DUP3 DUP6 ADD PUSH2 0x12D8 JUMP JUMPDEST SWAP2 POP POP SWAP3 SWAP2 POP POP JUMP JUMPDEST PUSH0 DUP2 ISZERO ISZERO SWAP1 POP SWAP2 SWAP1 POP JUMP JUMPDEST PUSH2 0x132B DUP2 PUSH2 0x1317 JUMP JUMPDEST DUP3 MSTORE POP POP JUMP JUMPDEST PUSH0 PUSH1 0x20 DUP3 ADD SWAP1 POP PUSH2 0x1344 PUSH0 DUP4 ADD DUP5 PUSH2 0x1322 JUMP JUMPDEST SWAP3 SWAP2 POP POP JUMP JUMPDEST PUSH0 DUP3 DUP3 MSTORE PUSH1 0x20 DUP3 ADD SWAP1 POP SWAP3 SWAP2 POP POP JUMP JUMPDEST PUSH32 0x5374616B6520616D6F756E7420746F6F206C6F77000000000000000000000000 PUSH0 DUP3 ADD MSTORE POP JUMP JUMPDEST PUSH0 PUSH2 0x138E PUSH1 0x14 DUP4 PUSH2 0x134A JUMP JUMPDEST SWAP2 POP PUSH2 0x1399 DUP3 PUSH2 0x135A JUMP JUMPDEST PUSH1 0x20 DUP3 ADD SWAP1 POP SWAP2 SWAP1 POP JUMP JUMPDEST PUSH0 PUSH1 0x20 DUP3 ADD SWAP1 POP DUP2 DUP2 SUB PUSH0 DUP4 ADD MSTORE PUSH2 0x13BB DUP2 PUSH2 0x1382 JUMP JUMPDEST SWAP1 POP SWAP2 SWAP1 POP JUMP JUMPDEST PUSH32 0x5374616B6520616D6F756E7420746F6F20686967680000000000000000000000 PUSH0 DUP3 ADD MSTORE POP JUMP JUMPDEST PUSH0 PUSH2 0x13F6 PUSH1 0x15 DUP4 PUSH2 0x134A JUMP JUMPDEST SWAP2 POP PUSH2 0x1401 DUP3 PUSH2 0x13C2 JUMP JUMPDEST PUSH1 0x20 DUP3 ADD SWAP1 POP SWAP2 SWAP1 POP JUMP JUMPDEST PUSH0 PUSH1 0x20 DUP3 ADD SWAP1 POP DUP2 DUP2 SUB PUSH0 DUP4 ADD MSTORE PUSH2 0x1423 DUP2 PUSH2 0x13EA JUMP JUMPDEST SWAP1 POP SWAP2 SWAP1 POP JUMP JUMPDEST PUSH32 0x546F74616C207374616B652065786365656473206D6178696D756D0000000000 PUSH0 DUP3 ADD MSTORE POP JUMP JUMPDEST PUSH0 PUSH2 0x145E PUSH1 0x1B DUP4 PUSH2 0x134A JUMP JUMPDEST SWAP2 POP PUSH2 0x1469 DUP3 PUSH2 0x142A JUMP JUMPDEST PUSH1 0x20 DUP3 ADD SWAP1 POP SWAP2 SWAP1 POP JUMP JUMPDEST PUSH0 PUSH1 0x20 DUP3 ADD SWAP1 POP DUP2 DUP2 SUB PUSH0 DUP4 ADD MSTORE PUSH2 0x148B DUP2 PUSH2 0x1452 JUMP JUMPDEST SWAP1 POP SWAP2 SWAP1 POP JUMP JUMPDEST PUSH0 DUP2 SWAP1 POP SWAP3 SWAP2 POP POP JUMP JUMPDEST POP JUMP JUMPDEST PUSH0 PUSH2 0x14AA PUSH0 DUP4 PUSH2 0x1492 JUMP JUMPDEST SWAP2 POP PUSH2 0x14B5 DUP3 PUSH2 0x149C JUMP JUMPDEST PUSH0 DUP3 ADD SWAP1 POP SWAP2 SWAP1 POP JUMP JUMPDEST PUSH0 PUSH2 0x14C9 DUP3 PUSH2 0x149F JUMP JUMPDEST SWAP2 POP DUP2 SWAP1 POP SWAP2 SWAP1 POP JUMP JUMPDEST PUSH32 0x4661696C656420746F207472616E73666572207374616B6520746F207374616B PUSH0 DUP3 ADD MSTORE PUSH32 0x696E672077616C6C657400000000000000000000000000000000000000000000 PUSH1 0x20 DUP3 ADD MSTORE POP JUMP JUMPDEST PUSH0 PUSH2 0x152D PUSH1 0x2A DUP4 PUSH2 0x134A JUMP JUMPDEST SWAP2 POP PUSH2 0x1538 DUP3 PUSH2 0x14D3 JUMP JUMPDEST PUSH1 0x40 DUP3 ADD SWAP1 POP SWAP2 SWAP1 POP JUMP JUMPDEST PUSH0 PUSH1 0x20 DUP3 ADD SWAP1 POP DUP2 DUP2 SUB PUSH0 DUP4 ADD MSTORE PUSH2 0x155A DUP2 PUSH2 0x1521 JUMP JUMPDEST SWAP1 POP SWAP2 SWAP1 POP JUMP JUMPDEST PUSH32 0x496E73756666696369656E74207374616B650000000000000000000000000000 PUSH0 DUP3 ADD MSTORE POP JUMP JUMPDEST PUSH0 PUSH2 0x1595 PUSH1 0x12 DUP4 PUSH2 0x134A JUMP JUMPDEST SWAP2 POP PUSH2 0x15A0 DUP3 PUSH2 0x1561 JUMP JUMPDEST PUSH1 0x20 DUP3 ADD SWAP1 POP SWAP2 SWAP1 POP JUMP JUMPDEST PUSH0 PUSH1 0x20 DUP3 ADD SWAP1 POP DUP2 DUP2 SUB PUSH0 DUP4 ADD MSTORE PUSH2 0x15C2 DUP2 PUSH2 0x1589 JUMP JUMPDEST SWAP1 POP SWAP2 SWAP1 POP JUMP JUMPDEST PUSH32 0x436F6F6C646F776E20706572696F64206E6F74206D6574000000000000000000 PUSH0 DUP3 ADD MSTORE POP JUMP JUMPDEST PUSH0 PUSH2 0x15FD PUSH1 0x17 DUP4 PUSH2 0x134A JUMP JUMPDEST SWAP2 POP PUSH2 0x1608 DUP3 PUSH2 0x15C9 JUMP JUMPDEST PUSH1 0x20 DUP3 ADD SWAP1 POP SWAP2 SWAP1 POP JUMP JUMPDEST PUSH0 PUSH1 0x20 DUP3 ADD SWAP1 POP DUP2 DUP2 SUB PUSH0 DUP4 ADD MSTORE PUSH2 0x162A DUP2 PUSH2 0x15F1 JUMP JUMPDEST SWAP1 POP SWAP2 SWAP1 POP JUMP JUMPDEST PUSH32 0x4661696C656420746F2073656E6420424E420000000000000000000000000000 PUSH0 DUP3 ADD MSTORE POP JUMP JUMPDEST PUSH0 PUSH2 0x1665 PUSH1 0x12 DUP4 PUSH2 0x134A JUMP JUMPDEST SWAP2 POP PUSH2 0x1670 DUP3 PUSH2 0x1631 JUMP JUMPDEST PUSH1 0x20 DUP3 ADD SWAP1 POP SWAP2 SWAP1 POP JUMP JUMPDEST PUSH0 PUSH1 0x20 DUP3 ADD SWAP1 POP DUP2 DUP2 SUB PUSH0 DUP4 ADD MSTORE PUSH2 0x1692 DUP2 PUSH2 0x1659 JUMP JUMPDEST SWAP1 POP SWAP2 SWAP1 POP JUMP JUMPDEST PUSH32 0x496E76616C6964206E6577207374616B696E672077616C6C6574206164647265 PUSH0 DUP3 ADD MSTORE PUSH32 0x7373000000000000000000000000000000000000000000000000000000000000 PUSH1 0x20 DUP3 ADD MSTORE POP JUMP JUMPDEST PUSH0 PUSH2 0x16F3 PUSH1 0x22 DUP4 PUSH2 0x134A JUMP JUMPDEST SWAP2 POP PUSH2 0x16FE DUP3 PUSH2 0x1699 JUMP JUMPDEST PUSH1 0x40 DUP3 ADD SWAP1 POP SWAP2 SWAP1 POP JUMP JUMPDEST PUSH0 PUSH1 0x20 DUP3 ADD SWAP1 POP DUP2 DUP2 SUB PUSH0 DUP4 ADD MSTORE PUSH2 0x1720 DUP2 PUSH2 0x16E7 JUMP JUMPDEST SWAP1 POP SWAP2 SWAP1 POP JUMP JUMPDEST PUSH0 PUSH1 0x40 DUP3 ADD SWAP1 POP PUSH2 0x173A PUSH0 DUP4 ADD DUP6 PUSH2 0x11E9 JUMP JUMPDEST PUSH2 0x1747 PUSH1 0x20 DUP4 ADD DUP5 PUSH2 0x11E9 JUMP JUMPDEST SWAP4 SWAP3 POP POP POP JUMP JUMPDEST PUSH32 0x4D617820616D6F756E74206D7573742062652067726561746572207468616E20 PUSH0 DUP3 ADD MSTORE PUSH32 0x6D696E20616D6F756E7400000000000000000000000000000000000000000000 PUSH1 0x20 DUP3 ADD MSTORE POP JUMP JUMPDEST PUSH0 PUSH2 0x17A8 PUSH1 0x2A DUP4 PUSH2 0x134A JUMP JUMPDEST SWAP2 POP PUSH2 0x17B3 DUP3 PUSH2 0x174E JUMP JUMPDEST PUSH1 0x40 DUP3 ADD SWAP1 POP SWAP2 SWAP1 POP JUMP JUMPDEST PUSH0 PUSH1 0x20 DUP3 ADD SWAP1 POP DUP2 DUP2 SUB PUSH0 DUP4 ADD MSTORE PUSH2 0x17D5 DUP2 PUSH2 0x179C JUMP JUMPDEST SWAP1 POP SWAP2 SWAP1 POP JUMP JUMPDEST PUSH32 0x4D696E20616D6F756E74206D757374206265206C657373207468616E206D6178 PUSH0 DUP3 ADD MSTORE PUSH32 0x20616D6F756E7400000000000000000000000000000000000000000000000000 PUSH1 0x20 DUP3 ADD MSTORE POP JUMP JUMPDEST PUSH0 PUSH2 0x1836 PUSH1 0x27 DUP4 PUSH2 0x134A JUMP JUMPDEST SWAP2 POP PUSH2 0x1841 DUP3 PUSH2 0x17DC JUMP JUMPDEST PUSH1 0x40 DUP3 ADD SWAP1 POP SWAP2 SWAP1 POP JUMP JUMPDEST PUSH0 PUSH1 0x20 DUP3 ADD SWAP1 POP DUP2 DUP2 SUB PUSH0 DUP4 ADD MSTORE PUSH2 0x1863 DUP2 PUSH2 0x182A JUMP JUMPDEST SWAP1 POP SWAP2 SWAP1 POP JUMP JUMPDEST PUSH32 0x5265656E7472616E637947756172643A207265656E7472616E742063616C6C00 PUSH0 DUP3 ADD MSTORE POP JUMP JUMPDEST PUSH0 PUSH2 0x189E PUSH1 0x1F DUP4 PUSH2 0x134A JUMP JUMPDEST SWAP2 POP PUSH2 0x18A9 DUP3 PUSH2 0x186A JUMP JUMPDEST PUSH1 0x20 DUP3 ADD SWAP1 POP SWAP2 SWAP1 POP JUMP JUMPDEST PUSH0 PUSH1 0x20 DUP3 ADD SWAP1 POP DUP2 DUP2 SUB PUSH0 DUP4 ADD MSTORE PUSH2 0x18CB DUP2 PUSH2 0x1892 JUMP JUMPDEST SWAP1 POP SWAP2 SWAP1 POP JUMP JUMPDEST PUSH32 0x5061757361626C653A2070617573656400000000000000000000000000000000 PUSH0 DUP3 ADD MSTORE POP JUMP JUMPDEST PUSH0 PUSH2 0x1906 PUSH1 0x10 DUP4 PUSH2 0x134A JUMP JUMPDEST SWAP2 POP PUSH2 0x1911 DUP3 PUSH2 0x18D2 JUMP JUMPDEST PUSH1 0x20 DUP3 ADD SWAP1 POP SWAP2 SWAP1 POP JUMP JUMPDEST PUSH0 PUSH1 0x20 DUP3 ADD SWAP1 POP DUP2 DUP2 SUB PUSH0 DUP4 ADD MSTORE PUSH2 0x1933 DUP2 PUSH2 0x18FA JUMP JUMPDEST SWAP1 POP SWAP2 SWAP1 POP JUMP JUMPDEST PUSH32 0x4E487B7100000000000000000000000000000000000000000000000000000000 PUSH0 MSTORE PUSH1 0x11 PUSH1 0x4 MSTORE PUSH1 0x24 PUSH0 REVERT JUMPDEST PUSH0 PUSH2 0x1971 DUP3 PUSH2 0x11E0 JUMP JUMPDEST SWAP2 POP PUSH2 0x197C DUP4 PUSH2 0x11E0 JUMP JUMPDEST SWAP3 POP DUP3 DUP3 ADD SWAP1 POP DUP1 DUP3 GT ISZERO PUSH2 0x1994 JUMPI PUSH2 0x1993 PUSH2 0x193A JUMP JUMPDEST JUMPDEST SWAP3 SWAP2 POP POP JUMP JUMPDEST PUSH0 PUSH2 0x19A4 DUP3 PUSH2 0x11E0 JUMP JUMPDEST SWAP2 POP PUSH2 0x19AF DUP4 PUSH2 0x11E0 JUMP JUMPDEST SWAP3 POP DUP3 DUP3 SUB SWAP1 POP DUP2 DUP2 GT ISZERO PUSH2 0x19C7 JUMPI PUSH2 0x19C6 PUSH2 0x193A JUMP JUMPDEST JUMPDEST SWAP3 SWAP2 POP POP JUMP JUMPDEST PUSH32 0x5061757361626C653A206E6F7420706175736564000000000000000000000000 PUSH0 DUP3 ADD MSTORE POP JUMP JUMPDEST PUSH0 PUSH2 0x1A01 PUSH1 0x14 DUP4 PUSH2 0x134A JUMP JUMPDEST SWAP2 POP PUSH2 0x1A0C DUP3 PUSH2 0x19CD JUMP JUMPDEST PUSH1 0x20 DUP3 ADD SWAP1 POP SWAP2 SWAP1 POP JUMP JUMPDEST PUSH0 PUSH1 0x20 DUP3 ADD SWAP1 POP DUP2 DUP2 SUB PUSH0 DUP4 ADD MSTORE PUSH2 0x1A2E DUP2 PUSH2 0x19F5 JUMP JUMPDEST SWAP1 POP SWAP2 SWAP1 POP JUMP INVALID LOG2 PUSH5 0x6970667358 0x22 SLT KECCAK256 0xF9 PC LOG4 PUSH1 0xB TSTORE 0xFC DUP5 0xF7 BLOCKHASH 0xFB 0xC1 0xC9 0xB7 0xC3 0xE7 0xAC PUSH2 0x870 DUP6 XOR PUSH4 0xF4BAFAEE 0xEF EXP STATICCALL 0x28 SWAP8 PUSH5 0x736F6C6343 STOP ADDMOD BYTE STOP CALLER "
				},
				"gasEstimates": {
					"creation": {
						"codeDepositCost": "1352600",
						"executionCost": "infinite",
						"totalCost": "infinite"
					},
					"external": {
						"changeStakingWallet(address)": "infinite",
						"cooldownPeriod()": "2449",
						"getStake(address)": "2874",
						"lastWithdrawalTime(address)": "2869",
						"maxStakeAmount()": "2536",
						"minStakeAmount()": "2513",
						"owner()": "2537",
						"pause()": "infinite",
						"paused()": "2613",
						"renounceOwnership()": "infinite",
						"setCooldownPeriod(uint256)": "infinite",
						"setMaxStakeAmount(uint256)": "infinite",
						"setMinStakeAmount(uint256)": "infinite",
						"stake()": "infinite",
						"stakes(address)": "2870",
						"stakingWallet()": "2554",
						"totalStaked()": "2514",
						"transferOwnership(address)": "infinite",
						"unpause()": "infinite",
						"withdraw(uint256)": "infinite"
					}
				},
				"methodIdentifiers": {
					"changeStakingWallet(address)": "384c05bd",
					"cooldownPeriod()": "04646a49",
					"getStake(address)": "7a766460",
					"lastWithdrawalTime(address)": "4de5120e",
					"maxStakeAmount()": "5d80ca32",
					"minStakeAmount()": "f1887684",
					"owner()": "8da5cb5b",
					"pause()": "8456cb59",
					"paused()": "5c975abb",
					"renounceOwnership()": "715018a6",
					"setCooldownPeriod(uint256)": "80ea3de1",
					"setMaxStakeAmount(uint256)": "dcc2a55e",
					"setMinStakeAmount(uint256)": "eb4af045",
					"stake()": "3a4b66f1",
					"stakes(address)": "16934fc4",
					"stakingWallet()": "06ee6ad8",
					"totalStaked()": "817b1cd2",
					"transferOwnership(address)": "f2fde38b",
					"unpause()": "3f4ba83a",
					"withdraw(uint256)": "2e1a7d4d"
				}
			},
			"storageLayout": {
				"storage": [
					{
						"astId": 266,
						"contract": "EnhancedStaking.sol:EnhancedStaking",
						"label": "_status",
						"offset": 0,
						"slot": "0",
						"type": "t_uint256"
					},
					{
						"astId": 8,
						"contract": "EnhancedStaking.sol:EnhancedStaking",
						"label": "_owner",
						"offset": 0,
						"slot": "1",
						"type": "t_address"
					},
					{
						"astId": 165,
						"contract": "EnhancedStaking.sol:EnhancedStaking",
						"label": "_paused",
						"offset": 20,
						"slot": "1",
						"type": "t_bool"
					},
					{
						"astId": 679,
						"contract": "EnhancedStaking.sol:EnhancedStaking",
						"label": "stakingWallet",
						"offset": 0,
						"slot": "2",
						"type": "t_address"
					},
					{
						"astId": 683,
						"contract": "EnhancedStaking.sol:EnhancedStaking",
						"label": "stakes",
						"offset": 0,
						"slot": "3",
						"type": "t_mapping(t_address,t_uint256)"
					},
					{
						"astId": 685,
						"contract": "EnhancedStaking.sol:EnhancedStaking",
						"label": "totalStaked",
						"offset": 0,
						"slot": "4",
						"type": "t_uint256"
					},
					{
						"astId": 687,
						"contract": "EnhancedStaking.sol:EnhancedStaking",
						"label": "minStakeAmount",
						"offset": 0,
						"slot": "5",
						"type": "t_uint256"
					},
					{
						"astId": 689,
						"contract": "EnhancedStaking.sol:EnhancedStaking",
						"label": "maxStakeAmount",
						"offset": 0,
						"slot": "6",
						"type": "t_uint256"
					},
					{
						"astId": 691,
						"contract": "EnhancedStaking.sol:EnhancedStaking",
						"label": "cooldownPeriod",
						"offset": 0,
						"slot": "7",
						"type": "t_uint256"
					},
					{
						"astId": 695,
						"contract": "EnhancedStaking.sol:EnhancedStaking",
						"label": "lastWithdrawalTime",
						"offset": 0,
						"slot": "8",
						"type": "t_mapping(t_address,t_uint256)"
					}
				],
				"types": {
					"t_address": {
						"encoding": "inplace",
						"label": "address",
						"numberOfBytes": "20"
					},
					"t_bool": {
						"encoding": "inplace",
						"label": "bool",
						"numberOfBytes": "1"
					},
					"t_mapping(t_address,t_uint256)": {
						"encoding": "mapping",
						"key": "t_address",
						"label": "mapping(address => uint256)",
						"numberOfBytes": "32",
						"value": "t_uint256"
					},
					"t_uint256": {
						"encoding": "inplace",
						"label": "uint256",
						"numberOfBytes": "32"
					}
				}
			},
			"userdoc": {
				"kind": "user",
				"methods": {},
				"version": 1
			}
		}
	}
}