{
	"EnhancedStaking.sol": {
		"EnhancedStaking": {
			"abi": [
				{
					"inputs": [
						{
							"internalType": "address",
							"name": "_stakingWallet",
							"type": "address"
						}
					],
					"stateMutability": "nonpayable",
					"type": "constructor"
				},
				{
					"inputs": [
						{
							"internalType": "address",
							"name": "owner",
							"type": "address"
						}
					],
					"name": "OwnableInvalidOwner",
					"type": "error"
				},
				{
					"inputs": [
						{
							"internalType": "address",
							"name": "account",
							"type": "address"
						}
					],
					"name": "OwnableUnauthorizedAccount",
					"type": "error"
				},
				{
					"anonymous": false,
					"inputs": [
						{
							"indexed": false,
							"internalType": "uint256",
							"name": "oldPeriod",
							"type": "uint256"
						},
						{
							"indexed": false,
							"internalType": "uint256",
							"name": "newPeriod",
							"type": "uint256"
						}
					],
					"name": "CooldownPeriodChanged",
					"type": "event"
				},
				{
					"anonymous": false,
					"inputs": [
						{
							"indexed": false,
							"internalType": "uint256",
							"name": "oldAmount",
							"type": "uint256"
						},
						{
							"indexed": false,
							"internalType": "uint256",
							"name": "newAmount",
							"type": "uint256"
						}
					],
					"name": "MaxStakeAmountChanged",
					"type": "event"
				},
				{
					"anonymous": false,
					"inputs": [
						{
							"indexed": false,
							"internalType": "uint256",
							"name": "oldAmount",
							"type": "uint256"
						},
						{
							"indexed": false,
							"internalType": "uint256",
							"name": "newAmount",
							"type": "uint256"
						}
					],
					"name": "MinStakeAmountChanged",
					"type": "event"
				},
				{
					"anonymous": false,
					"inputs": [
						{
							"indexed": true,
							"internalType": "address",
							"name": "previousOwner",
							"type": "address"
						},
						{
							"indexed": true,
							"internalType": "address",
							"name": "newOwner",
							"type": "address"
						}
					],
					"name": "OwnershipTransferred",
					"type": "event"
				},
				{
					"anonymous": false,
					"inputs": [
						{
							"indexed": false,
							"internalType": "address",
							"name": "account",
							"type": "address"
						}
					],
					"name": "Paused",
					"type": "event"
				},
				{
					"anonymous": false,
					"inputs": [
						{
							"indexed": true,
							"internalType": "address",
							"name": "user",
							"type": "address"
						},
						{
							"indexed": false,
							"internalType": "uint256",
							"name": "amount",
							"type": "uint256"
						}
					],
					"name": "Staked",
					"type": "event"
				},
				{
					"anonymous": false,
					"inputs": [
						{
							"indexed": true,
							"internalType": "address",
							"name": "oldWallet",
							"type": "address"
						},
						{
							"indexed": true,
							"internalType": "address",
							"name": "newWallet",
							"type": "address"
						}
					],
					"name": "StakingWalletChanged",
					"type": "event"
				},
				{
					"anonymous": false,
					"inputs": [
						{
							"indexed": false,
							"internalType": "address",
							"name": "account",
							"type": "address"
						}
					],
					"name": "Unpaused",
					"type": "event"
				},
				{
					"anonymous": false,
					"inputs": [
						{
							"indexed": true,
							"internalType": "address",
							"name": "user",
							"type": "address"
						},
						{
							"indexed": false,
							"internalType": "uint256",
							"name": "amount",
							"type": "uint256"
						}
					],
					"name": "Withdrawn",
					"type": "event"
				},
				{
					"inputs": [
						{
							"internalType": "address",
							"name": "newWallet",
							"type": "address"
						}
					],
					"name": "changeStakingWallet",
					"outputs": [],
					"stateMutability": "nonpayable",
					"type": "function"
				},
				{
					"inputs": [],
					"name": "cooldownPeriod",
					"outputs": [
						{
							"internalType": "uint256",
							"name": "",
							"type": "uint256"
						}
					],
					"stateMutability": "view",
					"type": "function"
				},
				{
					"inputs": [
						{
							"internalType": "address",
							"name": "user",
							"type": "address"
						}
					],
					"name": "getStake",
					"outputs": [
						{
							"internalType": "uint256",
							"name": "",
							"type": "uint256"
						}
					],
					"stateMutability": "view",
					"type": "function"
				},
				{
					"inputs": [
						{
							"internalType": "address",
							"name": "",
							"type": "address"
						}
					],
					"name": "lastWithdrawalTime",
					"outputs": [
						{
							"internalType": "uint256",
							"name": "",
							"type": "uint256"
						}
					],
					"stateMutability": "view",
					"type": "function"
				},
				{
					"inputs": [],
					"name": "maxStakeAmount",
					"outputs": [
						{
							"internalType": "uint256",
							"name": "",
							"type": "uint256"
						}
					],
					"stateMutability": "view",
					"type": "function"
				},
				{
					"inputs": [],
					"name": "minStakeAmount",
					"outputs": [
						{
							"internalType": "uint256",
							"name": "",
							"type": "uint256"
						}
					],
					"stateMutability": "view",
					"type": "function"
				},
				{
					"inputs": [],
					"name": "owner",
					"outputs": [
						{
							"internalType": "address",
							"name": "",
							"type": "address"
						}
					],
					"stateMutability": "view",
					"type": "function"
				},
				{
					"inputs": [],
					"name": "pause",
					"outputs": [],
					"stateMutability": "nonpayable",
					"type": "function"
				},
				{
					"inputs": [],
					"name": "paused",
					"outputs": [
						{
							"internalType": "bool",
							"name": "",
							"type": "bool"
						}
					],
					"stateMutability": "view",
					"type": "function"
				},
				{
					"inputs": [],
					"name": "renounceOwnership",
					"outputs": [],
					"stateMutability": "nonpayable",
					"type": "function"
				},
				{
					"inputs": [
						{
							"internalType": "uint256",
							"name": "newPeriod",
							"type": "uint256"
						}
					],
					"name": "setCooldownPeriod",
					"outputs": [],
					"stateMutability": "nonpayable",
					"type": "function"
				},
				{
					"inputs": [
						{
							"internalType": "uint256",
							"name": "newAmount",
							"type": "uint256"
						}
					],
					"name": "setMaxStakeAmount",
					"outputs": [],
					"stateMutability": "nonpayable",
					"type": "function"
				},
				{
					"inputs": [
						{
							"internalType": "uint256",
							"name": "newAmount",
							"type": "uint256"
						}
					],
					"name": "setMinStakeAmount",
					"outputs": [],
					"stateMutability": "nonpayable",
					"type": "function"
				},
				{
					"inputs": [
						{
							"internalType": "uint256",
							"name": "amount",
							"type": "uint256"
						}
					],
					"name": "stake",
					"outputs": [],
					"stateMutability": "payable",
					"type": "function"
				},
				{
					"inputs": [
						{
							"internalType": "address",
							"name": "",
							"type": "address"
						}
					],
					"name": "stakes",
					"outputs": [
						{
							"internalType": "uint256",
							"name": "",
							"type": "uint256"
						}
					],
					"stateMutability": "view",
					"type": "function"
				},
				{
					"inputs": [],
					"name": "stakingWallet",
					"outputs": [
						{
							"internalType": "address",
							"name": "",
							"type": "address"
						}
					],
					"stateMutability": "view",
					"type": "function"
				},
				{
					"inputs": [],
					"name": "totalStaked",
					"outputs": [
						{
							"internalType": "uint256",
							"name": "",
							"type": "uint256"
						}
					],
					"stateMutability": "view",
					"type": "function"
				},
				{
					"inputs": [
						{
							"internalType": "address",
							"name": "newOwner",
							"type": "address"
						}
					],
					"name": "transferOwnership",
					"outputs": [],
					"stateMutability": "nonpayable",
					"type": "function"
				},
				{
					"inputs": [],
					"name": "unpause",
					"outputs": [],
					"stateMutability": "nonpayable",
					"type": "function"
				},
				{
					"inputs": [
						{
							"internalType": "uint256",
							"name": "amount",
							"type": "uint256"
						}
					],
					"name": "withdraw",
					"outputs": [],
					"stateMutability": "nonpayable",
					"type": "function"
				},
				{
					"stateMutability": "payable",
					"type": "receive"
				}
			],
			"devdoc": {
				"errors": {
					"OwnableInvalidOwner(address)": [
						{
							"details": "The owner is not a valid owner account. (eg. `address(0)`)"
						}
					],
					"OwnableUnauthorizedAccount(address)": [
						{
							"details": "The caller account is not authorized to perform an operation."
						}
					]
				},
				"events": {
					"Paused(address)": {
						"details": "Emitted when the pause is triggered by `account`."
					},
					"Unpaused(address)": {
						"details": "Emitted when the pause is lifted by `account`."
					}
				},
				"kind": "dev",
				"methods": {
					"owner()": {
						"details": "Returns the address of the current owner."
					},
					"paused()": {
						"details": "Returns true if the contract is paused, and false otherwise."
					},
					"renounceOwnership()": {
						"details": "Leaves the contract without owner. It will not be possible to call `onlyOwner` functions. Can only be called by the current owner. NOTE: Renouncing ownership will leave the contract without an owner, thereby disabling any functionality that is only available to the owner."
					},
					"transferOwnership(address)": {
						"details": "Transfers ownership of the contract to a new account (`newOwner`). Can only be called by the current owner."
					}
				},
				"version": 1
			},
			"evm": {
				"assembly": "    /* \"EnhancedStaking.sol\":288:4113  contract EnhancedStaking is ReentrancyGuard, Ownable, Pausable {... */\n  mstore(0x40, 0x80)\n    /* \"EnhancedStaking.sol\":1083:1377  constructor(address _stakingWallet) Ownable(_stakingWallet) {... */\n  callvalue\n  dup1\n  iszero\n  tag_1\n  jumpi\n  0x00\n  dup1\n  revert\ntag_1:\n  pop\n  mload(0x40)\n  sub(codesize, bytecodeSize)\n  dup1\n  bytecodeSize\n  dup4\n  codecopy\n  dup2\n  dup2\n  add\n  0x40\n  mstore\n  dup2\n  add\n  swap1\n  tag_2\n  swap2\n  swap1\n  tag_3\n  jump\t// in\ntag_2:\n    /* \"EnhancedStaking.sol\":1127:1141  _stakingWallet */\n  dup1\n    /* \"@openzeppelin/contracts/security/ReentrancyGuard.sol\":1716:1717  1 */\n  0x01\n    /* \"@openzeppelin/contracts/security/ReentrancyGuard.sol\":1821:1828  _status */\n  0x00\n    /* \"@openzeppelin/contracts/security/ReentrancyGuard.sol\":1821:1843  _status = _NOT_ENTERED */\n  dup2\n  swap1\n  sstore\n  pop\n    /* \"@openzeppelin/contracts/access/Ownable.sol\":1297:1298  0 */\n  0x00\n    /* \"@openzeppelin/contracts/access/Ownable.sol\":1273:1299  initialOwner == address(0) */\n  0xffffffffffffffffffffffffffffffffffffffff\n  and\n    /* \"@openzeppelin/contracts/access/Ownable.sol\":1273:1285  initialOwner */\n  dup2\n    /* \"@openzeppelin/contracts/access/Ownable.sol\":1273:1299  initialOwner == address(0) */\n  0xffffffffffffffffffffffffffffffffffffffff\n  and\n  sub\n    /* \"@openzeppelin/contracts/access/Ownable.sol\":1269:1364  if (initialOwner == address(0)) {... */\n  tag_10\n  jumpi\n    /* \"@openzeppelin/contracts/access/Ownable.sol\":1350:1351  0 */\n  0x00\n    /* \"@openzeppelin/contracts/access/Ownable.sol\":1322:1353  OwnableInvalidOwner(address(0)) */\n  mload(0x40)\n  0x1e4fbdf700000000000000000000000000000000000000000000000000000000\n  dup2\n  mstore\n  0x04\n  add\n  tag_11\n  swap2\n  swap1\n  tag_12\n  jump\t// in\ntag_11:\n  mload(0x40)\n  dup1\n  swap2\n  sub\n  swap1\n  revert\n    /* \"@openzeppelin/contracts/access/Ownable.sol\":1269:1364  if (initialOwner == address(0)) {... */\ntag_10:\n    /* \"@openzeppelin/contracts/access/Ownable.sol\":1373:1405  _transferOwnership(initialOwner) */\n  tag_13\n    /* \"@openzeppelin/contracts/access/Ownable.sol\":1392:1404  initialOwner */\n  dup2\n    /* \"@openzeppelin/contracts/access/Ownable.sol\":1373:1391  _transferOwnership */\n  shl(0x20, tag_14)\n    /* \"@openzeppelin/contracts/access/Ownable.sol\":1373:1405  _transferOwnership(initialOwner) */\n  0x20\n  shr\n  jump\t// in\ntag_13:\n    /* \"@openzeppelin/contracts/access/Ownable.sol\":1225:1412  constructor(address initialOwner) {... */\n  pop\n    /* \"@openzeppelin/contracts/security/Pausable.sol\":1006:1011  false */\n  0x00\n    /* \"@openzeppelin/contracts/security/Pausable.sol\":996:1003  _paused */\n  0x01\n  0x14\n    /* \"@openzeppelin/contracts/security/Pausable.sol\":996:1011  _paused = false */\n  0x0100\n  exp\n  dup2\n  sload\n  dup2\n  0xff\n  mul\n  not\n  and\n  swap1\n  dup4\n  iszero\n  iszero\n  mul\n  or\n  swap1\n  sstore\n  pop\n    /* \"EnhancedStaking.sol\":1187:1188  0 */\n  0x00\n    /* \"EnhancedStaking.sol\":1161:1189  _stakingWallet != address(0) */\n  0xffffffffffffffffffffffffffffffffffffffff\n  and\n    /* \"EnhancedStaking.sol\":1161:1175  _stakingWallet */\n  dup2\n    /* \"EnhancedStaking.sol\":1161:1189  _stakingWallet != address(0) */\n  0xffffffffffffffffffffffffffffffffffffffff\n  and\n  sub\n    /* \"EnhancedStaking.sol\":1153:1224  require(_stakingWallet != address(0), \"Invalid staking wallet address\") */\n  tag_17\n  jumpi\n  mload(0x40)\n  0x08c379a000000000000000000000000000000000000000000000000000000000\n  dup2\n  mstore\n  0x04\n  add\n  tag_18\n  swap1\n  tag_19\n  jump\t// in\ntag_18:\n  mload(0x40)\n  dup1\n  swap2\n  sub\n  swap1\n  revert\ntag_17:\n    /* \"EnhancedStaking.sol\":1250:1264  _stakingWallet */\n  dup1\n    /* \"EnhancedStaking.sol\":1234:1247  stakingWallet */\n  0x02\n  0x00\n    /* \"EnhancedStaking.sol\":1234:1264  stakingWallet = _stakingWallet */\n  0x0100\n  exp\n  dup2\n  sload\n  dup2\n  0xffffffffffffffffffffffffffffffffffffffff\n  mul\n  not\n  and\n  swap1\n  dup4\n  0xffffffffffffffffffffffffffffffffffffffff\n  and\n  mul\n  or\n  swap1\n  sstore\n  pop\n    /* \"EnhancedStaking.sol\":1291:1301  0.05 ether */\n  0xb1a2bc2ec50000\n    /* \"EnhancedStaking.sol\":1274:1288  minStakeAmount */\n  0x05\n    /* \"EnhancedStaking.sol\":1274:1301  minStakeAmount = 0.05 ether */\n  dup2\n  swap1\n  sstore\n  pop\n    /* \"EnhancedStaking.sol\":1328:1337  100 ether */\n  0x056bc75e2d63100000\n    /* \"EnhancedStaking.sol\":1311:1325  maxStakeAmount */\n  0x06\n    /* \"EnhancedStaking.sol\":1311:1337  maxStakeAmount = 100 ether */\n  dup2\n  swap1\n  sstore\n  pop\n    /* \"EnhancedStaking.sol\":1364:1370  1 days */\n  0x015180\n    /* \"EnhancedStaking.sol\":1347:1361  cooldownPeriod */\n  0x07\n    /* \"EnhancedStaking.sol\":1347:1370  cooldownPeriod = 1 days */\n  dup2\n  swap1\n  sstore\n  pop\n    /* \"EnhancedStaking.sol\":1083:1377  constructor(address _stakingWallet) Ownable(_stakingWallet) {... */\n  pop\n    /* \"EnhancedStaking.sol\":288:4113  contract EnhancedStaking is ReentrancyGuard, Ownable, Pausable {... */\n  jump(tag_20)\n    /* \"@openzeppelin/contracts/access/Ownable.sol\":2912:3099  function _transferOwnership(address newOwner) internal virtual {... */\ntag_14:\n    /* \"@openzeppelin/contracts/access/Ownable.sol\":2985:3001  address oldOwner */\n  0x00\n    /* \"@openzeppelin/contracts/access/Ownable.sol\":3004:3010  _owner */\n  0x01\n  0x00\n  swap1\n  sload\n  swap1\n  0x0100\n  exp\n  swap1\n  div\n  0xffffffffffffffffffffffffffffffffffffffff\n  and\n    /* \"@openzeppelin/contracts/access/Ownable.sol\":2985:3010  address oldOwner = _owner */\n  swap1\n  pop\n    /* \"@openzeppelin/contracts/access/Ownable.sol\":3029:3037  newOwner */\n  dup2\n    /* \"@openzeppelin/contracts/access/Ownable.sol\":3020:3026  _owner */\n  0x01\n  0x00\n    /* \"@openzeppelin/contracts/access/Ownable.sol\":3020:3037  _owner = newOwner */\n  0x0100\n  exp\n  dup2\n  sload\n  dup2\n  0xffffffffffffffffffffffffffffffffffffffff\n  mul\n  not\n  and\n  swap1\n  dup4\n  0xffffffffffffffffffffffffffffffffffffffff\n  and\n  mul\n  or\n  swap1\n  sstore\n  pop\n    /* \"@openzeppelin/contracts/access/Ownable.sol\":3083:3091  newOwner */\n  dup2\n    /* \"@openzeppelin/contracts/access/Ownable.sol\":3052:3092  OwnershipTransferred(oldOwner, newOwner) */\n  0xffffffffffffffffffffffffffffffffffffffff\n  and\n    /* \"@openzeppelin/contracts/access/Ownable.sol\":3073:3081  oldOwner */\n  dup2\n    /* \"@openzeppelin/contracts/access/Ownable.sol\":3052:3092  OwnershipTransferred(oldOwner, newOwner) */\n  0xffffffffffffffffffffffffffffffffffffffff\n  and\n  0x8be0079c531659141344cd1fd0a4f28419497f9722a3daafe3b4186f6b6457e0\n  mload(0x40)\n  mload(0x40)\n  dup1\n  swap2\n  sub\n  swap1\n  log3\n    /* \"@openzeppelin/contracts/access/Ownable.sol\":2975:3099  {... */\n  pop\n    /* \"@openzeppelin/contracts/access/Ownable.sol\":2912:3099  function _transferOwnership(address newOwner) internal virtual {... */\n  pop\n  jump\t// out\n    /* \"#utility.yul\":88:205   */\ntag_23:\n    /* \"#utility.yul\":197:198   */\n  0x00\n    /* \"#utility.yul\":194:195   */\n  dup1\n    /* \"#utility.yul\":187:199   */\n  revert\n    /* \"#utility.yul\":334:460   */\ntag_25:\n    /* \"#utility.yul\":371:378   */\n  0x00\n    /* \"#utility.yul\":411:453   */\n  0xffffffffffffffffffffffffffffffffffffffff\n    /* \"#utility.yul\":404:409   */\n  dup3\n    /* \"#utility.yul\":400:454   */\n  and\n    /* \"#utility.yul\":389:454   */\n  swap1\n  pop\n    /* \"#utility.yul\":334:460   */\n  swap2\n  swap1\n  pop\n  jump\t// out\n    /* \"#utility.yul\":466:562   */\ntag_26:\n    /* \"#utility.yul\":503:510   */\n  0x00\n    /* \"#utility.yul\":532:556   */\n  tag_39\n    /* \"#utility.yul\":550:555   */\n  dup3\n    /* \"#utility.yul\":532:556   */\n  tag_25\n  jump\t// in\ntag_39:\n    /* \"#utility.yul\":521:556   */\n  swap1\n  pop\n    /* \"#utility.yul\":466:562   */\n  swap2\n  swap1\n  pop\n  jump\t// out\n    /* \"#utility.yul\":568:690   */\ntag_27:\n    /* \"#utility.yul\":641:665   */\n  tag_41\n    /* \"#utility.yul\":659:664   */\n  dup2\n    /* \"#utility.yul\":641:665   */\n  tag_26\n  jump\t// in\ntag_41:\n    /* \"#utility.yul\":634:639   */\n  dup2\n    /* \"#utility.yul\":631:666   */\n  eq\n    /* \"#utility.yul\":621:684   */\n  tag_42\n  jumpi\n    /* \"#utility.yul\":680:681   */\n  0x00\n    /* \"#utility.yul\":677:678   */\n  dup1\n    /* \"#utility.yul\":670:682   */\n  revert\n    /* \"#utility.yul\":621:684   */\ntag_42:\n    /* \"#utility.yul\":568:690   */\n  pop\n  jump\t// out\n    /* \"#utility.yul\":696:839   */\ntag_28:\n    /* \"#utility.yul\":753:758   */\n  0x00\n    /* \"#utility.yul\":784:790   */\n  dup2\n    /* \"#utility.yul\":778:791   */\n  mload\n    /* \"#utility.yul\":769:791   */\n  swap1\n  pop\n    /* \"#utility.yul\":800:833   */\n  tag_44\n    /* \"#utility.yul\":827:832   */\n  dup2\n    /* \"#utility.yul\":800:833   */\n  tag_27\n  jump\t// in\ntag_44:\n    /* \"#utility.yul\":696:839   */\n  swap3\n  swap2\n  pop\n  pop\n  jump\t// out\n    /* \"#utility.yul\":845:1196   */\ntag_3:\n    /* \"#utility.yul\":915:921   */\n  0x00\n    /* \"#utility.yul\":964:966   */\n  0x20\n    /* \"#utility.yul\":952:961   */\n  dup3\n    /* \"#utility.yul\":943:950   */\n  dup5\n    /* \"#utility.yul\":939:962   */\n  sub\n    /* \"#utility.yul\":935:967   */\n  slt\n    /* \"#utility.yul\":932:1051   */\n  iszero\n  tag_46\n  jumpi\n    /* \"#utility.yul\":970:1049   */\n  tag_47\n  tag_23\n  jump\t// in\ntag_47:\n    /* \"#utility.yul\":932:1051   */\ntag_46:\n    /* \"#utility.yul\":1090:1091   */\n  0x00\n    /* \"#utility.yul\":1115:1179   */\n  tag_48\n    /* \"#utility.yul\":1171:1178   */\n  dup5\n    /* \"#utility.yul\":1162:1168   */\n  dup3\n    /* \"#utility.yul\":1151:1160   */\n  dup6\n    /* \"#utility.yul\":1147:1169   */\n  add\n    /* \"#utility.yul\":1115:1179   */\n  tag_28\n  jump\t// in\ntag_48:\n    /* \"#utility.yul\":1105:1179   */\n  swap2\n  pop\n    /* \"#utility.yul\":1061:1189   */\n  pop\n    /* \"#utility.yul\":845:1196   */\n  swap3\n  swap2\n  pop\n  pop\n  jump\t// out\n    /* \"#utility.yul\":1202:1320   */\ntag_29:\n    /* \"#utility.yul\":1289:1313   */\n  tag_50\n    /* \"#utility.yul\":1307:1312   */\n  dup2\n    /* \"#utility.yul\":1289:1313   */\n  tag_26\n  jump\t// in\ntag_50:\n    /* \"#utility.yul\":1284:1287   */\n  dup3\n    /* \"#utility.yul\":1277:1314   */\n  mstore\n    /* \"#utility.yul\":1202:1320   */\n  pop\n  pop\n  jump\t// out\n    /* \"#utility.yul\":1326:1548   */\ntag_12:\n    /* \"#utility.yul\":1419:1423   */\n  0x00\n    /* \"#utility.yul\":1457:1459   */\n  0x20\n    /* \"#utility.yul\":1446:1455   */\n  dup3\n    /* \"#utility.yul\":1442:1460   */\n  add\n    /* \"#utility.yul\":1434:1460   */\n  swap1\n  pop\n    /* \"#utility.yul\":1470:1541   */\n  tag_52\n    /* \"#utility.yul\":1538:1539   */\n  0x00\n    /* \"#utility.yul\":1527:1536   */\n  dup4\n    /* \"#utility.yul\":1523:1540   */\n  add\n    /* \"#utility.yul\":1514:1520   */\n  dup5\n    /* \"#utility.yul\":1470:1541   */\n  tag_29\n  jump\t// in\ntag_52:\n    /* \"#utility.yul\":1326:1548   */\n  swap3\n  swap2\n  pop\n  pop\n  jump\t// out\n    /* \"#utility.yul\":1554:1723   */\ntag_30:\n    /* \"#utility.yul\":1638:1649   */\n  0x00\n    /* \"#utility.yul\":1672:1678   */\n  dup3\n    /* \"#utility.yul\":1667:1670   */\n  dup3\n    /* \"#utility.yul\":1660:1679   */\n  mstore\n    /* \"#utility.yul\":1712:1716   */\n  0x20\n    /* \"#utility.yul\":1707:1710   */\n  dup3\n    /* \"#utility.yul\":1703:1717   */\n  add\n    /* \"#utility.yul\":1688:1717   */\n  swap1\n  pop\n    /* \"#utility.yul\":1554:1723   */\n  swap3\n  swap2\n  pop\n  pop\n  jump\t// out\n    /* \"#utility.yul\":1729:1909   */\ntag_31:\n    /* \"#utility.yul\":1869:1901   */\n  0x496e76616c6964207374616b696e672077616c6c657420616464726573730000\n    /* \"#utility.yul\":1865:1866   */\n  0x00\n    /* \"#utility.yul\":1857:1863   */\n  dup3\n    /* \"#utility.yul\":1853:1867   */\n  add\n    /* \"#utility.yul\":1846:1902   */\n  mstore\n    /* \"#utility.yul\":1729:1909   */\n  pop\n  jump\t// out\n    /* \"#utility.yul\":1915:2281   */\ntag_32:\n    /* \"#utility.yul\":2057:2060   */\n  0x00\n    /* \"#utility.yul\":2078:2145   */\n  tag_56\n    /* \"#utility.yul\":2142:2144   */\n  0x1e\n    /* \"#utility.yul\":2137:2140   */\n  dup4\n    /* \"#utility.yul\":2078:2145   */\n  tag_30\n  jump\t// in\ntag_56:\n    /* \"#utility.yul\":2071:2145   */\n  swap2\n  pop\n    /* \"#utility.yul\":2154:2247   */\n  tag_57\n    /* \"#utility.yul\":2243:2246   */\n  dup3\n    /* \"#utility.yul\":2154:2247   */\n  tag_31\n  jump\t// in\ntag_57:\n    /* \"#utility.yul\":2272:2274   */\n  0x20\n    /* \"#utility.yul\":2267:2270   */\n  dup3\n    /* \"#utility.yul\":2263:2275   */\n  add\n    /* \"#utility.yul\":2256:2275   */\n  swap1\n  pop\n    /* \"#utility.yul\":1915:2281   */\n  swap2\n  swap1\n  pop\n  jump\t// out\n    /* \"#utility.yul\":2287:2706   */\ntag_19:\n    /* \"#utility.yul\":2453:2457   */\n  0x00\n    /* \"#utility.yul\":2491:2493   */\n  0x20\n    /* \"#utility.yul\":2480:2489   */\n  dup3\n    /* \"#utility.yul\":2476:2494   */\n  add\n    /* \"#utility.yul\":2468:2494   */\n  swap1\n  pop\n    /* \"#utility.yul\":2540:2549   */\n  dup2\n    /* \"#utility.yul\":2534:2538   */\n  dup2\n    /* \"#utility.yul\":2530:2550   */\n  sub\n    /* \"#utility.yul\":2526:2527   */\n  0x00\n    /* \"#utility.yul\":2515:2524   */\n  dup4\n    /* \"#utility.yul\":2511:2528   */\n  add\n    /* \"#utility.yul\":2504:2551   */\n  mstore\n    /* \"#utility.yul\":2568:2699   */\n  tag_59\n    /* \"#utility.yul\":2694:2698   */\n  dup2\n    /* \"#utility.yul\":2568:2699   */\n  tag_32\n  jump\t// in\ntag_59:\n    /* \"#utility.yul\":2560:2699   */\n  swap1\n  pop\n    /* \"#utility.yul\":2287:2706   */\n  swap2\n  swap1\n  pop\n  jump\t// out\n    /* \"EnhancedStaking.sol\":288:4113  contract EnhancedStaking is ReentrancyGuard, Ownable, Pausable {... */\ntag_20:\n  dataSize(sub_0)\n  dup1\n  dataOffset(sub_0)\n  0x00\n  codecopy\n  0x00\n  return\nstop\n\nsub_0: assembly {\n        /* \"EnhancedStaking.sol\":288:4113  contract EnhancedStaking is ReentrancyGuard, Ownable, Pausable {... */\n      mstore(0x40, 0x80)\n      jumpi(tag_1, lt(calldatasize, 0x04))\n      shr(0xe0, calldataload(0x00))\n      dup1\n      0x7a766460\n      gt\n      tag_23\n      jumpi\n      dup1\n      0xa694fc3a\n      gt\n      tag_24\n      jumpi\n      dup1\n      0xa694fc3a\n      eq\n      tag_18\n      jumpi\n      dup1\n      0xdcc2a55e\n      eq\n      tag_19\n      jumpi\n      dup1\n      0xeb4af045\n      eq\n      tag_20\n      jumpi\n      dup1\n      0xf1887684\n      eq\n      tag_21\n      jumpi\n      dup1\n      0xf2fde38b\n      eq\n      tag_22\n      jumpi\n      jump(tag_2)\n    tag_24:\n      dup1\n      0x7a766460\n      eq\n      tag_13\n      jumpi\n      dup1\n      0x80ea3de1\n      eq\n      tag_14\n      jumpi\n      dup1\n      0x817b1cd2\n      eq\n      tag_15\n      jumpi\n      dup1\n      0x8456cb59\n      eq\n      tag_16\n      jumpi\n      dup1\n      0x8da5cb5b\n      eq\n      tag_17\n      jumpi\n      jump(tag_2)\n    tag_23:\n      dup1\n      0x3f4ba83a\n      gt\n      tag_25\n      jumpi\n      dup1\n      0x3f4ba83a\n      eq\n      tag_8\n      jumpi\n      dup1\n      0x4de5120e\n      eq\n      tag_9\n      jumpi\n      dup1\n      0x5c975abb\n      eq\n      tag_10\n      jumpi\n      dup1\n      0x5d80ca32\n      eq\n      tag_11\n      jumpi\n      dup1\n      0x715018a6\n      eq\n      tag_12\n      jumpi\n      jump(tag_2)\n    tag_25:\n      dup1\n      0x04646a49\n      eq\n      tag_3\n      jumpi\n      dup1\n      0x06ee6ad8\n      eq\n      tag_4\n      jumpi\n      dup1\n      0x16934fc4\n      eq\n      tag_5\n      jumpi\n      dup1\n      0x2e1a7d4d\n      eq\n      tag_6\n      jumpi\n      dup1\n      0x384c05bd\n      eq\n      tag_7\n      jumpi\n      jump(tag_2)\n    tag_1:\n      jumpi(tag_2, calldatasize)\n        /* \"EnhancedStaking.sol\":4017:4018  0 */\n      0x00\n        /* \"EnhancedStaking.sol\":4005:4014  msg.value */\n      callvalue\n        /* \"EnhancedStaking.sol\":4005:4018  msg.value > 0 */\n      gt\n        /* \"EnhancedStaking.sol\":3997:4047  require(msg.value > 0, \"Must send Ether to stake\") */\n      tag_28\n      jumpi\n      mload(0x40)\n      0x08c379a000000000000000000000000000000000000000000000000000000000\n      dup2\n      mstore\n      0x04\n      add\n      tag_29\n      swap1\n      tag_30\n      jump\t// in\n    tag_29:\n      mload(0x40)\n      dup1\n      swap2\n      sub\n      swap1\n      revert\n    tag_28:\n        /* \"EnhancedStaking.sol\":4057:4073  stake(msg.value) */\n      tag_31\n        /* \"EnhancedStaking.sol\":4063:4072  msg.value */\n      callvalue\n        /* \"EnhancedStaking.sol\":4057:4062  stake */\n      tag_32\n        /* \"EnhancedStaking.sol\":4057:4073  stake(msg.value) */\n      jump\t// in\n    tag_31:\n        /* \"EnhancedStaking.sol\":288:4113  contract EnhancedStaking is ReentrancyGuard, Ownable, Pausable {... */\n      stop\n    tag_2:\n      0x00\n      dup1\n      revert\n        /* \"EnhancedStaking.sol\":573:602  uint256 public cooldownPeriod */\n    tag_3:\n      callvalue\n      dup1\n      iszero\n      tag_33\n      jumpi\n      0x00\n      dup1\n      revert\n    tag_33:\n      pop\n      tag_34\n      tag_35\n      jump\t// in\n    tag_34:\n      mload(0x40)\n      tag_36\n      swap2\n      swap1\n      tag_37\n      jump\t// in\n    tag_36:\n      mload(0x40)\n      dup1\n      swap2\n      sub\n      swap1\n      return\n        /* \"EnhancedStaking.sol\":390:418  address public stakingWallet */\n    tag_4:\n      callvalue\n      dup1\n      iszero\n      tag_38\n      jumpi\n      0x00\n      dup1\n      revert\n    tag_38:\n      pop\n      tag_39\n      tag_40\n      jump\t// in\n    tag_39:\n      mload(0x40)\n      tag_41\n      swap2\n      swap1\n      tag_42\n      jump\t// in\n    tag_41:\n      mload(0x40)\n      dup1\n      swap2\n      sub\n      swap1\n      return\n        /* \"EnhancedStaking.sol\":424:465  mapping(address => uint256) public stakes */\n    tag_5:\n      callvalue\n      dup1\n      iszero\n      tag_43\n      jumpi\n      0x00\n      dup1\n      revert\n    tag_43:\n      pop\n      tag_44\n      0x04\n      dup1\n      calldatasize\n      sub\n      dup2\n      add\n      swap1\n      tag_45\n      swap2\n      swap1\n      tag_46\n      jump\t// in\n    tag_45:\n      tag_47\n      jump\t// in\n    tag_44:\n      mload(0x40)\n      tag_48\n      swap2\n      swap1\n      tag_37\n      jump\t// in\n    tag_48:\n      mload(0x40)\n      dup1\n      swap2\n      sub\n      swap1\n      return\n        /* \"EnhancedStaking.sol\":2010:2602  function withdraw(uint256 amount) public nonReentrant whenNotPaused {... */\n    tag_6:\n      callvalue\n      dup1\n      iszero\n      tag_49\n      jumpi\n      0x00\n      dup1\n      revert\n    tag_49:\n      pop\n      tag_50\n      0x04\n      dup1\n      calldatasize\n      sub\n      dup2\n      add\n      swap1\n      tag_51\n      swap2\n      swap1\n      tag_52\n      jump\t// in\n    tag_51:\n      tag_53\n      jump\t// in\n    tag_50:\n      stop\n        /* \"EnhancedStaking.sol\":2712:2999  function changeStakingWallet(address newWallet) public onlyOwner {... */\n    tag_7:\n      callvalue\n      dup1\n      iszero\n      tag_54\n      jumpi\n      0x00\n      dup1\n      revert\n    tag_54:\n      pop\n      tag_55\n      0x04\n      dup1\n      calldatasize\n      sub\n      dup2\n      add\n      swap1\n      tag_56\n      swap2\n      swap1\n      tag_46\n      jump\t// in\n    tag_56:\n      tag_57\n      jump\t// in\n    tag_55:\n      stop\n        /* \"EnhancedStaking.sol\":3891:3954  function unpause() public onlyOwner {... */\n    tag_8:\n      callvalue\n      dup1\n      iszero\n      tag_58\n      jumpi\n      0x00\n      dup1\n      revert\n    tag_58:\n      pop\n      tag_59\n      tag_60\n      jump\t// in\n    tag_59:\n      stop\n        /* \"EnhancedStaking.sol\":608:661  mapping(address => uint256) public lastWithdrawalTime */\n    tag_9:\n      callvalue\n      dup1\n      iszero\n      tag_61\n      jumpi\n      0x00\n      dup1\n      revert\n    tag_61:\n      pop\n      tag_62\n      0x04\n      dup1\n      calldatasize\n      sub\n      dup2\n      add\n      swap1\n      tag_63\n      swap2\n      swap1\n      tag_46\n      jump\t// in\n    tag_63:\n      tag_64\n      jump\t// in\n    tag_62:\n      mload(0x40)\n      tag_65\n      swap2\n      swap1\n      tag_37\n      jump\t// in\n    tag_65:\n      mload(0x40)\n      dup1\n      swap2\n      sub\n      swap1\n      return\n        /* \"@openzeppelin/contracts/security/Pausable.sol\":1615:1699  function paused() public view virtual returns (bool) {... */\n    tag_10:\n      callvalue\n      dup1\n      iszero\n      tag_66\n      jumpi\n      0x00\n      dup1\n      revert\n    tag_66:\n      pop\n      tag_67\n      tag_68\n      jump\t// in\n    tag_67:\n      mload(0x40)\n      tag_69\n      swap2\n      swap1\n      tag_70\n      jump\t// in\n    tag_69:\n      mload(0x40)\n      dup1\n      swap2\n      sub\n      swap1\n      return\n        /* \"EnhancedStaking.sol\":538:567  uint256 public maxStakeAmount */\n    tag_11:\n      callvalue\n      dup1\n      iszero\n      tag_71\n      jumpi\n      0x00\n      dup1\n      revert\n    tag_71:\n      pop\n      tag_72\n      tag_73\n      jump\t// in\n    tag_72:\n      mload(0x40)\n      tag_74\n      swap2\n      swap1\n      tag_37\n      jump\t// in\n    tag_74:\n      mload(0x40)\n      dup1\n      swap2\n      sub\n      swap1\n      return\n        /* \"@openzeppelin/contracts/access/Ownable.sol\":2293:2394  function renounceOwnership() public virtual onlyOwner {... */\n    tag_12:\n      callvalue\n      dup1\n      iszero\n      tag_75\n      jumpi\n      0x00\n      dup1\n      revert\n    tag_75:\n      pop\n      tag_76\n      tag_77\n      jump\t// in\n    tag_76:\n      stop\n        /* \"EnhancedStaking.sol\":2608:2706  function getStake(address user) public view returns (uint256) {... */\n    tag_13:\n      callvalue\n      dup1\n      iszero\n      tag_78\n      jumpi\n      0x00\n      dup1\n      revert\n    tag_78:\n      pop\n      tag_79\n      0x04\n      dup1\n      calldatasize\n      sub\n      dup2\n      add\n      swap1\n      tag_80\n      swap2\n      swap1\n      tag_46\n      jump\t// in\n    tag_80:\n      tag_81\n      jump\t// in\n    tag_79:\n      mload(0x40)\n      tag_82\n      swap2\n      swap1\n      tag_37\n      jump\t// in\n    tag_82:\n      mload(0x40)\n      dup1\n      swap2\n      sub\n      swap1\n      return\n        /* \"EnhancedStaking.sol\":3612:3820  function setCooldownPeriod(uint256 newPeriod) public onlyOwner {... */\n    tag_14:\n      callvalue\n      dup1\n      iszero\n      tag_83\n      jumpi\n      0x00\n      dup1\n      revert\n    tag_83:\n      pop\n      tag_84\n      0x04\n      dup1\n      calldatasize\n      sub\n      dup2\n      add\n      swap1\n      tag_85\n      swap2\n      swap1\n      tag_52\n      jump\t// in\n    tag_85:\n      tag_86\n      jump\t// in\n    tag_84:\n      stop\n        /* \"EnhancedStaking.sol\":471:497  uint256 public totalStaked */\n    tag_15:\n      callvalue\n      dup1\n      iszero\n      tag_87\n      jumpi\n      0x00\n      dup1\n      revert\n    tag_87:\n      pop\n      tag_88\n      tag_89\n      jump\t// in\n    tag_88:\n      mload(0x40)\n      tag_90\n      swap2\n      swap1\n      tag_37\n      jump\t// in\n    tag_90:\n      mload(0x40)\n      dup1\n      swap2\n      sub\n      swap1\n      return\n        /* \"EnhancedStaking.sol\":3826:3885  function pause() public onlyOwner {... */\n    tag_16:\n      callvalue\n      dup1\n      iszero\n      tag_91\n      jumpi\n      0x00\n      dup1\n      revert\n    tag_91:\n      pop\n      tag_92\n      tag_93\n      jump\t// in\n    tag_92:\n      stop\n        /* \"@openzeppelin/contracts/access/Ownable.sol\":1638:1723  function owner() public view virtual returns (address) {... */\n    tag_17:\n      callvalue\n      dup1\n      iszero\n      tag_94\n      jumpi\n      0x00\n      dup1\n      revert\n    tag_94:\n      pop\n      tag_95\n      tag_96\n      jump\t// in\n    tag_95:\n      mload(0x40)\n      tag_97\n      swap2\n      swap1\n      tag_42\n      jump\t// in\n    tag_97:\n      mload(0x40)\n      dup1\n      swap2\n      sub\n      swap1\n      return\n        /* \"EnhancedStaking.sol\":1383:2004  function stake(uint256 amount ) public payable nonReentrant whenNotPaused {... */\n    tag_18:\n      tag_98\n      0x04\n      dup1\n      calldatasize\n      sub\n      dup2\n      add\n      swap1\n      tag_99\n      swap2\n      swap1\n      tag_52\n      jump\t// in\n    tag_99:\n      tag_32\n      jump\t// in\n    tag_98:\n      stop\n        /* \"EnhancedStaking.sol\":3307:3606  function setMaxStakeAmount(uint256 newAmount) public onlyOwner {... */\n    tag_19:\n      callvalue\n      dup1\n      iszero\n      tag_100\n      jumpi\n      0x00\n      dup1\n      revert\n    tag_100:\n      pop\n      tag_101\n      0x04\n      dup1\n      calldatasize\n      sub\n      dup2\n      add\n      swap1\n      tag_102\n      swap2\n      swap1\n      tag_52\n      jump\t// in\n    tag_102:\n      tag_103\n      jump\t// in\n    tag_101:\n      stop\n        /* \"EnhancedStaking.sol\":3005:3301  function setMinStakeAmount(uint256 newAmount) public onlyOwner {... */\n    tag_20:\n      callvalue\n      dup1\n      iszero\n      tag_104\n      jumpi\n      0x00\n      dup1\n      revert\n    tag_104:\n      pop\n      tag_105\n      0x04\n      dup1\n      calldatasize\n      sub\n      dup2\n      add\n      swap1\n      tag_106\n      swap2\n      swap1\n      tag_52\n      jump\t// in\n    tag_106:\n      tag_107\n      jump\t// in\n    tag_105:\n      stop\n        /* \"EnhancedStaking.sol\":503:532  uint256 public minStakeAmount */\n    tag_21:\n      callvalue\n      dup1\n      iszero\n      tag_108\n      jumpi\n      0x00\n      dup1\n      revert\n    tag_108:\n      pop\n      tag_109\n      tag_110\n      jump\t// in\n    tag_109:\n      mload(0x40)\n      tag_111\n      swap2\n      swap1\n      tag_37\n      jump\t// in\n    tag_111:\n      mload(0x40)\n      dup1\n      swap2\n      sub\n      swap1\n      return\n        /* \"@openzeppelin/contracts/access/Ownable.sol\":2543:2758  function transferOwnership(address newOwner) public virtual onlyOwner {... */\n    tag_22:\n      callvalue\n      dup1\n      iszero\n      tag_112\n      jumpi\n      0x00\n      dup1\n      revert\n    tag_112:\n      pop\n      tag_113\n      0x04\n      dup1\n      calldatasize\n      sub\n      dup2\n      add\n      swap1\n      tag_114\n      swap2\n      swap1\n      tag_46\n      jump\t// in\n    tag_114:\n      tag_115\n      jump\t// in\n    tag_113:\n      stop\n        /* \"EnhancedStaking.sol\":1383:2004  function stake(uint256 amount ) public payable nonReentrant whenNotPaused {... */\n    tag_32:\n        /* \"@openzeppelin/contracts/security/ReentrancyGuard.sol\":2261:2282  _nonReentrantBefore() */\n      tag_117\n        /* \"@openzeppelin/contracts/security/ReentrancyGuard.sol\":2261:2280  _nonReentrantBefore */\n      tag_118\n        /* \"@openzeppelin/contracts/security/ReentrancyGuard.sol\":2261:2282  _nonReentrantBefore() */\n      jump\t// in\n    tag_117:\n        /* \"@openzeppelin/contracts/security/Pausable.sol\":1239:1258  _requireNotPaused() */\n      tag_120\n        /* \"@openzeppelin/contracts/security/Pausable.sol\":1239:1256  _requireNotPaused */\n      tag_121\n        /* \"@openzeppelin/contracts/security/Pausable.sol\":1239:1258  _requireNotPaused() */\n      jump\t// in\n    tag_120:\n        /* \"EnhancedStaking.sol\":1485:1499  minStakeAmount */\n      sload(0x05)\n        /* \"EnhancedStaking.sol\":1475:1481  amount */\n      dup2\n        /* \"EnhancedStaking.sol\":1475:1499  amount >= minStakeAmount */\n      lt\n      iszero\n        /* \"EnhancedStaking.sol\":1467:1524  require(amount >= minStakeAmount, \"Stake amount too low\") */\n      tag_123\n      jumpi\n      mload(0x40)\n      0x08c379a000000000000000000000000000000000000000000000000000000000\n      dup2\n      mstore\n      0x04\n      add\n      tag_124\n      swap1\n      tag_125\n      jump\t// in\n    tag_124:\n      mload(0x40)\n      dup1\n      swap2\n      sub\n      swap1\n      revert\n    tag_123:\n        /* \"EnhancedStaking.sol\":1552:1566  maxStakeAmount */\n      sload(0x06)\n        /* \"EnhancedStaking.sol\":1542:1548  amount */\n      dup2\n        /* \"EnhancedStaking.sol\":1542:1566  amount <= maxStakeAmount */\n      gt\n      iszero\n        /* \"EnhancedStaking.sol\":1534:1592  require(amount <= maxStakeAmount, \"Stake amount too high\") */\n      tag_126\n      jumpi\n      mload(0x40)\n      0x08c379a000000000000000000000000000000000000000000000000000000000\n      dup2\n      mstore\n      0x04\n      add\n      tag_127\n      swap1\n      tag_128\n      jump\t// in\n    tag_127:\n      mload(0x40)\n      dup1\n      swap2\n      sub\n      swap1\n      revert\n    tag_126:\n        /* \"EnhancedStaking.sol\":1644:1658  maxStakeAmount */\n      sload(0x06)\n        /* \"EnhancedStaking.sol\":1610:1640  stakes[msg.sender].add(amount) */\n      tag_129\n        /* \"EnhancedStaking.sol\":1633:1639  amount */\n      dup3\n        /* \"EnhancedStaking.sol\":1610:1616  stakes */\n      0x03\n        /* \"EnhancedStaking.sol\":1610:1628  stakes[msg.sender] */\n      0x00\n        /* \"EnhancedStaking.sol\":1617:1627  msg.sender */\n      caller\n        /* \"EnhancedStaking.sol\":1610:1628  stakes[msg.sender] */\n      0xffffffffffffffffffffffffffffffffffffffff\n      and\n      0xffffffffffffffffffffffffffffffffffffffff\n      and\n      dup2\n      mstore\n      0x20\n      add\n      swap1\n      dup2\n      mstore\n      0x20\n      add\n      0x00\n      keccak256\n      sload\n        /* \"EnhancedStaking.sol\":1610:1632  stakes[msg.sender].add */\n      tag_130\n      swap1\n        /* \"EnhancedStaking.sol\":1610:1640  stakes[msg.sender].add(amount) */\n      swap2\n      swap1\n      0xffffffff\n      and\n      jump\t// in\n    tag_129:\n        /* \"EnhancedStaking.sol\":1610:1658  stakes[msg.sender].add(amount) <= maxStakeAmount */\n      gt\n      iszero\n        /* \"EnhancedStaking.sol\":1602:1690  require(stakes[msg.sender].add(amount) <= maxStakeAmount, \"Total stake exceeds maximum\") */\n      tag_131\n      jumpi\n      mload(0x40)\n      0x08c379a000000000000000000000000000000000000000000000000000000000\n      dup2\n      mstore\n      0x04\n      add\n      tag_132\n      swap1\n      tag_133\n      jump\t// in\n    tag_132:\n      mload(0x40)\n      dup1\n      swap2\n      sub\n      swap1\n      revert\n    tag_131:\n        /* \"EnhancedStaking.sol\":1722:1752  stakes[msg.sender].add(amount) */\n      tag_134\n        /* \"EnhancedStaking.sol\":1745:1751  amount */\n      dup2\n        /* \"EnhancedStaking.sol\":1722:1728  stakes */\n      0x03\n        /* \"EnhancedStaking.sol\":1722:1740  stakes[msg.sender] */\n      0x00\n        /* \"EnhancedStaking.sol\":1729:1739  msg.sender */\n      caller\n        /* \"EnhancedStaking.sol\":1722:1740  stakes[msg.sender] */\n      0xffffffffffffffffffffffffffffffffffffffff\n      and\n      0xffffffffffffffffffffffffffffffffffffffff\n      and\n      dup2\n      mstore\n      0x20\n      add\n      swap1\n      dup2\n      mstore\n      0x20\n      add\n      0x00\n      keccak256\n      sload\n        /* \"EnhancedStaking.sol\":1722:1744  stakes[msg.sender].add */\n      tag_130\n      swap1\n        /* \"EnhancedStaking.sol\":1722:1752  stakes[msg.sender].add(amount) */\n      swap2\n      swap1\n      0xffffffff\n      and\n      jump\t// in\n    tag_134:\n        /* \"EnhancedStaking.sol\":1701:1707  stakes */\n      0x03\n        /* \"EnhancedStaking.sol\":1701:1719  stakes[msg.sender] */\n      0x00\n        /* \"EnhancedStaking.sol\":1708:1718  msg.sender */\n      caller\n        /* \"EnhancedStaking.sol\":1701:1719  stakes[msg.sender] */\n      0xffffffffffffffffffffffffffffffffffffffff\n      and\n      0xffffffffffffffffffffffffffffffffffffffff\n      and\n      dup2\n      mstore\n      0x20\n      add\n      swap1\n      dup2\n      mstore\n      0x20\n      add\n      0x00\n      keccak256\n        /* \"EnhancedStaking.sol\":1701:1752  stakes[msg.sender] = stakes[msg.sender].add(amount) */\n      dup2\n      swap1\n      sstore\n      pop\n        /* \"EnhancedStaking.sol\":1776:1799  totalStaked.add(amount) */\n      tag_135\n        /* \"EnhancedStaking.sol\":1792:1798  amount */\n      dup2\n        /* \"EnhancedStaking.sol\":1776:1787  totalStaked */\n      sload(0x04)\n        /* \"EnhancedStaking.sol\":1776:1791  totalStaked.add */\n      tag_130\n      swap1\n        /* \"EnhancedStaking.sol\":1776:1799  totalStaked.add(amount) */\n      swap2\n      swap1\n      0xffffffff\n      and\n      jump\t// in\n    tag_135:\n        /* \"EnhancedStaking.sol\":1762:1773  totalStaked */\n      0x04\n        /* \"EnhancedStaking.sol\":1762:1799  totalStaked = totalStaked.add(amount) */\n      dup2\n      swap1\n      sstore\n      pop\n        /* \"EnhancedStaking.sol\":1819:1831  bool success */\n      0x00\n        /* \"EnhancedStaking.sol\":1845:1858  stakingWallet */\n      0x02\n      0x00\n      swap1\n      sload\n      swap1\n      0x0100\n      exp\n      swap1\n      div\n      0xffffffffffffffffffffffffffffffffffffffff\n      and\n        /* \"EnhancedStaking.sol\":1837:1864  payable(stakingWallet).call */\n      0xffffffffffffffffffffffffffffffffffffffff\n      and\n        /* \"EnhancedStaking.sol\":1872:1878  amount */\n      dup3\n        /* \"EnhancedStaking.sol\":1837:1883  payable(stakingWallet).call{value: amount}(\"\") */\n      mload(0x40)\n      tag_136\n      swap1\n      tag_137\n      jump\t// in\n    tag_136:\n      0x00\n      mload(0x40)\n      dup1\n      dup4\n      sub\n      dup2\n      dup6\n      dup8\n      gas\n      call\n      swap3\n      pop\n      pop\n      pop\n      returndatasize\n      dup1\n      0x00\n      dup2\n      eq\n      tag_140\n      jumpi\n      mload(0x40)\n      swap2\n      pop\n      and(add(returndatasize, 0x3f), not(0x1f))\n      dup3\n      add\n      0x40\n      mstore\n      returndatasize\n      dup3\n      mstore\n      returndatasize\n      0x00\n      0x20\n      dup5\n      add\n      returndatacopy\n      jump(tag_139)\n    tag_140:\n      0x60\n      swap2\n      pop\n    tag_139:\n      pop\n        /* \"EnhancedStaking.sol\":1818:1883  (bool success, ) = payable(stakingWallet).call{value: amount}(\"\") */\n      pop\n      swap1\n      pop\n        /* \"EnhancedStaking.sol\":1901:1908  success */\n      dup1\n        /* \"EnhancedStaking.sol\":1893:1955  require(success, \"Failed to transfer stake to staking wallet\") */\n      tag_141\n      jumpi\n      mload(0x40)\n      0x08c379a000000000000000000000000000000000000000000000000000000000\n      dup2\n      mstore\n      0x04\n      add\n      tag_142\n      swap1\n      tag_143\n      jump\t// in\n    tag_142:\n      mload(0x40)\n      dup1\n      swap2\n      sub\n      swap1\n      revert\n    tag_141:\n        /* \"EnhancedStaking.sol\":1978:1988  msg.sender */\n      caller\n        /* \"EnhancedStaking.sol\":1971:1997  Staked(msg.sender, amount) */\n      0xffffffffffffffffffffffffffffffffffffffff\n      and\n      0x9e71bc8eea02a63969f509818f2dafb9254532904319f9dbda79b67bd34a5f3d\n        /* \"EnhancedStaking.sol\":1990:1996  amount */\n      dup4\n        /* \"EnhancedStaking.sol\":1971:1997  Staked(msg.sender, amount) */\n      mload(0x40)\n      tag_144\n      swap2\n      swap1\n      tag_37\n      jump\t// in\n    tag_144:\n      mload(0x40)\n      dup1\n      swap2\n      sub\n      swap1\n      log2\n        /* \"EnhancedStaking.sol\":1457:2004  {... */\n      pop\n        /* \"@openzeppelin/contracts/security/ReentrancyGuard.sol\":2303:2323  _nonReentrantAfter() */\n      tag_145\n        /* \"@openzeppelin/contracts/security/ReentrancyGuard.sol\":2303:2321  _nonReentrantAfter */\n      tag_146\n        /* \"@openzeppelin/contracts/security/ReentrancyGuard.sol\":2303:2323  _nonReentrantAfter() */\n      jump\t// in\n    tag_145:\n        /* \"EnhancedStaking.sol\":1383:2004  function stake(uint256 amount ) public payable nonReentrant whenNotPaused {... */\n      pop\n      jump\t// out\n        /* \"EnhancedStaking.sol\":573:602  uint256 public cooldownPeriod */\n    tag_35:\n      sload(0x07)\n      dup2\n      jump\t// out\n        /* \"EnhancedStaking.sol\":390:418  address public stakingWallet */\n    tag_40:\n      0x02\n      0x00\n      swap1\n      sload\n      swap1\n      0x0100\n      exp\n      swap1\n      div\n      0xffffffffffffffffffffffffffffffffffffffff\n      and\n      dup2\n      jump\t// out\n        /* \"EnhancedStaking.sol\":424:465  mapping(address => uint256) public stakes */\n    tag_47:\n      mstore(0x20, 0x03)\n      dup1\n      0x00\n      mstore\n      keccak256(0x00, 0x40)\n      0x00\n      swap2\n      pop\n      swap1\n      pop\n      sload\n      dup2\n      jump\t// out\n        /* \"EnhancedStaking.sol\":2010:2602  function withdraw(uint256 amount) public nonReentrant whenNotPaused {... */\n    tag_53:\n        /* \"@openzeppelin/contracts/security/ReentrancyGuard.sol\":2261:2282  _nonReentrantBefore() */\n      tag_148\n        /* \"@openzeppelin/contracts/security/ReentrancyGuard.sol\":2261:2280  _nonReentrantBefore */\n      tag_118\n        /* \"@openzeppelin/contracts/security/ReentrancyGuard.sol\":2261:2282  _nonReentrantBefore() */\n      jump\t// in\n    tag_148:\n        /* \"@openzeppelin/contracts/security/Pausable.sol\":1239:1258  _requireNotPaused() */\n      tag_150\n        /* \"@openzeppelin/contracts/security/Pausable.sol\":1239:1256  _requireNotPaused */\n      tag_121\n        /* \"@openzeppelin/contracts/security/Pausable.sol\":1239:1258  _requireNotPaused() */\n      jump\t// in\n    tag_150:\n        /* \"EnhancedStaking.sol\":2118:2124  amount */\n      dup1\n        /* \"EnhancedStaking.sol\":2096:2102  stakes */\n      0x03\n        /* \"EnhancedStaking.sol\":2096:2114  stakes[msg.sender] */\n      0x00\n        /* \"EnhancedStaking.sol\":2103:2113  msg.sender */\n      caller\n        /* \"EnhancedStaking.sol\":2096:2114  stakes[msg.sender] */\n      0xffffffffffffffffffffffffffffffffffffffff\n      and\n      0xffffffffffffffffffffffffffffffffffffffff\n      and\n      dup2\n      mstore\n      0x20\n      add\n      swap1\n      dup2\n      mstore\n      0x20\n      add\n      0x00\n      keccak256\n      sload\n        /* \"EnhancedStaking.sol\":2096:2124  stakes[msg.sender] >= amount */\n      lt\n      iszero\n        /* \"EnhancedStaking.sol\":2088:2147  require(stakes[msg.sender] >= amount, \"Insufficient stake\") */\n      tag_152\n      jumpi\n      mload(0x40)\n      0x08c379a000000000000000000000000000000000000000000000000000000000\n      dup2\n      mstore\n      0x04\n      add\n      tag_153\n      swap1\n      tag_154\n      jump\t// in\n    tag_153:\n      mload(0x40)\n      dup1\n      swap2\n      sub\n      swap1\n      revert\n    tag_152:\n        /* \"EnhancedStaking.sol\":2184:2234  lastWithdrawalTime[msg.sender].add(cooldownPeriod) */\n      tag_155\n        /* \"EnhancedStaking.sol\":2219:2233  cooldownPeriod */\n      sload(0x07)\n        /* \"EnhancedStaking.sol\":2184:2202  lastWithdrawalTime */\n      0x08\n        /* \"EnhancedStaking.sol\":2184:2214  lastWithdrawalTime[msg.sender] */\n      0x00\n        /* \"EnhancedStaking.sol\":2203:2213  msg.sender */\n      caller\n        /* \"EnhancedStaking.sol\":2184:2214  lastWithdrawalTime[msg.sender] */\n      0xffffffffffffffffffffffffffffffffffffffff\n      and\n      0xffffffffffffffffffffffffffffffffffffffff\n      and\n      dup2\n      mstore\n      0x20\n      add\n      swap1\n      dup2\n      mstore\n      0x20\n      add\n      0x00\n      keccak256\n      sload\n        /* \"EnhancedStaking.sol\":2184:2218  lastWithdrawalTime[msg.sender].add */\n      tag_130\n      swap1\n        /* \"EnhancedStaking.sol\":2184:2234  lastWithdrawalTime[msg.sender].add(cooldownPeriod) */\n      swap2\n      swap1\n      0xffffffff\n      and\n      jump\t// in\n    tag_155:\n        /* \"EnhancedStaking.sol\":2165:2180  block.timestamp */\n      timestamp\n        /* \"EnhancedStaking.sol\":2165:2234  block.timestamp >= lastWithdrawalTime[msg.sender].add(cooldownPeriod) */\n      lt\n      iszero\n        /* \"EnhancedStaking.sol\":2157:2262  require(block.timestamp >= lastWithdrawalTime[msg.sender].add(cooldownPeriod), \"Cooldown period not met\") */\n      tag_156\n      jumpi\n      mload(0x40)\n      0x08c379a000000000000000000000000000000000000000000000000000000000\n      dup2\n      mstore\n      0x04\n      add\n      tag_157\n      swap1\n      tag_158\n      jump\t// in\n    tag_157:\n      mload(0x40)\n      dup1\n      swap2\n      sub\n      swap1\n      revert\n    tag_156:\n        /* \"EnhancedStaking.sol\":2294:2324  stakes[msg.sender].sub(amount) */\n      tag_159\n        /* \"EnhancedStaking.sol\":2317:2323  amount */\n      dup2\n        /* \"EnhancedStaking.sol\":2294:2300  stakes */\n      0x03\n        /* \"EnhancedStaking.sol\":2294:2312  stakes[msg.sender] */\n      0x00\n        /* \"EnhancedStaking.sol\":2301:2311  msg.sender */\n      caller\n        /* \"EnhancedStaking.sol\":2294:2312  stakes[msg.sender] */\n      0xffffffffffffffffffffffffffffffffffffffff\n      and\n      0xffffffffffffffffffffffffffffffffffffffff\n      and\n      dup2\n      mstore\n      0x20\n      add\n      swap1\n      dup2\n      mstore\n      0x20\n      add\n      0x00\n      keccak256\n      sload\n        /* \"EnhancedStaking.sol\":2294:2316  stakes[msg.sender].sub */\n      tag_160\n      swap1\n        /* \"EnhancedStaking.sol\":2294:2324  stakes[msg.sender].sub(amount) */\n      swap2\n      swap1\n      0xffffffff\n      and\n      jump\t// in\n    tag_159:\n        /* \"EnhancedStaking.sol\":2273:2279  stakes */\n      0x03\n        /* \"EnhancedStaking.sol\":2273:2291  stakes[msg.sender] */\n      0x00\n        /* \"EnhancedStaking.sol\":2280:2290  msg.sender */\n      caller\n        /* \"EnhancedStaking.sol\":2273:2291  stakes[msg.sender] */\n      0xffffffffffffffffffffffffffffffffffffffff\n      and\n      0xffffffffffffffffffffffffffffffffffffffff\n      and\n      dup2\n      mstore\n      0x20\n      add\n      swap1\n      dup2\n      mstore\n      0x20\n      add\n      0x00\n      keccak256\n        /* \"EnhancedStaking.sol\":2273:2324  stakes[msg.sender] = stakes[msg.sender].sub(amount) */\n      dup2\n      swap1\n      sstore\n      pop\n        /* \"EnhancedStaking.sol\":2348:2371  totalStaked.sub(amount) */\n      tag_161\n        /* \"EnhancedStaking.sol\":2364:2370  amount */\n      dup2\n        /* \"EnhancedStaking.sol\":2348:2359  totalStaked */\n      sload(0x04)\n        /* \"EnhancedStaking.sol\":2348:2363  totalStaked.sub */\n      tag_160\n      swap1\n        /* \"EnhancedStaking.sol\":2348:2371  totalStaked.sub(amount) */\n      swap2\n      swap1\n      0xffffffff\n      and\n      jump\t// in\n    tag_161:\n        /* \"EnhancedStaking.sol\":2334:2345  totalStaked */\n      0x04\n        /* \"EnhancedStaking.sol\":2334:2371  totalStaked = totalStaked.sub(amount) */\n      dup2\n      swap1\n      sstore\n      pop\n        /* \"EnhancedStaking.sol\":2414:2429  block.timestamp */\n      timestamp\n        /* \"EnhancedStaking.sol\":2381:2399  lastWithdrawalTime */\n      0x08\n        /* \"EnhancedStaking.sol\":2381:2411  lastWithdrawalTime[msg.sender] */\n      0x00\n        /* \"EnhancedStaking.sol\":2400:2410  msg.sender */\n      caller\n        /* \"EnhancedStaking.sol\":2381:2411  lastWithdrawalTime[msg.sender] */\n      0xffffffffffffffffffffffffffffffffffffffff\n      and\n      0xffffffffffffffffffffffffffffffffffffffff\n      and\n      dup2\n      mstore\n      0x20\n      add\n      swap1\n      dup2\n      mstore\n      0x20\n      add\n      0x00\n      keccak256\n        /* \"EnhancedStaking.sol\":2381:2429  lastWithdrawalTime[msg.sender] = block.timestamp */\n      dup2\n      swap1\n      sstore\n      pop\n        /* \"EnhancedStaking.sol\":2441:2453  bool success */\n      0x00\n        /* \"EnhancedStaking.sol\":2467:2477  msg.sender */\n      caller\n        /* \"EnhancedStaking.sol\":2459:2483  payable(msg.sender).call */\n      0xffffffffffffffffffffffffffffffffffffffff\n      and\n        /* \"EnhancedStaking.sol\":2491:2497  amount */\n      dup3\n        /* \"EnhancedStaking.sol\":2459:2502  payable(msg.sender).call{value: amount}(\"\") */\n      mload(0x40)\n      tag_162\n      swap1\n      tag_137\n      jump\t// in\n    tag_162:\n      0x00\n      mload(0x40)\n      dup1\n      dup4\n      sub\n      dup2\n      dup6\n      dup8\n      gas\n      call\n      swap3\n      pop\n      pop\n      pop\n      returndatasize\n      dup1\n      0x00\n      dup2\n      eq\n      tag_165\n      jumpi\n      mload(0x40)\n      swap2\n      pop\n      and(add(returndatasize, 0x3f), not(0x1f))\n      dup3\n      add\n      0x40\n      mstore\n      returndatasize\n      dup3\n      mstore\n      returndatasize\n      0x00\n      0x20\n      dup5\n      add\n      returndatacopy\n      jump(tag_164)\n    tag_165:\n      0x60\n      swap2\n      pop\n    tag_164:\n      pop\n        /* \"EnhancedStaking.sol\":2440:2502  (bool success, ) = payable(msg.sender).call{value: amount}(\"\") */\n      pop\n      swap1\n      pop\n        /* \"EnhancedStaking.sol\":2520:2527  success */\n      dup1\n        /* \"EnhancedStaking.sol\":2512:2550  require(success, \"Failed to send BNB\") */\n      tag_166\n      jumpi\n      mload(0x40)\n      0x08c379a000000000000000000000000000000000000000000000000000000000\n      dup2\n      mstore\n      0x04\n      add\n      tag_167\n      swap1\n      tag_168\n      jump\t// in\n    tag_167:\n      mload(0x40)\n      dup1\n      swap2\n      sub\n      swap1\n      revert\n    tag_166:\n        /* \"EnhancedStaking.sol\":2576:2586  msg.sender */\n      caller\n        /* \"EnhancedStaking.sol\":2566:2595  Withdrawn(msg.sender, amount) */\n      0xffffffffffffffffffffffffffffffffffffffff\n      and\n      0x7084f5476618d8e60b11ef0d7d3f06914655adb8793e28ff7f018d4c76d505d5\n        /* \"EnhancedStaking.sol\":2588:2594  amount */\n      dup4\n        /* \"EnhancedStaking.sol\":2566:2595  Withdrawn(msg.sender, amount) */\n      mload(0x40)\n      tag_169\n      swap2\n      swap1\n      tag_37\n      jump\t// in\n    tag_169:\n      mload(0x40)\n      dup1\n      swap2\n      sub\n      swap1\n      log2\n        /* \"EnhancedStaking.sol\":2078:2602  {... */\n      pop\n        /* \"@openzeppelin/contracts/security/ReentrancyGuard.sol\":2303:2323  _nonReentrantAfter() */\n      tag_170\n        /* \"@openzeppelin/contracts/security/ReentrancyGuard.sol\":2303:2321  _nonReentrantAfter */\n      tag_146\n        /* \"@openzeppelin/contracts/security/ReentrancyGuard.sol\":2303:2323  _nonReentrantAfter() */\n      jump\t// in\n    tag_170:\n        /* \"EnhancedStaking.sol\":2010:2602  function withdraw(uint256 amount) public nonReentrant whenNotPaused {... */\n      pop\n      jump\t// out\n        /* \"EnhancedStaking.sol\":2712:2999  function changeStakingWallet(address newWallet) public onlyOwner {... */\n    tag_57:\n        /* \"@openzeppelin/contracts/access/Ownable.sol\":1531:1544  _checkOwner() */\n      tag_172\n        /* \"@openzeppelin/contracts/access/Ownable.sol\":1531:1542  _checkOwner */\n      tag_173\n        /* \"@openzeppelin/contracts/access/Ownable.sol\":1531:1544  _checkOwner() */\n      jump\t// in\n    tag_172:\n        /* \"EnhancedStaking.sol\":2816:2817  0 */\n      0x00\n        /* \"EnhancedStaking.sol\":2795:2818  newWallet != address(0) */\n      0xffffffffffffffffffffffffffffffffffffffff\n      and\n        /* \"EnhancedStaking.sol\":2795:2804  newWallet */\n      dup2\n        /* \"EnhancedStaking.sol\":2795:2818  newWallet != address(0) */\n      0xffffffffffffffffffffffffffffffffffffffff\n      and\n      sub\n        /* \"EnhancedStaking.sol\":2787:2857  require(newWallet != address(0), \"Invalid new staking wallet address\") */\n      tag_175\n      jumpi\n      mload(0x40)\n      0x08c379a000000000000000000000000000000000000000000000000000000000\n      dup2\n      mstore\n      0x04\n      add\n      tag_176\n      swap1\n      tag_177\n      jump\t// in\n    tag_176:\n      mload(0x40)\n      dup1\n      swap2\n      sub\n      swap1\n      revert\n    tag_175:\n        /* \"EnhancedStaking.sol\":2867:2884  address oldWallet */\n      0x00\n        /* \"EnhancedStaking.sol\":2887:2900  stakingWallet */\n      0x02\n      0x00\n      swap1\n      sload\n      swap1\n      0x0100\n      exp\n      swap1\n      div\n      0xffffffffffffffffffffffffffffffffffffffff\n      and\n        /* \"EnhancedStaking.sol\":2867:2900  address oldWallet = stakingWallet */\n      swap1\n      pop\n        /* \"EnhancedStaking.sol\":2926:2935  newWallet */\n      dup2\n        /* \"EnhancedStaking.sol\":2910:2923  stakingWallet */\n      0x02\n      0x00\n        /* \"EnhancedStaking.sol\":2910:2935  stakingWallet = newWallet */\n      0x0100\n      exp\n      dup2\n      sload\n      dup2\n      0xffffffffffffffffffffffffffffffffffffffff\n      mul\n      not\n      and\n      swap1\n      dup4\n      0xffffffffffffffffffffffffffffffffffffffff\n      and\n      mul\n      or\n      swap1\n      sstore\n      pop\n        /* \"EnhancedStaking.sol\":2982:2991  newWallet */\n      dup2\n        /* \"EnhancedStaking.sol\":2950:2992  StakingWalletChanged(oldWallet, newWallet) */\n      0xffffffffffffffffffffffffffffffffffffffff\n      and\n        /* \"EnhancedStaking.sol\":2971:2980  oldWallet */\n      dup2\n        /* \"EnhancedStaking.sol\":2950:2992  StakingWalletChanged(oldWallet, newWallet) */\n      0xffffffffffffffffffffffffffffffffffffffff\n      and\n      0x6013c0fe4c1fb06ee755812e80639fcbd51c4dcfc2b46fbe17ce2beecbacbe84\n      mload(0x40)\n      mload(0x40)\n      dup1\n      swap2\n      sub\n      swap1\n      log3\n        /* \"EnhancedStaking.sol\":2777:2999  {... */\n      pop\n        /* \"EnhancedStaking.sol\":2712:2999  function changeStakingWallet(address newWallet) public onlyOwner {... */\n      pop\n      jump\t// out\n        /* \"EnhancedStaking.sol\":3891:3954  function unpause() public onlyOwner {... */\n    tag_60:\n        /* \"@openzeppelin/contracts/access/Ownable.sol\":1531:1544  _checkOwner() */\n      tag_179\n        /* \"@openzeppelin/contracts/access/Ownable.sol\":1531:1542  _checkOwner */\n      tag_173\n        /* \"@openzeppelin/contracts/access/Ownable.sol\":1531:1544  _checkOwner() */\n      jump\t// in\n    tag_179:\n        /* \"EnhancedStaking.sol\":3937:3947  _unpause() */\n      tag_181\n        /* \"EnhancedStaking.sol\":3937:3945  _unpause */\n      tag_182\n        /* \"EnhancedStaking.sol\":3937:3947  _unpause() */\n      jump\t// in\n    tag_181:\n        /* \"EnhancedStaking.sol\":3891:3954  function unpause() public onlyOwner {... */\n      jump\t// out\n        /* \"EnhancedStaking.sol\":608:661  mapping(address => uint256) public lastWithdrawalTime */\n    tag_64:\n      mstore(0x20, 0x08)\n      dup1\n      0x00\n      mstore\n      keccak256(0x00, 0x40)\n      0x00\n      swap2\n      pop\n      swap1\n      pop\n      sload\n      dup2\n      jump\t// out\n        /* \"@openzeppelin/contracts/security/Pausable.sol\":1615:1699  function paused() public view virtual returns (bool) {... */\n    tag_68:\n        /* \"@openzeppelin/contracts/security/Pausable.sol\":1662:1666  bool */\n      0x00\n        /* \"@openzeppelin/contracts/security/Pausable.sol\":1685:1692  _paused */\n      0x01\n      0x14\n      swap1\n      sload\n      swap1\n      0x0100\n      exp\n      swap1\n      div\n      0xff\n      and\n        /* \"@openzeppelin/contracts/security/Pausable.sol\":1678:1692  return _paused */\n      swap1\n      pop\n        /* \"@openzeppelin/contracts/security/Pausable.sol\":1615:1699  function paused() public view virtual returns (bool) {... */\n      swap1\n      jump\t// out\n        /* \"EnhancedStaking.sol\":538:567  uint256 public maxStakeAmount */\n    tag_73:\n      sload(0x06)\n      dup2\n      jump\t// out\n        /* \"@openzeppelin/contracts/access/Ownable.sol\":2293:2394  function renounceOwnership() public virtual onlyOwner {... */\n    tag_77:\n        /* \"@openzeppelin/contracts/access/Ownable.sol\":1531:1544  _checkOwner() */\n      tag_185\n        /* \"@openzeppelin/contracts/access/Ownable.sol\":1531:1542  _checkOwner */\n      tag_173\n        /* \"@openzeppelin/contracts/access/Ownable.sol\":1531:1544  _checkOwner() */\n      jump\t// in\n    tag_185:\n        /* \"@openzeppelin/contracts/access/Ownable.sol\":2357:2387  _transferOwnership(address(0)) */\n      tag_187\n        /* \"@openzeppelin/contracts/access/Ownable.sol\":2384:2385  0 */\n      0x00\n        /* \"@openzeppelin/contracts/access/Ownable.sol\":2357:2375  _transferOwnership */\n      tag_188\n        /* \"@openzeppelin/contracts/access/Ownable.sol\":2357:2387  _transferOwnership(address(0)) */\n      jump\t// in\n    tag_187:\n        /* \"@openzeppelin/contracts/access/Ownable.sol\":2293:2394  function renounceOwnership() public virtual onlyOwner {... */\n      jump\t// out\n        /* \"EnhancedStaking.sol\":2608:2706  function getStake(address user) public view returns (uint256) {... */\n    tag_81:\n        /* \"EnhancedStaking.sol\":2661:2668  uint256 */\n      0x00\n        /* \"EnhancedStaking.sol\":2687:2693  stakes */\n      0x03\n        /* \"EnhancedStaking.sol\":2687:2699  stakes[user] */\n      0x00\n        /* \"EnhancedStaking.sol\":2694:2698  user */\n      dup4\n        /* \"EnhancedStaking.sol\":2687:2699  stakes[user] */\n      0xffffffffffffffffffffffffffffffffffffffff\n      and\n      0xffffffffffffffffffffffffffffffffffffffff\n      and\n      dup2\n      mstore\n      0x20\n      add\n      swap1\n      dup2\n      mstore\n      0x20\n      add\n      0x00\n      keccak256\n      sload\n        /* \"EnhancedStaking.sol\":2680:2699  return stakes[user] */\n      swap1\n      pop\n        /* \"EnhancedStaking.sol\":2608:2706  function getStake(address user) public view returns (uint256) {... */\n      swap2\n      swap1\n      pop\n      jump\t// out\n        /* \"EnhancedStaking.sol\":3612:3820  function setCooldownPeriod(uint256 newPeriod) public onlyOwner {... */\n    tag_86:\n        /* \"@openzeppelin/contracts/access/Ownable.sol\":1531:1544  _checkOwner() */\n      tag_191\n        /* \"@openzeppelin/contracts/access/Ownable.sol\":1531:1542  _checkOwner */\n      tag_173\n        /* \"@openzeppelin/contracts/access/Ownable.sol\":1531:1544  _checkOwner() */\n      jump\t// in\n    tag_191:\n        /* \"EnhancedStaking.sol\":3685:3702  uint256 oldPeriod */\n      0x00\n        /* \"EnhancedStaking.sol\":3705:3719  cooldownPeriod */\n      sload(0x07)\n        /* \"EnhancedStaking.sol\":3685:3719  uint256 oldPeriod = cooldownPeriod */\n      swap1\n      pop\n        /* \"EnhancedStaking.sol\":3746:3755  newPeriod */\n      dup2\n        /* \"EnhancedStaking.sol\":3729:3743  cooldownPeriod */\n      0x07\n        /* \"EnhancedStaking.sol\":3729:3755  cooldownPeriod = newPeriod */\n      dup2\n      swap1\n      sstore\n      pop\n        /* \"EnhancedStaking.sol\":3770:3813  CooldownPeriodChanged(oldPeriod, newPeriod) */\n      0x67a4233d292ab33774a65917ca809b4ab92953e039a7c1f71656afbbc1bc60c9\n        /* \"EnhancedStaking.sol\":3792:3801  oldPeriod */\n      dup2\n        /* \"EnhancedStaking.sol\":3803:3812  newPeriod */\n      dup4\n        /* \"EnhancedStaking.sol\":3770:3813  CooldownPeriodChanged(oldPeriod, newPeriod) */\n      mload(0x40)\n      tag_193\n      swap3\n      swap2\n      swap1\n      tag_194\n      jump\t// in\n    tag_193:\n      mload(0x40)\n      dup1\n      swap2\n      sub\n      swap1\n      log1\n        /* \"EnhancedStaking.sol\":3675:3820  {... */\n      pop\n        /* \"EnhancedStaking.sol\":3612:3820  function setCooldownPeriod(uint256 newPeriod) public onlyOwner {... */\n      pop\n      jump\t// out\n        /* \"EnhancedStaking.sol\":471:497  uint256 public totalStaked */\n    tag_89:\n      sload(0x04)\n      dup2\n      jump\t// out\n        /* \"EnhancedStaking.sol\":3826:3885  function pause() public onlyOwner {... */\n    tag_93:\n        /* \"@openzeppelin/contracts/access/Ownable.sol\":1531:1544  _checkOwner() */\n      tag_196\n        /* \"@openzeppelin/contracts/access/Ownable.sol\":1531:1542  _checkOwner */\n      tag_173\n        /* \"@openzeppelin/contracts/access/Ownable.sol\":1531:1544  _checkOwner() */\n      jump\t// in\n    tag_196:\n        /* \"EnhancedStaking.sol\":3870:3878  _pause() */\n      tag_198\n        /* \"EnhancedStaking.sol\":3870:3876  _pause */\n      tag_199\n        /* \"EnhancedStaking.sol\":3870:3878  _pause() */\n      jump\t// in\n    tag_198:\n        /* \"EnhancedStaking.sol\":3826:3885  function pause() public onlyOwner {... */\n      jump\t// out\n        /* \"@openzeppelin/contracts/access/Ownable.sol\":1638:1723  function owner() public view virtual returns (address) {... */\n    tag_96:\n        /* \"@openzeppelin/contracts/access/Ownable.sol\":1684:1691  address */\n      0x00\n        /* \"@openzeppelin/contracts/access/Ownable.sol\":1710:1716  _owner */\n      0x01\n      0x00\n      swap1\n      sload\n      swap1\n      0x0100\n      exp\n      swap1\n      div\n      0xffffffffffffffffffffffffffffffffffffffff\n      and\n        /* \"@openzeppelin/contracts/access/Ownable.sol\":1703:1716  return _owner */\n      swap1\n      pop\n        /* \"@openzeppelin/contracts/access/Ownable.sol\":1638:1723  function owner() public view virtual returns (address) {... */\n      swap1\n      jump\t// out\n        /* \"EnhancedStaking.sol\":3307:3606  function setMaxStakeAmount(uint256 newAmount) public onlyOwner {... */\n    tag_103:\n        /* \"@openzeppelin/contracts/access/Ownable.sol\":1531:1544  _checkOwner() */\n      tag_202\n        /* \"@openzeppelin/contracts/access/Ownable.sol\":1531:1542  _checkOwner */\n      tag_173\n        /* \"@openzeppelin/contracts/access/Ownable.sol\":1531:1544  _checkOwner() */\n      jump\t// in\n    tag_202:\n        /* \"EnhancedStaking.sol\":3400:3414  minStakeAmount */\n      sload(0x05)\n        /* \"EnhancedStaking.sol\":3388:3397  newAmount */\n      dup2\n        /* \"EnhancedStaking.sol\":3388:3414  newAmount > minStakeAmount */\n      gt\n        /* \"EnhancedStaking.sol\":3380:3461  require(newAmount > minStakeAmount, \"Max amount must be greater than min amount\") */\n      tag_204\n      jumpi\n      mload(0x40)\n      0x08c379a000000000000000000000000000000000000000000000000000000000\n      dup2\n      mstore\n      0x04\n      add\n      tag_205\n      swap1\n      tag_206\n      jump\t// in\n    tag_205:\n      mload(0x40)\n      dup1\n      swap2\n      sub\n      swap1\n      revert\n    tag_204:\n        /* \"EnhancedStaking.sol\":3471:3488  uint256 oldAmount */\n      0x00\n        /* \"EnhancedStaking.sol\":3491:3505  maxStakeAmount */\n      sload(0x06)\n        /* \"EnhancedStaking.sol\":3471:3505  uint256 oldAmount = maxStakeAmount */\n      swap1\n      pop\n        /* \"EnhancedStaking.sol\":3532:3541  newAmount */\n      dup2\n        /* \"EnhancedStaking.sol\":3515:3529  maxStakeAmount */\n      0x06\n        /* \"EnhancedStaking.sol\":3515:3541  maxStakeAmount = newAmount */\n      dup2\n      swap1\n      sstore\n      pop\n        /* \"EnhancedStaking.sol\":3556:3599  MaxStakeAmountChanged(oldAmount, newAmount) */\n      0x7af071d76489ff69e32618f091b5d6de46af889de44f621a936e8c9615c463a9\n        /* \"EnhancedStaking.sol\":3578:3587  oldAmount */\n      dup2\n        /* \"EnhancedStaking.sol\":3589:3598  newAmount */\n      dup4\n        /* \"EnhancedStaking.sol\":3556:3599  MaxStakeAmountChanged(oldAmount, newAmount) */\n      mload(0x40)\n      tag_207\n      swap3\n      swap2\n      swap1\n      tag_194\n      jump\t// in\n    tag_207:\n      mload(0x40)\n      dup1\n      swap2\n      sub\n      swap1\n      log1\n        /* \"EnhancedStaking.sol\":3370:3606  {... */\n      pop\n        /* \"EnhancedStaking.sol\":3307:3606  function setMaxStakeAmount(uint256 newAmount) public onlyOwner {... */\n      pop\n      jump\t// out\n        /* \"EnhancedStaking.sol\":3005:3301  function setMinStakeAmount(uint256 newAmount) public onlyOwner {... */\n    tag_107:\n        /* \"@openzeppelin/contracts/access/Ownable.sol\":1531:1544  _checkOwner() */\n      tag_209\n        /* \"@openzeppelin/contracts/access/Ownable.sol\":1531:1542  _checkOwner */\n      tag_173\n        /* \"@openzeppelin/contracts/access/Ownable.sol\":1531:1544  _checkOwner() */\n      jump\t// in\n    tag_209:\n        /* \"EnhancedStaking.sol\":3098:3112  maxStakeAmount */\n      sload(0x06)\n        /* \"EnhancedStaking.sol\":3086:3095  newAmount */\n      dup2\n        /* \"EnhancedStaking.sol\":3086:3112  newAmount < maxStakeAmount */\n      lt\n        /* \"EnhancedStaking.sol\":3078:3156  require(newAmount < maxStakeAmount, \"Min amount must be less than max amount\") */\n      tag_211\n      jumpi\n      mload(0x40)\n      0x08c379a000000000000000000000000000000000000000000000000000000000\n      dup2\n      mstore\n      0x04\n      add\n      tag_212\n      swap1\n      tag_213\n      jump\t// in\n    tag_212:\n      mload(0x40)\n      dup1\n      swap2\n      sub\n      swap1\n      revert\n    tag_211:\n        /* \"EnhancedStaking.sol\":3166:3183  uint256 oldAmount */\n      0x00\n        /* \"EnhancedStaking.sol\":3186:3200  minStakeAmount */\n      sload(0x05)\n        /* \"EnhancedStaking.sol\":3166:3200  uint256 oldAmount = minStakeAmount */\n      swap1\n      pop\n        /* \"EnhancedStaking.sol\":3227:3236  newAmount */\n      dup2\n        /* \"EnhancedStaking.sol\":3210:3224  minStakeAmount */\n      0x05\n        /* \"EnhancedStaking.sol\":3210:3236  minStakeAmount = newAmount */\n      dup2\n      swap1\n      sstore\n      pop\n        /* \"EnhancedStaking.sol\":3251:3294  MinStakeAmountChanged(oldAmount, newAmount) */\n      0x3b8dcd7d08f8aa9e93d2afc54830c8b23db9b7264f3bc503eb5fc2a0289bc2cb\n        /* \"EnhancedStaking.sol\":3273:3282  oldAmount */\n      dup2\n        /* \"EnhancedStaking.sol\":3284:3293  newAmount */\n      dup4\n        /* \"EnhancedStaking.sol\":3251:3294  MinStakeAmountChanged(oldAmount, newAmount) */\n      mload(0x40)\n      tag_214\n      swap3\n      swap2\n      swap1\n      tag_194\n      jump\t// in\n    tag_214:\n      mload(0x40)\n      dup1\n      swap2\n      sub\n      swap1\n      log1\n        /* \"EnhancedStaking.sol\":3068:3301  {... */\n      pop\n        /* \"EnhancedStaking.sol\":3005:3301  function setMinStakeAmount(uint256 newAmount) public onlyOwner {... */\n      pop\n      jump\t// out\n        /* \"EnhancedStaking.sol\":503:532  uint256 public minStakeAmount */\n    tag_110:\n      sload(0x05)\n      dup2\n      jump\t// out\n        /* \"@openzeppelin/contracts/access/Ownable.sol\":2543:2758  function transferOwnership(address newOwner) public virtual onlyOwner {... */\n    tag_115:\n        /* \"@openzeppelin/contracts/access/Ownable.sol\":1531:1544  _checkOwner() */\n      tag_216\n        /* \"@openzeppelin/contracts/access/Ownable.sol\":1531:1542  _checkOwner */\n      tag_173\n        /* \"@openzeppelin/contracts/access/Ownable.sol\":1531:1544  _checkOwner() */\n      jump\t// in\n    tag_216:\n        /* \"@openzeppelin/contracts/access/Ownable.sol\":2647:2648  0 */\n      0x00\n        /* \"@openzeppelin/contracts/access/Ownable.sol\":2627:2649  newOwner == address(0) */\n      0xffffffffffffffffffffffffffffffffffffffff\n      and\n        /* \"@openzeppelin/contracts/access/Ownable.sol\":2627:2635  newOwner */\n      dup2\n        /* \"@openzeppelin/contracts/access/Ownable.sol\":2627:2649  newOwner == address(0) */\n      0xffffffffffffffffffffffffffffffffffffffff\n      and\n      sub\n        /* \"@openzeppelin/contracts/access/Ownable.sol\":2623:2714  if (newOwner == address(0)) {... */\n      tag_218\n      jumpi\n        /* \"@openzeppelin/contracts/access/Ownable.sol\":2700:2701  0 */\n      0x00\n        /* \"@openzeppelin/contracts/access/Ownable.sol\":2672:2703  OwnableInvalidOwner(address(0)) */\n      mload(0x40)\n      0x1e4fbdf700000000000000000000000000000000000000000000000000000000\n      dup2\n      mstore\n      0x04\n      add\n      tag_219\n      swap2\n      swap1\n      tag_42\n      jump\t// in\n    tag_219:\n      mload(0x40)\n      dup1\n      swap2\n      sub\n      swap1\n      revert\n        /* \"@openzeppelin/contracts/access/Ownable.sol\":2623:2714  if (newOwner == address(0)) {... */\n    tag_218:\n        /* \"@openzeppelin/contracts/access/Ownable.sol\":2723:2751  _transferOwnership(newOwner) */\n      tag_220\n        /* \"@openzeppelin/contracts/access/Ownable.sol\":2742:2750  newOwner */\n      dup2\n        /* \"@openzeppelin/contracts/access/Ownable.sol\":2723:2741  _transferOwnership */\n      tag_188\n        /* \"@openzeppelin/contracts/access/Ownable.sol\":2723:2751  _transferOwnership(newOwner) */\n      jump\t// in\n    tag_220:\n        /* \"@openzeppelin/contracts/access/Ownable.sol\":2543:2758  function transferOwnership(address newOwner) public virtual onlyOwner {... */\n      pop\n      jump\t// out\n        /* \"@openzeppelin/contracts/security/ReentrancyGuard.sol\":2336:2623  function _nonReentrantBefore() private {... */\n    tag_118:\n        /* \"@openzeppelin/contracts/security/ReentrancyGuard.sol\":1759:1760  2 */\n      0x02\n        /* \"@openzeppelin/contracts/security/ReentrancyGuard.sol\":2468:2475  _status */\n      sload(0x00)\n        /* \"@openzeppelin/contracts/security/ReentrancyGuard.sol\":2468:2487  _status != _ENTERED */\n      sub\n        /* \"@openzeppelin/contracts/security/ReentrancyGuard.sol\":2460:2523  require(_status != _ENTERED, \"ReentrancyGuard: reentrant call\") */\n      tag_222\n      jumpi\n      mload(0x40)\n      0x08c379a000000000000000000000000000000000000000000000000000000000\n      dup2\n      mstore\n      0x04\n      add\n      tag_223\n      swap1\n      tag_224\n      jump\t// in\n    tag_223:\n      mload(0x40)\n      dup1\n      swap2\n      sub\n      swap1\n      revert\n    tag_222:\n        /* \"@openzeppelin/contracts/security/ReentrancyGuard.sol\":1759:1760  2 */\n      0x02\n        /* \"@openzeppelin/contracts/security/ReentrancyGuard.sol\":2598:2605  _status */\n      0x00\n        /* \"@openzeppelin/contracts/security/ReentrancyGuard.sol\":2598:2616  _status = _ENTERED */\n      dup2\n      swap1\n      sstore\n      pop\n        /* \"@openzeppelin/contracts/security/ReentrancyGuard.sol\":2336:2623  function _nonReentrantBefore() private {... */\n      jump\t// out\n        /* \"@openzeppelin/contracts/security/Pausable.sol\":1767:1873  function _requireNotPaused() internal view virtual {... */\n    tag_121:\n        /* \"@openzeppelin/contracts/security/Pausable.sol\":1837:1845  paused() */\n      tag_226\n        /* \"@openzeppelin/contracts/security/Pausable.sol\":1837:1843  paused */\n      tag_68\n        /* \"@openzeppelin/contracts/security/Pausable.sol\":1837:1845  paused() */\n      jump\t// in\n    tag_226:\n        /* \"@openzeppelin/contracts/security/Pausable.sol\":1836:1845  !paused() */\n      iszero\n        /* \"@openzeppelin/contracts/security/Pausable.sol\":1828:1866  require(!paused(), \"Pausable: paused\") */\n      tag_227\n      jumpi\n      mload(0x40)\n      0x08c379a000000000000000000000000000000000000000000000000000000000\n      dup2\n      mstore\n      0x04\n      add\n      tag_228\n      swap1\n      tag_229\n      jump\t// in\n    tag_228:\n      mload(0x40)\n      dup1\n      swap2\n      sub\n      swap1\n      revert\n    tag_227:\n        /* \"@openzeppelin/contracts/security/Pausable.sol\":1767:1873  function _requireNotPaused() internal view virtual {... */\n      jump\t// out\n        /* \"@openzeppelin/contracts/utils/math/SafeMath.sol\":2755:2851  function add(uint256 a, uint256 b) internal pure returns (uint256) {... */\n    tag_130:\n        /* \"@openzeppelin/contracts/utils/math/SafeMath.sol\":2813:2820  uint256 */\n      0x00\n        /* \"@openzeppelin/contracts/utils/math/SafeMath.sol\":2843:2844  b */\n      dup2\n        /* \"@openzeppelin/contracts/utils/math/SafeMath.sol\":2839:2840  a */\n      dup4\n        /* \"@openzeppelin/contracts/utils/math/SafeMath.sol\":2839:2844  a + b */\n      tag_231\n      swap2\n      swap1\n      tag_232\n      jump\t// in\n    tag_231:\n        /* \"@openzeppelin/contracts/utils/math/SafeMath.sol\":2832:2844  return a + b */\n      swap1\n      pop\n        /* \"@openzeppelin/contracts/utils/math/SafeMath.sol\":2755:2851  function add(uint256 a, uint256 b) internal pure returns (uint256) {... */\n      swap3\n      swap2\n      pop\n      pop\n      jump\t// out\n        /* \"@openzeppelin/contracts/security/ReentrancyGuard.sol\":2629:2838  function _nonReentrantAfter() private {... */\n    tag_146:\n        /* \"@openzeppelin/contracts/security/ReentrancyGuard.sol\":1716:1717  1 */\n      0x01\n        /* \"@openzeppelin/contracts/security/ReentrancyGuard.sol\":2809:2816  _status */\n      0x00\n        /* \"@openzeppelin/contracts/security/ReentrancyGuard.sol\":2809:2831  _status = _NOT_ENTERED */\n      dup2\n      swap1\n      sstore\n      pop\n        /* \"@openzeppelin/contracts/security/ReentrancyGuard.sol\":2629:2838  function _nonReentrantAfter() private {... */\n      jump\t// out\n        /* \"@openzeppelin/contracts/utils/math/SafeMath.sol\":3122:3218  function sub(uint256 a, uint256 b) internal pure returns (uint256) {... */\n    tag_160:\n        /* \"@openzeppelin/contracts/utils/math/SafeMath.sol\":3180:3187  uint256 */\n      0x00\n        /* \"@openzeppelin/contracts/utils/math/SafeMath.sol\":3210:3211  b */\n      dup2\n        /* \"@openzeppelin/contracts/utils/math/SafeMath.sol\":3206:3207  a */\n      dup4\n        /* \"@openzeppelin/contracts/utils/math/SafeMath.sol\":3206:3211  a - b */\n      tag_235\n      swap2\n      swap1\n      tag_236\n      jump\t// in\n    tag_235:\n        /* \"@openzeppelin/contracts/utils/math/SafeMath.sol\":3199:3211  return a - b */\n      swap1\n      pop\n        /* \"@openzeppelin/contracts/utils/math/SafeMath.sol\":3122:3218  function sub(uint256 a, uint256 b) internal pure returns (uint256) {... */\n      swap3\n      swap2\n      pop\n      pop\n      jump\t// out\n        /* \"@openzeppelin/contracts/access/Ownable.sol\":1796:1958  function _checkOwner() internal view virtual {... */\n    tag_173:\n        /* \"@openzeppelin/contracts/access/Ownable.sol\":1866:1878  _msgSender() */\n      tag_238\n        /* \"@openzeppelin/contracts/access/Ownable.sol\":1866:1876  _msgSender */\n      tag_239\n        /* \"@openzeppelin/contracts/access/Ownable.sol\":1866:1878  _msgSender() */\n      jump\t// in\n    tag_238:\n        /* \"@openzeppelin/contracts/access/Ownable.sol\":1855:1878  owner() != _msgSender() */\n      0xffffffffffffffffffffffffffffffffffffffff\n      and\n        /* \"@openzeppelin/contracts/access/Ownable.sol\":1855:1862  owner() */\n      tag_240\n        /* \"@openzeppelin/contracts/access/Ownable.sol\":1855:1860  owner */\n      tag_96\n        /* \"@openzeppelin/contracts/access/Ownable.sol\":1855:1862  owner() */\n      jump\t// in\n    tag_240:\n        /* \"@openzeppelin/contracts/access/Ownable.sol\":1855:1878  owner() != _msgSender() */\n      0xffffffffffffffffffffffffffffffffffffffff\n      and\n      eq\n        /* \"@openzeppelin/contracts/access/Ownable.sol\":1851:1952  if (owner() != _msgSender()) {... */\n      tag_241\n      jumpi\n        /* \"@openzeppelin/contracts/access/Ownable.sol\":1928:1940  _msgSender() */\n      tag_242\n        /* \"@openzeppelin/contracts/access/Ownable.sol\":1928:1938  _msgSender */\n      tag_239\n        /* \"@openzeppelin/contracts/access/Ownable.sol\":1928:1940  _msgSender() */\n      jump\t// in\n    tag_242:\n        /* \"@openzeppelin/contracts/access/Ownable.sol\":1901:1941  OwnableUnauthorizedAccount(_msgSender()) */\n      mload(0x40)\n      0x118cdaa700000000000000000000000000000000000000000000000000000000\n      dup2\n      mstore\n      0x04\n      add\n      tag_243\n      swap2\n      swap1\n      tag_42\n      jump\t// in\n    tag_243:\n      mload(0x40)\n      dup1\n      swap2\n      sub\n      swap1\n      revert\n        /* \"@openzeppelin/contracts/access/Ownable.sol\":1851:1952  if (owner() != _msgSender()) {... */\n    tag_241:\n        /* \"@openzeppelin/contracts/access/Ownable.sol\":1796:1958  function _checkOwner() internal view virtual {... */\n      jump\t// out\n        /* \"@openzeppelin/contracts/security/Pausable.sol\":2433:2550  function _unpause() internal virtual whenPaused {... */\n    tag_182:\n        /* \"@openzeppelin/contracts/security/Pausable.sol\":1486:1502  _requirePaused() */\n      tag_245\n        /* \"@openzeppelin/contracts/security/Pausable.sol\":1486:1500  _requirePaused */\n      tag_246\n        /* \"@openzeppelin/contracts/security/Pausable.sol\":1486:1502  _requirePaused() */\n      jump\t// in\n    tag_245:\n        /* \"@openzeppelin/contracts/security/Pausable.sol\":2501:2506  false */\n      0x00\n        /* \"@openzeppelin/contracts/security/Pausable.sol\":2491:2498  _paused */\n      0x01\n      0x14\n        /* \"@openzeppelin/contracts/security/Pausable.sol\":2491:2506  _paused = false */\n      0x0100\n      exp\n      dup2\n      sload\n      dup2\n      0xff\n      mul\n      not\n      and\n      swap1\n      dup4\n      iszero\n      iszero\n      mul\n      or\n      swap1\n      sstore\n      pop\n        /* \"@openzeppelin/contracts/security/Pausable.sol\":2521:2543  Unpaused(_msgSender()) */\n      0x5db9ee0a495bf2e6ff9c91a7834c1ba4fdd244a5e8aa4e537bd38aeae4b073aa\n        /* \"@openzeppelin/contracts/security/Pausable.sol\":2530:2542  _msgSender() */\n      tag_248\n        /* \"@openzeppelin/contracts/security/Pausable.sol\":2530:2540  _msgSender */\n      tag_239\n        /* \"@openzeppelin/contracts/security/Pausable.sol\":2530:2542  _msgSender() */\n      jump\t// in\n    tag_248:\n        /* \"@openzeppelin/contracts/security/Pausable.sol\":2521:2543  Unpaused(_msgSender()) */\n      mload(0x40)\n      tag_249\n      swap2\n      swap1\n      tag_42\n      jump\t// in\n    tag_249:\n      mload(0x40)\n      dup1\n      swap2\n      sub\n      swap1\n      log1\n        /* \"@openzeppelin/contracts/security/Pausable.sol\":2433:2550  function _unpause() internal virtual whenPaused {... */\n      jump\t// out\n        /* \"@openzeppelin/contracts/access/Ownable.sol\":2912:3099  function _transferOwnership(address newOwner) internal virtual {... */\n    tag_188:\n        /* \"@openzeppelin/contracts/access/Ownable.sol\":2985:3001  address oldOwner */\n      0x00\n        /* \"@openzeppelin/contracts/access/Ownable.sol\":3004:3010  _owner */\n      0x01\n      0x00\n      swap1\n      sload\n      swap1\n      0x0100\n      exp\n      swap1\n      div\n      0xffffffffffffffffffffffffffffffffffffffff\n      and\n        /* \"@openzeppelin/contracts/access/Ownable.sol\":2985:3010  address oldOwner = _owner */\n      swap1\n      pop\n        /* \"@openzeppelin/contracts/access/Ownable.sol\":3029:3037  newOwner */\n      dup2\n        /* \"@openzeppelin/contracts/access/Ownable.sol\":3020:3026  _owner */\n      0x01\n      0x00\n        /* \"@openzeppelin/contracts/access/Ownable.sol\":3020:3037  _owner = newOwner */\n      0x0100\n      exp\n      dup2\n      sload\n      dup2\n      0xffffffffffffffffffffffffffffffffffffffff\n      mul\n      not\n      and\n      swap1\n      dup4\n      0xffffffffffffffffffffffffffffffffffffffff\n      and\n      mul\n      or\n      swap1\n      sstore\n      pop\n        /* \"@openzeppelin/contracts/access/Ownable.sol\":3083:3091  newOwner */\n      dup2\n        /* \"@openzeppelin/contracts/access/Ownable.sol\":3052:3092  OwnershipTransferred(oldOwner, newOwner) */\n      0xffffffffffffffffffffffffffffffffffffffff\n      and\n        /* \"@openzeppelin/contracts/access/Ownable.sol\":3073:3081  oldOwner */\n      dup2\n        /* \"@openzeppelin/contracts/access/Ownable.sol\":3052:3092  OwnershipTransferred(oldOwner, newOwner) */\n      0xffffffffffffffffffffffffffffffffffffffff\n      and\n      0x8be0079c531659141344cd1fd0a4f28419497f9722a3daafe3b4186f6b6457e0\n      mload(0x40)\n      mload(0x40)\n      dup1\n      swap2\n      sub\n      swap1\n      log3\n        /* \"@openzeppelin/contracts/access/Ownable.sol\":2975:3099  {... */\n      pop\n        /* \"@openzeppelin/contracts/access/Ownable.sol\":2912:3099  function _transferOwnership(address newOwner) internal virtual {... */\n      pop\n      jump\t// out\n        /* \"@openzeppelin/contracts/security/Pausable.sol\":2186:2301  function _pause() internal virtual whenNotPaused {... */\n    tag_199:\n        /* \"@openzeppelin/contracts/security/Pausable.sol\":1239:1258  _requireNotPaused() */\n      tag_252\n        /* \"@openzeppelin/contracts/security/Pausable.sol\":1239:1256  _requireNotPaused */\n      tag_121\n        /* \"@openzeppelin/contracts/security/Pausable.sol\":1239:1258  _requireNotPaused() */\n      jump\t// in\n    tag_252:\n        /* \"@openzeppelin/contracts/security/Pausable.sol\":2255:2259  true */\n      0x01\n        /* \"@openzeppelin/contracts/security/Pausable.sol\":2245:2252  _paused */\n      dup1\n      0x14\n        /* \"@openzeppelin/contracts/security/Pausable.sol\":2245:2259  _paused = true */\n      0x0100\n      exp\n      dup2\n      sload\n      dup2\n      0xff\n      mul\n      not\n      and\n      swap1\n      dup4\n      iszero\n      iszero\n      mul\n      or\n      swap1\n      sstore\n      pop\n        /* \"@openzeppelin/contracts/security/Pausable.sol\":2274:2294  Paused(_msgSender()) */\n      0x62e78cea01bee320cd4e420270b5ea74000d11b0c9f74754ebdbfc544b05a258\n        /* \"@openzeppelin/contracts/security/Pausable.sol\":2281:2293  _msgSender() */\n      tag_254\n        /* \"@openzeppelin/contracts/security/Pausable.sol\":2281:2291  _msgSender */\n      tag_239\n        /* \"@openzeppelin/contracts/security/Pausable.sol\":2281:2293  _msgSender() */\n      jump\t// in\n    tag_254:\n        /* \"@openzeppelin/contracts/security/Pausable.sol\":2274:2294  Paused(_msgSender()) */\n      mload(0x40)\n      tag_255\n      swap2\n      swap1\n      tag_42\n      jump\t// in\n    tag_255:\n      mload(0x40)\n      dup1\n      swap2\n      sub\n      swap1\n      log1\n        /* \"@openzeppelin/contracts/security/Pausable.sol\":2186:2301  function _pause() internal virtual whenNotPaused {... */\n      jump\t// out\n        /* \"@openzeppelin/contracts/utils/Context.sol\":656:752  function _msgSender() internal view virtual returns (address) {... */\n    tag_239:\n        /* \"@openzeppelin/contracts/utils/Context.sol\":709:716  address */\n      0x00\n        /* \"@openzeppelin/contracts/utils/Context.sol\":735:745  msg.sender */\n      caller\n        /* \"@openzeppelin/contracts/utils/Context.sol\":728:745  return msg.sender */\n      swap1\n      pop\n        /* \"@openzeppelin/contracts/utils/Context.sol\":656:752  function _msgSender() internal view virtual returns (address) {... */\n      swap1\n      jump\t// out\n        /* \"@openzeppelin/contracts/security/Pausable.sol\":1945:2051  function _requirePaused() internal view virtual {... */\n    tag_246:\n        /* \"@openzeppelin/contracts/security/Pausable.sol\":2011:2019  paused() */\n      tag_258\n        /* \"@openzeppelin/contracts/security/Pausable.sol\":2011:2017  paused */\n      tag_68\n        /* \"@openzeppelin/contracts/security/Pausable.sol\":2011:2019  paused() */\n      jump\t// in\n    tag_258:\n        /* \"@openzeppelin/contracts/security/Pausable.sol\":2003:2044  require(paused(), \"Pausable: not paused\") */\n      tag_259\n      jumpi\n      mload(0x40)\n      0x08c379a000000000000000000000000000000000000000000000000000000000\n      dup2\n      mstore\n      0x04\n      add\n      tag_260\n      swap1\n      tag_261\n      jump\t// in\n    tag_260:\n      mload(0x40)\n      dup1\n      swap2\n      sub\n      swap1\n      revert\n    tag_259:\n        /* \"@openzeppelin/contracts/security/Pausable.sol\":1945:2051  function _requirePaused() internal view virtual {... */\n      jump\t// out\n        /* \"#utility.yul\":7:176   */\n    tag_262:\n        /* \"#utility.yul\":91:102   */\n      0x00\n        /* \"#utility.yul\":125:131   */\n      dup3\n        /* \"#utility.yul\":120:123   */\n      dup3\n        /* \"#utility.yul\":113:132   */\n      mstore\n        /* \"#utility.yul\":165:169   */\n      0x20\n        /* \"#utility.yul\":160:163   */\n      dup3\n        /* \"#utility.yul\":156:170   */\n      add\n        /* \"#utility.yul\":141:170   */\n      swap1\n      pop\n        /* \"#utility.yul\":7:176   */\n      swap3\n      swap2\n      pop\n      pop\n      jump\t// out\n        /* \"#utility.yul\":182:356   */\n    tag_263:\n        /* \"#utility.yul\":322:348   */\n      0x4d7573742073656e6420457468657220746f207374616b650000000000000000\n        /* \"#utility.yul\":318:319   */\n      0x00\n        /* \"#utility.yul\":310:316   */\n      dup3\n        /* \"#utility.yul\":306:320   */\n      add\n        /* \"#utility.yul\":299:349   */\n      mstore\n        /* \"#utility.yul\":182:356   */\n      pop\n      jump\t// out\n        /* \"#utility.yul\":362:728   */\n    tag_264:\n        /* \"#utility.yul\":504:507   */\n      0x00\n        /* \"#utility.yul\":525:592   */\n      tag_313\n        /* \"#utility.yul\":589:591   */\n      0x18\n        /* \"#utility.yul\":584:587   */\n      dup4\n        /* \"#utility.yul\":525:592   */\n      tag_262\n      jump\t// in\n    tag_313:\n        /* \"#utility.yul\":518:592   */\n      swap2\n      pop\n        /* \"#utility.yul\":601:694   */\n      tag_314\n        /* \"#utility.yul\":690:693   */\n      dup3\n        /* \"#utility.yul\":601:694   */\n      tag_263\n      jump\t// in\n    tag_314:\n        /* \"#utility.yul\":719:721   */\n      0x20\n        /* \"#utility.yul\":714:717   */\n      dup3\n        /* \"#utility.yul\":710:722   */\n      add\n        /* \"#utility.yul\":703:722   */\n      swap1\n      pop\n        /* \"#utility.yul\":362:728   */\n      swap2\n      swap1\n      pop\n      jump\t// out\n        /* \"#utility.yul\":734:1153   */\n    tag_30:\n        /* \"#utility.yul\":900:904   */\n      0x00\n        /* \"#utility.yul\":938:940   */\n      0x20\n        /* \"#utility.yul\":927:936   */\n      dup3\n        /* \"#utility.yul\":923:941   */\n      add\n        /* \"#utility.yul\":915:941   */\n      swap1\n      pop\n        /* \"#utility.yul\":987:996   */\n      dup2\n        /* \"#utility.yul\":981:985   */\n      dup2\n        /* \"#utility.yul\":977:997   */\n      sub\n        /* \"#utility.yul\":973:974   */\n      0x00\n        /* \"#utility.yul\":962:971   */\n      dup4\n        /* \"#utility.yul\":958:975   */\n      add\n        /* \"#utility.yul\":951:998   */\n      mstore\n        /* \"#utility.yul\":1015:1146   */\n      tag_316\n        /* \"#utility.yul\":1141:1145   */\n      dup2\n        /* \"#utility.yul\":1015:1146   */\n      tag_264\n      jump\t// in\n    tag_316:\n        /* \"#utility.yul\":1007:1146   */\n      swap1\n      pop\n        /* \"#utility.yul\":734:1153   */\n      swap2\n      swap1\n      pop\n      jump\t// out\n        /* \"#utility.yul\":1159:1236   */\n    tag_265:\n        /* \"#utility.yul\":1196:1203   */\n      0x00\n        /* \"#utility.yul\":1225:1230   */\n      dup2\n        /* \"#utility.yul\":1214:1230   */\n      swap1\n      pop\n        /* \"#utility.yul\":1159:1236   */\n      swap2\n      swap1\n      pop\n      jump\t// out\n        /* \"#utility.yul\":1242:1360   */\n    tag_266:\n        /* \"#utility.yul\":1329:1353   */\n      tag_319\n        /* \"#utility.yul\":1347:1352   */\n      dup2\n        /* \"#utility.yul\":1329:1353   */\n      tag_265\n      jump\t// in\n    tag_319:\n        /* \"#utility.yul\":1324:1327   */\n      dup3\n        /* \"#utility.yul\":1317:1354   */\n      mstore\n        /* \"#utility.yul\":1242:1360   */\n      pop\n      pop\n      jump\t// out\n        /* \"#utility.yul\":1366:1588   */\n    tag_37:\n        /* \"#utility.yul\":1459:1463   */\n      0x00\n        /* \"#utility.yul\":1497:1499   */\n      0x20\n        /* \"#utility.yul\":1486:1495   */\n      dup3\n        /* \"#utility.yul\":1482:1500   */\n      add\n        /* \"#utility.yul\":1474:1500   */\n      swap1\n      pop\n        /* \"#utility.yul\":1510:1581   */\n      tag_321\n        /* \"#utility.yul\":1578:1579   */\n      0x00\n        /* \"#utility.yul\":1567:1576   */\n      dup4\n        /* \"#utility.yul\":1563:1580   */\n      add\n        /* \"#utility.yul\":1554:1560   */\n      dup5\n        /* \"#utility.yul\":1510:1581   */\n      tag_266\n      jump\t// in\n    tag_321:\n        /* \"#utility.yul\":1366:1588   */\n      swap3\n      swap2\n      pop\n      pop\n      jump\t// out\n        /* \"#utility.yul\":1594:1720   */\n    tag_267:\n        /* \"#utility.yul\":1631:1638   */\n      0x00\n        /* \"#utility.yul\":1671:1713   */\n      0xffffffffffffffffffffffffffffffffffffffff\n        /* \"#utility.yul\":1664:1669   */\n      dup3\n        /* \"#utility.yul\":1660:1714   */\n      and\n        /* \"#utility.yul\":1649:1714   */\n      swap1\n      pop\n        /* \"#utility.yul\":1594:1720   */\n      swap2\n      swap1\n      pop\n      jump\t// out\n        /* \"#utility.yul\":1726:1822   */\n    tag_268:\n        /* \"#utility.yul\":1763:1770   */\n      0x00\n        /* \"#utility.yul\":1792:1816   */\n      tag_324\n        /* \"#utility.yul\":1810:1815   */\n      dup3\n        /* \"#utility.yul\":1792:1816   */\n      tag_267\n      jump\t// in\n    tag_324:\n        /* \"#utility.yul\":1781:1816   */\n      swap1\n      pop\n        /* \"#utility.yul\":1726:1822   */\n      swap2\n      swap1\n      pop\n      jump\t// out\n        /* \"#utility.yul\":1828:1946   */\n    tag_269:\n        /* \"#utility.yul\":1915:1939   */\n      tag_326\n        /* \"#utility.yul\":1933:1938   */\n      dup2\n        /* \"#utility.yul\":1915:1939   */\n      tag_268\n      jump\t// in\n    tag_326:\n        /* \"#utility.yul\":1910:1913   */\n      dup3\n        /* \"#utility.yul\":1903:1940   */\n      mstore\n        /* \"#utility.yul\":1828:1946   */\n      pop\n      pop\n      jump\t// out\n        /* \"#utility.yul\":1952:2174   */\n    tag_42:\n        /* \"#utility.yul\":2045:2049   */\n      0x00\n        /* \"#utility.yul\":2083:2085   */\n      0x20\n        /* \"#utility.yul\":2072:2081   */\n      dup3\n        /* \"#utility.yul\":2068:2086   */\n      add\n        /* \"#utility.yul\":2060:2086   */\n      swap1\n      pop\n        /* \"#utility.yul\":2096:2167   */\n      tag_328\n        /* \"#utility.yul\":2164:2165   */\n      0x00\n        /* \"#utility.yul\":2153:2162   */\n      dup4\n        /* \"#utility.yul\":2149:2166   */\n      add\n        /* \"#utility.yul\":2140:2146   */\n      dup5\n        /* \"#utility.yul\":2096:2167   */\n      tag_269\n      jump\t// in\n    tag_328:\n        /* \"#utility.yul\":1952:2174   */\n      swap3\n      swap2\n      pop\n      pop\n      jump\t// out\n        /* \"#utility.yul\":2261:2378   */\n    tag_271:\n        /* \"#utility.yul\":2370:2371   */\n      0x00\n        /* \"#utility.yul\":2367:2368   */\n      dup1\n        /* \"#utility.yul\":2360:2372   */\n      revert\n        /* \"#utility.yul\":2507:2629   */\n    tag_273:\n        /* \"#utility.yul\":2580:2604   */\n      tag_333\n        /* \"#utility.yul\":2598:2603   */\n      dup2\n        /* \"#utility.yul\":2580:2604   */\n      tag_268\n      jump\t// in\n    tag_333:\n        /* \"#utility.yul\":2573:2578   */\n      dup2\n        /* \"#utility.yul\":2570:2605   */\n      eq\n        /* \"#utility.yul\":2560:2623   */\n      tag_334\n      jumpi\n        /* \"#utility.yul\":2619:2620   */\n      0x00\n        /* \"#utility.yul\":2616:2617   */\n      dup1\n        /* \"#utility.yul\":2609:2621   */\n      revert\n        /* \"#utility.yul\":2560:2623   */\n    tag_334:\n        /* \"#utility.yul\":2507:2629   */\n      pop\n      jump\t// out\n        /* \"#utility.yul\":2635:2774   */\n    tag_274:\n        /* \"#utility.yul\":2681:2686   */\n      0x00\n        /* \"#utility.yul\":2719:2725   */\n      dup2\n        /* \"#utility.yul\":2706:2726   */\n      calldataload\n        /* \"#utility.yul\":2697:2726   */\n      swap1\n      pop\n        /* \"#utility.yul\":2735:2768   */\n      tag_336\n        /* \"#utility.yul\":2762:2767   */\n      dup2\n        /* \"#utility.yul\":2735:2768   */\n      tag_273\n      jump\t// in\n    tag_336:\n        /* \"#utility.yul\":2635:2774   */\n      swap3\n      swap2\n      pop\n      pop\n      jump\t// out\n        /* \"#utility.yul\":2780:3109   */\n    tag_46:\n        /* \"#utility.yul\":2839:2845   */\n      0x00\n        /* \"#utility.yul\":2888:2890   */\n      0x20\n        /* \"#utility.yul\":2876:2885   */\n      dup3\n        /* \"#utility.yul\":2867:2874   */\n      dup5\n        /* \"#utility.yul\":2863:2886   */\n      sub\n        /* \"#utility.yul\":2859:2891   */\n      slt\n        /* \"#utility.yul\":2856:2975   */\n      iszero\n      tag_338\n      jumpi\n        /* \"#utility.yul\":2894:2973   */\n      tag_339\n      tag_271\n      jump\t// in\n    tag_339:\n        /* \"#utility.yul\":2856:2975   */\n    tag_338:\n        /* \"#utility.yul\":3014:3015   */\n      0x00\n        /* \"#utility.yul\":3039:3092   */\n      tag_340\n        /* \"#utility.yul\":3084:3091   */\n      dup5\n        /* \"#utility.yul\":3075:3081   */\n      dup3\n        /* \"#utility.yul\":3064:3073   */\n      dup6\n        /* \"#utility.yul\":3060:3082   */\n      add\n        /* \"#utility.yul\":3039:3092   */\n      tag_274\n      jump\t// in\n    tag_340:\n        /* \"#utility.yul\":3029:3092   */\n      swap2\n      pop\n        /* \"#utility.yul\":2985:3102   */\n      pop\n        /* \"#utility.yul\":2780:3109   */\n      swap3\n      swap2\n      pop\n      pop\n      jump\t// out\n        /* \"#utility.yul\":3115:3237   */\n    tag_275:\n        /* \"#utility.yul\":3188:3212   */\n      tag_342\n        /* \"#utility.yul\":3206:3211   */\n      dup2\n        /* \"#utility.yul\":3188:3212   */\n      tag_265\n      jump\t// in\n    tag_342:\n        /* \"#utility.yul\":3181:3186   */\n      dup2\n        /* \"#utility.yul\":3178:3213   */\n      eq\n        /* \"#utility.yul\":3168:3231   */\n      tag_343\n      jumpi\n        /* \"#utility.yul\":3227:3228   */\n      0x00\n        /* \"#utility.yul\":3224:3225   */\n      dup1\n        /* \"#utility.yul\":3217:3229   */\n      revert\n        /* \"#utility.yul\":3168:3231   */\n    tag_343:\n        /* \"#utility.yul\":3115:3237   */\n      pop\n      jump\t// out\n        /* \"#utility.yul\":3243:3382   */\n    tag_276:\n        /* \"#utility.yul\":3289:3294   */\n      0x00\n        /* \"#utility.yul\":3327:3333   */\n      dup2\n        /* \"#utility.yul\":3314:3334   */\n      calldataload\n        /* \"#utility.yul\":3305:3334   */\n      swap1\n      pop\n        /* \"#utility.yul\":3343:3376   */\n      tag_345\n        /* \"#utility.yul\":3370:3375   */\n      dup2\n        /* \"#utility.yul\":3343:3376   */\n      tag_275\n      jump\t// in\n    tag_345:\n        /* \"#utility.yul\":3243:3382   */\n      swap3\n      swap2\n      pop\n      pop\n      jump\t// out\n        /* \"#utility.yul\":3388:3717   */\n    tag_52:\n        /* \"#utility.yul\":3447:3453   */\n      0x00\n        /* \"#utility.yul\":3496:3498   */\n      0x20\n        /* \"#utility.yul\":3484:3493   */\n      dup3\n        /* \"#utility.yul\":3475:3482   */\n      dup5\n        /* \"#utility.yul\":3471:3494   */\n      sub\n        /* \"#utility.yul\":3467:3499   */\n      slt\n        /* \"#utility.yul\":3464:3583   */\n      iszero\n      tag_347\n      jumpi\n        /* \"#utility.yul\":3502:3581   */\n      tag_348\n      tag_271\n      jump\t// in\n    tag_348:\n        /* \"#utility.yul\":3464:3583   */\n    tag_347:\n        /* \"#utility.yul\":3622:3623   */\n      0x00\n        /* \"#utility.yul\":3647:3700   */\n      tag_349\n        /* \"#utility.yul\":3692:3699   */\n      dup5\n        /* \"#utility.yul\":3683:3689   */\n      dup3\n        /* \"#utility.yul\":3672:3681   */\n      dup6\n        /* \"#utility.yul\":3668:3690   */\n      add\n        /* \"#utility.yul\":3647:3700   */\n      tag_276\n      jump\t// in\n    tag_349:\n        /* \"#utility.yul\":3637:3700   */\n      swap2\n      pop\n        /* \"#utility.yul\":3593:3710   */\n      pop\n        /* \"#utility.yul\":3388:3717   */\n      swap3\n      swap2\n      pop\n      pop\n      jump\t// out\n        /* \"#utility.yul\":3723:3813   */\n    tag_277:\n        /* \"#utility.yul\":3757:3764   */\n      0x00\n        /* \"#utility.yul\":3800:3805   */\n      dup2\n        /* \"#utility.yul\":3793:3806   */\n      iszero\n        /* \"#utility.yul\":3786:3807   */\n      iszero\n        /* \"#utility.yul\":3775:3807   */\n      swap1\n      pop\n        /* \"#utility.yul\":3723:3813   */\n      swap2\n      swap1\n      pop\n      jump\t// out\n        /* \"#utility.yul\":3819:3928   */\n    tag_278:\n        /* \"#utility.yul\":3900:3921   */\n      tag_352\n        /* \"#utility.yul\":3915:3920   */\n      dup2\n        /* \"#utility.yul\":3900:3921   */\n      tag_277\n      jump\t// in\n    tag_352:\n        /* \"#utility.yul\":3895:3898   */\n      dup3\n        /* \"#utility.yul\":3888:3922   */\n      mstore\n        /* \"#utility.yul\":3819:3928   */\n      pop\n      pop\n      jump\t// out\n        /* \"#utility.yul\":3934:4144   */\n    tag_70:\n        /* \"#utility.yul\":4021:4025   */\n      0x00\n        /* \"#utility.yul\":4059:4061   */\n      0x20\n        /* \"#utility.yul\":4048:4057   */\n      dup3\n        /* \"#utility.yul\":4044:4062   */\n      add\n        /* \"#utility.yul\":4036:4062   */\n      swap1\n      pop\n        /* \"#utility.yul\":4072:4137   */\n      tag_354\n        /* \"#utility.yul\":4134:4135   */\n      0x00\n        /* \"#utility.yul\":4123:4132   */\n      dup4\n        /* \"#utility.yul\":4119:4136   */\n      add\n        /* \"#utility.yul\":4110:4116   */\n      dup5\n        /* \"#utility.yul\":4072:4137   */\n      tag_278\n      jump\t// in\n    tag_354:\n        /* \"#utility.yul\":3934:4144   */\n      swap3\n      swap2\n      pop\n      pop\n      jump\t// out\n        /* \"#utility.yul\":4150:4320   */\n    tag_279:\n        /* \"#utility.yul\":4290:4312   */\n      0x5374616b6520616d6f756e7420746f6f206c6f77000000000000000000000000\n        /* \"#utility.yul\":4286:4287   */\n      0x00\n        /* \"#utility.yul\":4278:4284   */\n      dup3\n        /* \"#utility.yul\":4274:4288   */\n      add\n        /* \"#utility.yul\":4267:4313   */\n      mstore\n        /* \"#utility.yul\":4150:4320   */\n      pop\n      jump\t// out\n        /* \"#utility.yul\":4326:4692   */\n    tag_280:\n        /* \"#utility.yul\":4468:4471   */\n      0x00\n        /* \"#utility.yul\":4489:4556   */\n      tag_357\n        /* \"#utility.yul\":4553:4555   */\n      0x14\n        /* \"#utility.yul\":4548:4551   */\n      dup4\n        /* \"#utility.yul\":4489:4556   */\n      tag_262\n      jump\t// in\n    tag_357:\n        /* \"#utility.yul\":4482:4556   */\n      swap2\n      pop\n        /* \"#utility.yul\":4565:4658   */\n      tag_358\n        /* \"#utility.yul\":4654:4657   */\n      dup3\n        /* \"#utility.yul\":4565:4658   */\n      tag_279\n      jump\t// in\n    tag_358:\n        /* \"#utility.yul\":4683:4685   */\n      0x20\n        /* \"#utility.yul\":4678:4681   */\n      dup3\n        /* \"#utility.yul\":4674:4686   */\n      add\n        /* \"#utility.yul\":4667:4686   */\n      swap1\n      pop\n        /* \"#utility.yul\":4326:4692   */\n      swap2\n      swap1\n      pop\n      jump\t// out\n        /* \"#utility.yul\":4698:5117   */\n    tag_125:\n        /* \"#utility.yul\":4864:4868   */\n      0x00\n        /* \"#utility.yul\":4902:4904   */\n      0x20\n        /* \"#utility.yul\":4891:4900   */\n      dup3\n        /* \"#utility.yul\":4887:4905   */\n      add\n        /* \"#utility.yul\":4879:4905   */\n      swap1\n      pop\n        /* \"#utility.yul\":4951:4960   */\n      dup2\n        /* \"#utility.yul\":4945:4949   */\n      dup2\n        /* \"#utility.yul\":4941:4961   */\n      sub\n        /* \"#utility.yul\":4937:4938   */\n      0x00\n        /* \"#utility.yul\":4926:4935   */\n      dup4\n        /* \"#utility.yul\":4922:4939   */\n      add\n        /* \"#utility.yul\":4915:4962   */\n      mstore\n        /* \"#utility.yul\":4979:5110   */\n      tag_360\n        /* \"#utility.yul\":5105:5109   */\n      dup2\n        /* \"#utility.yul\":4979:5110   */\n      tag_280\n      jump\t// in\n    tag_360:\n        /* \"#utility.yul\":4971:5110   */\n      swap1\n      pop\n        /* \"#utility.yul\":4698:5117   */\n      swap2\n      swap1\n      pop\n      jump\t// out\n        /* \"#utility.yul\":5123:5294   */\n    tag_281:\n        /* \"#utility.yul\":5263:5286   */\n      0x5374616b6520616d6f756e7420746f6f20686967680000000000000000000000\n        /* \"#utility.yul\":5259:5260   */\n      0x00\n        /* \"#utility.yul\":5251:5257   */\n      dup3\n        /* \"#utility.yul\":5247:5261   */\n      add\n        /* \"#utility.yul\":5240:5287   */\n      mstore\n        /* \"#utility.yul\":5123:5294   */\n      pop\n      jump\t// out\n        /* \"#utility.yul\":5300:5666   */\n    tag_282:\n        /* \"#utility.yul\":5442:5445   */\n      0x00\n        /* \"#utility.yul\":5463:5530   */\n      tag_363\n        /* \"#utility.yul\":5527:5529   */\n      0x15\n        /* \"#utility.yul\":5522:5525   */\n      dup4\n        /* \"#utility.yul\":5463:5530   */\n      tag_262\n      jump\t// in\n    tag_363:\n        /* \"#utility.yul\":5456:5530   */\n      swap2\n      pop\n        /* \"#utility.yul\":5539:5632   */\n      tag_364\n        /* \"#utility.yul\":5628:5631   */\n      dup3\n        /* \"#utility.yul\":5539:5632   */\n      tag_281\n      jump\t// in\n    tag_364:\n        /* \"#utility.yul\":5657:5659   */\n      0x20\n        /* \"#utility.yul\":5652:5655   */\n      dup3\n        /* \"#utility.yul\":5648:5660   */\n      add\n        /* \"#utility.yul\":5641:5660   */\n      swap1\n      pop\n        /* \"#utility.yul\":5300:5666   */\n      swap2\n      swap1\n      pop\n      jump\t// out\n        /* \"#utility.yul\":5672:6091   */\n    tag_128:\n        /* \"#utility.yul\":5838:5842   */\n      0x00\n        /* \"#utility.yul\":5876:5878   */\n      0x20\n        /* \"#utility.yul\":5865:5874   */\n      dup3\n        /* \"#utility.yul\":5861:5879   */\n      add\n        /* \"#utility.yul\":5853:5879   */\n      swap1\n      pop\n        /* \"#utility.yul\":5925:5934   */\n      dup2\n        /* \"#utility.yul\":5919:5923   */\n      dup2\n        /* \"#utility.yul\":5915:5935   */\n      sub\n        /* \"#utility.yul\":5911:5912   */\n      0x00\n        /* \"#utility.yul\":5900:5909   */\n      dup4\n        /* \"#utility.yul\":5896:5913   */\n      add\n        /* \"#utility.yul\":5889:5936   */\n      mstore\n        /* \"#utility.yul\":5953:6084   */\n      tag_366\n        /* \"#utility.yul\":6079:6083   */\n      dup2\n        /* \"#utility.yul\":5953:6084   */\n      tag_282\n      jump\t// in\n    tag_366:\n        /* \"#utility.yul\":5945:6084   */\n      swap1\n      pop\n        /* \"#utility.yul\":5672:6091   */\n      swap2\n      swap1\n      pop\n      jump\t// out\n        /* \"#utility.yul\":6097:6274   */\n    tag_283:\n        /* \"#utility.yul\":6237:6266   */\n      0x546f74616c207374616b652065786365656473206d6178696d756d0000000000\n        /* \"#utility.yul\":6233:6234   */\n      0x00\n        /* \"#utility.yul\":6225:6231   */\n      dup3\n        /* \"#utility.yul\":6221:6235   */\n      add\n        /* \"#utility.yul\":6214:6267   */\n      mstore\n        /* \"#utility.yul\":6097:6274   */\n      pop\n      jump\t// out\n        /* \"#utility.yul\":6280:6646   */\n    tag_284:\n        /* \"#utility.yul\":6422:6425   */\n      0x00\n        /* \"#utility.yul\":6443:6510   */\n      tag_369\n        /* \"#utility.yul\":6507:6509   */\n      0x1b\n        /* \"#utility.yul\":6502:6505   */\n      dup4\n        /* \"#utility.yul\":6443:6510   */\n      tag_262\n      jump\t// in\n    tag_369:\n        /* \"#utility.yul\":6436:6510   */\n      swap2\n      pop\n        /* \"#utility.yul\":6519:6612   */\n      tag_370\n        /* \"#utility.yul\":6608:6611   */\n      dup3\n        /* \"#utility.yul\":6519:6612   */\n      tag_283\n      jump\t// in\n    tag_370:\n        /* \"#utility.yul\":6637:6639   */\n      0x20\n        /* \"#utility.yul\":6632:6635   */\n      dup3\n        /* \"#utility.yul\":6628:6640   */\n      add\n        /* \"#utility.yul\":6621:6640   */\n      swap1\n      pop\n        /* \"#utility.yul\":6280:6646   */\n      swap2\n      swap1\n      pop\n      jump\t// out\n        /* \"#utility.yul\":6652:7071   */\n    tag_133:\n        /* \"#utility.yul\":6818:6822   */\n      0x00\n        /* \"#utility.yul\":6856:6858   */\n      0x20\n        /* \"#utility.yul\":6845:6854   */\n      dup3\n        /* \"#utility.yul\":6841:6859   */\n      add\n        /* \"#utility.yul\":6833:6859   */\n      swap1\n      pop\n        /* \"#utility.yul\":6905:6914   */\n      dup2\n        /* \"#utility.yul\":6899:6903   */\n      dup2\n        /* \"#utility.yul\":6895:6915   */\n      sub\n        /* \"#utility.yul\":6891:6892   */\n      0x00\n        /* \"#utility.yul\":6880:6889   */\n      dup4\n        /* \"#utility.yul\":6876:6893   */\n      add\n        /* \"#utility.yul\":6869:6916   */\n      mstore\n        /* \"#utility.yul\":6933:7064   */\n      tag_372\n        /* \"#utility.yul\":7059:7063   */\n      dup2\n        /* \"#utility.yul\":6933:7064   */\n      tag_284\n      jump\t// in\n    tag_372:\n        /* \"#utility.yul\":6925:7064   */\n      swap1\n      pop\n        /* \"#utility.yul\":6652:7071   */\n      swap2\n      swap1\n      pop\n      jump\t// out\n        /* \"#utility.yul\":7077:7224   */\n    tag_285:\n        /* \"#utility.yul\":7178:7189   */\n      0x00\n        /* \"#utility.yul\":7215:7218   */\n      dup2\n        /* \"#utility.yul\":7200:7218   */\n      swap1\n      pop\n        /* \"#utility.yul\":7077:7224   */\n      swap3\n      swap2\n      pop\n      pop\n      jump\t// out\n        /* \"#utility.yul\":7230:7344   */\n    tag_286:\n      pop\n      jump\t// out\n        /* \"#utility.yul\":7350:7748   */\n    tag_287:\n        /* \"#utility.yul\":7509:7512   */\n      0x00\n        /* \"#utility.yul\":7530:7613   */\n      tag_376\n        /* \"#utility.yul\":7611:7612   */\n      0x00\n        /* \"#utility.yul\":7606:7609   */\n      dup4\n        /* \"#utility.yul\":7530:7613   */\n      tag_285\n      jump\t// in\n    tag_376:\n        /* \"#utility.yul\":7523:7613   */\n      swap2\n      pop\n        /* \"#utility.yul\":7622:7715   */\n      tag_377\n        /* \"#utility.yul\":7711:7714   */\n      dup3\n        /* \"#utility.yul\":7622:7715   */\n      tag_286\n      jump\t// in\n    tag_377:\n        /* \"#utility.yul\":7740:7741   */\n      0x00\n        /* \"#utility.yul\":7735:7738   */\n      dup3\n        /* \"#utility.yul\":7731:7742   */\n      add\n        /* \"#utility.yul\":7724:7742   */\n      swap1\n      pop\n        /* \"#utility.yul\":7350:7748   */\n      swap2\n      swap1\n      pop\n      jump\t// out\n        /* \"#utility.yul\":7754:8133   */\n    tag_137:\n        /* \"#utility.yul\":7938:7941   */\n      0x00\n        /* \"#utility.yul\":7960:8107   */\n      tag_379\n        /* \"#utility.yul\":8103:8106   */\n      dup3\n        /* \"#utility.yul\":7960:8107   */\n      tag_287\n      jump\t// in\n    tag_379:\n        /* \"#utility.yul\":7953:8107   */\n      swap2\n      pop\n        /* \"#utility.yul\":8124:8127   */\n      dup2\n        /* \"#utility.yul\":8117:8127   */\n      swap1\n      pop\n        /* \"#utility.yul\":7754:8133   */\n      swap2\n      swap1\n      pop\n      jump\t// out\n        /* \"#utility.yul\":8139:8368   */\n    tag_288:\n        /* \"#utility.yul\":8279:8313   */\n      0x4661696c656420746f207472616e73666572207374616b6520746f207374616b\n        /* \"#utility.yul\":8275:8276   */\n      0x00\n        /* \"#utility.yul\":8267:8273   */\n      dup3\n        /* \"#utility.yul\":8263:8277   */\n      add\n        /* \"#utility.yul\":8256:8314   */\n      mstore\n        /* \"#utility.yul\":8348:8360   */\n      0x696e672077616c6c657400000000000000000000000000000000000000000000\n        /* \"#utility.yul\":8343:8345   */\n      0x20\n        /* \"#utility.yul\":8335:8341   */\n      dup3\n        /* \"#utility.yul\":8331:8346   */\n      add\n        /* \"#utility.yul\":8324:8361   */\n      mstore\n        /* \"#utility.yul\":8139:8368   */\n      pop\n      jump\t// out\n        /* \"#utility.yul\":8374:8740   */\n    tag_289:\n        /* \"#utility.yul\":8516:8519   */\n      0x00\n        /* \"#utility.yul\":8537:8604   */\n      tag_382\n        /* \"#utility.yul\":8601:8603   */\n      0x2a\n        /* \"#utility.yul\":8596:8599   */\n      dup4\n        /* \"#utility.yul\":8537:8604   */\n      tag_262\n      jump\t// in\n    tag_382:\n        /* \"#utility.yul\":8530:8604   */\n      swap2\n      pop\n        /* \"#utility.yul\":8613:8706   */\n      tag_383\n        /* \"#utility.yul\":8702:8705   */\n      dup3\n        /* \"#utility.yul\":8613:8706   */\n      tag_288\n      jump\t// in\n    tag_383:\n        /* \"#utility.yul\":8731:8733   */\n      0x40\n        /* \"#utility.yul\":8726:8729   */\n      dup3\n        /* \"#utility.yul\":8722:8734   */\n      add\n        /* \"#utility.yul\":8715:8734   */\n      swap1\n      pop\n        /* \"#utility.yul\":8374:8740   */\n      swap2\n      swap1\n      pop\n      jump\t// out\n        /* \"#utility.yul\":8746:9165   */\n    tag_143:\n        /* \"#utility.yul\":8912:8916   */\n      0x00\n        /* \"#utility.yul\":8950:8952   */\n      0x20\n        /* \"#utility.yul\":8939:8948   */\n      dup3\n        /* \"#utility.yul\":8935:8953   */\n      add\n        /* \"#utility.yul\":8927:8953   */\n      swap1\n      pop\n        /* \"#utility.yul\":8999:9008   */\n      dup2\n        /* \"#utility.yul\":8993:8997   */\n      dup2\n        /* \"#utility.yul\":8989:9009   */\n      sub\n        /* \"#utility.yul\":8985:8986   */\n      0x00\n        /* \"#utility.yul\":8974:8983   */\n      dup4\n        /* \"#utility.yul\":8970:8987   */\n      add\n        /* \"#utility.yul\":8963:9010   */\n      mstore\n        /* \"#utility.yul\":9027:9158   */\n      tag_385\n        /* \"#utility.yul\":9153:9157   */\n      dup2\n        /* \"#utility.yul\":9027:9158   */\n      tag_289\n      jump\t// in\n    tag_385:\n        /* \"#utility.yul\":9019:9158   */\n      swap1\n      pop\n        /* \"#utility.yul\":8746:9165   */\n      swap2\n      swap1\n      pop\n      jump\t// out\n        /* \"#utility.yul\":9171:9339   */\n    tag_290:\n        /* \"#utility.yul\":9311:9331   */\n      0x496e73756666696369656e74207374616b650000000000000000000000000000\n        /* \"#utility.yul\":9307:9308   */\n      0x00\n        /* \"#utility.yul\":9299:9305   */\n      dup3\n        /* \"#utility.yul\":9295:9309   */\n      add\n        /* \"#utility.yul\":9288:9332   */\n      mstore\n        /* \"#utility.yul\":9171:9339   */\n      pop\n      jump\t// out\n        /* \"#utility.yul\":9345:9711   */\n    tag_291:\n        /* \"#utility.yul\":9487:9490   */\n      0x00\n        /* \"#utility.yul\":9508:9575   */\n      tag_388\n        /* \"#utility.yul\":9572:9574   */\n      0x12\n        /* \"#utility.yul\":9567:9570   */\n      dup4\n        /* \"#utility.yul\":9508:9575   */\n      tag_262\n      jump\t// in\n    tag_388:\n        /* \"#utility.yul\":9501:9575   */\n      swap2\n      pop\n        /* \"#utility.yul\":9584:9677   */\n      tag_389\n        /* \"#utility.yul\":9673:9676   */\n      dup3\n        /* \"#utility.yul\":9584:9677   */\n      tag_290\n      jump\t// in\n    tag_389:\n        /* \"#utility.yul\":9702:9704   */\n      0x20\n        /* \"#utility.yul\":9697:9700   */\n      dup3\n        /* \"#utility.yul\":9693:9705   */\n      add\n        /* \"#utility.yul\":9686:9705   */\n      swap1\n      pop\n        /* \"#utility.yul\":9345:9711   */\n      swap2\n      swap1\n      pop\n      jump\t// out\n        /* \"#utility.yul\":9717:10136   */\n    tag_154:\n        /* \"#utility.yul\":9883:9887   */\n      0x00\n        /* \"#utility.yul\":9921:9923   */\n      0x20\n        /* \"#utility.yul\":9910:9919   */\n      dup3\n        /* \"#utility.yul\":9906:9924   */\n      add\n        /* \"#utility.yul\":9898:9924   */\n      swap1\n      pop\n        /* \"#utility.yul\":9970:9979   */\n      dup2\n        /* \"#utility.yul\":9964:9968   */\n      dup2\n        /* \"#utility.yul\":9960:9980   */\n      sub\n        /* \"#utility.yul\":9956:9957   */\n      0x00\n        /* \"#utility.yul\":9945:9954   */\n      dup4\n        /* \"#utility.yul\":9941:9958   */\n      add\n        /* \"#utility.yul\":9934:9981   */\n      mstore\n        /* \"#utility.yul\":9998:10129   */\n      tag_391\n        /* \"#utility.yul\":10124:10128   */\n      dup2\n        /* \"#utility.yul\":9998:10129   */\n      tag_291\n      jump\t// in\n    tag_391:\n        /* \"#utility.yul\":9990:10129   */\n      swap1\n      pop\n        /* \"#utility.yul\":9717:10136   */\n      swap2\n      swap1\n      pop\n      jump\t// out\n        /* \"#utility.yul\":10142:10315   */\n    tag_292:\n        /* \"#utility.yul\":10282:10307   */\n      0x436f6f6c646f776e20706572696f64206e6f74206d6574000000000000000000\n        /* \"#utility.yul\":10278:10279   */\n      0x00\n        /* \"#utility.yul\":10270:10276   */\n      dup3\n        /* \"#utility.yul\":10266:10280   */\n      add\n        /* \"#utility.yul\":10259:10308   */\n      mstore\n        /* \"#utility.yul\":10142:10315   */\n      pop\n      jump\t// out\n        /* \"#utility.yul\":10321:10687   */\n    tag_293:\n        /* \"#utility.yul\":10463:10466   */\n      0x00\n        /* \"#utility.yul\":10484:10551   */\n      tag_394\n        /* \"#utility.yul\":10548:10550   */\n      0x17\n        /* \"#utility.yul\":10543:10546   */\n      dup4\n        /* \"#utility.yul\":10484:10551   */\n      tag_262\n      jump\t// in\n    tag_394:\n        /* \"#utility.yul\":10477:10551   */\n      swap2\n      pop\n        /* \"#utility.yul\":10560:10653   */\n      tag_395\n        /* \"#utility.yul\":10649:10652   */\n      dup3\n        /* \"#utility.yul\":10560:10653   */\n      tag_292\n      jump\t// in\n    tag_395:\n        /* \"#utility.yul\":10678:10680   */\n      0x20\n        /* \"#utility.yul\":10673:10676   */\n      dup3\n        /* \"#utility.yul\":10669:10681   */\n      add\n        /* \"#utility.yul\":10662:10681   */\n      swap1\n      pop\n        /* \"#utility.yul\":10321:10687   */\n      swap2\n      swap1\n      pop\n      jump\t// out\n        /* \"#utility.yul\":10693:11112   */\n    tag_158:\n        /* \"#utility.yul\":10859:10863   */\n      0x00\n        /* \"#utility.yul\":10897:10899   */\n      0x20\n        /* \"#utility.yul\":10886:10895   */\n      dup3\n        /* \"#utility.yul\":10882:10900   */\n      add\n        /* \"#utility.yul\":10874:10900   */\n      swap1\n      pop\n        /* \"#utility.yul\":10946:10955   */\n      dup2\n        /* \"#utility.yul\":10940:10944   */\n      dup2\n        /* \"#utility.yul\":10936:10956   */\n      sub\n        /* \"#utility.yul\":10932:10933   */\n      0x00\n        /* \"#utility.yul\":10921:10930   */\n      dup4\n        /* \"#utility.yul\":10917:10934   */\n      add\n        /* \"#utility.yul\":10910:10957   */\n      mstore\n        /* \"#utility.yul\":10974:11105   */\n      tag_397\n        /* \"#utility.yul\":11100:11104   */\n      dup2\n        /* \"#utility.yul\":10974:11105   */\n      tag_293\n      jump\t// in\n    tag_397:\n        /* \"#utility.yul\":10966:11105   */\n      swap1\n      pop\n        /* \"#utility.yul\":10693:11112   */\n      swap2\n      swap1\n      pop\n      jump\t// out\n        /* \"#utility.yul\":11118:11286   */\n    tag_294:\n        /* \"#utility.yul\":11258:11278   */\n      0x4661696c656420746f2073656e6420424e420000000000000000000000000000\n        /* \"#utility.yul\":11254:11255   */\n      0x00\n        /* \"#utility.yul\":11246:11252   */\n      dup3\n        /* \"#utility.yul\":11242:11256   */\n      add\n        /* \"#utility.yul\":11235:11279   */\n      mstore\n        /* \"#utility.yul\":11118:11286   */\n      pop\n      jump\t// out\n        /* \"#utility.yul\":11292:11658   */\n    tag_295:\n        /* \"#utility.yul\":11434:11437   */\n      0x00\n        /* \"#utility.yul\":11455:11522   */\n      tag_400\n        /* \"#utility.yul\":11519:11521   */\n      0x12\n        /* \"#utility.yul\":11514:11517   */\n      dup4\n        /* \"#utility.yul\":11455:11522   */\n      tag_262\n      jump\t// in\n    tag_400:\n        /* \"#utility.yul\":11448:11522   */\n      swap2\n      pop\n        /* \"#utility.yul\":11531:11624   */\n      tag_401\n        /* \"#utility.yul\":11620:11623   */\n      dup3\n        /* \"#utility.yul\":11531:11624   */\n      tag_294\n      jump\t// in\n    tag_401:\n        /* \"#utility.yul\":11649:11651   */\n      0x20\n        /* \"#utility.yul\":11644:11647   */\n      dup3\n        /* \"#utility.yul\":11640:11652   */\n      add\n        /* \"#utility.yul\":11633:11652   */\n      swap1\n      pop\n        /* \"#utility.yul\":11292:11658   */\n      swap2\n      swap1\n      pop\n      jump\t// out\n        /* \"#utility.yul\":11664:12083   */\n    tag_168:\n        /* \"#utility.yul\":11830:11834   */\n      0x00\n        /* \"#utility.yul\":11868:11870   */\n      0x20\n        /* \"#utility.yul\":11857:11866   */\n      dup3\n        /* \"#utility.yul\":11853:11871   */\n      add\n        /* \"#utility.yul\":11845:11871   */\n      swap1\n      pop\n        /* \"#utility.yul\":11917:11926   */\n      dup2\n        /* \"#utility.yul\":11911:11915   */\n      dup2\n        /* \"#utility.yul\":11907:11927   */\n      sub\n        /* \"#utility.yul\":11903:11904   */\n      0x00\n        /* \"#utility.yul\":11892:11901   */\n      dup4\n        /* \"#utility.yul\":11888:11905   */\n      add\n        /* \"#utility.yul\":11881:11928   */\n      mstore\n        /* \"#utility.yul\":11945:12076   */\n      tag_403\n        /* \"#utility.yul\":12071:12075   */\n      dup2\n        /* \"#utility.yul\":11945:12076   */\n      tag_295\n      jump\t// in\n    tag_403:\n        /* \"#utility.yul\":11937:12076   */\n      swap1\n      pop\n        /* \"#utility.yul\":11664:12083   */\n      swap2\n      swap1\n      pop\n      jump\t// out\n        /* \"#utility.yul\":12089:12310   */\n    tag_296:\n        /* \"#utility.yul\":12229:12263   */\n      0x496e76616c6964206e6577207374616b696e672077616c6c6574206164647265\n        /* \"#utility.yul\":12225:12226   */\n      0x00\n        /* \"#utility.yul\":12217:12223   */\n      dup3\n        /* \"#utility.yul\":12213:12227   */\n      add\n        /* \"#utility.yul\":12206:12264   */\n      mstore\n        /* \"#utility.yul\":12298:12302   */\n      0x7373000000000000000000000000000000000000000000000000000000000000\n        /* \"#utility.yul\":12293:12295   */\n      0x20\n        /* \"#utility.yul\":12285:12291   */\n      dup3\n        /* \"#utility.yul\":12281:12296   */\n      add\n        /* \"#utility.yul\":12274:12303   */\n      mstore\n        /* \"#utility.yul\":12089:12310   */\n      pop\n      jump\t// out\n        /* \"#utility.yul\":12316:12682   */\n    tag_297:\n        /* \"#utility.yul\":12458:12461   */\n      0x00\n        /* \"#utility.yul\":12479:12546   */\n      tag_406\n        /* \"#utility.yul\":12543:12545   */\n      0x22\n        /* \"#utility.yul\":12538:12541   */\n      dup4\n        /* \"#utility.yul\":12479:12546   */\n      tag_262\n      jump\t// in\n    tag_406:\n        /* \"#utility.yul\":12472:12546   */\n      swap2\n      pop\n        /* \"#utility.yul\":12555:12648   */\n      tag_407\n        /* \"#utility.yul\":12644:12647   */\n      dup3\n        /* \"#utility.yul\":12555:12648   */\n      tag_296\n      jump\t// in\n    tag_407:\n        /* \"#utility.yul\":12673:12675   */\n      0x40\n        /* \"#utility.yul\":12668:12671   */\n      dup3\n        /* \"#utility.yul\":12664:12676   */\n      add\n        /* \"#utility.yul\":12657:12676   */\n      swap1\n      pop\n        /* \"#utility.yul\":12316:12682   */\n      swap2\n      swap1\n      pop\n      jump\t// out\n        /* \"#utility.yul\":12688:13107   */\n    tag_177:\n        /* \"#utility.yul\":12854:12858   */\n      0x00\n        /* \"#utility.yul\":12892:12894   */\n      0x20\n        /* \"#utility.yul\":12881:12890   */\n      dup3\n        /* \"#utility.yul\":12877:12895   */\n      add\n        /* \"#utility.yul\":12869:12895   */\n      swap1\n      pop\n        /* \"#utility.yul\":12941:12950   */\n      dup2\n        /* \"#utility.yul\":12935:12939   */\n      dup2\n        /* \"#utility.yul\":12931:12951   */\n      sub\n        /* \"#utility.yul\":12927:12928   */\n      0x00\n        /* \"#utility.yul\":12916:12925   */\n      dup4\n        /* \"#utility.yul\":12912:12929   */\n      add\n        /* \"#utility.yul\":12905:12952   */\n      mstore\n        /* \"#utility.yul\":12969:13100   */\n      tag_409\n        /* \"#utility.yul\":13095:13099   */\n      dup2\n        /* \"#utility.yul\":12969:13100   */\n      tag_297\n      jump\t// in\n    tag_409:\n        /* \"#utility.yul\":12961:13100   */\n      swap1\n      pop\n        /* \"#utility.yul\":12688:13107   */\n      swap2\n      swap1\n      pop\n      jump\t// out\n        /* \"#utility.yul\":13113:13445   */\n    tag_194:\n        /* \"#utility.yul\":13234:13238   */\n      0x00\n        /* \"#utility.yul\":13272:13274   */\n      0x40\n        /* \"#utility.yul\":13261:13270   */\n      dup3\n        /* \"#utility.yul\":13257:13275   */\n      add\n        /* \"#utility.yul\":13249:13275   */\n      swap1\n      pop\n        /* \"#utility.yul\":13285:13356   */\n      tag_411\n        /* \"#utility.yul\":13353:13354   */\n      0x00\n        /* \"#utility.yul\":13342:13351   */\n      dup4\n        /* \"#utility.yul\":13338:13355   */\n      add\n        /* \"#utility.yul\":13329:13335   */\n      dup6\n        /* \"#utility.yul\":13285:13356   */\n      tag_266\n      jump\t// in\n    tag_411:\n        /* \"#utility.yul\":13366:13438   */\n      tag_412\n        /* \"#utility.yul\":13434:13436   */\n      0x20\n        /* \"#utility.yul\":13423:13432   */\n      dup4\n        /* \"#utility.yul\":13419:13437   */\n      add\n        /* \"#utility.yul\":13410:13416   */\n      dup5\n        /* \"#utility.yul\":13366:13438   */\n      tag_266\n      jump\t// in\n    tag_412:\n        /* \"#utility.yul\":13113:13445   */\n      swap4\n      swap3\n      pop\n      pop\n      pop\n      jump\t// out\n        /* \"#utility.yul\":13451:13680   */\n    tag_298:\n        /* \"#utility.yul\":13591:13625   */\n      0x4d617820616d6f756e74206d7573742062652067726561746572207468616e20\n        /* \"#utility.yul\":13587:13588   */\n      0x00\n        /* \"#utility.yul\":13579:13585   */\n      dup3\n        /* \"#utility.yul\":13575:13589   */\n      add\n        /* \"#utility.yul\":13568:13626   */\n      mstore\n        /* \"#utility.yul\":13660:13672   */\n      0x6d696e20616d6f756e7400000000000000000000000000000000000000000000\n        /* \"#utility.yul\":13655:13657   */\n      0x20\n        /* \"#utility.yul\":13647:13653   */\n      dup3\n        /* \"#utility.yul\":13643:13658   */\n      add\n        /* \"#utility.yul\":13636:13673   */\n      mstore\n        /* \"#utility.yul\":13451:13680   */\n      pop\n      jump\t// out\n        /* \"#utility.yul\":13686:14052   */\n    tag_299:\n        /* \"#utility.yul\":13828:13831   */\n      0x00\n        /* \"#utility.yul\":13849:13916   */\n      tag_415\n        /* \"#utility.yul\":13913:13915   */\n      0x2a\n        /* \"#utility.yul\":13908:13911   */\n      dup4\n        /* \"#utility.yul\":13849:13916   */\n      tag_262\n      jump\t// in\n    tag_415:\n        /* \"#utility.yul\":13842:13916   */\n      swap2\n      pop\n        /* \"#utility.yul\":13925:14018   */\n      tag_416\n        /* \"#utility.yul\":14014:14017   */\n      dup3\n        /* \"#utility.yul\":13925:14018   */\n      tag_298\n      jump\t// in\n    tag_416:\n        /* \"#utility.yul\":14043:14045   */\n      0x40\n        /* \"#utility.yul\":14038:14041   */\n      dup3\n        /* \"#utility.yul\":14034:14046   */\n      add\n        /* \"#utility.yul\":14027:14046   */\n      swap1\n      pop\n        /* \"#utility.yul\":13686:14052   */\n      swap2\n      swap1\n      pop\n      jump\t// out\n        /* \"#utility.yul\":14058:14477   */\n    tag_206:\n        /* \"#utility.yul\":14224:14228   */\n      0x00\n        /* \"#utility.yul\":14262:14264   */\n      0x20\n        /* \"#utility.yul\":14251:14260   */\n      dup3\n        /* \"#utility.yul\":14247:14265   */\n      add\n        /* \"#utility.yul\":14239:14265   */\n      swap1\n      pop\n        /* \"#utility.yul\":14311:14320   */\n      dup2\n        /* \"#utility.yul\":14305:14309   */\n      dup2\n        /* \"#utility.yul\":14301:14321   */\n      sub\n        /* \"#utility.yul\":14297:14298   */\n      0x00\n        /* \"#utility.yul\":14286:14295   */\n      dup4\n        /* \"#utility.yul\":14282:14299   */\n      add\n        /* \"#utility.yul\":14275:14322   */\n      mstore\n        /* \"#utility.yul\":14339:14470   */\n      tag_418\n        /* \"#utility.yul\":14465:14469   */\n      dup2\n        /* \"#utility.yul\":14339:14470   */\n      tag_299\n      jump\t// in\n    tag_418:\n        /* \"#utility.yul\":14331:14470   */\n      swap1\n      pop\n        /* \"#utility.yul\":14058:14477   */\n      swap2\n      swap1\n      pop\n      jump\t// out\n        /* \"#utility.yul\":14483:14709   */\n    tag_300:\n        /* \"#utility.yul\":14623:14657   */\n      0x4d696e20616d6f756e74206d757374206265206c657373207468616e206d6178\n        /* \"#utility.yul\":14619:14620   */\n      0x00\n        /* \"#utility.yul\":14611:14617   */\n      dup3\n        /* \"#utility.yul\":14607:14621   */\n      add\n        /* \"#utility.yul\":14600:14658   */\n      mstore\n        /* \"#utility.yul\":14692:14701   */\n      0x20616d6f756e7400000000000000000000000000000000000000000000000000\n        /* \"#utility.yul\":14687:14689   */\n      0x20\n        /* \"#utility.yul\":14679:14685   */\n      dup3\n        /* \"#utility.yul\":14675:14690   */\n      add\n        /* \"#utility.yul\":14668:14702   */\n      mstore\n        /* \"#utility.yul\":14483:14709   */\n      pop\n      jump\t// out\n        /* \"#utility.yul\":14715:15081   */\n    tag_301:\n        /* \"#utility.yul\":14857:14860   */\n      0x00\n        /* \"#utility.yul\":14878:14945   */\n      tag_421\n        /* \"#utility.yul\":14942:14944   */\n      0x27\n        /* \"#utility.yul\":14937:14940   */\n      dup4\n        /* \"#utility.yul\":14878:14945   */\n      tag_262\n      jump\t// in\n    tag_421:\n        /* \"#utility.yul\":14871:14945   */\n      swap2\n      pop\n        /* \"#utility.yul\":14954:15047   */\n      tag_422\n        /* \"#utility.yul\":15043:15046   */\n      dup3\n        /* \"#utility.yul\":14954:15047   */\n      tag_300\n      jump\t// in\n    tag_422:\n        /* \"#utility.yul\":15072:15074   */\n      0x40\n        /* \"#utility.yul\":15067:15070   */\n      dup3\n        /* \"#utility.yul\":15063:15075   */\n      add\n        /* \"#utility.yul\":15056:15075   */\n      swap1\n      pop\n        /* \"#utility.yul\":14715:15081   */\n      swap2\n      swap1\n      pop\n      jump\t// out\n        /* \"#utility.yul\":15087:15506   */\n    tag_213:\n        /* \"#utility.yul\":15253:15257   */\n      0x00\n        /* \"#utility.yul\":15291:15293   */\n      0x20\n        /* \"#utility.yul\":15280:15289   */\n      dup3\n        /* \"#utility.yul\":15276:15294   */\n      add\n        /* \"#utility.yul\":15268:15294   */\n      swap1\n      pop\n        /* \"#utility.yul\":15340:15349   */\n      dup2\n        /* \"#utility.yul\":15334:15338   */\n      dup2\n        /* \"#utility.yul\":15330:15350   */\n      sub\n        /* \"#utility.yul\":15326:15327   */\n      0x00\n        /* \"#utility.yul\":15315:15324   */\n      dup4\n        /* \"#utility.yul\":15311:15328   */\n      add\n        /* \"#utility.yul\":15304:15351   */\n      mstore\n        /* \"#utility.yul\":15368:15499   */\n      tag_424\n        /* \"#utility.yul\":15494:15498   */\n      dup2\n        /* \"#utility.yul\":15368:15499   */\n      tag_301\n      jump\t// in\n    tag_424:\n        /* \"#utility.yul\":15360:15499   */\n      swap1\n      pop\n        /* \"#utility.yul\":15087:15506   */\n      swap2\n      swap1\n      pop\n      jump\t// out\n        /* \"#utility.yul\":15512:15693   */\n    tag_302:\n        /* \"#utility.yul\":15652:15685   */\n      0x5265656e7472616e637947756172643a207265656e7472616e742063616c6c00\n        /* \"#utility.yul\":15648:15649   */\n      0x00\n        /* \"#utility.yul\":15640:15646   */\n      dup3\n        /* \"#utility.yul\":15636:15650   */\n      add\n        /* \"#utility.yul\":15629:15686   */\n      mstore\n        /* \"#utility.yul\":15512:15693   */\n      pop\n      jump\t// out\n        /* \"#utility.yul\":15699:16065   */\n    tag_303:\n        /* \"#utility.yul\":15841:15844   */\n      0x00\n        /* \"#utility.yul\":15862:15929   */\n      tag_427\n        /* \"#utility.yul\":15926:15928   */\n      0x1f\n        /* \"#utility.yul\":15921:15924   */\n      dup4\n        /* \"#utility.yul\":15862:15929   */\n      tag_262\n      jump\t// in\n    tag_427:\n        /* \"#utility.yul\":15855:15929   */\n      swap2\n      pop\n        /* \"#utility.yul\":15938:16031   */\n      tag_428\n        /* \"#utility.yul\":16027:16030   */\n      dup3\n        /* \"#utility.yul\":15938:16031   */\n      tag_302\n      jump\t// in\n    tag_428:\n        /* \"#utility.yul\":16056:16058   */\n      0x20\n        /* \"#utility.yul\":16051:16054   */\n      dup3\n        /* \"#utility.yul\":16047:16059   */\n      add\n        /* \"#utility.yul\":16040:16059   */\n      swap1\n      pop\n        /* \"#utility.yul\":15699:16065   */\n      swap2\n      swap1\n      pop\n      jump\t// out\n        /* \"#utility.yul\":16071:16490   */\n    tag_224:\n        /* \"#utility.yul\":16237:16241   */\n      0x00\n        /* \"#utility.yul\":16275:16277   */\n      0x20\n        /* \"#utility.yul\":16264:16273   */\n      dup3\n        /* \"#utility.yul\":16260:16278   */\n      add\n        /* \"#utility.yul\":16252:16278   */\n      swap1\n      pop\n        /* \"#utility.yul\":16324:16333   */\n      dup2\n        /* \"#utility.yul\":16318:16322   */\n      dup2\n        /* \"#utility.yul\":16314:16334   */\n      sub\n        /* \"#utility.yul\":16310:16311   */\n      0x00\n        /* \"#utility.yul\":16299:16308   */\n      dup4\n        /* \"#utility.yul\":16295:16312   */\n      add\n        /* \"#utility.yul\":16288:16335   */\n      mstore\n        /* \"#utility.yul\":16352:16483   */\n      tag_430\n        /* \"#utility.yul\":16478:16482   */\n      dup2\n        /* \"#utility.yul\":16352:16483   */\n      tag_303\n      jump\t// in\n    tag_430:\n        /* \"#utility.yul\":16344:16483   */\n      swap1\n      pop\n        /* \"#utility.yul\":16071:16490   */\n      swap2\n      swap1\n      pop\n      jump\t// out\n        /* \"#utility.yul\":16496:16662   */\n    tag_304:\n        /* \"#utility.yul\":16636:16654   */\n      0x5061757361626c653a2070617573656400000000000000000000000000000000\n        /* \"#utility.yul\":16632:16633   */\n      0x00\n        /* \"#utility.yul\":16624:16630   */\n      dup3\n        /* \"#utility.yul\":16620:16634   */\n      add\n        /* \"#utility.yul\":16613:16655   */\n      mstore\n        /* \"#utility.yul\":16496:16662   */\n      pop\n      jump\t// out\n        /* \"#utility.yul\":16668:17034   */\n    tag_305:\n        /* \"#utility.yul\":16810:16813   */\n      0x00\n        /* \"#utility.yul\":16831:16898   */\n      tag_433\n        /* \"#utility.yul\":16895:16897   */\n      0x10\n        /* \"#utility.yul\":16890:16893   */\n      dup4\n        /* \"#utility.yul\":16831:16898   */\n      tag_262\n      jump\t// in\n    tag_433:\n        /* \"#utility.yul\":16824:16898   */\n      swap2\n      pop\n        /* \"#utility.yul\":16907:17000   */\n      tag_434\n        /* \"#utility.yul\":16996:16999   */\n      dup3\n        /* \"#utility.yul\":16907:17000   */\n      tag_304\n      jump\t// in\n    tag_434:\n        /* \"#utility.yul\":17025:17027   */\n      0x20\n        /* \"#utility.yul\":17020:17023   */\n      dup3\n        /* \"#utility.yul\":17016:17028   */\n      add\n        /* \"#utility.yul\":17009:17028   */\n      swap1\n      pop\n        /* \"#utility.yul\":16668:17034   */\n      swap2\n      swap1\n      pop\n      jump\t// out\n        /* \"#utility.yul\":17040:17459   */\n    tag_229:\n        /* \"#utility.yul\":17206:17210   */\n      0x00\n        /* \"#utility.yul\":17244:17246   */\n      0x20\n        /* \"#utility.yul\":17233:17242   */\n      dup3\n        /* \"#utility.yul\":17229:17247   */\n      add\n        /* \"#utility.yul\":17221:17247   */\n      swap1\n      pop\n        /* \"#utility.yul\":17293:17302   */\n      dup2\n        /* \"#utility.yul\":17287:17291   */\n      dup2\n        /* \"#utility.yul\":17283:17303   */\n      sub\n        /* \"#utility.yul\":17279:17280   */\n      0x00\n        /* \"#utility.yul\":17268:17277   */\n      dup4\n        /* \"#utility.yul\":17264:17281   */\n      add\n        /* \"#utility.yul\":17257:17304   */\n      mstore\n        /* \"#utility.yul\":17321:17452   */\n      tag_436\n        /* \"#utility.yul\":17447:17451   */\n      dup2\n        /* \"#utility.yul\":17321:17452   */\n      tag_305\n      jump\t// in\n    tag_436:\n        /* \"#utility.yul\":17313:17452   */\n      swap1\n      pop\n        /* \"#utility.yul\":17040:17459   */\n      swap2\n      swap1\n      pop\n      jump\t// out\n        /* \"#utility.yul\":17465:17645   */\n    tag_306:\n        /* \"#utility.yul\":17513:17590   */\n      0x4e487b7100000000000000000000000000000000000000000000000000000000\n        /* \"#utility.yul\":17510:17511   */\n      0x00\n        /* \"#utility.yul\":17503:17591   */\n      mstore\n        /* \"#utility.yul\":17610:17614   */\n      0x11\n        /* \"#utility.yul\":17607:17608   */\n      0x04\n        /* \"#utility.yul\":17600:17615   */\n      mstore\n        /* \"#utility.yul\":17634:17638   */\n      0x24\n        /* \"#utility.yul\":17631:17632   */\n      0x00\n        /* \"#utility.yul\":17624:17639   */\n      revert\n        /* \"#utility.yul\":17651:17842   */\n    tag_232:\n        /* \"#utility.yul\":17691:17694   */\n      0x00\n        /* \"#utility.yul\":17710:17730   */\n      tag_439\n        /* \"#utility.yul\":17728:17729   */\n      dup3\n        /* \"#utility.yul\":17710:17730   */\n      tag_265\n      jump\t// in\n    tag_439:\n        /* \"#utility.yul\":17705:17730   */\n      swap2\n      pop\n        /* \"#utility.yul\":17744:17764   */\n      tag_440\n        /* \"#utility.yul\":17762:17763   */\n      dup4\n        /* \"#utility.yul\":17744:17764   */\n      tag_265\n      jump\t// in\n    tag_440:\n        /* \"#utility.yul\":17739:17764   */\n      swap3\n      pop\n        /* \"#utility.yul\":17787:17788   */\n      dup3\n        /* \"#utility.yul\":17784:17785   */\n      dup3\n        /* \"#utility.yul\":17780:17789   */\n      add\n        /* \"#utility.yul\":17773:17789   */\n      swap1\n      pop\n        /* \"#utility.yul\":17808:17811   */\n      dup1\n        /* \"#utility.yul\":17805:17806   */\n      dup3\n        /* \"#utility.yul\":17802:17812   */\n      gt\n        /* \"#utility.yul\":17799:17835   */\n      iszero\n      tag_441\n      jumpi\n        /* \"#utility.yul\":17815:17833   */\n      tag_442\n      tag_306\n      jump\t// in\n    tag_442:\n        /* \"#utility.yul\":17799:17835   */\n    tag_441:\n        /* \"#utility.yul\":17651:17842   */\n      swap3\n      swap2\n      pop\n      pop\n      jump\t// out\n        /* \"#utility.yul\":17848:18042   */\n    tag_236:\n        /* \"#utility.yul\":17888:17892   */\n      0x00\n        /* \"#utility.yul\":17908:17928   */\n      tag_444\n        /* \"#utility.yul\":17926:17927   */\n      dup3\n        /* \"#utility.yul\":17908:17928   */\n      tag_265\n      jump\t// in\n    tag_444:\n        /* \"#utility.yul\":17903:17928   */\n      swap2\n      pop\n        /* \"#utility.yul\":17942:17962   */\n      tag_445\n        /* \"#utility.yul\":17960:17961   */\n      dup4\n        /* \"#utility.yul\":17942:17962   */\n      tag_265\n      jump\t// in\n    tag_445:\n        /* \"#utility.yul\":17937:17962   */\n      swap3\n      pop\n        /* \"#utility.yul\":17986:17987   */\n      dup3\n        /* \"#utility.yul\":17983:17984   */\n      dup3\n        /* \"#utility.yul\":17979:17988   */\n      sub\n        /* \"#utility.yul\":17971:17988   */\n      swap1\n      pop\n        /* \"#utility.yul\":18010:18011   */\n      dup2\n        /* \"#utility.yul\":18004:18008   */\n      dup2\n        /* \"#utility.yul\":18001:18012   */\n      gt\n        /* \"#utility.yul\":17998:18035   */\n      iszero\n      tag_446\n      jumpi\n        /* \"#utility.yul\":18015:18033   */\n      tag_447\n      tag_306\n      jump\t// in\n    tag_447:\n        /* \"#utility.yul\":17998:18035   */\n    tag_446:\n        /* \"#utility.yul\":17848:18042   */\n      swap3\n      swap2\n      pop\n      pop\n      jump\t// out\n        /* \"#utility.yul\":18048:18218   */\n    tag_307:\n        /* \"#utility.yul\":18188:18210   */\n      0x5061757361626c653a206e6f7420706175736564000000000000000000000000\n        /* \"#utility.yul\":18184:18185   */\n      0x00\n        /* \"#utility.yul\":18176:18182   */\n      dup3\n        /* \"#utility.yul\":18172:18186   */\n      add\n        /* \"#utility.yul\":18165:18211   */\n      mstore\n        /* \"#utility.yul\":18048:18218   */\n      pop\n      jump\t// out\n        /* \"#utility.yul\":18224:18590   */\n    tag_308:\n        /* \"#utility.yul\":18366:18369   */\n      0x00\n        /* \"#utility.yul\":18387:18454   */\n      tag_450\n        /* \"#utility.yul\":18451:18453   */\n      0x14\n        /* \"#utility.yul\":18446:18449   */\n      dup4\n        /* \"#utility.yul\":18387:18454   */\n      tag_262\n      jump\t// in\n    tag_450:\n        /* \"#utility.yul\":18380:18454   */\n      swap2\n      pop\n        /* \"#utility.yul\":18463:18556   */\n      tag_451\n        /* \"#utility.yul\":18552:18555   */\n      dup3\n        /* \"#utility.yul\":18463:18556   */\n      tag_307\n      jump\t// in\n    tag_451:\n        /* \"#utility.yul\":18581:18583   */\n      0x20\n        /* \"#utility.yul\":18576:18579   */\n      dup3\n        /* \"#utility.yul\":18572:18584   */\n      add\n        /* \"#utility.yul\":18565:18584   */\n      swap1\n      pop\n        /* \"#utility.yul\":18224:18590   */\n      swap2\n      swap1\n      pop\n      jump\t// out\n        /* \"#utility.yul\":18596:19015   */\n    tag_261:\n        /* \"#utility.yul\":18762:18766   */\n      0x00\n        /* \"#utility.yul\":18800:18802   */\n      0x20\n        /* \"#utility.yul\":18789:18798   */\n      dup3\n        /* \"#utility.yul\":18785:18803   */\n      add\n        /* \"#utility.yul\":18777:18803   */\n      swap1\n      pop\n        /* \"#utility.yul\":18849:18858   */\n      dup2\n        /* \"#utility.yul\":18843:18847   */\n      dup2\n        /* \"#utility.yul\":18839:18859   */\n      sub\n        /* \"#utility.yul\":18835:18836   */\n      0x00\n        /* \"#utility.yul\":18824:18833   */\n      dup4\n        /* \"#utility.yul\":18820:18837   */\n      add\n        /* \"#utility.yul\":18813:18860   */\n      mstore\n        /* \"#utility.yul\":18877:19008   */\n      tag_453\n        /* \"#utility.yul\":19003:19007   */\n      dup2\n        /* \"#utility.yul\":18877:19008   */\n      tag_308\n      jump\t// in\n    tag_453:\n        /* \"#utility.yul\":18869:19008   */\n      swap1\n      pop\n        /* \"#utility.yul\":18596:19015   */\n      swap2\n      swap1\n      pop\n      jump\t// out\n\n    auxdata: 0xa2646970667358221220266e7a8cef0ecb3b70e215bc696b07db0812f87327f5c2d068425541cf39bd7e64736f6c634300081a0033\n}\n",
				"bytecode": {
					"linkReferences": {},
					"object": "608060405234801561000f575f80fd5b50604051611ed1380380611ed1833981810160405281019061003191906102d0565b8060015f819055505f73ffffffffffffffffffffffffffffffffffffffff168173ffffffffffffffffffffffffffffffffffffffff16036100a9575f6040517f1e4fbdf70000000000000000000000000000000000000000000000000000000081526004016100a0919061030a565b60405180910390fd5b6100b8816101af60201b60201c565b505f600160146101000a81548160ff0219169083151502179055505f73ffffffffffffffffffffffffffffffffffffffff168173ffffffffffffffffffffffffffffffffffffffff1603610141576040517f08c379a00000000000000000000000000000000000000000000000000000000081526004016101389061037d565b60405180910390fd5b8060025f6101000a81548173ffffffffffffffffffffffffffffffffffffffff021916908373ffffffffffffffffffffffffffffffffffffffff16021790555066b1a2bc2ec5000060058190555068056bc75e2d63100000600681905550620151806007819055505061039b565b5f60015f9054906101000a900473ffffffffffffffffffffffffffffffffffffffff1690508160015f6101000a81548173ffffffffffffffffffffffffffffffffffffffff021916908373ffffffffffffffffffffffffffffffffffffffff1602179055508173ffffffffffffffffffffffffffffffffffffffff168173ffffffffffffffffffffffffffffffffffffffff167f8be0079c531659141344cd1fd0a4f28419497f9722a3daafe3b4186f6b6457e060405160405180910390a35050565b5f80fd5b5f73ffffffffffffffffffffffffffffffffffffffff82169050919050565b5f61029f82610276565b9050919050565b6102af81610295565b81146102b9575f80fd5b50565b5f815190506102ca816102a6565b92915050565b5f602082840312156102e5576102e4610272565b5b5f6102f2848285016102bc565b91505092915050565b61030481610295565b82525050565b5f60208201905061031d5f8301846102fb565b92915050565b5f82825260208201905092915050565b7f496e76616c6964207374616b696e672077616c6c6574206164647265737300005f82015250565b5f610367601e83610323565b915061037282610333565b602082019050919050565b5f6020820190508181035f8301526103948161035b565b9050919050565b611b29806103a85f395ff3fe608060405260043610610122575f3560e01c80637a7664601161009f578063a694fc3a11610063578063a694fc3a146103e2578063dcc2a55e146103fe578063eb4af04514610426578063f18876841461044e578063f2fde38b1461047857610174565b80637a7664601461031457806380ea3de114610350578063817b1cd2146103785780638456cb59146103a25780638da5cb5b146103b857610174565b80633f4ba83a116100e65780633f4ba83a146102585780634de5120e1461026e5780635c975abb146102aa5780635d80ca32146102d4578063715018a6146102fe57610174565b806304646a491461017857806306ee6ad8146101a257806316934fc4146101cc5780632e1a7d4d14610208578063384c05bd1461023057610174565b36610174575f3411610169576040517f08c379a000000000000000000000000000000000000000000000000000000000815260040161016090611290565b60405180910390fd5b610172346104a0565b005b5f80fd5b348015610183575f80fd5b5061018c61079d565b60405161019991906112c6565b60405180910390f35b3480156101ad575f80fd5b506101b66107a3565b6040516101c3919061131e565b60405180910390f35b3480156101d7575f80fd5b506101f260048036038101906101ed9190611365565b6107c8565b6040516101ff91906112c6565b60405180910390f35b348015610213575f80fd5b5061022e600480360381019061022991906113ba565b6107dd565b005b34801561023b575f80fd5b5061025660048036038101906102519190611365565b610af1565b005b348015610263575f80fd5b5061026c610c2a565b005b348015610279575f80fd5b50610294600480360381019061028f9190611365565b610c3c565b6040516102a191906112c6565b60405180910390f35b3480156102b5575f80fd5b506102be610c51565b6040516102cb91906113ff565b60405180910390f35b3480156102df575f80fd5b506102e8610c67565b6040516102f591906112c6565b60405180910390f35b348015610309575f80fd5b50610312610c6d565b005b34801561031f575f80fd5b5061033a60048036038101906103359190611365565b610c80565b60405161034791906112c6565b60405180910390f35b34801561035b575f80fd5b50610376600480360381019061037191906113ba565b610cc6565b005b348015610383575f80fd5b5061038c610d18565b60405161039991906112c6565b60405180910390f35b3480156103ad575f80fd5b506103b6610d1e565b005b3480156103c3575f80fd5b506103cc610d30565b6040516103d9919061131e565b60405180910390f35b6103fc60048036038101906103f791906113ba565b6104a0565b005b348015610409575f80fd5b50610424600480360381019061041f91906113ba565b610d58565b005b348015610431575f80fd5b5061044c600480360381019061044791906113ba565b610dee565b005b348015610459575f80fd5b50610462610e84565b60405161046f91906112c6565b60405180910390f35b348015610483575f80fd5b5061049e60048036038101906104999190611365565b610e8a565b005b6104a8610f0e565b6104b0610f5b565b6005548110156104f5576040517f08c379a00000000000000000000000000000000000000000000000000000000081526004016104ec90611462565b60405180910390fd5b60065481111561053a576040517f08c379a0000000000000000000000000000000000000000000000000000000008152600401610531906114ca565b60405180910390fd5b60065461058d8260035f3373ffffffffffffffffffffffffffffffffffffffff1673ffffffffffffffffffffffffffffffffffffffff1681526020019081526020015f2054610fa590919063ffffffff16565b11156105ce576040517f08c379a00000000000000000000000000000000000000000000000000000000081526004016105c590611532565b60405180910390fd5b61061e8160035f3373ffffffffffffffffffffffffffffffffffffffff1673ffffffffffffffffffffffffffffffffffffffff1681526020019081526020015f2054610fa590919063ffffffff16565b60035f3373ffffffffffffffffffffffffffffffffffffffff1673ffffffffffffffffffffffffffffffffffffffff1681526020019081526020015f208190555061067481600454610fa590919063ffffffff16565b6004819055505f60025f9054906101000a900473ffffffffffffffffffffffffffffffffffffffff1673ffffffffffffffffffffffffffffffffffffffff16826040516106c09061157d565b5f6040518083038185875af1925050503d805f81146106fa576040519150601f19603f3d011682016040523d82523d5f602084013e6106ff565b606091505b5050905080610743576040517f08c379a000000000000000000000000000000000000000000000000000000000815260040161073a90611601565b60405180910390fd5b3373ffffffffffffffffffffffffffffffffffffffff167f9e71bc8eea02a63969f509818f2dafb9254532904319f9dbda79b67bd34a5f3d8360405161078991906112c6565b60405180910390a25061079a610fba565b50565b60075481565b60025f9054906101000a900473ffffffffffffffffffffffffffffffffffffffff1681565b6003602052805f5260405f205f915090505481565b6107e5610f0e565b6107ed610f5b565b8060035f3373ffffffffffffffffffffffffffffffffffffffff1673ffffffffffffffffffffffffffffffffffffffff1681526020019081526020015f2054101561086d576040517f08c379a000000000000000000000000000000000000000000000000000000000815260040161086490611669565b60405180910390fd5b6108bf60075460085f3373ffffffffffffffffffffffffffffffffffffffff1673ffffffffffffffffffffffffffffffffffffffff1681526020019081526020015f2054610fa590919063ffffffff16565b421015610901576040517f08c379a00000000000000000000000000000000000000000000000000000000081526004016108f8906116d1565b60405180910390fd5b6109518160035f3373ffffffffffffffffffffffffffffffffffffffff1673ffffffffffffffffffffffffffffffffffffffff1681526020019081526020015f2054610fc390919063ffffffff16565b60035f3373ffffffffffffffffffffffffffffffffffffffff1673ffffffffffffffffffffffffffffffffffffffff1681526020019081526020015f20819055506109a781600454610fc390919063ffffffff16565b6004819055504260085f3373ffffffffffffffffffffffffffffffffffffffff1673ffffffffffffffffffffffffffffffffffffffff1681526020019081526020015f20819055505f3373ffffffffffffffffffffffffffffffffffffffff1682604051610a149061157d565b5f6040518083038185875af1925050503d805f8114610a4e576040519150601f19603f3d011682016040523d82523d5f602084013e610a53565b606091505b5050905080610a97576040517f08c379a0000000000000000000000000000000000000000000000000000000008152600401610a8e90611739565b60405180910390fd5b3373ffffffffffffffffffffffffffffffffffffffff167f7084f5476618d8e60b11ef0d7d3f06914655adb8793e28ff7f018d4c76d505d583604051610add91906112c6565b60405180910390a250610aee610fba565b50565b610af9610fd8565b5f73ffffffffffffffffffffffffffffffffffffffff168173ffffffffffffffffffffffffffffffffffffffff1603610b67576040517f08c379a0000000000000000000000000000000000000000000000000000000008152600401610b5e906117c7565b60405180910390fd5b5f60025f9054906101000a900473ffffffffffffffffffffffffffffffffffffffff1690508160025f6101000a81548173ffffffffffffffffffffffffffffffffffffffff021916908373ffffffffffffffffffffffffffffffffffffffff1602179055508173ffffffffffffffffffffffffffffffffffffffff168173ffffffffffffffffffffffffffffffffffffffff167f6013c0fe4c1fb06ee755812e80639fcbd51c4dcfc2b46fbe17ce2beecbacbe8460405160405180910390a35050565b610c32610fd8565b610c3a61105f565b565b6008602052805f5260405f205f915090505481565b5f600160149054906101000a900460ff16905090565b60065481565b610c75610fd8565b610c7e5f6110c1565b565b5f60035f8373ffffffffffffffffffffffffffffffffffffffff1673ffffffffffffffffffffffffffffffffffffffff1681526020019081526020015f20549050919050565b610cce610fd8565b5f6007549050816007819055507f67a4233d292ab33774a65917ca809b4ab92953e039a7c1f71656afbbc1bc60c98183604051610d0c9291906117e5565b60405180910390a15050565b60045481565b610d26610fd8565b610d2e611184565b565b5f60015f9054906101000a900473ffffffffffffffffffffffffffffffffffffffff16905090565b610d60610fd8565b6005548111610da4576040517f08c379a0000000000000000000000000000000000000000000000000000000008152600401610d9b9061187c565b60405180910390fd5b5f6006549050816006819055507f7af071d76489ff69e32618f091b5d6de46af889de44f621a936e8c9615c463a98183604051610de29291906117e5565b60405180910390a15050565b610df6610fd8565b6006548110610e3a576040517f08c379a0000000000000000000000000000000000000000000000000000000008152600401610e319061190a565b60405180910390fd5b5f6005549050816005819055507f3b8dcd7d08f8aa9e93d2afc54830c8b23db9b7264f3bc503eb5fc2a0289bc2cb8183604051610e789291906117e5565b60405180910390a15050565b60055481565b610e92610fd8565b5f73ffffffffffffffffffffffffffffffffffffffff168173ffffffffffffffffffffffffffffffffffffffff1603610f02575f6040517f1e4fbdf7000000000000000000000000000000000000000000000000000000008152600401610ef9919061131e565b60405180910390fd5b610f0b816110c1565b50565b60025f5403610f52576040517f08c379a0000000000000000000000000000000000000000000000000000000008152600401610f4990611972565b60405180910390fd5b60025f81905550565b610f63610c51565b15610fa3576040517f08c379a0000000000000000000000000000000000000000000000000000000008152600401610f9a906119da565b60405180910390fd5b565b5f8183610fb29190611a25565b905092915050565b60015f81905550565b5f8183610fd09190611a58565b905092915050565b610fe06111e6565b73ffffffffffffffffffffffffffffffffffffffff16610ffe610d30565b73ffffffffffffffffffffffffffffffffffffffff161461105d576110216111e6565b6040517f118cdaa7000000000000000000000000000000000000000000000000000000008152600401611054919061131e565b60405180910390fd5b565b6110676111ed565b5f600160146101000a81548160ff0219169083151502179055507f5db9ee0a495bf2e6ff9c91a7834c1ba4fdd244a5e8aa4e537bd38aeae4b073aa6110aa6111e6565b6040516110b7919061131e565b60405180910390a1565b5f60015f9054906101000a900473ffffffffffffffffffffffffffffffffffffffff1690508160015f6101000a81548173ffffffffffffffffffffffffffffffffffffffff021916908373ffffffffffffffffffffffffffffffffffffffff1602179055508173ffffffffffffffffffffffffffffffffffffffff168173ffffffffffffffffffffffffffffffffffffffff167f8be0079c531659141344cd1fd0a4f28419497f9722a3daafe3b4186f6b6457e060405160405180910390a35050565b61118c610f5b565b60018060146101000a81548160ff0219169083151502179055507f62e78cea01bee320cd4e420270b5ea74000d11b0c9f74754ebdbfc544b05a2586111cf6111e6565b6040516111dc919061131e565b60405180910390a1565b5f33905090565b6111f5610c51565b611234576040517f08c379a000000000000000000000000000000000000000000000000000000000815260040161122b90611ad5565b60405180910390fd5b565b5f82825260208201905092915050565b7f4d7573742073656e6420457468657220746f207374616b6500000000000000005f82015250565b5f61127a601883611236565b915061128582611246565b602082019050919050565b5f6020820190508181035f8301526112a78161126e565b9050919050565b5f819050919050565b6112c0816112ae565b82525050565b5f6020820190506112d95f8301846112b7565b92915050565b5f73ffffffffffffffffffffffffffffffffffffffff82169050919050565b5f611308826112df565b9050919050565b611318816112fe565b82525050565b5f6020820190506113315f83018461130f565b92915050565b5f80fd5b611344816112fe565b811461134e575f80fd5b50565b5f8135905061135f8161133b565b92915050565b5f6020828403121561137a57611379611337565b5b5f61138784828501611351565b91505092915050565b611399816112ae565b81146113a3575f80fd5b50565b5f813590506113b481611390565b92915050565b5f602082840312156113cf576113ce611337565b5b5f6113dc848285016113a6565b91505092915050565b5f8115159050919050565b6113f9816113e5565b82525050565b5f6020820190506114125f8301846113f0565b92915050565b7f5374616b6520616d6f756e7420746f6f206c6f770000000000000000000000005f82015250565b5f61144c601483611236565b915061145782611418565b602082019050919050565b5f6020820190508181035f83015261147981611440565b9050919050565b7f5374616b6520616d6f756e7420746f6f206869676800000000000000000000005f82015250565b5f6114b4601583611236565b91506114bf82611480565b602082019050919050565b5f6020820190508181035f8301526114e1816114a8565b9050919050565b7f546f74616c207374616b652065786365656473206d6178696d756d00000000005f82015250565b5f61151c601b83611236565b9150611527826114e8565b602082019050919050565b5f6020820190508181035f83015261154981611510565b9050919050565b5f81905092915050565b50565b5f6115685f83611550565b91506115738261155a565b5f82019050919050565b5f6115878261155d565b9150819050919050565b7f4661696c656420746f207472616e73666572207374616b6520746f207374616b5f8201527f696e672077616c6c657400000000000000000000000000000000000000000000602082015250565b5f6115eb602a83611236565b91506115f682611591565b604082019050919050565b5f6020820190508181035f830152611618816115df565b9050919050565b7f496e73756666696369656e74207374616b6500000000000000000000000000005f82015250565b5f611653601283611236565b915061165e8261161f565b602082019050919050565b5f6020820190508181035f83015261168081611647565b9050919050565b7f436f6f6c646f776e20706572696f64206e6f74206d65740000000000000000005f82015250565b5f6116bb601783611236565b91506116c682611687565b602082019050919050565b5f6020820190508181035f8301526116e8816116af565b9050919050565b7f4661696c656420746f2073656e6420424e4200000000000000000000000000005f82015250565b5f611723601283611236565b915061172e826116ef565b602082019050919050565b5f6020820190508181035f83015261175081611717565b9050919050565b7f496e76616c6964206e6577207374616b696e672077616c6c65742061646472655f8201527f7373000000000000000000000000000000000000000000000000000000000000602082015250565b5f6117b1602283611236565b91506117bc82611757565b604082019050919050565b5f6020820190508181035f8301526117de816117a5565b9050919050565b5f6040820190506117f85f8301856112b7565b61180560208301846112b7565b9392505050565b7f4d617820616d6f756e74206d7573742062652067726561746572207468616e205f8201527f6d696e20616d6f756e7400000000000000000000000000000000000000000000602082015250565b5f611866602a83611236565b91506118718261180c565b604082019050919050565b5f6020820190508181035f8301526118938161185a565b9050919050565b7f4d696e20616d6f756e74206d757374206265206c657373207468616e206d61785f8201527f20616d6f756e7400000000000000000000000000000000000000000000000000602082015250565b5f6118f4602783611236565b91506118ff8261189a565b604082019050919050565b5f6020820190508181035f830152611921816118e8565b9050919050565b7f5265656e7472616e637947756172643a207265656e7472616e742063616c6c005f82015250565b5f61195c601f83611236565b915061196782611928565b602082019050919050565b5f6020820190508181035f83015261198981611950565b9050919050565b7f5061757361626c653a20706175736564000000000000000000000000000000005f82015250565b5f6119c4601083611236565b91506119cf82611990565b602082019050919050565b5f6020820190508181035f8301526119f1816119b8565b9050919050565b7f4e487b71000000000000000000000000000000000000000000000000000000005f52601160045260245ffd5b5f611a2f826112ae565b9150611a3a836112ae565b9250828201905080821115611a5257611a516119f8565b5b92915050565b5f611a62826112ae565b9150611a6d836112ae565b9250828203905081811115611a8557611a846119f8565b5b92915050565b7f5061757361626c653a206e6f74207061757365640000000000000000000000005f82015250565b5f611abf601483611236565b9150611aca82611a8b565b602082019050919050565b5f6020820190508181035f830152611aec81611ab3565b905091905056fea2646970667358221220266e7a8cef0ecb3b70e215bc696b07db0812f87327f5c2d068425541cf39bd7e64736f6c634300081a0033",
					"opcodes": "PUSH1 0x80 PUSH1 0x40 MSTORE CALLVALUE DUP1 ISZERO PUSH2 0xF JUMPI PUSH0 DUP1 REVERT JUMPDEST POP PUSH1 0x40 MLOAD PUSH2 0x1ED1 CODESIZE SUB DUP1 PUSH2 0x1ED1 DUP4 CODECOPY DUP2 DUP2 ADD PUSH1 0x40 MSTORE DUP2 ADD SWAP1 PUSH2 0x31 SWAP2 SWAP1 PUSH2 0x2D0 JUMP JUMPDEST DUP1 PUSH1 0x1 PUSH0 DUP2 SWAP1 SSTORE POP PUSH0 PUSH20 0xFFFFFFFFFFFFFFFFFFFFFFFFFFFFFFFFFFFFFFFF AND DUP2 PUSH20 0xFFFFFFFFFFFFFFFFFFFFFFFFFFFFFFFFFFFFFFFF AND SUB PUSH2 0xA9 JUMPI PUSH0 PUSH1 0x40 MLOAD PUSH32 0x1E4FBDF700000000000000000000000000000000000000000000000000000000 DUP2 MSTORE PUSH1 0x4 ADD PUSH2 0xA0 SWAP2 SWAP1 PUSH2 0x30A JUMP JUMPDEST PUSH1 0x40 MLOAD DUP1 SWAP2 SUB SWAP1 REVERT JUMPDEST PUSH2 0xB8 DUP2 PUSH2 0x1AF PUSH1 0x20 SHL PUSH1 0x20 SHR JUMP JUMPDEST POP PUSH0 PUSH1 0x1 PUSH1 0x14 PUSH2 0x100 EXP DUP2 SLOAD DUP2 PUSH1 0xFF MUL NOT AND SWAP1 DUP4 ISZERO ISZERO MUL OR SWAP1 SSTORE POP PUSH0 PUSH20 0xFFFFFFFFFFFFFFFFFFFFFFFFFFFFFFFFFFFFFFFF AND DUP2 PUSH20 0xFFFFFFFFFFFFFFFFFFFFFFFFFFFFFFFFFFFFFFFF AND SUB PUSH2 0x141 JUMPI PUSH1 0x40 MLOAD PUSH32 0x8C379A000000000000000000000000000000000000000000000000000000000 DUP2 MSTORE PUSH1 0x4 ADD PUSH2 0x138 SWAP1 PUSH2 0x37D JUMP JUMPDEST PUSH1 0x40 MLOAD DUP1 SWAP2 SUB SWAP1 REVERT JUMPDEST DUP1 PUSH1 0x2 PUSH0 PUSH2 0x100 EXP DUP2 SLOAD DUP2 PUSH20 0xFFFFFFFFFFFFFFFFFFFFFFFFFFFFFFFFFFFFFFFF MUL NOT AND SWAP1 DUP4 PUSH20 0xFFFFFFFFFFFFFFFFFFFFFFFFFFFFFFFFFFFFFFFF AND MUL OR SWAP1 SSTORE POP PUSH7 0xB1A2BC2EC50000 PUSH1 0x5 DUP2 SWAP1 SSTORE POP PUSH9 0x56BC75E2D63100000 PUSH1 0x6 DUP2 SWAP1 SSTORE POP PUSH3 0x15180 PUSH1 0x7 DUP2 SWAP1 SSTORE POP POP PUSH2 0x39B JUMP JUMPDEST PUSH0 PUSH1 0x1 PUSH0 SWAP1 SLOAD SWAP1 PUSH2 0x100 EXP SWAP1 DIV PUSH20 0xFFFFFFFFFFFFFFFFFFFFFFFFFFFFFFFFFFFFFFFF AND SWAP1 POP DUP2 PUSH1 0x1 PUSH0 PUSH2 0x100 EXP DUP2 SLOAD DUP2 PUSH20 0xFFFFFFFFFFFFFFFFFFFFFFFFFFFFFFFFFFFFFFFF MUL NOT AND SWAP1 DUP4 PUSH20 0xFFFFFFFFFFFFFFFFFFFFFFFFFFFFFFFFFFFFFFFF AND MUL OR SWAP1 SSTORE POP DUP2 PUSH20 0xFFFFFFFFFFFFFFFFFFFFFFFFFFFFFFFFFFFFFFFF AND DUP2 PUSH20 0xFFFFFFFFFFFFFFFFFFFFFFFFFFFFFFFFFFFFFFFF AND PUSH32 0x8BE0079C531659141344CD1FD0A4F28419497F9722A3DAAFE3B4186F6B6457E0 PUSH1 0x40 MLOAD PUSH1 0x40 MLOAD DUP1 SWAP2 SUB SWAP1 LOG3 POP POP JUMP JUMPDEST PUSH0 DUP1 REVERT JUMPDEST PUSH0 PUSH20 0xFFFFFFFFFFFFFFFFFFFFFFFFFFFFFFFFFFFFFFFF DUP3 AND SWAP1 POP SWAP2 SWAP1 POP JUMP JUMPDEST PUSH0 PUSH2 0x29F DUP3 PUSH2 0x276 JUMP JUMPDEST SWAP1 POP SWAP2 SWAP1 POP JUMP JUMPDEST PUSH2 0x2AF DUP2 PUSH2 0x295 JUMP JUMPDEST DUP2 EQ PUSH2 0x2B9 JUMPI PUSH0 DUP1 REVERT JUMPDEST POP JUMP JUMPDEST PUSH0 DUP2 MLOAD SWAP1 POP PUSH2 0x2CA DUP2 PUSH2 0x2A6 JUMP JUMPDEST SWAP3 SWAP2 POP POP JUMP JUMPDEST PUSH0 PUSH1 0x20 DUP3 DUP5 SUB SLT ISZERO PUSH2 0x2E5 JUMPI PUSH2 0x2E4 PUSH2 0x272 JUMP JUMPDEST JUMPDEST PUSH0 PUSH2 0x2F2 DUP5 DUP3 DUP6 ADD PUSH2 0x2BC JUMP JUMPDEST SWAP2 POP POP SWAP3 SWAP2 POP POP JUMP JUMPDEST PUSH2 0x304 DUP2 PUSH2 0x295 JUMP JUMPDEST DUP3 MSTORE POP POP JUMP JUMPDEST PUSH0 PUSH1 0x20 DUP3 ADD SWAP1 POP PUSH2 0x31D PUSH0 DUP4 ADD DUP5 PUSH2 0x2FB JUMP JUMPDEST SWAP3 SWAP2 POP POP JUMP JUMPDEST PUSH0 DUP3 DUP3 MSTORE PUSH1 0x20 DUP3 ADD SWAP1 POP SWAP3 SWAP2 POP POP JUMP JUMPDEST PUSH32 0x496E76616C6964207374616B696E672077616C6C657420616464726573730000 PUSH0 DUP3 ADD MSTORE POP JUMP JUMPDEST PUSH0 PUSH2 0x367 PUSH1 0x1E DUP4 PUSH2 0x323 JUMP JUMPDEST SWAP2 POP PUSH2 0x372 DUP3 PUSH2 0x333 JUMP JUMPDEST PUSH1 0x20 DUP3 ADD SWAP1 POP SWAP2 SWAP1 POP JUMP JUMPDEST PUSH0 PUSH1 0x20 DUP3 ADD SWAP1 POP DUP2 DUP2 SUB PUSH0 DUP4 ADD MSTORE PUSH2 0x394 DUP2 PUSH2 0x35B JUMP JUMPDEST SWAP1 POP SWAP2 SWAP1 POP JUMP JUMPDEST PUSH2 0x1B29 DUP1 PUSH2 0x3A8 PUSH0 CODECOPY PUSH0 RETURN INVALID PUSH1 0x80 PUSH1 0x40 MSTORE PUSH1 0x4 CALLDATASIZE LT PUSH2 0x122 JUMPI PUSH0 CALLDATALOAD PUSH1 0xE0 SHR DUP1 PUSH4 0x7A766460 GT PUSH2 0x9F JUMPI DUP1 PUSH4 0xA694FC3A GT PUSH2 0x63 JUMPI DUP1 PUSH4 0xA694FC3A EQ PUSH2 0x3E2 JUMPI DUP1 PUSH4 0xDCC2A55E EQ PUSH2 0x3FE JUMPI DUP1 PUSH4 0xEB4AF045 EQ PUSH2 0x426 JUMPI DUP1 PUSH4 0xF1887684 EQ PUSH2 0x44E JUMPI DUP1 PUSH4 0xF2FDE38B EQ PUSH2 0x478 JUMPI PUSH2 0x174 JUMP JUMPDEST DUP1 PUSH4 0x7A766460 EQ PUSH2 0x314 JUMPI DUP1 PUSH4 0x80EA3DE1 EQ PUSH2 0x350 JUMPI DUP1 PUSH4 0x817B1CD2 EQ PUSH2 0x378 JUMPI DUP1 PUSH4 0x8456CB59 EQ PUSH2 0x3A2 JUMPI DUP1 PUSH4 0x8DA5CB5B EQ PUSH2 0x3B8 JUMPI PUSH2 0x174 JUMP JUMPDEST DUP1 PUSH4 0x3F4BA83A GT PUSH2 0xE6 JUMPI DUP1 PUSH4 0x3F4BA83A EQ PUSH2 0x258 JUMPI DUP1 PUSH4 0x4DE5120E EQ PUSH2 0x26E JUMPI DUP1 PUSH4 0x5C975ABB EQ PUSH2 0x2AA JUMPI DUP1 PUSH4 0x5D80CA32 EQ PUSH2 0x2D4 JUMPI DUP1 PUSH4 0x715018A6 EQ PUSH2 0x2FE JUMPI PUSH2 0x174 JUMP JUMPDEST DUP1 PUSH4 0x4646A49 EQ PUSH2 0x178 JUMPI DUP1 PUSH4 0x6EE6AD8 EQ PUSH2 0x1A2 JUMPI DUP1 PUSH4 0x16934FC4 EQ PUSH2 0x1CC JUMPI DUP1 PUSH4 0x2E1A7D4D EQ PUSH2 0x208 JUMPI DUP1 PUSH4 0x384C05BD EQ PUSH2 0x230 JUMPI PUSH2 0x174 JUMP JUMPDEST CALLDATASIZE PUSH2 0x174 JUMPI PUSH0 CALLVALUE GT PUSH2 0x169 JUMPI PUSH1 0x40 MLOAD PUSH32 0x8C379A000000000000000000000000000000000000000000000000000000000 DUP2 MSTORE PUSH1 0x4 ADD PUSH2 0x160 SWAP1 PUSH2 0x1290 JUMP JUMPDEST PUSH1 0x40 MLOAD DUP1 SWAP2 SUB SWAP1 REVERT JUMPDEST PUSH2 0x172 CALLVALUE PUSH2 0x4A0 JUMP JUMPDEST STOP JUMPDEST PUSH0 DUP1 REVERT JUMPDEST CALLVALUE DUP1 ISZERO PUSH2 0x183 JUMPI PUSH0 DUP1 REVERT JUMPDEST POP PUSH2 0x18C PUSH2 0x79D JUMP JUMPDEST PUSH1 0x40 MLOAD PUSH2 0x199 SWAP2 SWAP1 PUSH2 0x12C6 JUMP JUMPDEST PUSH1 0x40 MLOAD DUP1 SWAP2 SUB SWAP1 RETURN JUMPDEST CALLVALUE DUP1 ISZERO PUSH2 0x1AD JUMPI PUSH0 DUP1 REVERT JUMPDEST POP PUSH2 0x1B6 PUSH2 0x7A3 JUMP JUMPDEST PUSH1 0x40 MLOAD PUSH2 0x1C3 SWAP2 SWAP1 PUSH2 0x131E JUMP JUMPDEST PUSH1 0x40 MLOAD DUP1 SWAP2 SUB SWAP1 RETURN JUMPDEST CALLVALUE DUP1 ISZERO PUSH2 0x1D7 JUMPI PUSH0 DUP1 REVERT JUMPDEST POP PUSH2 0x1F2 PUSH1 0x4 DUP1 CALLDATASIZE SUB DUP2 ADD SWAP1 PUSH2 0x1ED SWAP2 SWAP1 PUSH2 0x1365 JUMP JUMPDEST PUSH2 0x7C8 JUMP JUMPDEST PUSH1 0x40 MLOAD PUSH2 0x1FF SWAP2 SWAP1 PUSH2 0x12C6 JUMP JUMPDEST PUSH1 0x40 MLOAD DUP1 SWAP2 SUB SWAP1 RETURN JUMPDEST CALLVALUE DUP1 ISZERO PUSH2 0x213 JUMPI PUSH0 DUP1 REVERT JUMPDEST POP PUSH2 0x22E PUSH1 0x4 DUP1 CALLDATASIZE SUB DUP2 ADD SWAP1 PUSH2 0x229 SWAP2 SWAP1 PUSH2 0x13BA JUMP JUMPDEST PUSH2 0x7DD JUMP JUMPDEST STOP JUMPDEST CALLVALUE DUP1 ISZERO PUSH2 0x23B JUMPI PUSH0 DUP1 REVERT JUMPDEST POP PUSH2 0x256 PUSH1 0x4 DUP1 CALLDATASIZE SUB DUP2 ADD SWAP1 PUSH2 0x251 SWAP2 SWAP1 PUSH2 0x1365 JUMP JUMPDEST PUSH2 0xAF1 JUMP JUMPDEST STOP JUMPDEST CALLVALUE DUP1 ISZERO PUSH2 0x263 JUMPI PUSH0 DUP1 REVERT JUMPDEST POP PUSH2 0x26C PUSH2 0xC2A JUMP JUMPDEST STOP JUMPDEST CALLVALUE DUP1 ISZERO PUSH2 0x279 JUMPI PUSH0 DUP1 REVERT JUMPDEST POP PUSH2 0x294 PUSH1 0x4 DUP1 CALLDATASIZE SUB DUP2 ADD SWAP1 PUSH2 0x28F SWAP2 SWAP1 PUSH2 0x1365 JUMP JUMPDEST PUSH2 0xC3C JUMP JUMPDEST PUSH1 0x40 MLOAD PUSH2 0x2A1 SWAP2 SWAP1 PUSH2 0x12C6 JUMP JUMPDEST PUSH1 0x40 MLOAD DUP1 SWAP2 SUB SWAP1 RETURN JUMPDEST CALLVALUE DUP1 ISZERO PUSH2 0x2B5 JUMPI PUSH0 DUP1 REVERT JUMPDEST POP PUSH2 0x2BE PUSH2 0xC51 JUMP JUMPDEST PUSH1 0x40 MLOAD PUSH2 0x2CB SWAP2 SWAP1 PUSH2 0x13FF JUMP JUMPDEST PUSH1 0x40 MLOAD DUP1 SWAP2 SUB SWAP1 RETURN JUMPDEST CALLVALUE DUP1 ISZERO PUSH2 0x2DF JUMPI PUSH0 DUP1 REVERT JUMPDEST POP PUSH2 0x2E8 PUSH2 0xC67 JUMP JUMPDEST PUSH1 0x40 MLOAD PUSH2 0x2F5 SWAP2 SWAP1 PUSH2 0x12C6 JUMP JUMPDEST PUSH1 0x40 MLOAD DUP1 SWAP2 SUB SWAP1 RETURN JUMPDEST CALLVALUE DUP1 ISZERO PUSH2 0x309 JUMPI PUSH0 DUP1 REVERT JUMPDEST POP PUSH2 0x312 PUSH2 0xC6D JUMP JUMPDEST STOP JUMPDEST CALLVALUE DUP1 ISZERO PUSH2 0x31F JUMPI PUSH0 DUP1 REVERT JUMPDEST POP PUSH2 0x33A PUSH1 0x4 DUP1 CALLDATASIZE SUB DUP2 ADD SWAP1 PUSH2 0x335 SWAP2 SWAP1 PUSH2 0x1365 JUMP JUMPDEST PUSH2 0xC80 JUMP JUMPDEST PUSH1 0x40 MLOAD PUSH2 0x347 SWAP2 SWAP1 PUSH2 0x12C6 JUMP JUMPDEST PUSH1 0x40 MLOAD DUP1 SWAP2 SUB SWAP1 RETURN JUMPDEST CALLVALUE DUP1 ISZERO PUSH2 0x35B JUMPI PUSH0 DUP1 REVERT JUMPDEST POP PUSH2 0x376 PUSH1 0x4 DUP1 CALLDATASIZE SUB DUP2 ADD SWAP1 PUSH2 0x371 SWAP2 SWAP1 PUSH2 0x13BA JUMP JUMPDEST PUSH2 0xCC6 JUMP JUMPDEST STOP JUMPDEST CALLVALUE DUP1 ISZERO PUSH2 0x383 JUMPI PUSH0 DUP1 REVERT JUMPDEST POP PUSH2 0x38C PUSH2 0xD18 JUMP JUMPDEST PUSH1 0x40 MLOAD PUSH2 0x399 SWAP2 SWAP1 PUSH2 0x12C6 JUMP JUMPDEST PUSH1 0x40 MLOAD DUP1 SWAP2 SUB SWAP1 RETURN JUMPDEST CALLVALUE DUP1 ISZERO PUSH2 0x3AD JUMPI PUSH0 DUP1 REVERT JUMPDEST POP PUSH2 0x3B6 PUSH2 0xD1E JUMP JUMPDEST STOP JUMPDEST CALLVALUE DUP1 ISZERO PUSH2 0x3C3 JUMPI PUSH0 DUP1 REVERT JUMPDEST POP PUSH2 0x3CC PUSH2 0xD30 JUMP JUMPDEST PUSH1 0x40 MLOAD PUSH2 0x3D9 SWAP2 SWAP1 PUSH2 0x131E JUMP JUMPDEST PUSH1 0x40 MLOAD DUP1 SWAP2 SUB SWAP1 RETURN JUMPDEST PUSH2 0x3FC PUSH1 0x4 DUP1 CALLDATASIZE SUB DUP2 ADD SWAP1 PUSH2 0x3F7 SWAP2 SWAP1 PUSH2 0x13BA JUMP JUMPDEST PUSH2 0x4A0 JUMP JUMPDEST STOP JUMPDEST CALLVALUE DUP1 ISZERO PUSH2 0x409 JUMPI PUSH0 DUP1 REVERT JUMPDEST POP PUSH2 0x424 PUSH1 0x4 DUP1 CALLDATASIZE SUB DUP2 ADD SWAP1 PUSH2 0x41F SWAP2 SWAP1 PUSH2 0x13BA JUMP JUMPDEST PUSH2 0xD58 JUMP JUMPDEST STOP JUMPDEST CALLVALUE DUP1 ISZERO PUSH2 0x431 JUMPI PUSH0 DUP1 REVERT JUMPDEST POP PUSH2 0x44C PUSH1 0x4 DUP1 CALLDATASIZE SUB DUP2 ADD SWAP1 PUSH2 0x447 SWAP2 SWAP1 PUSH2 0x13BA JUMP JUMPDEST PUSH2 0xDEE JUMP JUMPDEST STOP JUMPDEST CALLVALUE DUP1 ISZERO PUSH2 0x459 JUMPI PUSH0 DUP1 REVERT JUMPDEST POP PUSH2 0x462 PUSH2 0xE84 JUMP JUMPDEST PUSH1 0x40 MLOAD PUSH2 0x46F SWAP2 SWAP1 PUSH2 0x12C6 JUMP JUMPDEST PUSH1 0x40 MLOAD DUP1 SWAP2 SUB SWAP1 RETURN JUMPDEST CALLVALUE DUP1 ISZERO PUSH2 0x483 JUMPI PUSH0 DUP1 REVERT JUMPDEST POP PUSH2 0x49E PUSH1 0x4 DUP1 CALLDATASIZE SUB DUP2 ADD SWAP1 PUSH2 0x499 SWAP2 SWAP1 PUSH2 0x1365 JUMP JUMPDEST PUSH2 0xE8A JUMP JUMPDEST STOP JUMPDEST PUSH2 0x4A8 PUSH2 0xF0E JUMP JUMPDEST PUSH2 0x4B0 PUSH2 0xF5B JUMP JUMPDEST PUSH1 0x5 SLOAD DUP2 LT ISZERO PUSH2 0x4F5 JUMPI PUSH1 0x40 MLOAD PUSH32 0x8C379A000000000000000000000000000000000000000000000000000000000 DUP2 MSTORE PUSH1 0x4 ADD PUSH2 0x4EC SWAP1 PUSH2 0x1462 JUMP JUMPDEST PUSH1 0x40 MLOAD DUP1 SWAP2 SUB SWAP1 REVERT JUMPDEST PUSH1 0x6 SLOAD DUP2 GT ISZERO PUSH2 0x53A JUMPI PUSH1 0x40 MLOAD PUSH32 0x8C379A000000000000000000000000000000000000000000000000000000000 DUP2 MSTORE PUSH1 0x4 ADD PUSH2 0x531 SWAP1 PUSH2 0x14CA JUMP JUMPDEST PUSH1 0x40 MLOAD DUP1 SWAP2 SUB SWAP1 REVERT JUMPDEST PUSH1 0x6 SLOAD PUSH2 0x58D DUP3 PUSH1 0x3 PUSH0 CALLER PUSH20 0xFFFFFFFFFFFFFFFFFFFFFFFFFFFFFFFFFFFFFFFF AND PUSH20 0xFFFFFFFFFFFFFFFFFFFFFFFFFFFFFFFFFFFFFFFF AND DUP2 MSTORE PUSH1 0x20 ADD SWAP1 DUP2 MSTORE PUSH1 0x20 ADD PUSH0 KECCAK256 SLOAD PUSH2 0xFA5 SWAP1 SWAP2 SWAP1 PUSH4 0xFFFFFFFF AND JUMP JUMPDEST GT ISZERO PUSH2 0x5CE JUMPI PUSH1 0x40 MLOAD PUSH32 0x8C379A000000000000000000000000000000000000000000000000000000000 DUP2 MSTORE PUSH1 0x4 ADD PUSH2 0x5C5 SWAP1 PUSH2 0x1532 JUMP JUMPDEST PUSH1 0x40 MLOAD DUP1 SWAP2 SUB SWAP1 REVERT JUMPDEST PUSH2 0x61E DUP2 PUSH1 0x3 PUSH0 CALLER PUSH20 0xFFFFFFFFFFFFFFFFFFFFFFFFFFFFFFFFFFFFFFFF AND PUSH20 0xFFFFFFFFFFFFFFFFFFFFFFFFFFFFFFFFFFFFFFFF AND DUP2 MSTORE PUSH1 0x20 ADD SWAP1 DUP2 MSTORE PUSH1 0x20 ADD PUSH0 KECCAK256 SLOAD PUSH2 0xFA5 SWAP1 SWAP2 SWAP1 PUSH4 0xFFFFFFFF AND JUMP JUMPDEST PUSH1 0x3 PUSH0 CALLER PUSH20 0xFFFFFFFFFFFFFFFFFFFFFFFFFFFFFFFFFFFFFFFF AND PUSH20 0xFFFFFFFFFFFFFFFFFFFFFFFFFFFFFFFFFFFFFFFF AND DUP2 MSTORE PUSH1 0x20 ADD SWAP1 DUP2 MSTORE PUSH1 0x20 ADD PUSH0 KECCAK256 DUP2 SWAP1 SSTORE POP PUSH2 0x674 DUP2 PUSH1 0x4 SLOAD PUSH2 0xFA5 SWAP1 SWAP2 SWAP1 PUSH4 0xFFFFFFFF AND JUMP JUMPDEST PUSH1 0x4 DUP2 SWAP1 SSTORE POP PUSH0 PUSH1 0x2 PUSH0 SWAP1 SLOAD SWAP1 PUSH2 0x100 EXP SWAP1 DIV PUSH20 0xFFFFFFFFFFFFFFFFFFFFFFFFFFFFFFFFFFFFFFFF AND PUSH20 0xFFFFFFFFFFFFFFFFFFFFFFFFFFFFFFFFFFFFFFFF AND DUP3 PUSH1 0x40 MLOAD PUSH2 0x6C0 SWAP1 PUSH2 0x157D JUMP JUMPDEST PUSH0 PUSH1 0x40 MLOAD DUP1 DUP4 SUB DUP2 DUP6 DUP8 GAS CALL SWAP3 POP POP POP RETURNDATASIZE DUP1 PUSH0 DUP2 EQ PUSH2 0x6FA JUMPI PUSH1 0x40 MLOAD SWAP2 POP PUSH1 0x1F NOT PUSH1 0x3F RETURNDATASIZE ADD AND DUP3 ADD PUSH1 0x40 MSTORE RETURNDATASIZE DUP3 MSTORE RETURNDATASIZE PUSH0 PUSH1 0x20 DUP5 ADD RETURNDATACOPY PUSH2 0x6FF JUMP JUMPDEST PUSH1 0x60 SWAP2 POP JUMPDEST POP POP SWAP1 POP DUP1 PUSH2 0x743 JUMPI PUSH1 0x40 MLOAD PUSH32 0x8C379A000000000000000000000000000000000000000000000000000000000 DUP2 MSTORE PUSH1 0x4 ADD PUSH2 0x73A SWAP1 PUSH2 0x1601 JUMP JUMPDEST PUSH1 0x40 MLOAD DUP1 SWAP2 SUB SWAP1 REVERT JUMPDEST CALLER PUSH20 0xFFFFFFFFFFFFFFFFFFFFFFFFFFFFFFFFFFFFFFFF AND PUSH32 0x9E71BC8EEA02A63969F509818F2DAFB9254532904319F9DBDA79B67BD34A5F3D DUP4 PUSH1 0x40 MLOAD PUSH2 0x789 SWAP2 SWAP1 PUSH2 0x12C6 JUMP JUMPDEST PUSH1 0x40 MLOAD DUP1 SWAP2 SUB SWAP1 LOG2 POP PUSH2 0x79A PUSH2 0xFBA JUMP JUMPDEST POP JUMP JUMPDEST PUSH1 0x7 SLOAD DUP2 JUMP JUMPDEST PUSH1 0x2 PUSH0 SWAP1 SLOAD SWAP1 PUSH2 0x100 EXP SWAP1 DIV PUSH20 0xFFFFFFFFFFFFFFFFFFFFFFFFFFFFFFFFFFFFFFFF AND DUP2 JUMP JUMPDEST PUSH1 0x3 PUSH1 0x20 MSTORE DUP1 PUSH0 MSTORE PUSH1 0x40 PUSH0 KECCAK256 PUSH0 SWAP2 POP SWAP1 POP SLOAD DUP2 JUMP JUMPDEST PUSH2 0x7E5 PUSH2 0xF0E JUMP JUMPDEST PUSH2 0x7ED PUSH2 0xF5B JUMP JUMPDEST DUP1 PUSH1 0x3 PUSH0 CALLER PUSH20 0xFFFFFFFFFFFFFFFFFFFFFFFFFFFFFFFFFFFFFFFF AND PUSH20 0xFFFFFFFFFFFFFFFFFFFFFFFFFFFFFFFFFFFFFFFF AND DUP2 MSTORE PUSH1 0x20 ADD SWAP1 DUP2 MSTORE PUSH1 0x20 ADD PUSH0 KECCAK256 SLOAD LT ISZERO PUSH2 0x86D JUMPI PUSH1 0x40 MLOAD PUSH32 0x8C379A000000000000000000000000000000000000000000000000000000000 DUP2 MSTORE PUSH1 0x4 ADD PUSH2 0x864 SWAP1 PUSH2 0x1669 JUMP JUMPDEST PUSH1 0x40 MLOAD DUP1 SWAP2 SUB SWAP1 REVERT JUMPDEST PUSH2 0x8BF PUSH1 0x7 SLOAD PUSH1 0x8 PUSH0 CALLER PUSH20 0xFFFFFFFFFFFFFFFFFFFFFFFFFFFFFFFFFFFFFFFF AND PUSH20 0xFFFFFFFFFFFFFFFFFFFFFFFFFFFFFFFFFFFFFFFF AND DUP2 MSTORE PUSH1 0x20 ADD SWAP1 DUP2 MSTORE PUSH1 0x20 ADD PUSH0 KECCAK256 SLOAD PUSH2 0xFA5 SWAP1 SWAP2 SWAP1 PUSH4 0xFFFFFFFF AND JUMP JUMPDEST TIMESTAMP LT ISZERO PUSH2 0x901 JUMPI PUSH1 0x40 MLOAD PUSH32 0x8C379A000000000000000000000000000000000000000000000000000000000 DUP2 MSTORE PUSH1 0x4 ADD PUSH2 0x8F8 SWAP1 PUSH2 0x16D1 JUMP JUMPDEST PUSH1 0x40 MLOAD DUP1 SWAP2 SUB SWAP1 REVERT JUMPDEST PUSH2 0x951 DUP2 PUSH1 0x3 PUSH0 CALLER PUSH20 0xFFFFFFFFFFFFFFFFFFFFFFFFFFFFFFFFFFFFFFFF AND PUSH20 0xFFFFFFFFFFFFFFFFFFFFFFFFFFFFFFFFFFFFFFFF AND DUP2 MSTORE PUSH1 0x20 ADD SWAP1 DUP2 MSTORE PUSH1 0x20 ADD PUSH0 KECCAK256 SLOAD PUSH2 0xFC3 SWAP1 SWAP2 SWAP1 PUSH4 0xFFFFFFFF AND JUMP JUMPDEST PUSH1 0x3 PUSH0 CALLER PUSH20 0xFFFFFFFFFFFFFFFFFFFFFFFFFFFFFFFFFFFFFFFF AND PUSH20 0xFFFFFFFFFFFFFFFFFFFFFFFFFFFFFFFFFFFFFFFF AND DUP2 MSTORE PUSH1 0x20 ADD SWAP1 DUP2 MSTORE PUSH1 0x20 ADD PUSH0 KECCAK256 DUP2 SWAP1 SSTORE POP PUSH2 0x9A7 DUP2 PUSH1 0x4 SLOAD PUSH2 0xFC3 SWAP1 SWAP2 SWAP1 PUSH4 0xFFFFFFFF AND JUMP JUMPDEST PUSH1 0x4 DUP2 SWAP1 SSTORE POP TIMESTAMP PUSH1 0x8 PUSH0 CALLER PUSH20 0xFFFFFFFFFFFFFFFFFFFFFFFFFFFFFFFFFFFFFFFF AND PUSH20 0xFFFFFFFFFFFFFFFFFFFFFFFFFFFFFFFFFFFFFFFF AND DUP2 MSTORE PUSH1 0x20 ADD SWAP1 DUP2 MSTORE PUSH1 0x20 ADD PUSH0 KECCAK256 DUP2 SWAP1 SSTORE POP PUSH0 CALLER PUSH20 0xFFFFFFFFFFFFFFFFFFFFFFFFFFFFFFFFFFFFFFFF AND DUP3 PUSH1 0x40 MLOAD PUSH2 0xA14 SWAP1 PUSH2 0x157D JUMP JUMPDEST PUSH0 PUSH1 0x40 MLOAD DUP1 DUP4 SUB DUP2 DUP6 DUP8 GAS CALL SWAP3 POP POP POP RETURNDATASIZE DUP1 PUSH0 DUP2 EQ PUSH2 0xA4E JUMPI PUSH1 0x40 MLOAD SWAP2 POP PUSH1 0x1F NOT PUSH1 0x3F RETURNDATASIZE ADD AND DUP3 ADD PUSH1 0x40 MSTORE RETURNDATASIZE DUP3 MSTORE RETURNDATASIZE PUSH0 PUSH1 0x20 DUP5 ADD RETURNDATACOPY PUSH2 0xA53 JUMP JUMPDEST PUSH1 0x60 SWAP2 POP JUMPDEST POP POP SWAP1 POP DUP1 PUSH2 0xA97 JUMPI PUSH1 0x40 MLOAD PUSH32 0x8C379A000000000000000000000000000000000000000000000000000000000 DUP2 MSTORE PUSH1 0x4 ADD PUSH2 0xA8E SWAP1 PUSH2 0x1739 JUMP JUMPDEST PUSH1 0x40 MLOAD DUP1 SWAP2 SUB SWAP1 REVERT JUMPDEST CALLER PUSH20 0xFFFFFFFFFFFFFFFFFFFFFFFFFFFFFFFFFFFFFFFF AND PUSH32 0x7084F5476618D8E60B11EF0D7D3F06914655ADB8793E28FF7F018D4C76D505D5 DUP4 PUSH1 0x40 MLOAD PUSH2 0xADD SWAP2 SWAP1 PUSH2 0x12C6 JUMP JUMPDEST PUSH1 0x40 MLOAD DUP1 SWAP2 SUB SWAP1 LOG2 POP PUSH2 0xAEE PUSH2 0xFBA JUMP JUMPDEST POP JUMP JUMPDEST PUSH2 0xAF9 PUSH2 0xFD8 JUMP JUMPDEST PUSH0 PUSH20 0xFFFFFFFFFFFFFFFFFFFFFFFFFFFFFFFFFFFFFFFF AND DUP2 PUSH20 0xFFFFFFFFFFFFFFFFFFFFFFFFFFFFFFFFFFFFFFFF AND SUB PUSH2 0xB67 JUMPI PUSH1 0x40 MLOAD PUSH32 0x8C379A000000000000000000000000000000000000000000000000000000000 DUP2 MSTORE PUSH1 0x4 ADD PUSH2 0xB5E SWAP1 PUSH2 0x17C7 JUMP JUMPDEST PUSH1 0x40 MLOAD DUP1 SWAP2 SUB SWAP1 REVERT JUMPDEST PUSH0 PUSH1 0x2 PUSH0 SWAP1 SLOAD SWAP1 PUSH2 0x100 EXP SWAP1 DIV PUSH20 0xFFFFFFFFFFFFFFFFFFFFFFFFFFFFFFFFFFFFFFFF AND SWAP1 POP DUP2 PUSH1 0x2 PUSH0 PUSH2 0x100 EXP DUP2 SLOAD DUP2 PUSH20 0xFFFFFFFFFFFFFFFFFFFFFFFFFFFFFFFFFFFFFFFF MUL NOT AND SWAP1 DUP4 PUSH20 0xFFFFFFFFFFFFFFFFFFFFFFFFFFFFFFFFFFFFFFFF AND MUL OR SWAP1 SSTORE POP DUP2 PUSH20 0xFFFFFFFFFFFFFFFFFFFFFFFFFFFFFFFFFFFFFFFF AND DUP2 PUSH20 0xFFFFFFFFFFFFFFFFFFFFFFFFFFFFFFFFFFFFFFFF AND PUSH32 0x6013C0FE4C1FB06EE755812E80639FCBD51C4DCFC2B46FBE17CE2BEECBACBE84 PUSH1 0x40 MLOAD PUSH1 0x40 MLOAD DUP1 SWAP2 SUB SWAP1 LOG3 POP POP JUMP JUMPDEST PUSH2 0xC32 PUSH2 0xFD8 JUMP JUMPDEST PUSH2 0xC3A PUSH2 0x105F JUMP JUMPDEST JUMP JUMPDEST PUSH1 0x8 PUSH1 0x20 MSTORE DUP1 PUSH0 MSTORE PUSH1 0x40 PUSH0 KECCAK256 PUSH0 SWAP2 POP SWAP1 POP SLOAD DUP2 JUMP JUMPDEST PUSH0 PUSH1 0x1 PUSH1 0x14 SWAP1 SLOAD SWAP1 PUSH2 0x100 EXP SWAP1 DIV PUSH1 0xFF AND SWAP1 POP SWAP1 JUMP JUMPDEST PUSH1 0x6 SLOAD DUP2 JUMP JUMPDEST PUSH2 0xC75 PUSH2 0xFD8 JUMP JUMPDEST PUSH2 0xC7E PUSH0 PUSH2 0x10C1 JUMP JUMPDEST JUMP JUMPDEST PUSH0 PUSH1 0x3 PUSH0 DUP4 PUSH20 0xFFFFFFFFFFFFFFFFFFFFFFFFFFFFFFFFFFFFFFFF AND PUSH20 0xFFFFFFFFFFFFFFFFFFFFFFFFFFFFFFFFFFFFFFFF AND DUP2 MSTORE PUSH1 0x20 ADD SWAP1 DUP2 MSTORE PUSH1 0x20 ADD PUSH0 KECCAK256 SLOAD SWAP1 POP SWAP2 SWAP1 POP JUMP JUMPDEST PUSH2 0xCCE PUSH2 0xFD8 JUMP JUMPDEST PUSH0 PUSH1 0x7 SLOAD SWAP1 POP DUP2 PUSH1 0x7 DUP2 SWAP1 SSTORE POP PUSH32 0x67A4233D292AB33774A65917CA809B4AB92953E039A7C1F71656AFBBC1BC60C9 DUP2 DUP4 PUSH1 0x40 MLOAD PUSH2 0xD0C SWAP3 SWAP2 SWAP1 PUSH2 0x17E5 JUMP JUMPDEST PUSH1 0x40 MLOAD DUP1 SWAP2 SUB SWAP1 LOG1 POP POP JUMP JUMPDEST PUSH1 0x4 SLOAD DUP2 JUMP JUMPDEST PUSH2 0xD26 PUSH2 0xFD8 JUMP JUMPDEST PUSH2 0xD2E PUSH2 0x1184 JUMP JUMPDEST JUMP JUMPDEST PUSH0 PUSH1 0x1 PUSH0 SWAP1 SLOAD SWAP1 PUSH2 0x100 EXP SWAP1 DIV PUSH20 0xFFFFFFFFFFFFFFFFFFFFFFFFFFFFFFFFFFFFFFFF AND SWAP1 POP SWAP1 JUMP JUMPDEST PUSH2 0xD60 PUSH2 0xFD8 JUMP JUMPDEST PUSH1 0x5 SLOAD DUP2 GT PUSH2 0xDA4 JUMPI PUSH1 0x40 MLOAD PUSH32 0x8C379A000000000000000000000000000000000000000000000000000000000 DUP2 MSTORE PUSH1 0x4 ADD PUSH2 0xD9B SWAP1 PUSH2 0x187C JUMP JUMPDEST PUSH1 0x40 MLOAD DUP1 SWAP2 SUB SWAP1 REVERT JUMPDEST PUSH0 PUSH1 0x6 SLOAD SWAP1 POP DUP2 PUSH1 0x6 DUP2 SWAP1 SSTORE POP PUSH32 0x7AF071D76489FF69E32618F091B5D6DE46AF889DE44F621A936E8C9615C463A9 DUP2 DUP4 PUSH1 0x40 MLOAD PUSH2 0xDE2 SWAP3 SWAP2 SWAP1 PUSH2 0x17E5 JUMP JUMPDEST PUSH1 0x40 MLOAD DUP1 SWAP2 SUB SWAP1 LOG1 POP POP JUMP JUMPDEST PUSH2 0xDF6 PUSH2 0xFD8 JUMP JUMPDEST PUSH1 0x6 SLOAD DUP2 LT PUSH2 0xE3A JUMPI PUSH1 0x40 MLOAD PUSH32 0x8C379A000000000000000000000000000000000000000000000000000000000 DUP2 MSTORE PUSH1 0x4 ADD PUSH2 0xE31 SWAP1 PUSH2 0x190A JUMP JUMPDEST PUSH1 0x40 MLOAD DUP1 SWAP2 SUB SWAP1 REVERT JUMPDEST PUSH0 PUSH1 0x5 SLOAD SWAP1 POP DUP2 PUSH1 0x5 DUP2 SWAP1 SSTORE POP PUSH32 0x3B8DCD7D08F8AA9E93D2AFC54830C8B23DB9B7264F3BC503EB5FC2A0289BC2CB DUP2 DUP4 PUSH1 0x40 MLOAD PUSH2 0xE78 SWAP3 SWAP2 SWAP1 PUSH2 0x17E5 JUMP JUMPDEST PUSH1 0x40 MLOAD DUP1 SWAP2 SUB SWAP1 LOG1 POP POP JUMP JUMPDEST PUSH1 0x5 SLOAD DUP2 JUMP JUMPDEST PUSH2 0xE92 PUSH2 0xFD8 JUMP JUMPDEST PUSH0 PUSH20 0xFFFFFFFFFFFFFFFFFFFFFFFFFFFFFFFFFFFFFFFF AND DUP2 PUSH20 0xFFFFFFFFFFFFFFFFFFFFFFFFFFFFFFFFFFFFFFFF AND SUB PUSH2 0xF02 JUMPI PUSH0 PUSH1 0x40 MLOAD PUSH32 0x1E4FBDF700000000000000000000000000000000000000000000000000000000 DUP2 MSTORE PUSH1 0x4 ADD PUSH2 0xEF9 SWAP2 SWAP1 PUSH2 0x131E JUMP JUMPDEST PUSH1 0x40 MLOAD DUP1 SWAP2 SUB SWAP1 REVERT JUMPDEST PUSH2 0xF0B DUP2 PUSH2 0x10C1 JUMP JUMPDEST POP JUMP JUMPDEST PUSH1 0x2 PUSH0 SLOAD SUB PUSH2 0xF52 JUMPI PUSH1 0x40 MLOAD PUSH32 0x8C379A000000000000000000000000000000000000000000000000000000000 DUP2 MSTORE PUSH1 0x4 ADD PUSH2 0xF49 SWAP1 PUSH2 0x1972 JUMP JUMPDEST PUSH1 0x40 MLOAD DUP1 SWAP2 SUB SWAP1 REVERT JUMPDEST PUSH1 0x2 PUSH0 DUP2 SWAP1 SSTORE POP JUMP JUMPDEST PUSH2 0xF63 PUSH2 0xC51 JUMP JUMPDEST ISZERO PUSH2 0xFA3 JUMPI PUSH1 0x40 MLOAD PUSH32 0x8C379A000000000000000000000000000000000000000000000000000000000 DUP2 MSTORE PUSH1 0x4 ADD PUSH2 0xF9A SWAP1 PUSH2 0x19DA JUMP JUMPDEST PUSH1 0x40 MLOAD DUP1 SWAP2 SUB SWAP1 REVERT JUMPDEST JUMP JUMPDEST PUSH0 DUP2 DUP4 PUSH2 0xFB2 SWAP2 SWAP1 PUSH2 0x1A25 JUMP JUMPDEST SWAP1 POP SWAP3 SWAP2 POP POP JUMP JUMPDEST PUSH1 0x1 PUSH0 DUP2 SWAP1 SSTORE POP JUMP JUMPDEST PUSH0 DUP2 DUP4 PUSH2 0xFD0 SWAP2 SWAP1 PUSH2 0x1A58 JUMP JUMPDEST SWAP1 POP SWAP3 SWAP2 POP POP JUMP JUMPDEST PUSH2 0xFE0 PUSH2 0x11E6 JUMP JUMPDEST PUSH20 0xFFFFFFFFFFFFFFFFFFFFFFFFFFFFFFFFFFFFFFFF AND PUSH2 0xFFE PUSH2 0xD30 JUMP JUMPDEST PUSH20 0xFFFFFFFFFFFFFFFFFFFFFFFFFFFFFFFFFFFFFFFF AND EQ PUSH2 0x105D JUMPI PUSH2 0x1021 PUSH2 0x11E6 JUMP JUMPDEST PUSH1 0x40 MLOAD PUSH32 0x118CDAA700000000000000000000000000000000000000000000000000000000 DUP2 MSTORE PUSH1 0x4 ADD PUSH2 0x1054 SWAP2 SWAP1 PUSH2 0x131E JUMP JUMPDEST PUSH1 0x40 MLOAD DUP1 SWAP2 SUB SWAP1 REVERT JUMPDEST JUMP JUMPDEST PUSH2 0x1067 PUSH2 0x11ED JUMP JUMPDEST PUSH0 PUSH1 0x1 PUSH1 0x14 PUSH2 0x100 EXP DUP2 SLOAD DUP2 PUSH1 0xFF MUL NOT AND SWAP1 DUP4 ISZERO ISZERO MUL OR SWAP1 SSTORE POP PUSH32 0x5DB9EE0A495BF2E6FF9C91A7834C1BA4FDD244A5E8AA4E537BD38AEAE4B073AA PUSH2 0x10AA PUSH2 0x11E6 JUMP JUMPDEST PUSH1 0x40 MLOAD PUSH2 0x10B7 SWAP2 SWAP1 PUSH2 0x131E JUMP JUMPDEST PUSH1 0x40 MLOAD DUP1 SWAP2 SUB SWAP1 LOG1 JUMP JUMPDEST PUSH0 PUSH1 0x1 PUSH0 SWAP1 SLOAD SWAP1 PUSH2 0x100 EXP SWAP1 DIV PUSH20 0xFFFFFFFFFFFFFFFFFFFFFFFFFFFFFFFFFFFFFFFF AND SWAP1 POP DUP2 PUSH1 0x1 PUSH0 PUSH2 0x100 EXP DUP2 SLOAD DUP2 PUSH20 0xFFFFFFFFFFFFFFFFFFFFFFFFFFFFFFFFFFFFFFFF MUL NOT AND SWAP1 DUP4 PUSH20 0xFFFFFFFFFFFFFFFFFFFFFFFFFFFFFFFFFFFFFFFF AND MUL OR SWAP1 SSTORE POP DUP2 PUSH20 0xFFFFFFFFFFFFFFFFFFFFFFFFFFFFFFFFFFFFFFFF AND DUP2 PUSH20 0xFFFFFFFFFFFFFFFFFFFFFFFFFFFFFFFFFFFFFFFF AND PUSH32 0x8BE0079C531659141344CD1FD0A4F28419497F9722A3DAAFE3B4186F6B6457E0 PUSH1 0x40 MLOAD PUSH1 0x40 MLOAD DUP1 SWAP2 SUB SWAP1 LOG3 POP POP JUMP JUMPDEST PUSH2 0x118C PUSH2 0xF5B JUMP JUMPDEST PUSH1 0x1 DUP1 PUSH1 0x14 PUSH2 0x100 EXP DUP2 SLOAD DUP2 PUSH1 0xFF MUL NOT AND SWAP1 DUP4 ISZERO ISZERO MUL OR SWAP1 SSTORE POP PUSH32 0x62E78CEA01BEE320CD4E420270B5EA74000D11B0C9F74754EBDBFC544B05A258 PUSH2 0x11CF PUSH2 0x11E6 JUMP JUMPDEST PUSH1 0x40 MLOAD PUSH2 0x11DC SWAP2 SWAP1 PUSH2 0x131E JUMP JUMPDEST PUSH1 0x40 MLOAD DUP1 SWAP2 SUB SWAP1 LOG1 JUMP JUMPDEST PUSH0 CALLER SWAP1 POP SWAP1 JUMP JUMPDEST PUSH2 0x11F5 PUSH2 0xC51 JUMP JUMPDEST PUSH2 0x1234 JUMPI PUSH1 0x40 MLOAD PUSH32 0x8C379A000000000000000000000000000000000000000000000000000000000 DUP2 MSTORE PUSH1 0x4 ADD PUSH2 0x122B SWAP1 PUSH2 0x1AD5 JUMP JUMPDEST PUSH1 0x40 MLOAD DUP1 SWAP2 SUB SWAP1 REVERT JUMPDEST JUMP JUMPDEST PUSH0 DUP3 DUP3 MSTORE PUSH1 0x20 DUP3 ADD SWAP1 POP SWAP3 SWAP2 POP POP JUMP JUMPDEST PUSH32 0x4D7573742073656E6420457468657220746F207374616B650000000000000000 PUSH0 DUP3 ADD MSTORE POP JUMP JUMPDEST PUSH0 PUSH2 0x127A PUSH1 0x18 DUP4 PUSH2 0x1236 JUMP JUMPDEST SWAP2 POP PUSH2 0x1285 DUP3 PUSH2 0x1246 JUMP JUMPDEST PUSH1 0x20 DUP3 ADD SWAP1 POP SWAP2 SWAP1 POP JUMP JUMPDEST PUSH0 PUSH1 0x20 DUP3 ADD SWAP1 POP DUP2 DUP2 SUB PUSH0 DUP4 ADD MSTORE PUSH2 0x12A7 DUP2 PUSH2 0x126E JUMP JUMPDEST SWAP1 POP SWAP2 SWAP1 POP JUMP JUMPDEST PUSH0 DUP2 SWAP1 POP SWAP2 SWAP1 POP JUMP JUMPDEST PUSH2 0x12C0 DUP2 PUSH2 0x12AE JUMP JUMPDEST DUP3 MSTORE POP POP JUMP JUMPDEST PUSH0 PUSH1 0x20 DUP3 ADD SWAP1 POP PUSH2 0x12D9 PUSH0 DUP4 ADD DUP5 PUSH2 0x12B7 JUMP JUMPDEST SWAP3 SWAP2 POP POP JUMP JUMPDEST PUSH0 PUSH20 0xFFFFFFFFFFFFFFFFFFFFFFFFFFFFFFFFFFFFFFFF DUP3 AND SWAP1 POP SWAP2 SWAP1 POP JUMP JUMPDEST PUSH0 PUSH2 0x1308 DUP3 PUSH2 0x12DF JUMP JUMPDEST SWAP1 POP SWAP2 SWAP1 POP JUMP JUMPDEST PUSH2 0x1318 DUP2 PUSH2 0x12FE JUMP JUMPDEST DUP3 MSTORE POP POP JUMP JUMPDEST PUSH0 PUSH1 0x20 DUP3 ADD SWAP1 POP PUSH2 0x1331 PUSH0 DUP4 ADD DUP5 PUSH2 0x130F JUMP JUMPDEST SWAP3 SWAP2 POP POP JUMP JUMPDEST PUSH0 DUP1 REVERT JUMPDEST PUSH2 0x1344 DUP2 PUSH2 0x12FE JUMP JUMPDEST DUP2 EQ PUSH2 0x134E JUMPI PUSH0 DUP1 REVERT JUMPDEST POP JUMP JUMPDEST PUSH0 DUP2 CALLDATALOAD SWAP1 POP PUSH2 0x135F DUP2 PUSH2 0x133B JUMP JUMPDEST SWAP3 SWAP2 POP POP JUMP JUMPDEST PUSH0 PUSH1 0x20 DUP3 DUP5 SUB SLT ISZERO PUSH2 0x137A JUMPI PUSH2 0x1379 PUSH2 0x1337 JUMP JUMPDEST JUMPDEST PUSH0 PUSH2 0x1387 DUP5 DUP3 DUP6 ADD PUSH2 0x1351 JUMP JUMPDEST SWAP2 POP POP SWAP3 SWAP2 POP POP JUMP JUMPDEST PUSH2 0x1399 DUP2 PUSH2 0x12AE JUMP JUMPDEST DUP2 EQ PUSH2 0x13A3 JUMPI PUSH0 DUP1 REVERT JUMPDEST POP JUMP JUMPDEST PUSH0 DUP2 CALLDATALOAD SWAP1 POP PUSH2 0x13B4 DUP2 PUSH2 0x1390 JUMP JUMPDEST SWAP3 SWAP2 POP POP JUMP JUMPDEST PUSH0 PUSH1 0x20 DUP3 DUP5 SUB SLT ISZERO PUSH2 0x13CF JUMPI PUSH2 0x13CE PUSH2 0x1337 JUMP JUMPDEST JUMPDEST PUSH0 PUSH2 0x13DC DUP5 DUP3 DUP6 ADD PUSH2 0x13A6 JUMP JUMPDEST SWAP2 POP POP SWAP3 SWAP2 POP POP JUMP JUMPDEST PUSH0 DUP2 ISZERO ISZERO SWAP1 POP SWAP2 SWAP1 POP JUMP JUMPDEST PUSH2 0x13F9 DUP2 PUSH2 0x13E5 JUMP JUMPDEST DUP3 MSTORE POP POP JUMP JUMPDEST PUSH0 PUSH1 0x20 DUP3 ADD SWAP1 POP PUSH2 0x1412 PUSH0 DUP4 ADD DUP5 PUSH2 0x13F0 JUMP JUMPDEST SWAP3 SWAP2 POP POP JUMP JUMPDEST PUSH32 0x5374616B6520616D6F756E7420746F6F206C6F77000000000000000000000000 PUSH0 DUP3 ADD MSTORE POP JUMP JUMPDEST PUSH0 PUSH2 0x144C PUSH1 0x14 DUP4 PUSH2 0x1236 JUMP JUMPDEST SWAP2 POP PUSH2 0x1457 DUP3 PUSH2 0x1418 JUMP JUMPDEST PUSH1 0x20 DUP3 ADD SWAP1 POP SWAP2 SWAP1 POP JUMP JUMPDEST PUSH0 PUSH1 0x20 DUP3 ADD SWAP1 POP DUP2 DUP2 SUB PUSH0 DUP4 ADD MSTORE PUSH2 0x1479 DUP2 PUSH2 0x1440 JUMP JUMPDEST SWAP1 POP SWAP2 SWAP1 POP JUMP JUMPDEST PUSH32 0x5374616B6520616D6F756E7420746F6F20686967680000000000000000000000 PUSH0 DUP3 ADD MSTORE POP JUMP JUMPDEST PUSH0 PUSH2 0x14B4 PUSH1 0x15 DUP4 PUSH2 0x1236 JUMP JUMPDEST SWAP2 POP PUSH2 0x14BF DUP3 PUSH2 0x1480 JUMP JUMPDEST PUSH1 0x20 DUP3 ADD SWAP1 POP SWAP2 SWAP1 POP JUMP JUMPDEST PUSH0 PUSH1 0x20 DUP3 ADD SWAP1 POP DUP2 DUP2 SUB PUSH0 DUP4 ADD MSTORE PUSH2 0x14E1 DUP2 PUSH2 0x14A8 JUMP JUMPDEST SWAP1 POP SWAP2 SWAP1 POP JUMP JUMPDEST PUSH32 0x546F74616C207374616B652065786365656473206D6178696D756D0000000000 PUSH0 DUP3 ADD MSTORE POP JUMP JUMPDEST PUSH0 PUSH2 0x151C PUSH1 0x1B DUP4 PUSH2 0x1236 JUMP JUMPDEST SWAP2 POP PUSH2 0x1527 DUP3 PUSH2 0x14E8 JUMP JUMPDEST PUSH1 0x20 DUP3 ADD SWAP1 POP SWAP2 SWAP1 POP JUMP JUMPDEST PUSH0 PUSH1 0x20 DUP3 ADD SWAP1 POP DUP2 DUP2 SUB PUSH0 DUP4 ADD MSTORE PUSH2 0x1549 DUP2 PUSH2 0x1510 JUMP JUMPDEST SWAP1 POP SWAP2 SWAP1 POP JUMP JUMPDEST PUSH0 DUP2 SWAP1 POP SWAP3 SWAP2 POP POP JUMP JUMPDEST POP JUMP JUMPDEST PUSH0 PUSH2 0x1568 PUSH0 DUP4 PUSH2 0x1550 JUMP JUMPDEST SWAP2 POP PUSH2 0x1573 DUP3 PUSH2 0x155A JUMP JUMPDEST PUSH0 DUP3 ADD SWAP1 POP SWAP2 SWAP1 POP JUMP JUMPDEST PUSH0 PUSH2 0x1587 DUP3 PUSH2 0x155D JUMP JUMPDEST SWAP2 POP DUP2 SWAP1 POP SWAP2 SWAP1 POP JUMP JUMPDEST PUSH32 0x4661696C656420746F207472616E73666572207374616B6520746F207374616B PUSH0 DUP3 ADD MSTORE PUSH32 0x696E672077616C6C657400000000000000000000000000000000000000000000 PUSH1 0x20 DUP3 ADD MSTORE POP JUMP JUMPDEST PUSH0 PUSH2 0x15EB PUSH1 0x2A DUP4 PUSH2 0x1236 JUMP JUMPDEST SWAP2 POP PUSH2 0x15F6 DUP3 PUSH2 0x1591 JUMP JUMPDEST PUSH1 0x40 DUP3 ADD SWAP1 POP SWAP2 SWAP1 POP JUMP JUMPDEST PUSH0 PUSH1 0x20 DUP3 ADD SWAP1 POP DUP2 DUP2 SUB PUSH0 DUP4 ADD MSTORE PUSH2 0x1618 DUP2 PUSH2 0x15DF JUMP JUMPDEST SWAP1 POP SWAP2 SWAP1 POP JUMP JUMPDEST PUSH32 0x496E73756666696369656E74207374616B650000000000000000000000000000 PUSH0 DUP3 ADD MSTORE POP JUMP JUMPDEST PUSH0 PUSH2 0x1653 PUSH1 0x12 DUP4 PUSH2 0x1236 JUMP JUMPDEST SWAP2 POP PUSH2 0x165E DUP3 PUSH2 0x161F JUMP JUMPDEST PUSH1 0x20 DUP3 ADD SWAP1 POP SWAP2 SWAP1 POP JUMP JUMPDEST PUSH0 PUSH1 0x20 DUP3 ADD SWAP1 POP DUP2 DUP2 SUB PUSH0 DUP4 ADD MSTORE PUSH2 0x1680 DUP2 PUSH2 0x1647 JUMP JUMPDEST SWAP1 POP SWAP2 SWAP1 POP JUMP JUMPDEST PUSH32 0x436F6F6C646F776E20706572696F64206E6F74206D6574000000000000000000 PUSH0 DUP3 ADD MSTORE POP JUMP JUMPDEST PUSH0 PUSH2 0x16BB PUSH1 0x17 DUP4 PUSH2 0x1236 JUMP JUMPDEST SWAP2 POP PUSH2 0x16C6 DUP3 PUSH2 0x1687 JUMP JUMPDEST PUSH1 0x20 DUP3 ADD SWAP1 POP SWAP2 SWAP1 POP JUMP JUMPDEST PUSH0 PUSH1 0x20 DUP3 ADD SWAP1 POP DUP2 DUP2 SUB PUSH0 DUP4 ADD MSTORE PUSH2 0x16E8 DUP2 PUSH2 0x16AF JUMP JUMPDEST SWAP1 POP SWAP2 SWAP1 POP JUMP JUMPDEST PUSH32 0x4661696C656420746F2073656E6420424E420000000000000000000000000000 PUSH0 DUP3 ADD MSTORE POP JUMP JUMPDEST PUSH0 PUSH2 0x1723 PUSH1 0x12 DUP4 PUSH2 0x1236 JUMP JUMPDEST SWAP2 POP PUSH2 0x172E DUP3 PUSH2 0x16EF JUMP JUMPDEST PUSH1 0x20 DUP3 ADD SWAP1 POP SWAP2 SWAP1 POP JUMP JUMPDEST PUSH0 PUSH1 0x20 DUP3 ADD SWAP1 POP DUP2 DUP2 SUB PUSH0 DUP4 ADD MSTORE PUSH2 0x1750 DUP2 PUSH2 0x1717 JUMP JUMPDEST SWAP1 POP SWAP2 SWAP1 POP JUMP JUMPDEST PUSH32 0x496E76616C6964206E6577207374616B696E672077616C6C6574206164647265 PUSH0 DUP3 ADD MSTORE PUSH32 0x7373000000000000000000000000000000000000000000000000000000000000 PUSH1 0x20 DUP3 ADD MSTORE POP JUMP JUMPDEST PUSH0 PUSH2 0x17B1 PUSH1 0x22 DUP4 PUSH2 0x1236 JUMP JUMPDEST SWAP2 POP PUSH2 0x17BC DUP3 PUSH2 0x1757 JUMP JUMPDEST PUSH1 0x40 DUP3 ADD SWAP1 POP SWAP2 SWAP1 POP JUMP JUMPDEST PUSH0 PUSH1 0x20 DUP3 ADD SWAP1 POP DUP2 DUP2 SUB PUSH0 DUP4 ADD MSTORE PUSH2 0x17DE DUP2 PUSH2 0x17A5 JUMP JUMPDEST SWAP1 POP SWAP2 SWAP1 POP JUMP JUMPDEST PUSH0 PUSH1 0x40 DUP3 ADD SWAP1 POP PUSH2 0x17F8 PUSH0 DUP4 ADD DUP6 PUSH2 0x12B7 JUMP JUMPDEST PUSH2 0x1805 PUSH1 0x20 DUP4 ADD DUP5 PUSH2 0x12B7 JUMP JUMPDEST SWAP4 SWAP3 POP POP POP JUMP JUMPDEST PUSH32 0x4D617820616D6F756E74206D7573742062652067726561746572207468616E20 PUSH0 DUP3 ADD MSTORE PUSH32 0x6D696E20616D6F756E7400000000000000000000000000000000000000000000 PUSH1 0x20 DUP3 ADD MSTORE POP JUMP JUMPDEST PUSH0 PUSH2 0x1866 PUSH1 0x2A DUP4 PUSH2 0x1236 JUMP JUMPDEST SWAP2 POP PUSH2 0x1871 DUP3 PUSH2 0x180C JUMP JUMPDEST PUSH1 0x40 DUP3 ADD SWAP1 POP SWAP2 SWAP1 POP JUMP JUMPDEST PUSH0 PUSH1 0x20 DUP3 ADD SWAP1 POP DUP2 DUP2 SUB PUSH0 DUP4 ADD MSTORE PUSH2 0x1893 DUP2 PUSH2 0x185A JUMP JUMPDEST SWAP1 POP SWAP2 SWAP1 POP JUMP JUMPDEST PUSH32 0x4D696E20616D6F756E74206D757374206265206C657373207468616E206D6178 PUSH0 DUP3 ADD MSTORE PUSH32 0x20616D6F756E7400000000000000000000000000000000000000000000000000 PUSH1 0x20 DUP3 ADD MSTORE POP JUMP JUMPDEST PUSH0 PUSH2 0x18F4 PUSH1 0x27 DUP4 PUSH2 0x1236 JUMP JUMPDEST SWAP2 POP PUSH2 0x18FF DUP3 PUSH2 0x189A JUMP JUMPDEST PUSH1 0x40 DUP3 ADD SWAP1 POP SWAP2 SWAP1 POP JUMP JUMPDEST PUSH0 PUSH1 0x20 DUP3 ADD SWAP1 POP DUP2 DUP2 SUB PUSH0 DUP4 ADD MSTORE PUSH2 0x1921 DUP2 PUSH2 0x18E8 JUMP JUMPDEST SWAP1 POP SWAP2 SWAP1 POP JUMP JUMPDEST PUSH32 0x5265656E7472616E637947756172643A207265656E7472616E742063616C6C00 PUSH0 DUP3 ADD MSTORE POP JUMP JUMPDEST PUSH0 PUSH2 0x195C PUSH1 0x1F DUP4 PUSH2 0x1236 JUMP JUMPDEST SWAP2 POP PUSH2 0x1967 DUP3 PUSH2 0x1928 JUMP JUMPDEST PUSH1 0x20 DUP3 ADD SWAP1 POP SWAP2 SWAP1 POP JUMP JUMPDEST PUSH0 PUSH1 0x20 DUP3 ADD SWAP1 POP DUP2 DUP2 SUB PUSH0 DUP4 ADD MSTORE PUSH2 0x1989 DUP2 PUSH2 0x1950 JUMP JUMPDEST SWAP1 POP SWAP2 SWAP1 POP JUMP JUMPDEST PUSH32 0x5061757361626C653A2070617573656400000000000000000000000000000000 PUSH0 DUP3 ADD MSTORE POP JUMP JUMPDEST PUSH0 PUSH2 0x19C4 PUSH1 0x10 DUP4 PUSH2 0x1236 JUMP JUMPDEST SWAP2 POP PUSH2 0x19CF DUP3 PUSH2 0x1990 JUMP JUMPDEST PUSH1 0x20 DUP3 ADD SWAP1 POP SWAP2 SWAP1 POP JUMP JUMPDEST PUSH0 PUSH1 0x20 DUP3 ADD SWAP1 POP DUP2 DUP2 SUB PUSH0 DUP4 ADD MSTORE PUSH2 0x19F1 DUP2 PUSH2 0x19B8 JUMP JUMPDEST SWAP1 POP SWAP2 SWAP1 POP JUMP JUMPDEST PUSH32 0x4E487B7100000000000000000000000000000000000000000000000000000000 PUSH0 MSTORE PUSH1 0x11 PUSH1 0x4 MSTORE PUSH1 0x24 PUSH0 REVERT JUMPDEST PUSH0 PUSH2 0x1A2F DUP3 PUSH2 0x12AE JUMP JUMPDEST SWAP2 POP PUSH2 0x1A3A DUP4 PUSH2 0x12AE JUMP JUMPDEST SWAP3 POP DUP3 DUP3 ADD SWAP1 POP DUP1 DUP3 GT ISZERO PUSH2 0x1A52 JUMPI PUSH2 0x1A51 PUSH2 0x19F8 JUMP JUMPDEST JUMPDEST SWAP3 SWAP2 POP POP JUMP JUMPDEST PUSH0 PUSH2 0x1A62 DUP3 PUSH2 0x12AE JUMP JUMPDEST SWAP2 POP PUSH2 0x1A6D DUP4 PUSH2 0x12AE JUMP JUMPDEST SWAP3 POP DUP3 DUP3 SUB SWAP1 POP DUP2 DUP2 GT ISZERO PUSH2 0x1A85 JUMPI PUSH2 0x1A84 PUSH2 0x19F8 JUMP JUMPDEST JUMPDEST SWAP3 SWAP2 POP POP JUMP JUMPDEST PUSH32 0x5061757361626C653A206E6F7420706175736564000000000000000000000000 PUSH0 DUP3 ADD MSTORE POP JUMP JUMPDEST PUSH0 PUSH2 0x1ABF PUSH1 0x14 DUP4 PUSH2 0x1236 JUMP JUMPDEST SWAP2 POP PUSH2 0x1ACA DUP3 PUSH2 0x1A8B JUMP JUMPDEST PUSH1 0x20 DUP3 ADD SWAP1 POP SWAP2 SWAP1 POP JUMP JUMPDEST PUSH0 PUSH1 0x20 DUP3 ADD SWAP1 POP DUP2 DUP2 SUB PUSH0 DUP4 ADD MSTORE PUSH2 0x1AEC DUP2 PUSH2 0x1AB3 JUMP JUMPDEST SWAP1 POP SWAP2 SWAP1 POP JUMP INVALID LOG2 PUSH5 0x6970667358 0x22 SLT KECCAK256 0x26 PUSH15 0x7A8CEF0ECB3B70E215BC696B07DB08 SLT 0xF8 PUSH20 0x27F5C2D068425541CF39BD7E64736F6C63430008 BYTE STOP CALLER "
				},
				"gasEstimates": {
					"creation": {
						"codeDepositCost": "1390600",
						"executionCost": "infinite",
						"totalCost": "infinite"
					},
					"external": {
						"changeStakingWallet(address)": "infinite",
						"cooldownPeriod()": "2449",
						"getStake(address)": "2852",
						"lastWithdrawalTime(address)": "2847",
						"maxStakeAmount()": "2514",
						"minStakeAmount()": "2513",
						"owner()": "2626",
						"pause()": "infinite",
						"paused()": "2591",
						"renounceOwnership()": "infinite",
						"setCooldownPeriod(uint256)": "infinite",
						"setMaxStakeAmount(uint256)": "infinite",
						"setMinStakeAmount(uint256)": "infinite",
						"stake(uint256)": "infinite",
						"stakes(address)": "2870",
						"stakingWallet()": "2554",
						"totalStaked()": "2492",
						"transferOwnership(address)": "infinite",
						"unpause()": "infinite",
						"withdraw(uint256)": "infinite"
					}
				},
				"methodIdentifiers": {
					"changeStakingWallet(address)": "384c05bd",
					"cooldownPeriod()": "04646a49",
					"getStake(address)": "7a766460",
					"lastWithdrawalTime(address)": "4de5120e",
					"maxStakeAmount()": "5d80ca32",
					"minStakeAmount()": "f1887684",
					"owner()": "8da5cb5b",
					"pause()": "8456cb59",
					"paused()": "5c975abb",
					"renounceOwnership()": "715018a6",
					"setCooldownPeriod(uint256)": "80ea3de1",
					"setMaxStakeAmount(uint256)": "dcc2a55e",
					"setMinStakeAmount(uint256)": "eb4af045",
					"stake(uint256)": "a694fc3a",
					"stakes(address)": "16934fc4",
					"stakingWallet()": "06ee6ad8",
					"totalStaked()": "817b1cd2",
					"transferOwnership(address)": "f2fde38b",
					"unpause()": "3f4ba83a",
					"withdraw(uint256)": "2e1a7d4d"
				}
			},
			"storageLayout": {
				"storage": [
					{
						"astId": 266,
						"contract": "EnhancedStaking.sol:EnhancedStaking",
						"label": "_status",
						"offset": 0,
						"slot": "0",
						"type": "t_uint256"
					},
					{
						"astId": 8,
						"contract": "EnhancedStaking.sol:EnhancedStaking",
						"label": "_owner",
						"offset": 0,
						"slot": "1",
						"type": "t_address"
					},
					{
						"astId": 165,
						"contract": "EnhancedStaking.sol:EnhancedStaking",
						"label": "_paused",
						"offset": 20,
						"slot": "1",
						"type": "t_bool"
					},
					{
						"astId": 679,
						"contract": "EnhancedStaking.sol:EnhancedStaking",
						"label": "stakingWallet",
						"offset": 0,
						"slot": "2",
						"type": "t_address"
					},
					{
						"astId": 683,
						"contract": "EnhancedStaking.sol:EnhancedStaking",
						"label": "stakes",
						"offset": 0,
						"slot": "3",
						"type": "t_mapping(t_address,t_uint256)"
					},
					{
						"astId": 685,
						"contract": "EnhancedStaking.sol:EnhancedStaking",
						"label": "totalStaked",
						"offset": 0,
						"slot": "4",
						"type": "t_uint256"
					},
					{
						"astId": 687,
						"contract": "EnhancedStaking.sol:EnhancedStaking",
						"label": "minStakeAmount",
						"offset": 0,
						"slot": "5",
						"type": "t_uint256"
					},
					{
						"astId": 689,
						"contract": "EnhancedStaking.sol:EnhancedStaking",
						"label": "maxStakeAmount",
						"offset": 0,
						"slot": "6",
						"type": "t_uint256"
					},
					{
						"astId": 691,
						"contract": "EnhancedStaking.sol:EnhancedStaking",
						"label": "cooldownPeriod",
						"offset": 0,
						"slot": "7",
						"type": "t_uint256"
					},
					{
						"astId": 695,
						"contract": "EnhancedStaking.sol:EnhancedStaking",
						"label": "lastWithdrawalTime",
						"offset": 0,
						"slot": "8",
						"type": "t_mapping(t_address,t_uint256)"
					}
				],
				"types": {
					"t_address": {
						"encoding": "inplace",
						"label": "address",
						"numberOfBytes": "20"
					},
					"t_bool": {
						"encoding": "inplace",
						"label": "bool",
						"numberOfBytes": "1"
					},
					"t_mapping(t_address,t_uint256)": {
						"encoding": "mapping",
						"key": "t_address",
						"label": "mapping(address => uint256)",
						"numberOfBytes": "32",
						"value": "t_uint256"
					},
					"t_uint256": {
						"encoding": "inplace",
						"label": "uint256",
						"numberOfBytes": "32"
					}
				}
			},
			"userdoc": {
				"kind": "user",
				"methods": {},
				"version": 1
			}
		}
	}
}